{
  "_format": "hh-sol-artifact-1",
  "contractName": "SeparatePool",
  "sourceName": "contracts/separate-pool/SeparatePool.sol",
  "abi": [
    {
      "inputs": [
        {
          "internalType": "address",
          "name": "_nftAddress",
          "type": "address"
        },
        {
          "internalType": "address",
          "name": "_incomeMaker",
          "type": "address"
        },
        {
          "internalType": "address",
          "name": "_fur",
          "type": "address"
        },
        {
          "internalType": "address",
          "name": "_owner",
          "type": "address"
        },
        {
          "internalType": "string",
          "name": "_tokenName",
          "type": "string"
        },
        {
          "internalType": "string",
          "name": "_tokenSymbol",
          "type": "string"
        }
      ],
      "stateMutability": "nonpayable",
      "type": "constructor"
    },
    {
      "anonymous": false,
      "inputs": [
        {
          "indexed": true,
          "internalType": "address",
          "name": "owner",
          "type": "address"
        },
        {
          "indexed": true,
          "internalType": "address",
          "name": "spender",
          "type": "address"
        },
        {
          "indexed": false,
          "internalType": "uint256",
          "name": "value",
          "type": "uint256"
        }
      ],
      "name": "Approval",
      "type": "event"
    },
    {
      "anonymous": false,
      "inputs": [
        {
          "indexed": true,
          "internalType": "bytes32",
          "name": "fId",
          "type": "bytes32"
        },
        {
          "indexed": true,
          "internalType": "address",
          "name": "buyer",
          "type": "address"
        }
      ],
      "name": "BoughtNFT",
      "type": "event"
    },
    {
      "anonymous": false,
      "inputs": [
        {
          "indexed": true,
          "internalType": "bytes32",
          "name": "fId",
          "type": "bytes32"
        },
        {
          "indexed": true,
          "internalType": "address",
          "name": "locker",
          "type": "address"
        },
        {
          "indexed": false,
          "internalType": "uint256",
          "name": "timeOfLock",
          "type": "uint256"
        },
        {
          "indexed": false,
          "internalType": "uint256",
          "name": "expiryTime",
          "type": "uint256"
        }
      ],
      "name": "LockedNFT",
      "type": "event"
    },
    {
      "anonymous": false,
      "inputs": [
        {
          "indexed": false,
          "internalType": "address",
          "name": "oldOwner",
          "type": "address"
        },
        {
          "indexed": false,
          "internalType": "address",
          "name": "newOwner",
          "type": "address"
        }
      ],
      "name": "OwnerChanged",
      "type": "event"
    },
    {
      "anonymous": false,
      "inputs": [
        {
          "indexed": true,
          "internalType": "bytes32",
          "name": "fId",
          "type": "bytes32"
        },
        {
          "indexed": true,
          "internalType": "address",
          "name": "redeemer",
          "type": "address"
        }
      ],
      "name": "RedeemedNFT",
      "type": "event"
    },
    {
      "anonymous": false,
      "inputs": [
        {
          "indexed": true,
          "internalType": "bytes32",
          "name": "fId",
          "type": "bytes32"
        }
      ],
      "name": "ReleasedNFT",
      "type": "event"
    },
    {
      "anonymous": false,
      "inputs": [
        {
          "indexed": true,
          "internalType": "bytes32",
          "name": "fId",
          "type": "bytes32"
        },
        {
          "indexed": true,
          "internalType": "address",
          "name": "seller",
          "type": "address"
        }
      ],
      "name": "SoldNFT",
      "type": "event"
    },
    {
      "anonymous": false,
      "inputs": [
        {
          "indexed": true,
          "internalType": "address",
          "name": "from",
          "type": "address"
        },
        {
          "indexed": true,
          "internalType": "address",
          "name": "to",
          "type": "address"
        },
        {
          "indexed": false,
          "internalType": "uint256",
          "name": "value",
          "type": "uint256"
        }
      ],
      "name": "Transfer",
      "type": "event"
    },
    {
      "inputs": [],
      "name": "DOMAIN_SEPARATOR",
      "outputs": [
        {
          "internalType": "bytes32",
          "name": "",
          "type": "bytes32"
        }
      ],
      "stateMutability": "view",
      "type": "function"
    },
    {
      "inputs": [],
      "name": "LOCK_MINT_AMOUNT",
      "outputs": [
        {
          "internalType": "uint256",
          "name": "",
          "type": "uint256"
        }
      ],
      "stateMutability": "view",
      "type": "function"
    },
    {
      "inputs": [],
      "name": "RELEASE_MINT_AMOUNT",
      "outputs": [
        {
          "internalType": "uint256",
          "name": "",
          "type": "uint256"
        }
      ],
      "stateMutability": "view",
      "type": "function"
    },
    {
      "inputs": [],
      "name": "SWAP_MINT_AMOUNT",
      "outputs": [
        {
          "internalType": "uint256",
          "name": "",
          "type": "uint256"
        }
      ],
      "stateMutability": "view",
      "type": "function"
    },
    {
      "inputs": [
        {
          "internalType": "address",
          "name": "owner",
          "type": "address"
        },
        {
          "internalType": "address",
          "name": "spender",
          "type": "address"
        }
      ],
      "name": "allowance",
      "outputs": [
        {
          "internalType": "uint256",
          "name": "",
          "type": "uint256"
        }
      ],
      "stateMutability": "view",
      "type": "function"
    },
    {
      "inputs": [
        {
          "internalType": "address",
          "name": "spender",
          "type": "address"
        },
        {
          "internalType": "uint256",
          "name": "amount",
          "type": "uint256"
        }
      ],
      "name": "approve",
      "outputs": [
        {
          "internalType": "bool",
          "name": "",
          "type": "bool"
        }
      ],
      "stateMutability": "nonpayable",
      "type": "function"
    },
    {
      "inputs": [
        {
          "internalType": "address",
          "name": "account",
          "type": "address"
        }
      ],
      "name": "balanceOf",
      "outputs": [
        {
          "internalType": "uint256",
          "name": "",
          "type": "uint256"
        }
      ],
      "stateMutability": "view",
      "type": "function"
    },
    {
      "inputs": [
        {
          "internalType": "uint256",
          "name": "_id",
          "type": "uint256"
        }
      ],
      "name": "buy",
      "outputs": [],
      "stateMutability": "nonpayable",
      "type": "function"
    },
    {
      "inputs": [
        {
          "internalType": "uint256[]",
          "name": "_ids",
          "type": "uint256[]"
        }
      ],
      "name": "buyBatch",
      "outputs": [],
      "stateMutability": "nonpayable",
      "type": "function"
    },
    {
      "inputs": [
        {
          "internalType": "address",
          "name": "_newOwner",
          "type": "address"
        }
      ],
      "name": "changeOwner",
      "outputs": [],
      "stateMutability": "nonpayable",
      "type": "function"
    },
    {
      "inputs": [],
      "name": "decimals",
      "outputs": [
        {
          "internalType": "uint8",
          "name": "",
          "type": "uint8"
        }
      ],
      "stateMutability": "view",
      "type": "function"
    },
    {
      "inputs": [
        {
          "internalType": "address",
          "name": "spender",
          "type": "address"
        },
        {
          "internalType": "uint256",
          "name": "subtractedValue",
          "type": "uint256"
        }
      ],
      "name": "decreaseAllowance",
      "outputs": [
        {
          "internalType": "bool",
          "name": "",
          "type": "bool"
        }
      ],
      "stateMutability": "nonpayable",
      "type": "function"
    },
    {
      "inputs": [],
      "name": "factory",
      "outputs": [
        {
          "internalType": "address",
          "name": "",
          "type": "address"
        }
      ],
      "stateMutability": "view",
      "type": "function"
    },
    {
      "inputs": [
        {
          "internalType": "uint256",
          "name": "_id",
          "type": "uint256"
        }
      ],
      "name": "getFurionId",
      "outputs": [
        {
          "internalType": "bytes32",
          "name": "",
          "type": "bytes32"
        }
      ],
      "stateMutability": "view",
      "type": "function"
    },
    {
      "inputs": [
        {
          "internalType": "uint256",
          "name": "_id",
          "type": "uint256"
        }
      ],
      "name": "getLockInfo",
      "outputs": [
        {
          "components": [
            {
              "internalType": "address",
              "name": "locker",
              "type": "address"
            },
            {
              "internalType": "bool",
              "name": "extended",
              "type": "bool"
            },
            {
              "internalType": "uint256",
              "name": "releaseTime",
              "type": "uint256"
            }
          ],
          "internalType": "struct SeparatePool.LockInfo",
          "name": "",
          "type": "tuple"
        }
      ],
      "stateMutability": "view",
      "type": "function"
    },
    {
      "inputs": [
        {
          "internalType": "uint256",
          "name": "",
          "type": "uint256"
        }
      ],
      "name": "inPool",
      "outputs": [
        {
          "internalType": "uint16",
          "name": "",
          "type": "uint16"
        }
      ],
      "stateMutability": "view",
      "type": "function"
    },
    {
      "inputs": [],
      "name": "incomeMaker",
      "outputs": [
        {
          "internalType": "address",
          "name": "",
          "type": "address"
        }
      ],
      "stateMutability": "view",
      "type": "function"
    },
    {
      "inputs": [
        {
          "internalType": "address",
          "name": "spender",
          "type": "address"
        },
        {
          "internalType": "uint256",
          "name": "addedValue",
          "type": "uint256"
        }
      ],
      "name": "increaseAllowance",
      "outputs": [
        {
          "internalType": "bool",
          "name": "",
          "type": "bool"
        }
      ],
      "stateMutability": "nonpayable",
      "type": "function"
    },
    {
      "inputs": [
        {
          "internalType": "uint256",
          "name": "_id",
          "type": "uint256"
        }
      ],
      "name": "lock",
      "outputs": [],
      "stateMutability": "nonpayable",
      "type": "function"
    },
    {
      "inputs": [
        {
          "internalType": "uint256[]",
          "name": "_ids",
          "type": "uint256[]"
        }
      ],
      "name": "lockBatch",
      "outputs": [],
      "stateMutability": "nonpayable",
      "type": "function"
    },
    {
      "inputs": [
        {
          "internalType": "bytes32",
          "name": "",
          "type": "bytes32"
        }
      ],
      "name": "lockInfo",
      "outputs": [
        {
          "internalType": "address",
          "name": "locker",
          "type": "address"
        },
        {
          "internalType": "bool",
          "name": "extended",
          "type": "bool"
        },
        {
          "internalType": "uint256",
          "name": "releaseTime",
          "type": "uint256"
        }
      ],
      "stateMutability": "view",
      "type": "function"
    },
    {
      "inputs": [],
      "name": "name",
      "outputs": [
        {
          "internalType": "string",
          "name": "",
          "type": "string"
        }
      ],
      "stateMutability": "view",
      "type": "function"
    },
    {
      "inputs": [],
      "name": "nft",
      "outputs": [
        {
          "internalType": "address",
          "name": "",
          "type": "address"
        }
      ],
      "stateMutability": "view",
      "type": "function"
    },
    {
      "inputs": [
        {
          "internalType": "address",
          "name": "owner",
          "type": "address"
        }
      ],
      "name": "nonces",
      "outputs": [
        {
          "internalType": "uint256",
          "name": "",
          "type": "uint256"
        }
      ],
      "stateMutability": "view",
      "type": "function"
    },
    {
      "inputs": [
        {
          "internalType": "address",
          "name": "",
          "type": "address"
        },
        {
          "internalType": "address",
          "name": "",
          "type": "address"
        },
        {
          "internalType": "uint256",
          "name": "",
          "type": "uint256"
        },
        {
          "internalType": "bytes",
          "name": "",
          "type": "bytes"
        }
      ],
      "name": "onERC721Received",
      "outputs": [
        {
          "internalType": "bytes4",
          "name": "",
          "type": "bytes4"
        }
      ],
      "stateMutability": "pure",
      "type": "function"
    },
    {
      "inputs": [],
      "name": "owner",
      "outputs": [
        {
          "internalType": "address",
          "name": "",
          "type": "address"
        }
      ],
      "stateMutability": "view",
      "type": "function"
    },
    {
      "inputs": [
        {
          "internalType": "uint256",
          "name": "_id",
          "type": "uint256"
        }
      ],
      "name": "payFee",
      "outputs": [],
      "stateMutability": "nonpayable",
      "type": "function"
    },
    {
      "inputs": [
        {
          "internalType": "address",
          "name": "owner",
          "type": "address"
        },
        {
          "internalType": "address",
          "name": "spender",
          "type": "address"
        },
        {
          "internalType": "uint256",
          "name": "value",
          "type": "uint256"
        },
        {
          "internalType": "uint256",
          "name": "deadline",
          "type": "uint256"
        },
        {
          "internalType": "uint8",
          "name": "v",
          "type": "uint8"
        },
        {
          "internalType": "bytes32",
          "name": "r",
          "type": "bytes32"
        },
        {
          "internalType": "bytes32",
          "name": "s",
          "type": "bytes32"
        }
      ],
      "name": "permit",
      "outputs": [],
      "stateMutability": "nonpayable",
      "type": "function"
    },
    {
      "inputs": [
        {
          "internalType": "uint256",
          "name": "_id",
          "type": "uint256"
        }
      ],
      "name": "redeem",
      "outputs": [],
      "stateMutability": "nonpayable",
      "type": "function"
    },
    {
      "inputs": [
        {
          "internalType": "uint256",
          "name": "_id",
          "type": "uint256"
        }
      ],
      "name": "release",
      "outputs": [],
      "stateMutability": "nonpayable",
      "type": "function"
    },
    {
      "inputs": [
        {
          "internalType": "uint256",
          "name": "_id",
          "type": "uint256"
        }
      ],
      "name": "sell",
      "outputs": [],
      "stateMutability": "nonpayable",
      "type": "function"
    },
    {
      "inputs": [
        {
          "internalType": "uint256[]",
          "name": "_ids",
          "type": "uint256[]"
        }
      ],
      "name": "sellBatch",
      "outputs": [],
      "stateMutability": "nonpayable",
      "type": "function"
    },
    {
      "inputs": [
        {
          "internalType": "uint128",
          "name": "_newFee",
          "type": "uint128"
        }
      ],
      "name": "setBuyFee",
      "outputs": [],
      "stateMutability": "nonpayable",
      "type": "function"
    },
    {
      "inputs": [
        {
          "internalType": "uint128",
          "name": "_newFee",
          "type": "uint128"
        }
      ],
      "name": "setLockFee",
      "outputs": [],
      "stateMutability": "nonpayable",
      "type": "function"
    },
    {
      "inputs": [],
      "name": "symbol",
      "outputs": [
        {
          "internalType": "string",
          "name": "",
          "type": "string"
        }
      ],
      "stateMutability": "view",
      "type": "function"
    },
    {
      "inputs": [],
      "name": "totalSupply",
      "outputs": [
        {
          "internalType": "uint256",
          "name": "",
          "type": "uint256"
        }
      ],
      "stateMutability": "view",
      "type": "function"
    },
    {
      "inputs": [
        {
          "internalType": "address",
          "name": "to",
          "type": "address"
        },
        {
          "internalType": "uint256",
          "name": "amount",
          "type": "uint256"
        }
      ],
      "name": "transfer",
      "outputs": [
        {
          "internalType": "bool",
          "name": "",
          "type": "bool"
        }
      ],
      "stateMutability": "nonpayable",
      "type": "function"
    },
    {
      "inputs": [
        {
          "internalType": "address",
          "name": "from",
          "type": "address"
        },
        {
          "internalType": "address",
          "name": "to",
          "type": "address"
        },
        {
          "internalType": "uint256",
          "name": "amount",
          "type": "uint256"
        }
      ],
      "name": "transferFrom",
      "outputs": [
        {
          "internalType": "bool",
          "name": "",
          "type": "bool"
        }
      ],
      "stateMutability": "nonpayable",
      "type": "function"
    }
  ],
  "bytecode": "0x6101a060405268056bc75e2d63100000600955680821ab0d4414980000600a553480156200002c57600080fd5b50604051620034b3380380620034b38339810160408190526200004f9162000309565b8180604051806040016040528060018152602001603160f81b815250848481600390805190602001906200008592919062000179565b5080516200009b90600490602084019062000179565b5050825160208085019190912083518483012060e08290526101008190524660a0818152604080517f8b73c3c69bb8fe3d512ecc4cf759cc79239f7b179b0ffacaa9a75d522b39400f81880181905281830187905260608201869052608082019490945230818401528151808203909301835260c0019052805194019390932091935091906080523060c0526101205250503361014052505050506001600160a01b03938416610180525092821661016052600780549183166001600160a01b031992831617905560088054939092169216919091179055620003f9565b8280546200018790620003bd565b90600052602060002090601f016020900481019282620001ab5760008555620001f6565b82601f10620001c657805160ff1916838001178555620001f6565b82800160010185558215620001f6579182015b82811115620001f6578251825591602001919060010190620001d9565b506200020492915062000208565b5090565b5b8082111562000204576000815560010162000209565b80516001600160a01b03811681146200023757600080fd5b919050565b634e487b7160e01b600052604160045260246000fd5b600082601f8301126200026457600080fd5b81516001600160401b03808211156200028157620002816200023c565b604051601f8301601f19908116603f01168101908282118183101715620002ac57620002ac6200023c565b81604052838152602092508683858801011115620002c957600080fd5b600091505b83821015620002ed5785820183015181830184015290820190620002ce565b83821115620002ff5760008385830101525b9695505050505050565b60008060008060008060c087890312156200032357600080fd5b6200032e876200021f565b95506200033e602088016200021f565b94506200034e604088016200021f565b93506200035e606088016200021f565b60808801519093506001600160401b03808211156200037c57600080fd5b6200038a8a838b0162000252565b935060a0890151915080821115620003a157600080fd5b50620003b089828a0162000252565b9150509295509295509295565b600181811c90821680620003d257607f821691505b602082108103620003f357634e487b7160e01b600052602260045260246000fd5b50919050565b60805160a05160c05160e0516101005161012051610140516101605161018051612fe0620004d3600039600081816104de0152818161081601528181610ad30152818161109901528181611227015281816118870152611fd80152600081816103a30152818161146801528181612150015281816121e2015281816122b0015281816123ca01528181612459015281816124d801526126760152600081816105670152610d6201526000611db101526000611e0001526000611ddb01526000611d3401526000611d5e01526000611d880152612fe06000f3fe608060405234801561001057600080fd5b50600436106102925760003560e01c8063a6f9dae111610160578063d4257fa2116100d8578063dd4670641161008c578063e1b044b911610071578063e1b044b914610687578063e4849b3214610697578063f03871df146106aa57600080fd5b8063dd4670641461063b578063dd62ed3e1461064e57600080fd5b8063d96a094a116100bd578063d96a094a14610602578063d99f695614610615578063db006a751461062857600080fd5b8063d4257fa2146105dc578063d505accf146105ef57600080fd5b8063be1bd3311161012f578063c45a015511610114578063c45a015514610562578063c9102afd14610589578063d289ade2146105c957600080fd5b8063be1bd331146104d9578063c14a68361461050057600080fd5b8063a6f9dae11461047d578063a9059cbb14610490578063a9cee934146104a3578063b2024ff8146104b357600080fd5b8063395093511161020e57806386a976cf116101c257806395d89b41116101a757806395d89b4114610452578063a3d2d7861461045a578063a457c2d71461046a57600080fd5b806386a976cf1461042c5780638da5cb5b1461043f57600080fd5b8063639316c7116101f3578063639316c7146103dd57806370a08231146103f05780637ecebe001461041957600080fd5b8063395093511461038b57806347ccca021461039e57600080fd5b806318160ddd11610265578063313ce5671161024a578063313ce567146103615780633644e5151461037057806337bdc99b1461037857600080fd5b806318160ddd1461033c57806323b872dd1461034e57600080fd5b806306fdde0314610297578063095ea7b3146102b5578063103bbd4a146102d8578063150b7a02146102ed575b600080fd5b61029f6106bd565b6040516102ac9190612b5f565b60405180910390f35b6102c86102c3366004612ba7565b61074f565b60405190151581526020016102ac565b6102eb6102e6366004612bd3565b610767565b005b61030b6102fb366004612c5e565b630a85bd0160e11b949350505050565b6040517fffffffff0000000000000000000000000000000000000000000000000000000090911681526020016102ac565b6002545b6040519081526020016102ac565b6102c861035c366004612d3e565b6108de565b604051601281526020016102ac565b610340610902565b6102eb610386366004612d7f565b610911565b6102c8610399366004612ba7565b610b45565b6103c57f000000000000000000000000000000000000000000000000000000000000000081565b6040516001600160a01b0390911681526020016102ac565b6102eb6103eb366004612d98565b610b84565b6103406103fe366004612dd1565b6001600160a01b031660009081526020819052604090205490565b610340610427366004612dd1565b610c01565b6102eb61043a366004612d98565b610c21565b6008546103c5906001600160a01b031681565b61029f610c9e565b610340681b1ae4d6e2ef50000081565b6102c8610478366004612ba7565b610cad565b6102eb61048b366004612dd1565b610d57565b6102c861049e366004612ba7565b610e49565b610340680ad78ebc5ac620000081565b6104c66104c1366004612d7f565b610e57565b60405161ffff90911681526020016102ac565b6103c57f000000000000000000000000000000000000000000000000000000000000000081565b61053d61050e366004612d7f565b600b60205260009081526040902080546001909101546001600160a01b03821691600160a01b900460ff169083565b604080516001600160a01b0390941684529115156020840152908201526060016102ac565b6103c57f000000000000000000000000000000000000000000000000000000000000000081565b61059c610597366004612d7f565b610e8f565b6040805182516001600160a01b0316815260208084015115159082015291810151908201526060016102ac565b6102eb6105d7366004612d7f565b610f02565b6102eb6105ea366004612bd3565b611171565b6102eb6105fd366004612dee565b6112e3565b6102eb610610366004612d7f565b611447565b610340610623366004612d7f565b611455565b6102eb610636366004612d7f565b6114ba565b6102eb610649366004612d7f565b611651565b61034061065c366004612e65565b6001600160a01b03918216600090815260016020908152604080832093909416825291909152205490565b610340683635c9adc5dea0000081565b6102eb6106a5366004612d7f565b61165c565b6102eb6106b8366004612bd3565b611667565b6060600380546106cc90612e9e565b80601f01602080910402602001604051908101604052809291908181526020018280546106f890612e9e565b80156107455780601f1061071a57610100808354040283529160200191610745565b820191906000526020600020905b81548152906001019060200180831161072857829003601f168201915b5050505050905090565b60003361075d818585611731565b5060019392505050565b80600a81106107cf5760405162461bcd60e51b815260206004820152602960248201527f5365706172617465506f6f6c3a2043616e206f6e6c79206275792039204e465460448201526873206174206f6e636560b81b60648201526084015b60405180910390fd5b60006107e482681b1ae4d6e2ef500000612ee8565b90506000826009546107f69190612ee8565b6007546040516323b872dd60e01b81523360048201526001600160a01b037f000000000000000000000000000000000000000000000000000000000000000081166024830152604482018490529293509116906323b872dd906064016020604051808303816000875af1158015610871573d6000803e3d6000fd5b505050506040513d601f19601f820116820180604052508101906108959190612f07565b5060005b838110156108cc576108c48686838181106108b6576108b6612f29565b905060200201356000611855565b600101610899565b506108d733836119b9565b5050505050565b6000336108ec858285611a98565b6108f7858585611b2a565b506001949350505050565b600061090c611d27565b905090565b6008546001600160a01b031633146109775760405162461bcd60e51b8152602060048201526024808201527f5365706172617465506f6f6c3a204e6f74207065726d697474656420746f206360448201526330b6361760e11b60648201526084016107c6565b80600061098382611455565b6000818152600b60205260409020549091506001600160a01b03166109ea5760405162461bcd60e51b815260206004820181905260248201527f5365706172617465506f6f6c3a204e4654206973206e6f74206c6f636b65642e60448201526064016107c6565b6000818152600b60205260409020600101544211610a705760405162461bcd60e51b815260206004820152602b60248201527f5365706172617465506f6f6c3a2052656c656173652074696d65206e6f74207960448201527f657420726561636865642e00000000000000000000000000000000000000000060648201526084016107c6565b6000610a7b84611455565b6000818152600b60205260408120805474ffffffffffffffffffffffffffffffffffffffffff19811682556001909101919091559091506001600160a01b0316610ace81680ad78ebc5ac62000006119b9565b610b137f0000000000000000000000000000000000000000000000000000000000000000610b0e680ad78ebc5ac6200000681b1ae4d6e2ef500000612f3f565b6119b9565b60405182907f5ffcbf541b95042ad4bfb5a8d242e9b698ac0a648a7a6410d874a0d9f5108dc390600090a25050505050565b3360008181526001602090815260408083206001600160a01b038716845290915281205490919061075d9082908690610b7f908790612f56565b611731565b6008546001600160a01b03163314610bea5760405162461bcd60e51b8152602060048201526024808201527f5365706172617465506f6f6c3a204e6f74207065726d697474656420746f206360448201526330b6361760e11b60648201526084016107c6565b6fffffffffffffffffffffffffffffffff16600955565b6001600160a01b0381166000908152600560205260408120545b92915050565b6008546001600160a01b03163314610c875760405162461bcd60e51b8152602060048201526024808201527f5365706172617465506f6f6c3a204e6f74207065726d697474656420746f206360448201526330b6361760e11b60648201526084016107c6565b6fffffffffffffffffffffffffffffffff16600a55565b6060600480546106cc90612e9e565b3360008181526001602090815260408083206001600160a01b038716845290915281205490919083811015610d4a5760405162461bcd60e51b815260206004820152602560248201527f45524332303a2064656372656173656420616c6c6f77616e63652062656c6f7760448201527f207a65726f00000000000000000000000000000000000000000000000000000060648201526084016107c6565b6108f78286868403611731565b336001600160a01b037f00000000000000000000000000000000000000000000000000000000000000001614610ddb5760405162461bcd60e51b8152602060048201526024808201527f5365706172617465506f6f6c3a204e6f74207065726d697474656420746f206360448201526330b6361760e11b60648201526084016107c6565b600880546001600160a01b0383811673ffffffffffffffffffffffffffffffffffffffff1983168117909355604080519190921680825260208201939093527fb532073b38c83145e3e5135377a08bf9aab55bc0fd7c1179cd4fb995d2a5159c910160405180910390a15050565b60003361075d818585611b2a565b600c8181548110610e6757600080fd5b9060005260206000209060109182820401919006600202915054906101000a900461ffff1681565b6040805160608101825260008082526020820181905291810182905290610eb583611455565b6000908152600b6020908152604091829020825160608101845281546001600160a01b0381168252600160a01b900460ff1615159281019290925260010154918101919091529392505050565b6000610f0d82611455565b6000818152600b6020908152604091829020825160608101845281546001600160a01b038116808352600160a01b90910460ff1615159382019390935260019091015492810192909252919250903314610fba5760405162461bcd60e51b815260206004820152602860248201527f5365706172617465506f6f6c3a20596f7520646964206e6f74206c6f636b20746044820152673434b99027232a1760c11b60648201526084016107c6565b428160400151116110185760405162461bcd60e51b815260206004820152602260248201527f5365706172617465506f6f6c3a204e465420616c72656164792072656c656173604482015261195960f21b60648201526084016107c6565b8060200151156110765760405162461bcd60e51b815260206004820152602360248201527f5365706172617465506f6f6c3a20416c726561647920657874656e646564206f6044820152626e636560e81b60648201526084016107c6565b600754600a546040516323b872dd60e01b81523360048201526001600160a01b037f00000000000000000000000000000000000000000000000000000000000000008116602483015260448201929092529116906323b872dd906064016020604051808303816000875af11580156110f2573d6000803e3d6000fd5b505050506040513d601f19601f820116820180604052508101906111169190612f07565b506000828152600b6020526040812080547fffffffffffffffffffffff00ffffffffffffffffffffffffffffffffffffffff16600160a01b178155600101805462278d009290611167908490612f56565b9091555050505050565b80600a81106111d45760405162461bcd60e51b815260206004820152602960248201527f5365706172617465506f6f6c3a2043616e206f6e6c79206275792039204e465460448201526873206174206f6e636560b81b60648201526084016107c6565b60006111e982683635c9adc5dea00000612ee8565b90506000826009546111fb9190612ee8565b90506112073383611e4e565b6007546040516323b872dd60e01b81523360048201526001600160a01b037f00000000000000000000000000000000000000000000000000000000000000008116602483015260448201849052909116906323b872dd906064016020604051808303816000875af1158015611280573d6000803e3d6000fd5b505050506040513d601f19601f820116820180604052508101906112a49190612f07565b5060005b838110156112db576112d38686838181106112c5576112c5612f29565b905060200201356000611f9c565b6001016112a8565b505050505050565b834211156113335760405162461bcd60e51b815260206004820152601d60248201527f45524332305065726d69743a206578706972656420646561646c696e6500000060448201526064016107c6565b60007f6e71edae12b1b97f4d1f60370fef10105fa2faae0126114a169c64845d6126c98888886113628c612098565b6040805160208101969096526001600160a01b0394851690860152929091166060840152608083015260a082015260c0810186905260e00160405160208183030381529060405280519060200120905060006113bd826120c0565b905060006113cd8287878761210e565b9050896001600160a01b0316816001600160a01b0316146114305760405162461bcd60e51b815260206004820152601e60248201527f45524332305065726d69743a20696e76616c6964207369676e6174757265000060448201526064016107c6565b61143b8a8a8a611731565b50505050505050505050565b611452816001611f9c565b50565b6040516bffffffffffffffffffffffff197f000000000000000000000000000000000000000000000000000000000000000060601b16602082015260348101829052600090605401604051602081830303815290604052805190602001209050919050565b8060006114c682611455565b6000818152600b60205260409020549091506001600160a01b031633146115405760405162461bcd60e51b815260206004820152602860248201527f5365706172617465506f6f6c3a20596f7520646964206e6f74206c6f636b20746044820152673434b99027232a1760c11b60648201526084016107c6565b6000818152600b602052604090206001015442106115c65760405162461bcd60e51b815260206004820152603b60248201527f5365706172617465506f6f6c3a204e46542068617320616c726561647920626560448201527f656e2072656c656173656420746f207075626c696320706f6f6c2e000000000060648201526084016107c6565b60006115d184611455565b90506115e633681b1ae4d6e2ef500000611e4e565b6000818152600b60205260408120805474ffffffffffffffffffffffffffffffffffffffffff191681556001015561161e3385612136565b604051339082907fa8f5b1e6a7a31a9b1ace738585dd638417682dbcb52f7e74bc7c68b6efd42f3690600090a350505050565b611452816001611855565b611452816001612357565b80600a81106116de5760405162461bcd60e51b815260206004820152602a60248201527f5365706172617465506f6f6c3a2043616e206f6e6c792073656c6c2039204e4660448201527f5473206174206f6e63650000000000000000000000000000000000000000000060648201526084016107c6565b60005b818110156117145761170c8484838181106116fe576116fe612f29565b905060200201356000612357565b6001016116e1565b5061172c33610b0e83683635c9adc5dea00000612ee8565b505050565b6001600160a01b0383166117935760405162461bcd60e51b8152602060048201526024808201527f45524332303a20617070726f76652066726f6d20746865207a65726f206164646044820152637265737360e01b60648201526084016107c6565b6001600160a01b0382166117f45760405162461bcd60e51b815260206004820152602260248201527f45524332303a20617070726f766520746f20746865207a65726f206164647265604482015261737360f01b60648201526084016107c6565b6001600160a01b0383811660008181526001602090815260408083209487168084529482529182902085905590518481527f8c5be1e5ebec7d5bd14f71427d1e84f3dd0314c0f7b2291e5b200ac8c7c3b925910160405180910390a3505050565b61185e826123b0565b801561191857600754600a546040516323b872dd60e01b81523360048201526001600160a01b037f00000000000000000000000000000000000000000000000000000000000000008116602483015260448201929092529116906323b872dd906064016020604051808303816000875af11580156118e0573d6000803e3d6000fd5b505050506040513d601f19601f820116820180604052508101906119049190612f07565b5061191833681b1ae4d6e2ef5000006119b9565b600061192383611455565b6000818152600b60205260408120805473ffffffffffffffffffffffffffffffffffffffff19163317905590915061195e4262278d00612f56565b6000838152600b60209081526040918290206001018390558151428152908101839052919250339184917f9b9011fb811d271fd0ca96372235d28181a8fca7131f0721509538f148408ea7910160405180910390a350505050565b6001600160a01b038216611a0f5760405162461bcd60e51b815260206004820152601f60248201527f45524332303a206d696e7420746f20746865207a65726f20616464726573730060448201526064016107c6565b8060026000828254611a219190612f56565b90915550506001600160a01b03821660009081526020819052604081208054839290611a4e908490612f56565b90915550506040518181526001600160a01b038316906000907fddf252ad1be2c89b69c2b068fc378daa952ba7f163c4a11628f55a4df523b3ef9060200160405180910390a35050565b6001600160a01b038381166000908152600160209081526040808320938616835292905220546000198114611b245781811015611b175760405162461bcd60e51b815260206004820152601d60248201527f45524332303a20696e73756666696369656e7420616c6c6f77616e636500000060448201526064016107c6565b611b248484848403611731565b50505050565b6001600160a01b038316611ba65760405162461bcd60e51b815260206004820152602560248201527f45524332303a207472616e736665722066726f6d20746865207a65726f20616460448201527f647265737300000000000000000000000000000000000000000000000000000060648201526084016107c6565b6001600160a01b038216611c085760405162461bcd60e51b815260206004820152602360248201527f45524332303a207472616e7366657220746f20746865207a65726f206164647260448201526265737360e81b60648201526084016107c6565b6001600160a01b03831660009081526020819052604090205481811015611c975760405162461bcd60e51b815260206004820152602660248201527f45524332303a207472616e7366657220616d6f756e742065786365656473206260448201527f616c616e6365000000000000000000000000000000000000000000000000000060648201526084016107c6565b6001600160a01b03808516600090815260208190526040808220858503905591851681529081208054849290611cce908490612f56565b92505081905550826001600160a01b0316846001600160a01b03167fddf252ad1be2c89b69c2b068fc378daa952ba7f163c4a11628f55a4df523b3ef84604051611d1a91815260200190565b60405180910390a3611b24565b6000306001600160a01b037f000000000000000000000000000000000000000000000000000000000000000016148015611d8057507f000000000000000000000000000000000000000000000000000000000000000046145b15611daa57507f000000000000000000000000000000000000000000000000000000000000000090565b50604080517f00000000000000000000000000000000000000000000000000000000000000006020808301919091527f0000000000000000000000000000000000000000000000000000000000000000828401527f000000000000000000000000000000000000000000000000000000000000000060608301524660808301523060a0808401919091528351808403909101815260c0909201909252805191012090565b6001600160a01b038216611eae5760405162461bcd60e51b815260206004820152602160248201527f45524332303a206275726e2066726f6d20746865207a65726f206164647265736044820152607360f81b60648201526084016107c6565b6001600160a01b03821660009081526020819052604090205481811015611f225760405162461bcd60e51b815260206004820152602260248201527f45524332303a206275726e20616d6f756e7420657863656564732062616c616e604482015261636560f01b60648201526084016107c6565b6001600160a01b0383166000908152602081905260408120838303905560028054849290611f51908490612f3f565b90915550506040518281526000906001600160a01b038516907fddf252ad1be2c89b69c2b068fc378daa952ba7f163c4a11628f55a4df523b3ef9060200160405180910390a3505050565b801561205757611fb533683635c9adc5dea00000611e4e565b6007546009546040516323b872dd60e01b81523360048201526001600160a01b037f00000000000000000000000000000000000000000000000000000000000000008116602483015260448201929092529116906323b872dd906064016020604051808303816000875af1158015612031573d6000803e3d6000fd5b505050506040513d601f19601f820116820180604052508101906120559190612f07565b505b6120613383612136565b3361206b83611455565b6040517f679cf881bff701c5c0ce785cdd4e564867933381ec480a52ae6c283cb00d679290600090a35050565b6001600160a01b03811660009081526005602052604090208054600181018255905b50919050565b6000610c1b6120cd611d27565b8360405161190160f01b6020820152602281018390526042810182905260009060620160405160208183030381529060405280519060200120905092915050565b600080600061211f87878787612776565b9150915061212c81612863565b5095945050505050565b60607306012c8cf97bead5deae237070f9587f8e7a266c197f00000000000000000000000000000000000000000000000000000000000000006001600160a01b0316016121ca576040516001600160a01b03841660248201526044810183905260640160408051601f198184030181529190526020810180516001600160e01b031663a9059cbb60e01b17905290506122ab565b73b47e3cd837ddf8e4c57f05d70ab865de6e193bba197f00000000000000000000000000000000000000000000000000000000000000006001600160a01b03160161225c576040516001600160a01b03841660248201526044810183905260640160408051601f198184030181529190526020810180516001600160e01b03166322dca8bb60e21b17905290506122ab565b6040513060248201526001600160a01b03841660448201526064810183905260840160408051601f198184030181529190526020810180516001600160e01b0316632142170760e11b17905290505b6000807f00000000000000000000000000000000000000000000000000000000000000006001600160a01b0316836040516122e69190612f6e565b6000604051808303816000865af19150503d8060008114612323576040519150601f19603f3d011682016040523d82523d6000602084013e612328565b606091505b509150915081819061234d5760405162461bcd60e51b81526004016107c69190612b5f565b506108d784612a19565b612360826123b0565b80156123795761237933683635c9adc5dea000006119b9565b3361238383611455565b6040517f917c587c613b16b6343d3a89b9e086ab4c70befe649715315fb4499f2716346490600090a35050565b60607306012c8cf97bead5deae237070f9587f8e7a266c197f00000000000000000000000000000000000000000000000000000000000000006001600160a01b031601612441576040513360248201523060448201526064810183905260840160408051601f198184030181529190526020810180516001600160e01b03166323b872dd60e01b1790529050612671565b73b47e3cd837ddf8e4c57f05d70ab865de6e193bba197f00000000000000000000000000000000000000000000000000000000000000006001600160a01b03160161262b5760008260405160240161249b91815260200190565b60408051601f198184030181529181526020820180516001600160e01b0316630b02f02d60e31b1790525190915060009081906001600160a01b037f00000000000000000000000000000000000000000000000000000000000000001690612504908590612f6e565b600060405180830381855afa9150503d806000811461253f576040519150601f19603f3d011682016040523d82523d6000602084013e612544565b606091505b509150915060008180602001905181019061255f9190612f8a565b905082801561257657506001600160a01b03811633145b6125e85760405162461bcd60e51b815260206004820152602960248201527f5365706172617465506f6f6c3a2050756e6b206f776e6572736869702063686560448201527f636b206661696c6564000000000000000000000000000000000000000000000060648201526084016107c6565b6040516024810187905260440160408051601f198184030181529190526020810180516001600160e01b031663104c9fd360e31b17905294506126719350505050565b6040513360248201523060448201526064810183905260840160408051601f198184030181529190526020810180516001600160e01b0316632142170760e11b17905290505b6000807f00000000000000000000000000000000000000000000000000000000000000006001600160a01b0316836040516126ac9190612f6e565b6000604051808303816000865af19150503d80600081146126e9576040519150601f19603f3d011682016040523d82523d6000602084013e6126ee565b606091505b50915091508181906127135760405162461bcd60e51b81526004016107c69190612b5f565b5050600c80546001810182556000919091527fdf6966c971051c3d54ec59162606531493a51404a002842f56009d7e5cf4a8c760108204018054600f9092166002026101000a61ffff818102199093169590921691909102939093179092555050565b6000807f7fffffffffffffffffffffffffffffff5d576e7357a4501ddfe92f46681b20a08311156127ad575060009050600361285a565b8460ff16601b141580156127c557508460ff16601c14155b156127d6575060009050600461285a565b6040805160008082526020820180845289905260ff881692820192909252606081018690526080810185905260019060a0016020604051602081039080840390855afa15801561282a573d6000803e3d6000fd5b5050604051601f1901519150506001600160a01b0381166128535760006001925092505061285a565b9150600090505b94509492505050565b600081600481111561287757612877612fa7565b0361287f5750565b600181600481111561289357612893612fa7565b036128e05760405162461bcd60e51b815260206004820152601860248201527f45434453413a20696e76616c6964207369676e6174757265000000000000000060448201526064016107c6565b60028160048111156128f4576128f4612fa7565b036129415760405162461bcd60e51b815260206004820152601f60248201527f45434453413a20696e76616c6964207369676e6174757265206c656e6774680060448201526064016107c6565b600381600481111561295557612955612fa7565b036129ad5760405162461bcd60e51b815260206004820152602260248201527f45434453413a20696e76616c6964207369676e6174757265202773272076616c604482015261756560f01b60648201526084016107c6565b60048160048111156129c1576129c1612fa7565b036114525760405162461bcd60e51b815260206004820152602260248201527f45434453413a20696e76616c6964207369676e6174757265202776272076616c604482015261756560f01b60648201526084016107c6565b600c5460005b8181101561172c578261ffff16600c8281548110612a3f57612a3f612f29565b60009182526020909120601082040154600f9091166002026101000a900461ffff1603612b2b57600c612a73600184612f3f565b81548110612a8357612a83612f29565b90600052602060002090601091828204019190066002029054906101000a900461ffff16600c8281548110612aba57612aba612f29565b90600052602060002090601091828204019190066002026101000a81548161ffff021916908361ffff160217905550600c805480612afa57612afa612fbd565b600082815260209020601060001990920191820401805461ffff6002600f8516026101000a02191690559055505050565b600101612a1f565b60005b83811015612b4e578181015183820152602001612b36565b83811115611b245750506000910152565b6020815260008251806020840152612b7e816040850160208701612b33565b601f01601f19169190910160400192915050565b6001600160a01b038116811461145257600080fd5b60008060408385031215612bba57600080fd5b8235612bc581612b92565b946020939093013593505050565b60008060208385031215612be657600080fd5b823567ffffffffffffffff80821115612bfe57600080fd5b818501915085601f830112612c1257600080fd5b813581811115612c2157600080fd5b8660208260051b8501011115612c3657600080fd5b60209290920196919550909350505050565b634e487b7160e01b600052604160045260246000fd5b60008060008060808587031215612c7457600080fd5b8435612c7f81612b92565b93506020850135612c8f81612b92565b925060408501359150606085013567ffffffffffffffff80821115612cb357600080fd5b818701915087601f830112612cc757600080fd5b813581811115612cd957612cd9612c48565b604051601f8201601f19908116603f01168101908382118183101715612d0157612d01612c48565b816040528281528a6020848701011115612d1a57600080fd5b82602086016020830137600060208483010152809550505050505092959194509250565b600080600060608486031215612d5357600080fd5b8335612d5e81612b92565b92506020840135612d6e81612b92565b929592945050506040919091013590565b600060208284031215612d9157600080fd5b5035919050565b600060208284031215612daa57600080fd5b81356fffffffffffffffffffffffffffffffff81168114612dca57600080fd5b9392505050565b600060208284031215612de357600080fd5b8135612dca81612b92565b600080600080600080600060e0888a031215612e0957600080fd5b8735612e1481612b92565b96506020880135612e2481612b92565b95506040880135945060608801359350608088013560ff81168114612e4857600080fd5b9699959850939692959460a0840135945060c09093013592915050565b60008060408385031215612e7857600080fd5b8235612e8381612b92565b91506020830135612e9381612b92565b809150509250929050565b600181811c90821680612eb257607f821691505b6020821081036120ba57634e487b7160e01b600052602260045260246000fd5b634e487b7160e01b600052601160045260246000fd5b6000816000190483118215151615612f0257612f02612ed2565b500290565b600060208284031215612f1957600080fd5b81518015158114612dca57600080fd5b634e487b7160e01b600052603260045260246000fd5b600082821015612f5157612f51612ed2565b500390565b60008219821115612f6957612f69612ed2565b500190565b60008251612f80818460208701612b33565b9190910192915050565b600060208284031215612f9c57600080fd5b8151612dca81612b92565b634e487b7160e01b600052602160045260246000fd5b634e487b7160e01b600052603160045260246000fdfea164736f6c634300080d000a",
  "linkReferences": {},
  "deployedLinkReferences": {}
}