{
  "_format": "hh-sol-artifact-1",
  "contractName": "SeparatePool",
  "sourceName": "contracts/separate-pool/SeparatePool.sol",
  "abi": [
    {
      "inputs": [
        {
          "internalType": "address",
          "name": "_nftAddress",
          "type": "address"
        },
        {
          "internalType": "address",
          "name": "_incomeMaker",
          "type": "address"
        },
        {
          "internalType": "address",
          "name": "_fur",
          "type": "address"
        },
        {
          "internalType": "address",
          "name": "_owner",
          "type": "address"
        },
        {
          "internalType": "string",
          "name": "_tokenName",
          "type": "string"
        },
        {
          "internalType": "string",
          "name": "_tokenSymbol",
          "type": "string"
        }
      ],
      "stateMutability": "nonpayable",
      "type": "constructor"
    },
    {
      "anonymous": false,
      "inputs": [
        {
          "indexed": true,
          "internalType": "address",
          "name": "owner",
          "type": "address"
        },
        {
          "indexed": true,
          "internalType": "address",
          "name": "spender",
          "type": "address"
        },
        {
          "indexed": false,
          "internalType": "uint256",
          "name": "value",
          "type": "uint256"
        }
      ],
      "name": "Approval",
      "type": "event"
    },
    {
      "anonymous": false,
      "inputs": [
        {
          "indexed": true,
          "internalType": "bytes32",
          "name": "fId",
          "type": "bytes32"
        },
        {
          "indexed": true,
          "internalType": "address",
          "name": "buyer",
          "type": "address"
        }
      ],
      "name": "BoughtNFT",
      "type": "event"
    },
    {
      "anonymous": false,
      "inputs": [
        {
          "indexed": true,
          "internalType": "bytes32",
          "name": "fId",
          "type": "bytes32"
        },
        {
          "indexed": true,
          "internalType": "address",
          "name": "locker",
          "type": "address"
        },
        {
          "indexed": false,
          "internalType": "uint256",
          "name": "timeOfLock",
          "type": "uint256"
        },
        {
          "indexed": false,
          "internalType": "uint256",
          "name": "expiryTime",
          "type": "uint256"
        }
      ],
      "name": "LockedNFT",
      "type": "event"
    },
    {
      "anonymous": false,
      "inputs": [
        {
          "indexed": false,
          "internalType": "address",
          "name": "oldOwner",
          "type": "address"
        },
        {
          "indexed": false,
          "internalType": "address",
          "name": "newOwner",
          "type": "address"
        }
      ],
      "name": "OwnerChanged",
      "type": "event"
    },
    {
      "anonymous": false,
      "inputs": [
        {
          "indexed": true,
          "internalType": "bytes32",
          "name": "fId",
          "type": "bytes32"
        },
        {
          "indexed": true,
          "internalType": "address",
          "name": "redeemer",
          "type": "address"
        }
      ],
      "name": "RedeemedNFT",
      "type": "event"
    },
    {
      "anonymous": false,
      "inputs": [
        {
          "indexed": true,
          "internalType": "bytes32",
          "name": "fId",
          "type": "bytes32"
        }
      ],
      "name": "ReleasedNFT",
      "type": "event"
    },
    {
      "anonymous": false,
      "inputs": [
        {
          "indexed": true,
          "internalType": "bytes32",
          "name": "fId",
          "type": "bytes32"
        },
        {
          "indexed": true,
          "internalType": "address",
          "name": "seller",
          "type": "address"
        }
      ],
      "name": "SoldNFT",
      "type": "event"
    },
    {
      "anonymous": false,
      "inputs": [
        {
          "indexed": true,
          "internalType": "address",
          "name": "from",
          "type": "address"
        },
        {
          "indexed": true,
          "internalType": "address",
          "name": "to",
          "type": "address"
        },
        {
          "indexed": false,
          "internalType": "uint256",
          "name": "value",
          "type": "uint256"
        }
      ],
      "name": "Transfer",
      "type": "event"
    },
    {
      "inputs": [],
      "name": "DOMAIN_SEPARATOR",
      "outputs": [
        {
          "internalType": "bytes32",
          "name": "",
          "type": "bytes32"
        }
      ],
      "stateMutability": "view",
      "type": "function"
    },
    {
      "inputs": [],
      "name": "LOCK_MINT_AMOUNT",
      "outputs": [
        {
          "internalType": "uint256",
          "name": "",
          "type": "uint256"
        }
      ],
      "stateMutability": "view",
      "type": "function"
    },
    {
      "inputs": [],
      "name": "RELEASE_MINT_AMOUNT",
      "outputs": [
        {
          "internalType": "uint256",
          "name": "",
          "type": "uint256"
        }
      ],
      "stateMutability": "view",
      "type": "function"
    },
    {
      "inputs": [],
      "name": "SWAP_MINT_AMOUNT",
      "outputs": [
        {
          "internalType": "uint256",
          "name": "",
          "type": "uint256"
        }
      ],
      "stateMutability": "view",
      "type": "function"
    },
    {
      "inputs": [
        {
          "internalType": "address",
          "name": "owner",
          "type": "address"
        },
        {
          "internalType": "address",
          "name": "spender",
          "type": "address"
        }
      ],
      "name": "allowance",
      "outputs": [
        {
          "internalType": "uint256",
          "name": "",
          "type": "uint256"
        }
      ],
      "stateMutability": "view",
      "type": "function"
    },
    {
      "inputs": [
        {
          "internalType": "address",
          "name": "spender",
          "type": "address"
        },
        {
          "internalType": "uint256",
          "name": "amount",
          "type": "uint256"
        }
      ],
      "name": "approve",
      "outputs": [
        {
          "internalType": "bool",
          "name": "",
          "type": "bool"
        }
      ],
      "stateMutability": "nonpayable",
      "type": "function"
    },
    {
      "inputs": [
        {
          "internalType": "address",
          "name": "account",
          "type": "address"
        }
      ],
      "name": "balanceOf",
      "outputs": [
        {
          "internalType": "uint256",
          "name": "",
          "type": "uint256"
        }
      ],
      "stateMutability": "view",
      "type": "function"
    },
    {
      "inputs": [
        {
          "internalType": "uint256[]",
          "name": "_ids",
          "type": "uint256[]"
        }
      ],
      "name": "buy",
      "outputs": [],
      "stateMutability": "nonpayable",
      "type": "function"
    },
    {
      "inputs": [
        {
          "internalType": "uint256",
          "name": "_id",
          "type": "uint256"
        }
      ],
      "name": "buy",
      "outputs": [],
      "stateMutability": "nonpayable",
      "type": "function"
    },
    {
      "inputs": [
        {
          "internalType": "address",
          "name": "_newOwner",
          "type": "address"
        }
      ],
      "name": "changeOwner",
      "outputs": [],
      "stateMutability": "nonpayable",
      "type": "function"
    },
    {
      "inputs": [],
      "name": "decimals",
      "outputs": [
        {
          "internalType": "uint8",
          "name": "",
          "type": "uint8"
        }
      ],
      "stateMutability": "view",
      "type": "function"
    },
    {
      "inputs": [
        {
          "internalType": "address",
          "name": "spender",
          "type": "address"
        },
        {
          "internalType": "uint256",
          "name": "subtractedValue",
          "type": "uint256"
        }
      ],
      "name": "decreaseAllowance",
      "outputs": [
        {
          "internalType": "bool",
          "name": "",
          "type": "bool"
        }
      ],
      "stateMutability": "nonpayable",
      "type": "function"
    },
    {
      "inputs": [],
      "name": "factory",
      "outputs": [
        {
          "internalType": "address",
          "name": "",
          "type": "address"
        }
      ],
      "stateMutability": "view",
      "type": "function"
    },
    {
      "inputs": [
        {
          "internalType": "uint256",
          "name": "_id",
          "type": "uint256"
        }
      ],
      "name": "getFurionId",
      "outputs": [
        {
          "internalType": "bytes32",
          "name": "",
          "type": "bytes32"
        }
      ],
      "stateMutability": "view",
      "type": "function"
    },
    {
      "inputs": [
        {
          "internalType": "uint256",
          "name": "_id",
          "type": "uint256"
        }
      ],
      "name": "getReleaseTime",
      "outputs": [
        {
          "internalType": "uint256",
          "name": "",
          "type": "uint256"
        }
      ],
      "stateMutability": "view",
      "type": "function"
    },
    {
      "inputs": [
        {
          "internalType": "uint256",
          "name": "",
          "type": "uint256"
        }
      ],
      "name": "inPool",
      "outputs": [
        {
          "internalType": "uint16",
          "name": "",
          "type": "uint16"
        }
      ],
      "stateMutability": "view",
      "type": "function"
    },
    {
      "inputs": [],
      "name": "incomeMaker",
      "outputs": [
        {
          "internalType": "address",
          "name": "",
          "type": "address"
        }
      ],
      "stateMutability": "view",
      "type": "function"
    },
    {
      "inputs": [
        {
          "internalType": "address",
          "name": "spender",
          "type": "address"
        },
        {
          "internalType": "uint256",
          "name": "addedValue",
          "type": "uint256"
        }
      ],
      "name": "increaseAllowance",
      "outputs": [
        {
          "internalType": "bool",
          "name": "",
          "type": "bool"
        }
      ],
      "stateMutability": "nonpayable",
      "type": "function"
    },
    {
      "inputs": [
        {
          "internalType": "uint256",
          "name": "_id",
          "type": "uint256"
        }
      ],
      "name": "lock",
      "outputs": [],
      "stateMutability": "nonpayable",
      "type": "function"
    },
    {
      "inputs": [],
      "name": "name",
      "outputs": [
        {
          "internalType": "string",
          "name": "",
          "type": "string"
        }
      ],
      "stateMutability": "view",
      "type": "function"
    },
    {
      "inputs": [],
      "name": "nft",
      "outputs": [
        {
          "internalType": "address",
          "name": "",
          "type": "address"
        }
      ],
      "stateMutability": "view",
      "type": "function"
    },
    {
      "inputs": [
        {
          "internalType": "address",
          "name": "owner",
          "type": "address"
        }
      ],
      "name": "nonces",
      "outputs": [
        {
          "internalType": "uint256",
          "name": "",
          "type": "uint256"
        }
      ],
      "stateMutability": "view",
      "type": "function"
    },
    {
      "inputs": [
        {
          "internalType": "address",
          "name": "",
          "type": "address"
        },
        {
          "internalType": "address",
          "name": "",
          "type": "address"
        },
        {
          "internalType": "uint256",
          "name": "",
          "type": "uint256"
        },
        {
          "internalType": "bytes",
          "name": "",
          "type": "bytes"
        }
      ],
      "name": "onERC721Received",
      "outputs": [
        {
          "internalType": "bytes4",
          "name": "",
          "type": "bytes4"
        }
      ],
      "stateMutability": "pure",
      "type": "function"
    },
    {
      "inputs": [],
      "name": "owner",
      "outputs": [
        {
          "internalType": "address",
          "name": "",
          "type": "address"
        }
      ],
      "stateMutability": "view",
      "type": "function"
    },
    {
      "inputs": [
        {
          "internalType": "uint256",
          "name": "_id",
          "type": "uint256"
        }
      ],
      "name": "payFee",
      "outputs": [],
      "stateMutability": "nonpayable",
      "type": "function"
    },
    {
      "inputs": [
        {
          "internalType": "address",
          "name": "owner",
          "type": "address"
        },
        {
          "internalType": "address",
          "name": "spender",
          "type": "address"
        },
        {
          "internalType": "uint256",
          "name": "value",
          "type": "uint256"
        },
        {
          "internalType": "uint256",
          "name": "deadline",
          "type": "uint256"
        },
        {
          "internalType": "uint8",
          "name": "v",
          "type": "uint8"
        },
        {
          "internalType": "bytes32",
          "name": "r",
          "type": "bytes32"
        },
        {
          "internalType": "bytes32",
          "name": "s",
          "type": "bytes32"
        }
      ],
      "name": "permit",
      "outputs": [],
      "stateMutability": "nonpayable",
      "type": "function"
    },
    {
      "inputs": [
        {
          "internalType": "uint256",
          "name": "_id",
          "type": "uint256"
        }
      ],
      "name": "redeem",
      "outputs": [],
      "stateMutability": "nonpayable",
      "type": "function"
    },
    {
      "inputs": [
        {
          "internalType": "uint256",
          "name": "_id",
          "type": "uint256"
        }
      ],
      "name": "release",
      "outputs": [],
      "stateMutability": "nonpayable",
      "type": "function"
    },
    {
      "inputs": [
        {
          "internalType": "uint256[]",
          "name": "_ids",
          "type": "uint256[]"
        }
      ],
      "name": "sell",
      "outputs": [],
      "stateMutability": "nonpayable",
      "type": "function"
    },
    {
      "inputs": [
        {
          "internalType": "uint256",
          "name": "_id",
          "type": "uint256"
        }
      ],
      "name": "sell",
      "outputs": [],
      "stateMutability": "nonpayable",
      "type": "function"
    },
    {
      "inputs": [
        {
          "internalType": "uint128",
          "name": "_newFee",
          "type": "uint128"
        }
      ],
      "name": "setBuyFee",
      "outputs": [],
      "stateMutability": "nonpayable",
      "type": "function"
    },
    {
      "inputs": [
        {
          "internalType": "uint128",
          "name": "_newFee",
          "type": "uint128"
        }
      ],
      "name": "setLockFee",
      "outputs": [],
      "stateMutability": "nonpayable",
      "type": "function"
    },
    {
      "inputs": [],
      "name": "symbol",
      "outputs": [
        {
          "internalType": "string",
          "name": "",
          "type": "string"
        }
      ],
      "stateMutability": "view",
      "type": "function"
    },
    {
      "inputs": [],
      "name": "totalSupply",
      "outputs": [
        {
          "internalType": "uint256",
          "name": "",
          "type": "uint256"
        }
      ],
      "stateMutability": "view",
      "type": "function"
    },
    {
      "inputs": [
        {
          "internalType": "address",
          "name": "to",
          "type": "address"
        },
        {
          "internalType": "uint256",
          "name": "amount",
          "type": "uint256"
        }
      ],
      "name": "transfer",
      "outputs": [
        {
          "internalType": "bool",
          "name": "",
          "type": "bool"
        }
      ],
      "stateMutability": "nonpayable",
      "type": "function"
    },
    {
      "inputs": [
        {
          "internalType": "address",
          "name": "from",
          "type": "address"
        },
        {
          "internalType": "address",
          "name": "to",
          "type": "address"
        },
        {
          "internalType": "uint256",
          "name": "amount",
          "type": "uint256"
        }
      ],
      "name": "transferFrom",
      "outputs": [
        {
          "internalType": "bool",
          "name": "",
          "type": "bool"
        }
      ],
      "stateMutability": "nonpayable",
      "type": "function"
    }
  ],
  "bytecode": "0x6101a060405268056bc75e2d63100000600955680821ab0d4414980000600a553480156200002c57600080fd5b506040516200321d3803806200321d8339810160408190526200004f9162000309565b8180604051806040016040528060018152602001603160f81b815250848481600390805190602001906200008592919062000179565b5080516200009b90600490602084019062000179565b5050825160208085019190912083518483012060e08290526101008190524660a0818152604080517f8b73c3c69bb8fe3d512ecc4cf759cc79239f7b179b0ffacaa9a75d522b39400f81880181905281830187905260608201869052608082019490945230818401528151808203909301835260c0019052805194019390932091935091906080523060c0526101205250503361014052505050506001600160a01b03938416610180525092821661016052600780549183166001600160a01b031992831617905560088054939092169216919091179055620003f9565b8280546200018790620003bd565b90600052602060002090601f016020900481019282620001ab5760008555620001f6565b82601f10620001c657805160ff1916838001178555620001f6565b82800160010185558215620001f6579182015b82811115620001f6578251825591602001919060010190620001d9565b506200020492915062000208565b5090565b5b8082111562000204576000815560010162000209565b80516001600160a01b03811681146200023757600080fd5b919050565b634e487b7160e01b600052604160045260246000fd5b600082601f8301126200026457600080fd5b81516001600160401b03808211156200028157620002816200023c565b604051601f8301601f19908116603f01168101908282118183101715620002ac57620002ac6200023c565b81604052838152602092508683858801011115620002c957600080fd5b600091505b83821015620002ed5785820183015181830184015290820190620002ce565b83821115620002ff5760008385830101525b9695505050505050565b60008060008060008060c087890312156200032357600080fd5b6200032e876200021f565b95506200033e602088016200021f565b94506200034e604088016200021f565b93506200035e606088016200021f565b60808801519093506001600160401b03808211156200037c57600080fd5b6200038a8a838b0162000252565b935060a0890151915080821115620003a157600080fd5b50620003b089828a0162000252565b9150509295509295509295565b600181811c90821680620003d257607f821691505b602082108103620003f357634e487b7160e01b600052602260045260246000fd5b50919050565b60805160a05160c05160e0516101005161012051610140516101605161018051612d51620004cc600039600081816104bb0152818161088901528181610dfe01528181611051015281816114d00152611d9b01526000818161035a015281816112ae01528181611f1301528181611fa5015281816120730152818161213b015281816121ca0152818161224901526123e70152600081816104f50152610c0701526000611a3c01526000611a8b01526000611a66015260006119bf015260006119e901526000611a130152612d516000f3fe608060405234801561001057600080fd5b506004361061025c5760003560e01c8063a3d2d78611610145578063d289ade2116100bd578063db006a751161008c578063dd62ed3e11610071578063dd62ed3e14610589578063e1b044b9146105c2578063e4849b32146105d257600080fd5b8063db006a7514610563578063dd4670641461057657600080fd5b8063d289ade214610517578063d505accf1461052a578063d96a094a1461053d578063d99f69561461055057600080fd5b8063a9cee93411610114578063be1bd331116100f9578063be1bd331146104b6578063c243c72b146104dd578063c45a0155146104f057600080fd5b8063a9cee93414610480578063b2024ff81461049057600080fd5b8063a3d2d78614610437578063a457c2d714610447578063a6f9dae11461045a578063a9059cbb1461046d57600080fd5b806347ccca02116101d857806370a08231116101a757806386a976cf1161018c57806386a976cf146104095780638da5cb5b1461041c57806395d89b411461042f57600080fd5b806370a08231146103cd5780637ecebe00146103f657600080fd5b806347ccca02146103555780634dd020da1461039457806352db191f146103a7578063639316c7146103ba57600080fd5b806323b872dd1161022f5780633644e515116102145780633644e5151461032557806337bdc99b1461032d578063395093511461034257600080fd5b806323b872dd14610303578063313ce5671461031657600080fd5b806306fdde0314610261578063095ea7b31461027f578063150b7a02146102a257806318160ddd146102f1575b600080fd5b6102696105e5565b60405161027691906128d0565b60405180910390f35b61029261028d366004612918565b610677565b6040519015158152602001610276565b6102c06102b036600461295a565b630a85bd0160e11b949350505050565b6040517fffffffff000000000000000000000000000000000000000000000000000000009091168152602001610276565b6002545b604051908152602001610276565b610292610311366004612a3a565b61068f565b60405160128152602001610276565b6102f56106b3565b61034061033b366004612a7b565b6106c2565b005b610292610350366004612918565b6108fb565b61037c7f000000000000000000000000000000000000000000000000000000000000000081565b6040516001600160a01b039091168152602001610276565b6103406103a2366004612a94565b61093a565b6102f56103b5366004612a7b565b610a04565b6103406103c8366004612b09565b610a29565b6102f56103db366004612b42565b6001600160a01b031660009081526020819052604090205490565b6102f5610404366004612b42565b610aa6565b610340610417366004612b09565b610ac6565b60085461037c906001600160a01b031681565b610269610b43565b6102f5681b1ae4d6e2ef50000081565b610292610455366004612918565b610b52565b610340610468366004612b42565b610bfc565b61029261047b366004612918565b610cee565b6102f5680ad78ebc5ac620000081565b6104a361049e366004612a7b565b610cfc565b60405161ffff9091168152602001610276565b61037c7f000000000000000000000000000000000000000000000000000000000000000081565b6103406104eb366004612a94565b610d34565b61037c7f000000000000000000000000000000000000000000000000000000000000000081565b610340610525366004612a7b565b610eba565b610340610538366004612b5f565b611129565b61034061054b366004612a7b565b61128d565b6102f561055e366004612a7b565b61129b565b610340610571366004612a7b565b611300565b610340610584366004612a7b565b611497565b6102f5610597366004612bd6565b6001600160a01b03918216600090815260016020908152604080832093909416825291909152205490565b6102f5683635c9adc5dea0000081565b6103406105e0366004612a7b565b6115f4565b6060600380546105f490612c0f565b80601f016020809104026020016040519081016040528092919081815260200182805461062090612c0f565b801561066d5780601f106106425761010080835404028352916020019161066d565b820191906000526020600020905b81548152906001019060200180831161065057829003601f168201915b5050505050905090565b6000336106858185856115ff565b5060019392505050565b60003361069d858285611723565b6106a88585856117b5565b506001949350505050565b60006106bd6119b2565b905090565b6008546001600160a01b0316331461072d5760405162461bcd60e51b8152602060048201526024808201527f5365706172617465506f6f6c3a204e6f74207065726d697474656420746f206360448201526330b6361760e11b60648201526084015b60405180910390fd5b8060006107398261129b565b6000818152600b60205260409020549091506001600160a01b03166107a05760405162461bcd60e51b815260206004820181905260248201527f5365706172617465506f6f6c3a204e4654206973206e6f74206c6f636b65642e6044820152606401610724565b6000818152600b602052604090206001015442116108265760405162461bcd60e51b815260206004820152602b60248201527f5365706172617465506f6f6c3a2052656c656173652074696d65206e6f74207960448201527f657420726561636865642e0000000000000000000000000000000000000000006064820152608401610724565b60006108318461129b565b6000818152600b60205260408120805474ffffffffffffffffffffffffffffffffffffffffff19811682556001909101919091559091506001600160a01b031661088481680ad78ebc5ac6200000611ad9565b6108c97f00000000000000000000000000000000000000000000000000000000000000006108c4680ad78ebc5ac6200000681b1ae4d6e2ef500000612c59565b611ad9565b60405182907f5ffcbf541b95042ad4bfb5a8d242e9b698ac0a648a7a6410d874a0d9f5108dc390600090a25050505050565b3360008181526001602090815260408083206001600160a01b03871684529091528120549091906106859082908690610935908790612c70565b6115ff565b80600a81106109b15760405162461bcd60e51b815260206004820152602a60248201527f5365706172617465506f6f6c3a2043616e206f6e6c792073656c6c2039204e4660448201527f5473206174206f6e6365000000000000000000000000000000000000000000006064820152608401610724565b60005b818110156109e7576109df8484838181106109d1576109d1612c88565b905060200201356000611bb8565b6001016109b4565b506109ff336108c483683635c9adc5dea00000612c9e565b505050565b600080610a108361129b565b6000908152600b60205260409020600101549392505050565b6008546001600160a01b03163314610a8f5760405162461bcd60e51b8152602060048201526024808201527f5365706172617465506f6f6c3a204e6f74207065726d697474656420746f206360448201526330b6361760e11b6064820152608401610724565b6fffffffffffffffffffffffffffffffff16600955565b6001600160a01b0381166000908152600560205260408120545b92915050565b6008546001600160a01b03163314610b2c5760405162461bcd60e51b8152602060048201526024808201527f5365706172617465506f6f6c3a204e6f74207065726d697474656420746f206360448201526330b6361760e11b6064820152608401610724565b6fffffffffffffffffffffffffffffffff16600a55565b6060600480546105f490612c0f565b3360008181526001602090815260408083206001600160a01b038716845290915281205490919083811015610bef5760405162461bcd60e51b815260206004820152602560248201527f45524332303a2064656372656173656420616c6c6f77616e63652062656c6f7760448201527f207a65726f0000000000000000000000000000000000000000000000000000006064820152608401610724565b6106a882868684036115ff565b336001600160a01b037f00000000000000000000000000000000000000000000000000000000000000001614610c805760405162461bcd60e51b8152602060048201526024808201527f5365706172617465506f6f6c3a204e6f74207065726d697474656420746f206360448201526330b6361760e11b6064820152608401610724565b600880546001600160a01b0383811673ffffffffffffffffffffffffffffffffffffffff1983168117909355604080519190921680825260208201939093527fb532073b38c83145e3e5135377a08bf9aab55bc0fd7c1179cd4fb995d2a5159c910160405180910390a15050565b6000336106858185856117b5565b600c8181548110610d0c57600080fd5b9060005260206000209060109182820401919006600202915054906101000a900461ffff1681565b80600a8110610dab5760405162461bcd60e51b815260206004820152602960248201527f5365706172617465506f6f6c3a2043616e206f6e6c79206275792039204e465460448201527f73206174206f6e636500000000000000000000000000000000000000000000006064820152608401610724565b6000610dc082683635c9adc5dea00000612c9e565b9050600082600954610dd29190612c9e565b9050610dde3383611c11565b6007546040516323b872dd60e01b81523360048201526001600160a01b037f00000000000000000000000000000000000000000000000000000000000000008116602483015260448201849052909116906323b872dd906064016020604051808303816000875af1158015610e57573d6000803e3d6000fd5b505050506040513d601f19601f82011682018060405250810190610e7b9190612cbd565b5060005b83811015610eb257610eaa868683818110610e9c57610e9c612c88565b905060200201356000611d5f565b600101610e7f565b505050505050565b6000610ec58261129b565b6000818152600b6020908152604091829020825160608101845281546001600160a01b038116808352600160a01b90910460ff1615159382019390935260019091015492810192909252919250903314610f725760405162461bcd60e51b815260206004820152602860248201527f5365706172617465506f6f6c3a20596f7520646964206e6f74206c6f636b20746044820152673434b99027232a1760c11b6064820152608401610724565b42816040015111610fd05760405162461bcd60e51b815260206004820152602260248201527f5365706172617465506f6f6c3a204e465420616c72656164792072656c656173604482015261195960f21b6064820152608401610724565b80602001511561102e5760405162461bcd60e51b815260206004820152602360248201527f5365706172617465506f6f6c3a20416c726561647920657874656e646564206f6044820152626e636560e81b6064820152608401610724565b600754600a546040516323b872dd60e01b81523360048201526001600160a01b037f00000000000000000000000000000000000000000000000000000000000000008116602483015260448201929092529116906323b872dd906064016020604051808303816000875af11580156110aa573d6000803e3d6000fd5b505050506040513d601f19601f820116820180604052508101906110ce9190612cbd565b506000828152600b6020526040812080547fffffffffffffffffffffff00ffffffffffffffffffffffffffffffffffffffff16600160a01b178155600101805462278d00929061111f908490612c70565b9091555050505050565b834211156111795760405162461bcd60e51b815260206004820152601d60248201527f45524332305065726d69743a206578706972656420646561646c696e650000006044820152606401610724565b60007f6e71edae12b1b97f4d1f60370fef10105fa2faae0126114a169c64845d6126c98888886111a88c611e5b565b6040805160208101969096526001600160a01b0394851690860152929091166060840152608083015260a082015260c0810186905260e001604051602081830303815290604052805190602001209050600061120382611e83565b9050600061121382878787611ed1565b9050896001600160a01b0316816001600160a01b0316146112765760405162461bcd60e51b815260206004820152601e60248201527f45524332305065726d69743a20696e76616c6964207369676e617475726500006044820152606401610724565b6112818a8a8a6115ff565b50505050505050505050565b611298816001611d5f565b50565b6040516bffffffffffffffffffffffff197f000000000000000000000000000000000000000000000000000000000000000060601b16602082015260348101829052600090605401604051602081830303815290604052805190602001209050919050565b80600061130c8261129b565b6000818152600b60205260409020549091506001600160a01b031633146113865760405162461bcd60e51b815260206004820152602860248201527f5365706172617465506f6f6c3a20596f7520646964206e6f74206c6f636b20746044820152673434b99027232a1760c11b6064820152608401610724565b6000818152600b6020526040902060010154421061140c5760405162461bcd60e51b815260206004820152603b60248201527f5365706172617465506f6f6c3a204e46542068617320616c726561647920626560448201527f656e2072656c656173656420746f207075626c696320706f6f6c2e00000000006064820152608401610724565b60006114178461129b565b905061142c33681b1ae4d6e2ef500000611c11565b6000818152600b60205260408120805474ffffffffffffffffffffffffffffffffffffffffff19168155600101556114643385611ef9565b604051339082907fa8f5b1e6a7a31a9b1ace738585dd638417682dbcb52f7e74bc7c68b6efd42f3690600090a350505050565b60006114a28261129b565b90506114ad82612121565b600a546007546040516323b872dd60e01b81523360048201526001600160a01b037f00000000000000000000000000000000000000000000000000000000000000008116602483015260448201849052909116906323b872dd906064016020604051808303816000875af1158015611529573d6000803e3d6000fd5b505050506040513d601f19601f8201168201806040525081019061154d9190612cbd565b5061156133681b1ae4d6e2ef500000611ad9565b6000828152600b60205260408120805473ffffffffffffffffffffffffffffffffffffffff1916331790556115994262278d00612c70565b6000848152600b60209081526040918290206001018390558151428152908101839052919250339185917f9b9011fb811d271fd0ca96372235d28181a8fca7131f0721509538f148408ea7910160405180910390a350505050565b611298816001611bb8565b6001600160a01b0383166116615760405162461bcd60e51b8152602060048201526024808201527f45524332303a20617070726f76652066726f6d20746865207a65726f206164646044820152637265737360e01b6064820152608401610724565b6001600160a01b0382166116c25760405162461bcd60e51b815260206004820152602260248201527f45524332303a20617070726f766520746f20746865207a65726f206164647265604482015261737360f01b6064820152608401610724565b6001600160a01b0383811660008181526001602090815260408083209487168084529482529182902085905590518481527f8c5be1e5ebec7d5bd14f71427d1e84f3dd0314c0f7b2291e5b200ac8c7c3b925910160405180910390a3505050565b6001600160a01b0383811660009081526001602090815260408083209386168352929052205460001981146117af57818110156117a25760405162461bcd60e51b815260206004820152601d60248201527f45524332303a20696e73756666696369656e7420616c6c6f77616e63650000006044820152606401610724565b6117af84848484036115ff565b50505050565b6001600160a01b0383166118315760405162461bcd60e51b815260206004820152602560248201527f45524332303a207472616e736665722066726f6d20746865207a65726f20616460448201527f64726573730000000000000000000000000000000000000000000000000000006064820152608401610724565b6001600160a01b0382166118935760405162461bcd60e51b815260206004820152602360248201527f45524332303a207472616e7366657220746f20746865207a65726f206164647260448201526265737360e81b6064820152608401610724565b6001600160a01b038316600090815260208190526040902054818110156119225760405162461bcd60e51b815260206004820152602660248201527f45524332303a207472616e7366657220616d6f756e742065786365656473206260448201527f616c616e636500000000000000000000000000000000000000000000000000006064820152608401610724565b6001600160a01b03808516600090815260208190526040808220858503905591851681529081208054849290611959908490612c70565b92505081905550826001600160a01b0316846001600160a01b03167fddf252ad1be2c89b69c2b068fc378daa952ba7f163c4a11628f55a4df523b3ef846040516119a591815260200190565b60405180910390a36117af565b6000306001600160a01b037f000000000000000000000000000000000000000000000000000000000000000016148015611a0b57507f000000000000000000000000000000000000000000000000000000000000000046145b15611a3557507f000000000000000000000000000000000000000000000000000000000000000090565b50604080517f00000000000000000000000000000000000000000000000000000000000000006020808301919091527f0000000000000000000000000000000000000000000000000000000000000000828401527f000000000000000000000000000000000000000000000000000000000000000060608301524660808301523060a0808401919091528351808403909101815260c0909201909252805191012090565b6001600160a01b038216611b2f5760405162461bcd60e51b815260206004820152601f60248201527f45524332303a206d696e7420746f20746865207a65726f2061646472657373006044820152606401610724565b8060026000828254611b419190612c70565b90915550506001600160a01b03821660009081526020819052604081208054839290611b6e908490612c70565b90915550506040518181526001600160a01b038316906000907fddf252ad1be2c89b69c2b068fc378daa952ba7f163c4a11628f55a4df523b3ef9060200160405180910390a35050565b611bc182612121565b8015611bda57611bda33683635c9adc5dea00000611ad9565b33611be48361129b565b6040517f917c587c613b16b6343d3a89b9e086ab4c70befe649715315fb4499f2716346490600090a35050565b6001600160a01b038216611c715760405162461bcd60e51b815260206004820152602160248201527f45524332303a206275726e2066726f6d20746865207a65726f206164647265736044820152607360f81b6064820152608401610724565b6001600160a01b03821660009081526020819052604090205481811015611ce55760405162461bcd60e51b815260206004820152602260248201527f45524332303a206275726e20616d6f756e7420657863656564732062616c616e604482015261636560f01b6064820152608401610724565b6001600160a01b0383166000908152602081905260408120838303905560028054849290611d14908490612c59565b90915550506040518281526000906001600160a01b038516907fddf252ad1be2c89b69c2b068fc378daa952ba7f163c4a11628f55a4df523b3ef9060200160405180910390a3505050565b8015611e1a57611d7833683635c9adc5dea00000611c11565b6007546009546040516323b872dd60e01b81523360048201526001600160a01b037f00000000000000000000000000000000000000000000000000000000000000008116602483015260448201929092529116906323b872dd906064016020604051808303816000875af1158015611df4573d6000803e3d6000fd5b505050506040513d601f19601f82011682018060405250810190611e189190612cbd565b505b611e243383611ef9565b33611e2e8361129b565b6040517f679cf881bff701c5c0ce785cdd4e564867933381ec480a52ae6c283cb00d679290600090a35050565b6001600160a01b03811660009081526005602052604090208054600181018255905b50919050565b6000610ac0611e906119b2565b8360405161190160f01b6020820152602281018390526042810182905260009060620160405160208183030381529060405280519060200120905092915050565b6000806000611ee2878787876124e7565b91509150611eef816125d4565b5095945050505050565b60607306012c8cf97bead5deae237070f9587f8e7a266c197f00000000000000000000000000000000000000000000000000000000000000006001600160a01b031601611f8d576040516001600160a01b03841660248201526044810183905260640160408051601f198184030181529190526020810180516001600160e01b031663a9059cbb60e01b179052905061206e565b73b47e3cd837ddf8e4c57f05d70ab865de6e193bba197f00000000000000000000000000000000000000000000000000000000000000006001600160a01b03160161201f576040516001600160a01b03841660248201526044810183905260640160408051601f198184030181529190526020810180516001600160e01b03166322dca8bb60e21b179052905061206e565b6040513060248201526001600160a01b03841660448201526064810183905260840160408051601f198184030181529190526020810180516001600160e01b0316632142170760e11b17905290505b6000807f00000000000000000000000000000000000000000000000000000000000000006001600160a01b0316836040516120a99190612cdf565b6000604051808303816000865af19150503d80600081146120e6576040519150601f19603f3d011682016040523d82523d6000602084013e6120eb565b606091505b50915091508181906121105760405162461bcd60e51b815260040161072491906128d0565b5061211a8461278a565b5050505050565b60607306012c8cf97bead5deae237070f9587f8e7a266c197f00000000000000000000000000000000000000000000000000000000000000006001600160a01b0316016121b2576040513360248201523060448201526064810183905260840160408051601f198184030181529190526020810180516001600160e01b03166323b872dd60e01b17905290506123e2565b73b47e3cd837ddf8e4c57f05d70ab865de6e193bba197f00000000000000000000000000000000000000000000000000000000000000006001600160a01b03160161239c5760008260405160240161220c91815260200190565b60408051601f198184030181529181526020820180516001600160e01b0316630b02f02d60e31b1790525190915060009081906001600160a01b037f00000000000000000000000000000000000000000000000000000000000000001690612275908590612cdf565b600060405180830381855afa9150503d80600081146122b0576040519150601f19603f3d011682016040523d82523d6000602084013e6122b5565b606091505b50915091506000818060200190518101906122d09190612cfb565b90508280156122e757506001600160a01b03811633145b6123595760405162461bcd60e51b815260206004820152602960248201527f5365706172617465506f6f6c3a2050756e6b206f776e6572736869702063686560448201527f636b206661696c656400000000000000000000000000000000000000000000006064820152608401610724565b6040516024810187905260440160408051601f198184030181529190526020810180516001600160e01b031663104c9fd360e31b17905294506123e29350505050565b6040513360248201523060448201526064810183905260840160408051601f198184030181529190526020810180516001600160e01b0316632142170760e11b17905290505b6000807f00000000000000000000000000000000000000000000000000000000000000006001600160a01b03168360405161241d9190612cdf565b6000604051808303816000865af19150503d806000811461245a576040519150601f19603f3d011682016040523d82523d6000602084013e61245f565b606091505b50915091508181906124845760405162461bcd60e51b815260040161072491906128d0565b5050600c80546001810182556000919091527fdf6966c971051c3d54ec59162606531493a51404a002842f56009d7e5cf4a8c760108204018054600f9092166002026101000a61ffff818102199093169590921691909102939093179092555050565b6000807f7fffffffffffffffffffffffffffffff5d576e7357a4501ddfe92f46681b20a083111561251e57506000905060036125cb565b8460ff16601b1415801561253657508460ff16601c14155b1561254757506000905060046125cb565b6040805160008082526020820180845289905260ff881692820192909252606081018690526080810185905260019060a0016020604051602081039080840390855afa15801561259b573d6000803e3d6000fd5b5050604051601f1901519150506001600160a01b0381166125c4576000600192509250506125cb565b9150600090505b94509492505050565b60008160048111156125e8576125e8612d18565b036125f05750565b600181600481111561260457612604612d18565b036126515760405162461bcd60e51b815260206004820152601860248201527f45434453413a20696e76616c6964207369676e617475726500000000000000006044820152606401610724565b600281600481111561266557612665612d18565b036126b25760405162461bcd60e51b815260206004820152601f60248201527f45434453413a20696e76616c6964207369676e6174757265206c656e677468006044820152606401610724565b60038160048111156126c6576126c6612d18565b0361271e5760405162461bcd60e51b815260206004820152602260248201527f45434453413a20696e76616c6964207369676e6174757265202773272076616c604482015261756560f01b6064820152608401610724565b600481600481111561273257612732612d18565b036112985760405162461bcd60e51b815260206004820152602260248201527f45434453413a20696e76616c6964207369676e6174757265202776272076616c604482015261756560f01b6064820152608401610724565b600c5460005b818110156109ff578261ffff16600c82815481106127b0576127b0612c88565b60009182526020909120601082040154600f9091166002026101000a900461ffff160361289c57600c6127e4600184612c59565b815481106127f4576127f4612c88565b90600052602060002090601091828204019190066002029054906101000a900461ffff16600c828154811061282b5761282b612c88565b90600052602060002090601091828204019190066002026101000a81548161ffff021916908361ffff160217905550600c80548061286b5761286b612d2e565b600082815260209020601060001990920191820401805461ffff6002600f8516026101000a02191690559055505050565b600101612790565b60005b838110156128bf5781810151838201526020016128a7565b838111156117af5750506000910152565b60208152600082518060208401526128ef8160408501602087016128a4565b601f01601f19169190910160400192915050565b6001600160a01b038116811461129857600080fd5b6000806040838503121561292b57600080fd5b823561293681612903565b946020939093013593505050565b634e487b7160e01b600052604160045260246000fd5b6000806000806080858703121561297057600080fd5b843561297b81612903565b9350602085013561298b81612903565b925060408501359150606085013567ffffffffffffffff808211156129af57600080fd5b818701915087601f8301126129c357600080fd5b8135818111156129d5576129d5612944565b604051601f8201601f19908116603f011681019083821181831017156129fd576129fd612944565b816040528281528a6020848701011115612a1657600080fd5b82602086016020830137600060208483010152809550505050505092959194509250565b600080600060608486031215612a4f57600080fd5b8335612a5a81612903565b92506020840135612a6a81612903565b929592945050506040919091013590565b600060208284031215612a8d57600080fd5b5035919050565b60008060208385031215612aa757600080fd5b823567ffffffffffffffff80821115612abf57600080fd5b818501915085601f830112612ad357600080fd5b813581811115612ae257600080fd5b8660208260051b8501011115612af757600080fd5b60209290920196919550909350505050565b600060208284031215612b1b57600080fd5b81356fffffffffffffffffffffffffffffffff81168114612b3b57600080fd5b9392505050565b600060208284031215612b5457600080fd5b8135612b3b81612903565b600080600080600080600060e0888a031215612b7a57600080fd5b8735612b8581612903565b96506020880135612b9581612903565b95506040880135945060608801359350608088013560ff81168114612bb957600080fd5b9699959850939692959460a0840135945060c09093013592915050565b60008060408385031215612be957600080fd5b8235612bf481612903565b91506020830135612c0481612903565b809150509250929050565b600181811c90821680612c2357607f821691505b602082108103611e7d57634e487b7160e01b600052602260045260246000fd5b634e487b7160e01b600052601160045260246000fd5b600082821015612c6b57612c6b612c43565b500390565b60008219821115612c8357612c83612c43565b500190565b634e487b7160e01b600052603260045260246000fd5b6000816000190483118215151615612cb857612cb8612c43565b500290565b600060208284031215612ccf57600080fd5b81518015158114612b3b57600080fd5b60008251612cf18184602087016128a4565b9190910192915050565b600060208284031215612d0d57600080fd5b8151612b3b81612903565b634e487b7160e01b600052602160045260246000fd5b634e487b7160e01b600052603160045260246000fdfea164736f6c634300080d000a",
  "linkReferences": {},
  "deployedLinkReferences": {}
}