{
  "_format": "hh-sol-artifact-1",
  "contractName": "FurionPricingOracle",
  "sourceName": "contracts/aggregate-pool/FurionPricingOracle.sol",
  "abi": [
    {
      "anonymous": false,
      "inputs": [
        {
          "indexed": true,
          "internalType": "address",
          "name": "previousOwner",
          "type": "address"
        },
        {
          "indexed": true,
          "internalType": "address",
          "name": "newOwner",
          "type": "address"
        }
      ],
      "name": "OwnershipTransferred",
      "type": "event"
    },
    {
      "anonymous": false,
      "inputs": [
        {
          "indexed": false,
          "internalType": "address",
          "name": "token",
          "type": "address"
        },
        {
          "indexed": false,
          "internalType": "uint256",
          "name": "level",
          "type": "uint256"
        },
        {
          "indexed": false,
          "internalType": "uint256",
          "name": "price",
          "type": "uint256"
        }
      ],
      "name": "PriceUpdated",
      "type": "event"
    },
    {
      "inputs": [
        {
          "internalType": "address",
          "name": "_token",
          "type": "address"
        },
        {
          "internalType": "uint256",
          "name": "_id",
          "type": "uint256"
        }
      ],
      "name": "getNFTPrice",
      "outputs": [
        {
          "internalType": "uint256",
          "name": "price",
          "type": "uint256"
        }
      ],
      "stateMutability": "view",
      "type": "function"
    },
    {
      "inputs": [
        {
          "internalType": "address",
          "name": "_token",
          "type": "address"
        },
        {
          "internalType": "uint256",
          "name": "_id",
          "type": "uint256"
        }
      ],
      "name": "getPriceLevel",
      "outputs": [
        {
          "internalType": "uint256",
          "name": "",
          "type": "uint256"
        }
      ],
      "stateMutability": "view",
      "type": "function"
    },
    {
      "inputs": [
        {
          "internalType": "address",
          "name": "_token",
          "type": "address"
        },
        {
          "internalType": "uint256",
          "name": "_levels",
          "type": "uint256"
        }
      ],
      "name": "initPrice",
      "outputs": [],
      "stateMutability": "nonpayable",
      "type": "function"
    },
    {
      "inputs": [],
      "name": "owner",
      "outputs": [
        {
          "internalType": "address",
          "name": "",
          "type": "address"
        }
      ],
      "stateMutability": "view",
      "type": "function"
    },
    {
      "inputs": [
        {
          "internalType": "address",
          "name": "",
          "type": "address"
        },
        {
          "internalType": "uint256",
          "name": "",
          "type": "uint256"
        }
      ],
      "name": "priceLevel",
      "outputs": [
        {
          "internalType": "uint256",
          "name": "",
          "type": "uint256"
        }
      ],
      "stateMutability": "view",
      "type": "function"
    },
    {
      "inputs": [
        {
          "internalType": "address",
          "name": "",
          "type": "address"
        },
        {
          "internalType": "uint256",
          "name": "",
          "type": "uint256"
        }
      ],
      "name": "prices",
      "outputs": [
        {
          "internalType": "uint256",
          "name": "",
          "type": "uint256"
        }
      ],
      "stateMutability": "view",
      "type": "function"
    },
    {
      "inputs": [
        {
          "internalType": "address",
          "name": "",
          "type": "address"
        }
      ],
      "name": "quoteToken",
      "outputs": [
        {
          "internalType": "bytes32",
          "name": "",
          "type": "bytes32"
        }
      ],
      "stateMutability": "view",
      "type": "function"
    },
    {
      "inputs": [],
      "name": "renounceOwnership",
      "outputs": [],
      "stateMutability": "nonpayable",
      "type": "function"
    },
    {
      "inputs": [
        {
          "internalType": "string",
          "name": "_name",
          "type": "string"
        },
        {
          "internalType": "address",
          "name": "_feed",
          "type": "address"
        }
      ],
      "name": "setPriceFeed",
      "outputs": [],
      "stateMutability": "nonpayable",
      "type": "function"
    },
    {
      "inputs": [
        {
          "internalType": "address",
          "name": "newOwner",
          "type": "address"
        }
      ],
      "name": "transferOwnership",
      "outputs": [],
      "stateMutability": "nonpayable",
      "type": "function"
    },
    {
      "inputs": [
        {
          "internalType": "address",
          "name": "_token",
          "type": "address"
        },
        {
          "internalType": "uint256",
          "name": "_level",
          "type": "uint256"
        },
        {
          "internalType": "uint256",
          "name": "_price",
          "type": "uint256"
        }
      ],
      "name": "updatePrice",
      "outputs": [],
      "stateMutability": "nonpayable",
      "type": "function"
    },
    {
      "inputs": [
        {
          "internalType": "address",
          "name": "_token",
          "type": "address"
        },
        {
          "internalType": "uint256[]",
          "name": "_prices",
          "type": "uint256[]"
        }
      ],
      "name": "updatePrices",
      "outputs": [],
      "stateMutability": "nonpayable",
      "type": "function"
    }
  ],
  "bytecode": "0x608060405234801561001057600080fd5b5061001a3361001f565b61006f565b600080546001600160a01b038381166001600160a01b0319831681178455604051919092169283917f8be0079c531659141344cd1fd0a4f28419497f9722a3daafe3b4186f6b6457e09190a35050565b610b838061007e6000396000f3fe608060405234801561001057600080fd5b50600436106100d45760003560e01c8063bcbc90db11610081578063f2fde38b1161005b578063f2fde38b146101bb578063f3b3347e146101ce578063fc84b534146101e157600080fd5b8063bcbc90db14610175578063d5ed40ea14610188578063e57d6fb7146101a857600080fd5b80638da5cb5b116100b25780638da5cb5b14610134578063bbc492c01461014f578063bc2417931461016257600080fd5b80630600b0aa146100d9578063715018a6146101175780637e36f3cc14610121575b600080fd5b6101046100e7366004610969565b600360209081526000928352604080842090915290825290205481565b6040519081526020015b60405180910390f35b61011f610217565b005b61011f61012f3660046109a9565b610282565b6000546040516001600160a01b03909116815260200161010e565b61010461015d366004610969565b610473565b610104610170366004610969565b6104a4565b61011f610183366004610969565b6104fb565b610104610196366004610a7a565b60046020526000908152604090205481565b61011f6101b6366004610a9c565b610601565b61011f6101c9366004610a7a565b61074a565b61011f6101dc366004610acf565b61082c565b6101046101ef366004610969565b6001600160a01b03919091166000908152600360209081526040808320938352929052205490565b6000546001600160a01b031633146102765760405162461bcd60e51b815260206004820181905260248201527f4f776e61626c653a2063616c6c6572206973206e6f7420746865206f776e657260448201526064015b60405180910390fd5b61028060006108f0565b565b6000546001600160a01b031633146102dc5760405162461bcd60e51b815260206004820181905260248201527f4f776e61626c653a2063616c6c6572206973206e6f7420746865206f776e6572604482015260640161026d565b6001600160a01b038216600090815260026020526040902054806103425760405162461bcd60e51b815260206004820152601560248201527f5072696365206e6f7420696e697469616c697a65640000000000000000000000604482015260640161026d565b815181146103925760405162461bcd60e51b815260206004820152600f60248201527f4c656e677468206d69736d617463680000000000000000000000000000000000604482015260640161026d565b60005b8181101561046d578281815181106103af576103af610b50565b602002602001015160026000866001600160a01b03166001600160a01b0316815260200190815260200160002082815481106103ed576103ed610b50565b90600052602060002001819055508060010190507fb556fac599c3c70efb9ab1fa725ecace6c81cc48d1455f886607def065f3e0c0848285848151811061043657610436610b50565b602090810291909101810151604080516001600160a01b0390951685529184019290925282015260600160405180910390a1610395565b50505050565b6002602052816000526040600020818154811061048f57600080fd5b90600052602060002001600091509150505481565b6001600160a01b0382166000818152600360209081526040808320858452825280832054938352600290915281208054919291829081106104e7576104e7610b50565b906000526020600020015491505092915050565b6000546001600160a01b031633146105555760405162461bcd60e51b815260206004820181905260248201527f4f776e61626c653a2063616c6c6572206973206e6f7420746865206f776e6572604482015260640161026d565b6001600160a01b038216600090815260026020526040902054156105bb5760405162461bcd60e51b815260206004820152601360248201527f416c726561647920696e697469616c697a656400000000000000000000000000604482015260640161026d565b60005b818110156105fc576001600160a01b0383166000908152600260209081526040822080546001818101835591845291832090910191909155016105be565b505050565b6000546001600160a01b0316331461065b5760405162461bcd60e51b815260206004820181905260248201527f4f776e61626c653a2063616c6c6572206973206e6f7420746865206f776e6572604482015260640161026d565b6001600160a01b0383166000908152600260205260409020546106c05760405162461bcd60e51b815260206004820152601560248201527f5072696365206e6f7420696e697469616c697a65640000000000000000000000604482015260640161026d565b6001600160a01b03831660009081526002602052604090208054829190849081106106ed576106ed610b50565b60009182526020918290200191909155604080516001600160a01b038616815291820184905281018290527fb556fac599c3c70efb9ab1fa725ecace6c81cc48d1455f886607def065f3e0c09060600160405180910390a1505050565b6000546001600160a01b031633146107a45760405162461bcd60e51b815260206004820181905260248201527f4f776e61626c653a2063616c6c6572206973206e6f7420746865206f776e6572604482015260640161026d565b6001600160a01b0381166108205760405162461bcd60e51b815260206004820152602660248201527f4f776e61626c653a206e6577206f776e657220697320746865207a65726f206160448201527f6464726573730000000000000000000000000000000000000000000000000000606482015260840161026d565b610829816108f0565b50565b6000546001600160a01b031633146108865760405162461bcd60e51b815260206004820181905260248201527f4f776e61626c653a2063616c6c6572206973206e6f7420746865206f776e6572604482015260640161026d565b6000838360405160200161089b929190610b66565b60408051808303601f190181529181528151602092830120600090815260019092529020805473ffffffffffffffffffffffffffffffffffffffff19166001600160a01b039390931692909217909155505050565b600080546001600160a01b0383811673ffffffffffffffffffffffffffffffffffffffff19831681178455604051919092169283917f8be0079c531659141344cd1fd0a4f28419497f9722a3daafe3b4186f6b6457e09190a35050565b80356001600160a01b038116811461096457600080fd5b919050565b6000806040838503121561097c57600080fd5b6109858361094d565b946020939093013593505050565b634e487b7160e01b600052604160045260246000fd5b600080604083850312156109bc57600080fd5b6109c58361094d565b915060208084013567ffffffffffffffff808211156109e357600080fd5b818601915086601f8301126109f757600080fd5b813581811115610a0957610a09610993565b8060051b604051601f19603f83011681018181108582111715610a2e57610a2e610993565b604052918252848201925083810185019189831115610a4c57600080fd5b938501935b82851015610a6a57843584529385019392850192610a51565b8096505050505050509250929050565b600060208284031215610a8c57600080fd5b610a958261094d565b9392505050565b600080600060608486031215610ab157600080fd5b610aba8461094d565b95602085013595506040909401359392505050565b600080600060408486031215610ae457600080fd5b833567ffffffffffffffff80821115610afc57600080fd5b818601915086601f830112610b1057600080fd5b813581811115610b1f57600080fd5b876020828501011115610b3157600080fd5b602092830195509350610b47918601905061094d565b90509250925092565b634e487b7160e01b600052603260045260246000fd5b818382376000910190815291905056fea164736f6c634300080d000a",
  "linkReferences": {},
  "deployedLinkReferences": {}
}