{
  "_format": "hh-sol-artifact-1",
  "contractName": "JumpInterestRateModel",
  "sourceName": "contracts/money-market/JumpInterestRateModel.sol",
  "abi": [
    {
      "inputs": [
        {
          "internalType": "uint256",
          "name": "_baseRatePerYear",
          "type": "uint256"
        },
        {
          "internalType": "uint256",
          "name": "_multiplierPerYear",
          "type": "uint256"
        },
        {
          "internalType": "uint256",
          "name": "_jumpMultiplierPerYear",
          "type": "uint256"
        },
        {
          "internalType": "uint256",
          "name": "_kink",
          "type": "uint256"
        }
      ],
      "stateMutability": "nonpayable",
      "type": "constructor"
    },
    {
      "anonymous": false,
      "inputs": [
        {
          "indexed": false,
          "internalType": "uint256",
          "name": "baseRatePerBlock",
          "type": "uint256"
        },
        {
          "indexed": false,
          "internalType": "uint256",
          "name": "multiplierPerBlock",
          "type": "uint256"
        },
        {
          "indexed": false,
          "internalType": "uint256",
          "name": "jumpMultiplierPerBlock",
          "type": "uint256"
        },
        {
          "indexed": false,
          "internalType": "uint256",
          "name": "kink",
          "type": "uint256"
        }
      ],
      "name": "NewInterestParams",
      "type": "event"
    },
    {
      "anonymous": false,
      "inputs": [
        {
          "indexed": true,
          "internalType": "address",
          "name": "previousOwner",
          "type": "address"
        },
        {
          "indexed": true,
          "internalType": "address",
          "name": "newOwner",
          "type": "address"
        }
      ],
      "name": "OwnershipTransferred",
      "type": "event"
    },
    {
      "inputs": [],
      "name": "IS_INTEREST_RATE_MODEL",
      "outputs": [
        {
          "internalType": "bool",
          "name": "",
          "type": "bool"
        }
      ],
      "stateMutability": "view",
      "type": "function"
    },
    {
      "inputs": [],
      "name": "baseRatePerBlock",
      "outputs": [
        {
          "internalType": "uint256",
          "name": "",
          "type": "uint256"
        }
      ],
      "stateMutability": "view",
      "type": "function"
    },
    {
      "inputs": [],
      "name": "blocksPerYear",
      "outputs": [
        {
          "internalType": "uint256",
          "name": "",
          "type": "uint256"
        }
      ],
      "stateMutability": "view",
      "type": "function"
    },
    {
      "inputs": [
        {
          "internalType": "uint256",
          "name": "_cash",
          "type": "uint256"
        },
        {
          "internalType": "uint256",
          "name": "_borrows",
          "type": "uint256"
        },
        {
          "internalType": "uint256",
          "name": "_reserves",
          "type": "uint256"
        }
      ],
      "name": "getBorrowRate",
      "outputs": [
        {
          "internalType": "uint256",
          "name": "",
          "type": "uint256"
        }
      ],
      "stateMutability": "view",
      "type": "function"
    },
    {
      "inputs": [
        {
          "internalType": "uint256",
          "name": "_cash",
          "type": "uint256"
        },
        {
          "internalType": "uint256",
          "name": "_borrows",
          "type": "uint256"
        },
        {
          "internalType": "uint256",
          "name": "_reserves",
          "type": "uint256"
        },
        {
          "internalType": "uint256",
          "name": "_reserveFactorMantissa",
          "type": "uint256"
        }
      ],
      "name": "getSupplyRate",
      "outputs": [
        {
          "internalType": "uint256",
          "name": "",
          "type": "uint256"
        }
      ],
      "stateMutability": "view",
      "type": "function"
    },
    {
      "inputs": [],
      "name": "isInterestRateModel",
      "outputs": [
        {
          "internalType": "bool",
          "name": "",
          "type": "bool"
        }
      ],
      "stateMutability": "pure",
      "type": "function"
    },
    {
      "inputs": [],
      "name": "jumpMultiplierPerBlock",
      "outputs": [
        {
          "internalType": "uint256",
          "name": "",
          "type": "uint256"
        }
      ],
      "stateMutability": "view",
      "type": "function"
    },
    {
      "inputs": [],
      "name": "kink",
      "outputs": [
        {
          "internalType": "uint256",
          "name": "",
          "type": "uint256"
        }
      ],
      "stateMutability": "view",
      "type": "function"
    },
    {
      "inputs": [],
      "name": "multiplierPerBlock",
      "outputs": [
        {
          "internalType": "uint256",
          "name": "",
          "type": "uint256"
        }
      ],
      "stateMutability": "view",
      "type": "function"
    },
    {
      "inputs": [],
      "name": "owner",
      "outputs": [
        {
          "internalType": "address",
          "name": "",
          "type": "address"
        }
      ],
      "stateMutability": "view",
      "type": "function"
    },
    {
      "inputs": [],
      "name": "renounceOwnership",
      "outputs": [],
      "stateMutability": "nonpayable",
      "type": "function"
    },
    {
      "inputs": [
        {
          "internalType": "address",
          "name": "newOwner",
          "type": "address"
        }
      ],
      "name": "transferOwnership",
      "outputs": [],
      "stateMutability": "nonpayable",
      "type": "function"
    },
    {
      "inputs": [
        {
          "internalType": "uint256",
          "name": "_baseRatePerYear",
          "type": "uint256"
        },
        {
          "internalType": "uint256",
          "name": "_multiplierPerYear",
          "type": "uint256"
        },
        {
          "internalType": "uint256",
          "name": "_jumpMultiplierPerYear",
          "type": "uint256"
        },
        {
          "internalType": "uint256",
          "name": "_kink",
          "type": "uint256"
        }
      ],
      "name": "updateJumpRateModel",
      "outputs": [],
      "stateMutability": "nonpayable",
      "type": "function"
    },
    {
      "inputs": [
        {
          "internalType": "uint256",
          "name": "_cash",
          "type": "uint256"
        },
        {
          "internalType": "uint256",
          "name": "_borrows",
          "type": "uint256"
        },
        {
          "internalType": "uint256",
          "name": "_reserves",
          "type": "uint256"
        }
      ],
      "name": "utilizationRate",
      "outputs": [
        {
          "internalType": "uint256",
          "name": "",
          "type": "uint256"
        }
      ],
      "stateMutability": "pure",
      "type": "function"
    }
  ],
  "bytecode": "0x608060405234801561001057600080fd5b506040516108fc3803806108fc83398101604081905261002f91610133565b610038336100e3565b6100456220148085610169565b600255610055816220148061018b565b610067670de0b6b3a76400008561018b565b6100719190610169565b6001556100816220148083610169565b60038190556004829055600254600154604080519283526020830191909152810191909152606081018290527f6960ab234c7ef4b0c9197100f5393cfcde7c453ac910a27bd2000aa1dd4c068d9060800160405180910390a1505050506101b8565b600080546001600160a01b038381166001600160a01b0319831681178455604051919092169283917f8be0079c531659141344cd1fd0a4f28419497f9722a3daafe3b4186f6b6457e09190a35050565b6000806000806080858703121561014957600080fd5b505082516020840151604085015160609095015191969095509092509050565b60008261018657634e487b7160e01b600052601260045260246000fd5b500490565b60008160001904831182151516156101b357634e487b7160e01b600052601160045260246000fd5b500290565b610735806101c76000396000f3fe608060405234801561001057600080fd5b50600436106100ea5760003560e01c80638da5cb5b1161008c578063b9f9850a11610066578063b9f9850a146101a1578063f14039de146101aa578063f2fde38b146101b3578063fd2da339146101c657600080fd5b80638da5cb5b14610169578063a385fb9614610184578063b81688161461018e57600080fd5b80632fcda258116100c85780632fcda2581461013d5780636e71e2d814610145578063715018a6146101585780638726bb891461016057600080fd5b806315f24053146100ef5780632037f3e7146101155780632191f92a1461012a575b600080fd5b6101026100fd36600461061b565b6101cf565b6040519081526020015b60405180910390f35b610128610123366004610647565b61029d565b005b60015b604051901515815260200161010c565b61012d600181565b61010261015336600461061b565b6103a4565b6101286103ef565b61010260015481565b6000546040516001600160a01b03909116815260200161010c565b6101026220148081565b61010261019c366004610647565b610455565b61010260035481565b61010260025481565b6101286101c1366004610679565b6104d1565b61010260045481565b6000806101dd8585856103a4565b9050600454811161021e57600254670de0b6b3a76400006001548361020291906106b8565b61020c91906106d7565b61021691906106f9565b915050610296565b6000600254670de0b6b3a764000060015460045461023c91906106b8565b61024691906106d7565b61025091906106f9565b90506000600454836102629190610711565b905081670de0b6b3a76400006003548361027c91906106b8565b61028691906106d7565b61029091906106f9565b93505050505b9392505050565b6000546001600160a01b031633146102fc5760405162461bcd60e51b815260206004820181905260248201527f4f776e61626c653a2063616c6c6572206973206e6f7420746865206f776e657260448201526064015b60405180910390fd5b61030962201480856106d7565b60025561031981622014806106b8565b61032b670de0b6b3a7640000856106b8565b61033591906106d7565b60015561034562201480836106d7565b60038190556004829055600254600154604080519283526020830191909152810191909152606081018290527f6960ab234c7ef4b0c9197100f5393cfcde7c453ac910a27bd2000aa1dd4c068d9060800160405180910390a150505050565b6000826000036103b657506000610296565b816103c184866106f9565b6103cb9190610711565b6103dd670de0b6b3a7640000856106b8565b6103e791906106d7565b949350505050565b6000546001600160a01b031633146104495760405162461bcd60e51b815260206004820181905260248201527f4f776e61626c653a2063616c6c6572206973206e6f7420746865206f776e657260448201526064016102f3565b61045360006105b3565b565b60008061046a83670de0b6b3a7640000610711565b905060006104798787876101cf565b90506000670de0b6b3a764000061049084846106b8565b61049a91906106d7565b9050670de0b6b3a7640000816104b18a8a8a6103a4565b6104bb91906106b8565b6104c591906106d7565b98975050505050505050565b6000546001600160a01b0316331461052b5760405162461bcd60e51b815260206004820181905260248201527f4f776e61626c653a2063616c6c6572206973206e6f7420746865206f776e657260448201526064016102f3565b6001600160a01b0381166105a75760405162461bcd60e51b815260206004820152602660248201527f4f776e61626c653a206e6577206f776e657220697320746865207a65726f206160448201527f646472657373000000000000000000000000000000000000000000000000000060648201526084016102f3565b6105b0816105b3565b50565b600080546001600160a01b038381167fffffffffffffffffffffffff0000000000000000000000000000000000000000831681178455604051919092169283917f8be0079c531659141344cd1fd0a4f28419497f9722a3daafe3b4186f6b6457e09190a35050565b60008060006060848603121561063057600080fd5b505081359360208301359350604090920135919050565b6000806000806080858703121561065d57600080fd5b5050823594602084013594506040840135936060013592509050565b60006020828403121561068b57600080fd5b81356001600160a01b038116811461029657600080fd5b634e487b7160e01b600052601160045260246000fd5b60008160001904831182151516156106d2576106d26106a2565b500290565b6000826106f457634e487b7160e01b600052601260045260246000fd5b500490565b6000821982111561070c5761070c6106a2565b500190565b600082821015610723576107236106a2565b50039056fea164736f6c634300080d000a",
  "linkReferences": {},
  "deployedLinkReferences": {}
}