{
  "_format": "hh-sol-artifact-1",
  "contractName": "AggregatePoolFactory",
  "sourceName": "contracts/aggregate-pool/AggregatePoolFactory.sol",
  "abi": [
    {
      "inputs": [
        {
          "internalType": "address",
          "name": "_checker",
          "type": "address"
        },
        {
          "internalType": "address",
          "name": "_fur",
          "type": "address"
        }
      ],
      "stateMutability": "nonpayable",
      "type": "constructor"
    },
    {
      "anonymous": false,
      "inputs": [
        {
          "indexed": true,
          "internalType": "address",
          "name": "previousOwner",
          "type": "address"
        },
        {
          "indexed": true,
          "internalType": "address",
          "name": "newOwner",
          "type": "address"
        }
      ],
      "name": "OwnershipTransferred",
      "type": "event"
    },
    {
      "anonymous": false,
      "inputs": [
        {
          "indexed": false,
          "internalType": "address",
          "name": "poolAddress",
          "type": "address"
        },
        {
          "indexed": false,
          "internalType": "uint256",
          "name": "id",
          "type": "uint256"
        }
      ],
      "name": "PoolCreated",
      "type": "event"
    },
    {
      "inputs": [],
      "name": "allPoolsLength",
      "outputs": [
        {
          "internalType": "uint256",
          "name": "",
          "type": "uint256"
        }
      ],
      "stateMutability": "view",
      "type": "function"
    },
    {
      "inputs": [],
      "name": "checker",
      "outputs": [
        {
          "internalType": "address",
          "name": "",
          "type": "address"
        }
      ],
      "stateMutability": "view",
      "type": "function"
    },
    {
      "inputs": [
        {
          "internalType": "address[]",
          "name": "_tokens",
          "type": "address[]"
        }
      ],
      "name": "createPool",
      "outputs": [
        {
          "internalType": "address",
          "name": "poolAddress",
          "type": "address"
        }
      ],
      "stateMutability": "nonpayable",
      "type": "function"
    },
    {
      "inputs": [],
      "name": "fur",
      "outputs": [
        {
          "internalType": "address",
          "name": "",
          "type": "address"
        }
      ],
      "stateMutability": "view",
      "type": "function"
    },
    {
      "inputs": [
        {
          "internalType": "uint256",
          "name": "",
          "type": "uint256"
        }
      ],
      "name": "getPool",
      "outputs": [
        {
          "internalType": "address",
          "name": "",
          "type": "address"
        }
      ],
      "stateMutability": "view",
      "type": "function"
    },
    {
      "inputs": [],
      "name": "oracle",
      "outputs": [
        {
          "internalType": "address",
          "name": "",
          "type": "address"
        }
      ],
      "stateMutability": "view",
      "type": "function"
    },
    {
      "inputs": [],
      "name": "owner",
      "outputs": [
        {
          "internalType": "address",
          "name": "",
          "type": "address"
        }
      ],
      "stateMutability": "view",
      "type": "function"
    },
    {
      "inputs": [],
      "name": "renounceOwnership",
      "outputs": [],
      "stateMutability": "nonpayable",
      "type": "function"
    },
    {
      "inputs": [
        {
          "internalType": "address",
          "name": "_newOwner",
          "type": "address"
        }
      ],
      "name": "transferOwnership",
      "outputs": [],
      "stateMutability": "nonpayable",
      "type": "function"
    }
  ],
  "bytecode": "0x608060405234801561001057600080fd5b50604051612f44380380612f4483398101604081905261002f916100d5565b61003833610069565b600380546001600160a01b039384166001600160a01b03199182161790915560018054929093169116179055610108565b600080546001600160a01b038381166001600160a01b0319831681178455604051919092169283917f8be0079c531659141344cd1fd0a4f28419497f9722a3daafe3b4186f6b6457e09190a35050565b80516001600160a01b03811681146100d057600080fd5b919050565b600080604083850312156100e857600080fd5b6100f1836100b9565b91506100ff602084016100b9565b90509250929050565b612e2d806101176000396000f3fe60806040523480156200001157600080fd5b5060043610620000b05760003560e01c806392eec6b2116200007f578063efde4e641162000062578063efde4e641462000158578063f0a87c9f1462000171578063f2fde38b146200018857600080fd5b806392eec6b21462000130578063cf5303cf146200014457600080fd5b8063068bcd8d14620000b5578063715018a614620000fe5780637dc0d1d0146200010a5780638da5cb5b146200011e575b600080fd5b620000e1620000c6366004620007c5565b6005602052600090815260409020546001600160a01b031681565b6040516001600160a01b0390911681526020015b60405180910390f35b620001086200019f565b005b600254620000e1906001600160a01b031681565b6000546001600160a01b0316620000e1565b600154620000e1906001600160a01b031681565b600354620000e1906001600160a01b031681565b620001626200020d565b604051908152602001620000f5565b620000e16200018236600462000812565b6200021e565b6200010862000199366004620008e5565b620004a3565b6000546001600160a01b03163314620001ff5760405162461bcd60e51b815260206004820181905260248201527f4f776e61626c653a2063616c6c6572206973206e6f7420746865206f776e657260448201526064015b60405180910390fd5b6200020b600062000621565b565b60006200021960045490565b905090565b6003546000906001600160a01b0316620002a15760405162461bcd60e51b815260206004820152602660248201527f416767726567617465506f6f6c466163746f72793a20436865636b6572206e6f60448201527f74207365742e00000000000000000000000000000000000000000000000000006064820152608401620001f6565b620002b0600480546001019055565b600082604051602001620002c591906200090a565b60408051601f19818403018152919052805160209091012060015460025491925082916001600160a01b039182169116620003086000546001600160a01b031690565b866200031d6200031760045490565b6200067e565b6040516020016200032f91906200097e565b6040516020818303038152906040526200034c6200031760045490565b6040516020016200035e9190620009c5565b6040516020818303038152906040526040516200037b90620007b7565b6200038c9695949392919062000a20565b8190604051809103906000f5905080158015620003ad573d6000803e3d6000fd5b5091508160056000620003bf60045490565b815260208101919091526040908101600020805473ffffffffffffffffffffffffffffffffffffffff19166001600160a01b03938416179055600354905163d48bfca760e01b8152848316600482015291169063d48bfca790602401600060405180830381600087803b1580156200043657600080fd5b505af11580156200044b573d6000803e3d6000fd5b505050507f641e49906554552c8c33d7e09e02d1270590f405bc1da0c7b99a9c2808abdd05826200047b60045490565b604080516001600160a01b03909316835260208301919091520160405180910390a150919050565b6000546001600160a01b03163314620004ff5760405162461bcd60e51b815260206004820181905260248201527f4f776e61626c653a2063616c6c6572206973206e6f7420746865206f776e65726044820152606401620001f6565b6001600160a01b0381166200057d5760405162461bcd60e51b815260206004820152602660248201527f4f776e61626c653a204e6577206f776e657220697320746865207a65726f206160448201527f64647265737300000000000000000000000000000000000000000000000000006064820152608401620001f6565b620005888162000621565b60015b6004546200059b90600162000ad1565b8110156200061d576000818152600560205260409081902054905163a6f9dae160e01b81526001600160a01b0384811660048301529091169063a6f9dae190602401600060405180830381600087803b158015620005f857600080fd5b505af11580156200060d573d6000803e3d6000fd5b505050508060010190506200058b565b5050565b600080546001600160a01b0383811673ffffffffffffffffffffffffffffffffffffffff19831681178455604051919092169283917f8be0079c531659141344cd1fd0a4f28419497f9722a3daafe3b4186f6b6457e09190a35050565b606081600003620006a65750506040805180820190915260018152600360fc1b602082015290565b8160005b8115620006d65780620006bd8162000aec565b9150620006ce9050600a8362000b1e565b9150620006aa565b60008167ffffffffffffffff811115620006f457620006f4620007df565b6040519080825280601f01601f1916602001820160405280156200071f576020820181803683370190505b5090505b8415620007af576200073760018362000b35565b915062000746600a8662000b4f565b6200075390603062000ad1565b60f81b8183815181106200076b576200076b62000b66565b60200101907effffffffffffffffffffffffffffffffffffffffffffffffffffffffffffff1916908160001a905350620007a7600a8662000b1e565b945062000723565b949350505050565b6122a48062000b7d83390190565b600060208284031215620007d857600080fd5b5035919050565b634e487b7160e01b600052604160045260246000fd5b80356001600160a01b03811681146200080d57600080fd5b919050565b600060208083850312156200082657600080fd5b823567ffffffffffffffff808211156200083f57600080fd5b818501915085601f8301126200085457600080fd5b813581811115620008695762000869620007df565b8060051b604051601f19603f83011681018181108582111715620008915762000891620007df565b604052918252848201925083810185019188831115620008b057600080fd5b938501935b82851015620008d957620008c985620007f5565b84529385019392850192620008b5565b98975050505050505050565b600060208284031215620008f857600080fd5b6200090382620007f5565b9392505050565b815160009082906020808601845b838110156200093f5781516001600160a01b03168552938201939082019060010162000918565b50929695505050505050565b60005b83811015620009685781810151838201526020016200094e565b8381111562000978576000848401525b50505050565b7f467572696f6e46756e6769626c65546f6b656e00000000000000000000000000815260008251620009b88160138501602087016200094b565b9190910160130192915050565b6211919560ea1b815260008251620009e58160038501602087016200094b565b9190910160030192915050565b6000815180845262000a0c8160208601602086016200094b565b601f01601f19169290920160200192915050565b600060c082016001600160a01b03808a1684526020818a1681860152818916604086015260c0606086015282885180855260e087019150828a01945060005b8181101562000a7f57855185168352948301949183019160010162000a5f565b5050858103608087015262000a958189620009f2565b935050505082810360a084015262000aae8185620009f2565b9998505050505050505050565b634e487b7160e01b600052601160045260246000fd5b6000821982111562000ae75762000ae762000abb565b500190565b60006001820162000b015762000b0162000abb565b5060010190565b634e487b7160e01b600052601260045260246000fd5b60008262000b305762000b3062000b08565b500490565b60008282101562000b4a5762000b4a62000abb565b500390565b60008262000b615762000b6162000b08565b500690565b634e487b7160e01b600052603260045260246000fdfe61016060405268056bc75e2d63100000600c5568056bc75e2d63100000600d553480156200002c57600080fd5b50604051620022a4380380620022a48339810160408190526200004f91620003e2565b8180604051806040016040528060018152602001603160f81b815250848481600390805190602001906200008592919062000241565b5080516200009b90600490602084019062000241565b5050825160208085019190912083518483012060e08290526101008190524660a0818152604080517f8b73c3c69bb8fe3d512ecc4cf759cc79239f7b179b0ffacaa9a75d522b39400f81880181905281830187905260608201869052608082019490945230818401528151808203909301835260c0019052805194019390932091935091906080523060c05261012052505033610140525050600780546001600160a01b038981166001600160a01b03199283161790925560088054898416908316179055600980549288169290911691909117905550825160005b8181101562000230576001600a60008784815181106200019b576200019b62000522565b60200260200101516001600160a01b03166001600160a01b0316815260200190815260200160002060006101000a81548160ff021916908315150217905550848181518110620001ef57620001ef62000522565b6020908102919091018101516000838152600b909252604090912080546001600160a01b0319166001600160a01b0390921691909117905560010162000177565b50600e555062000574945050505050565b8280546200024f9062000538565b90600052602060002090601f016020900481019282620002735760008555620002be565b82601f106200028e57805160ff1916838001178555620002be565b82800160010185558215620002be579182015b82811115620002be578251825591602001919060010190620002a1565b50620002cc929150620002d0565b5090565b5b80821115620002cc5760008155600101620002d1565b80516001600160a01b0381168114620002ff57600080fd5b919050565b634e487b7160e01b600052604160045260246000fd5b604051601f8201601f191681016001600160401b038111828210171562000345576200034562000304565b604052919050565b600082601f8301126200035f57600080fd5b81516001600160401b038111156200037b576200037b62000304565b602062000391601f8301601f191682016200031a565b8281528582848701011115620003a657600080fd5b60005b83811015620003c6578581018301518282018401528201620003a9565b83811115620003d85760008385840101525b5095945050505050565b60008060008060008060c08789031215620003fc57600080fd5b6200040787620002e7565b9550602062000418818901620002e7565b95506200042860408901620002e7565b60608901519095506001600160401b03808211156200044657600080fd5b818a0191508a601f8301126200045b57600080fd5b81518181111562000470576200047062000304565b8060051b620004818582016200031a565b918252838101850191858101908e8411156200049c57600080fd5b948601945b83861015620004c557620004b586620002e7565b82529486019490860190620004a1565b60808e0151909950955050505080831115620004e057600080fd5b620004ee8b848c016200034d565b945060a08a01519250808311156200050557600080fd5b50506200051589828a016200034d565b9150509295509295509295565b634e487b7160e01b600052603260045260246000fd5b600181811c908216806200054d57607f821691505b6020821081036200056e57634e487b7160e01b600052602260045260246000fd5b50919050565b60805160a05160c05160e051610100516101205161014051611cce620005d66000396000818161038e0152610b9a015260006113c601526000611415015260006113f001526000611349015260006113730152600061139d0152611cce6000f3fe608060405234801561001057600080fd5b50600436106101b85760003560e01c80638da5cb5b116100f9578063a9059cbb11610097578063c45a015511610071578063c45a015514610389578063d505accf146103b0578063dd62ed3e146103c3578063e2d7bee4146103fc57600080fd5b8063a9059cbb1461034a578063b2951e091461035d578063b2dd5c071461036657600080fd5b806395d89b41116100d357806395d89b4114610309578063a2bc66be14610311578063a457c2d714610324578063a6f9dae11461033757600080fd5b80638da5cb5b146102cd5780638ea97d26146102f85780639358928b1461030157600080fd5b8063222c9777116101665780633644e515116101405780633644e51514610276578063395093511461027e57806370a08231146102915780637ecebe00146102ba57600080fd5b8063222c97771461024b57806323b872dd14610254578063313ce5671461026757600080fd5b806309824a801161019757806309824a80146102135780630c51b88f1461022657806318160ddd1461023957600080fd5b806218a116146101bd57806306fdde03146101d2578063095ea7b3146101f0575b600080fd5b6101d06101cb3660046119b9565b61040f565b005b6101da610481565b6040516101e791906119d2565b60405180910390f35b6102036101fe366004611a43565b610513565b60405190151581526020016101e7565b6101d0610221366004611a6d565b61052b565b6101d0610234366004611a88565b610636565b6002545b6040519081526020016101e7565b61023d600c5481565b610203610262366004611abb565b610841565b604051601281526020016101e7565b61023d610865565b61020361028c366004611a43565b610874565b61023d61029f366004611a6d565b6001600160a01b031660009081526020819052604090205490565b61023d6102c8366004611a6d565b6108b3565b6009546102e0906001600160a01b031681565b6040516001600160a01b0390911681526020016101e7565b61023d600d5481565b61023d6108d3565b6101da6108de565b6101d061031f366004611a88565b6108ed565b610203610332366004611a43565b610ae5565b6101d0610345366004611a6d565b610b8f565b610203610358366004611a43565b610c44565b61023d600e5481565b610203610374366004611a6d565b600a6020526000908152604090205460ff1681565b6102e07f000000000000000000000000000000000000000000000000000000000000000081565b6101d06103be366004611af7565b610c52565b61023d6103d1366004611b6a565b6001600160a01b03918216600090815260016020908152604080832093909416825291909152205490565b6101d061040a3660046119b9565b610db6565b6009546001600160a01b0316331461047c5760405162461bcd60e51b815260206004820152602560248201527f416767726567617465506f6f6c3a204e6f74207065726d697474656420746f2060448201526431b0b6361760d91b60648201526084015b60405180910390fd5b600d55565b60606003805461049090611b9d565b80601f01602080910402602001604051908101604052809291908181526020018280546104bc90611b9d565b80156105095780601f106104de57610100808354040283529160200191610509565b820191906000526020600020905b8154815290600101906020018083116104ec57829003601f168201915b5050505050905090565b600033610521818585610e23565b5060019392505050565b6009546001600160a01b031633146105935760405162461bcd60e51b815260206004820152602560248201527f416767726567617465506f6f6c3a204e6f74207065726d697474656420746f2060448201526431b0b6361760d91b6064820152608401610473565b6001600160a01b0381166000818152600a60209081526040808320805460ff19166001179055600e80548452600b9092528220805473ffffffffffffffffffffffffffffffffffffffff1916909317909255815491906105f283611be7565b90915550506040516001600160a01b03821681527f5d0a1a502538b17810b0b5bb2ec57e41a9f0e4ff2c08490f11f1eef9b0ee9eb29060200160405180910390a150565b6001600160a01b0383166000908152600a6020526040902054839060ff1615156001146106bd5760405162461bcd60e51b815260206004820152602f60248201527f416767726567617465506f6f6c3a20546f6b656e206e6f74206163636570746560448201526e321034b7103a3434b9903837b7b61760891b6064820152608401610473565b60006106c98584610f48565b905060006106d684610f89565b90506000816106e58488611c00565b6106ef9190611c1f565b600754600954600c546040516323b872dd60e01b81523360048201526001600160a01b039283166024820152604481019190915292935016906323b872dd906064016020604051808303816000875af1158015610750573d6000803e3d6000fd5b505050506040513d601f19601f820116820180604052508101906107749190611c41565b506040516323b872dd60e01b8152336004820152306024820152604481018790526001600160a01b038816906323b872dd906064016020604051808303816000875af11580156107c8573d6000803e3d6000fd5b505050506040513d601f19601f820116820180604052508101906107ec9190611c41565b506107f73382610fce565b60405186815233906001600160a01b038916907f572917b843dd6132f2ef4857991377e173c54cb472655bad280701adbd372dc4906020015b60405180910390a350505050505050565b60003361084f8582856110ad565b61085a85858561113f565b506001949350505050565b600061086f61133c565b905090565b3360008181526001602090815260408083206001600160a01b038716845290915281205490919061052190829086906108ae908790611c63565b610e23565b6001600160a01b0381166000908152600560205260408120545b92915050565b600061086f60025490565b60606004805461049090611b9d565b6001600160a01b0383166000908152600a6020526040902054839060ff1615156001146109745760405162461bcd60e51b815260206004820152602f60248201527f416767726567617465506f6f6c3a20546f6b656e206e6f74206163636570746560448201526e321034b7103a3434b9903837b7b61760891b6064820152608401610473565b60006109808584610f48565b9050600061098d84610f89565b905060008261099c8388611c00565b6109a69190611c1f565b600754600954600d546040516323b872dd60e01b81523360048201526001600160a01b039283166024820152604481019190915292935016906323b872dd906064016020604051808303816000875af1158015610a07573d6000803e3d6000fd5b505050506040513d601f19601f82011682018060405250810190610a2b9190611c41565b50610a363387611463565b60405163a9059cbb60e01b8152336004820152602481018290526001600160a01b0388169063a9059cbb906044016020604051808303816000875af1158015610a83573d6000803e3d6000fd5b505050506040513d601f19601f82011682018060405250810190610aa79190611c41565b5060405181815233906001600160a01b038916907ff7fc830f89da6bb8e874b580b653a3fb2b6aa4aabcf2289983085a34f133b8b090602001610830565b3360008181526001602090815260408083206001600160a01b038716845290915281205490919083811015610b825760405162461bcd60e51b815260206004820152602560248201527f45524332303a2064656372656173656420616c6c6f77616e63652062656c6f7760448201527f207a65726f0000000000000000000000000000000000000000000000000000006064820152608401610473565b61085a8286868403610e23565b336001600160a01b037f00000000000000000000000000000000000000000000000000000000000000001614610c155760405162461bcd60e51b815260206004820152602560248201527f416767726567617465506f6f6c3a204e6f74207065726d697474656420746f2060448201526431b0b6361760d91b6064820152608401610473565b6009805473ffffffffffffffffffffffffffffffffffffffff19166001600160a01b0392909216919091179055565b60003361052181858561113f565b83421115610ca25760405162461bcd60e51b815260206004820152601d60248201527f45524332305065726d69743a206578706972656420646561646c696e650000006044820152606401610473565b60007f6e71edae12b1b97f4d1f60370fef10105fa2faae0126114a169c64845d6126c9888888610cd18c6115a9565b6040805160208101969096526001600160a01b0394851690860152929091166060840152608083015260a082015260c0810186905260e0016040516020818303038152906040528051906020012090506000610d2c826115cf565b90506000610d3c8287878761161d565b9050896001600160a01b0316816001600160a01b031614610d9f5760405162461bcd60e51b815260206004820152601e60248201527f45524332305065726d69743a20696e76616c6964207369676e617475726500006044820152606401610473565b610daa8a8a8a610e23565b50505050505050505050565b6009546001600160a01b03163314610e1e5760405162461bcd60e51b815260206004820152602560248201527f416767726567617465506f6f6c3a204e6f74207065726d697474656420746f2060448201526431b0b6361760d91b6064820152608401610473565b600c55565b6001600160a01b038316610e855760405162461bcd60e51b8152602060048201526024808201527f45524332303a20617070726f76652066726f6d20746865207a65726f206164646044820152637265737360e01b6064820152608401610473565b6001600160a01b038216610ee65760405162461bcd60e51b815260206004820152602260248201527f45524332303a20617070726f766520746f20746865207a65726f206164647265604482015261737360f01b6064820152608401610473565b6001600160a01b0383811660008181526001602090815260408083209487168084529482529182902085905590518481527f8c5be1e5ebec7d5bd14f71427d1e84f3dd0314c0f7b2291e5b200ac8c7c3b92591015b60405180910390a3505050565b60008082600003610f62575067d02ab486cedc0000610f75565b82600103610f75575067f9ccd8a1c50800005b610f816103e882611c1f565b949350505050565b600080610f946108d3565b905080600003610fad5750662386f26fc1000092915050565b80610fb784611645565b610fc19190611c1f565b9392505050565b50919050565b6001600160a01b0382166110245760405162461bcd60e51b815260206004820152601f60248201527f45524332303a206d696e7420746f20746865207a65726f2061646472657373006044820152606401610473565b80600260008282546110369190611c63565b90915550506001600160a01b03821660009081526020819052604081208054839290611063908490611c63565b90915550506040518181526001600160a01b038316906000907fddf252ad1be2c89b69c2b068fc378daa952ba7f163c4a11628f55a4df523b3ef9060200160405180910390a35050565b6001600160a01b038381166000908152600160209081526040808320938616835292905220546000198114611139578181101561112c5760405162461bcd60e51b815260206004820152601d60248201527f45524332303a20696e73756666696369656e7420616c6c6f77616e63650000006044820152606401610473565b6111398484848403610e23565b50505050565b6001600160a01b0383166111bb5760405162461bcd60e51b815260206004820152602560248201527f45524332303a207472616e736665722066726f6d20746865207a65726f20616460448201527f64726573730000000000000000000000000000000000000000000000000000006064820152608401610473565b6001600160a01b03821661121d5760405162461bcd60e51b815260206004820152602360248201527f45524332303a207472616e7366657220746f20746865207a65726f206164647260448201526265737360e81b6064820152608401610473565b6001600160a01b038316600090815260208190526040902054818110156112ac5760405162461bcd60e51b815260206004820152602660248201527f45524332303a207472616e7366657220616d6f756e742065786365656473206260448201527f616c616e636500000000000000000000000000000000000000000000000000006064820152608401610473565b6001600160a01b038085166000908152602081905260408082208585039055918516815290812080548492906112e3908490611c63565b92505081905550826001600160a01b0316846001600160a01b03167fddf252ad1be2c89b69c2b068fc378daa952ba7f163c4a11628f55a4df523b3ef8460405161132f91815260200190565b60405180910390a3611139565b6000306001600160a01b037f00000000000000000000000000000000000000000000000000000000000000001614801561139557507f000000000000000000000000000000000000000000000000000000000000000046145b156113bf57507f000000000000000000000000000000000000000000000000000000000000000090565b50604080517f00000000000000000000000000000000000000000000000000000000000000006020808301919091527f0000000000000000000000000000000000000000000000000000000000000000828401527f000000000000000000000000000000000000000000000000000000000000000060608301524660808301523060a0808401919091528351808403909101815260c0909201909252805191012090565b6001600160a01b0382166114c35760405162461bcd60e51b815260206004820152602160248201527f45524332303a206275726e2066726f6d20746865207a65726f206164647265736044820152607360f81b6064820152608401610473565b6001600160a01b038216600090815260208190526040902054818110156115375760405162461bcd60e51b815260206004820152602260248201527f45524332303a206275726e20616d6f756e7420657863656564732062616c616e604482015261636560f01b6064820152608401610473565b6001600160a01b0383166000908152602081905260408120838303905560028054849290611566908490611c7b565b90915550506040518281526000906001600160a01b038516907fddf252ad1be2c89b69c2b068fc378daa952ba7f163c4a11628f55a4df523b3ef90602001610f3b565b6001600160a01b0381166000908152600560205260409020805460018101825590610fc8565b60006108cd6115dc61133c565b8360405161190160f01b6020820152602281018390526042810182905260009060620160405160208183030381529060405280519060200120905092915050565b600080600061162e87878787611713565b9150915061163b81611800565b5095945050505050565b60008060005b600e5481101561170c576000818152600b60205260408120546001600160a01b0316906116788287610f48565b6040516370a0823160e01b81523060048201529091506000906001600160a01b038416906370a0823190602401602060405180830381865afa1580156116c2573d6000803e3d6000fd5b505050506040513d601f19601f820116820180604052508101906116e69190611c92565b90506116f28183611c00565b6116fc9086611c63565b945083600101935050505061164b565b5092915050565b6000807f7fffffffffffffffffffffffffffffff5d576e7357a4501ddfe92f46681b20a083111561174a57506000905060036117f7565b8460ff16601b1415801561176257508460ff16601c14155b1561177357506000905060046117f7565b6040805160008082526020820180845289905260ff881692820192909252606081018690526080810185905260019060a0016020604051602081039080840390855afa1580156117c7573d6000803e3d6000fd5b5050604051601f1901519150506001600160a01b0381166117f0576000600192509250506117f7565b9150600090505b94509492505050565b600081600481111561181457611814611cab565b0361181c5750565b600181600481111561183057611830611cab565b0361187d5760405162461bcd60e51b815260206004820152601860248201527f45434453413a20696e76616c6964207369676e617475726500000000000000006044820152606401610473565b600281600481111561189157611891611cab565b036118de5760405162461bcd60e51b815260206004820152601f60248201527f45434453413a20696e76616c6964207369676e6174757265206c656e677468006044820152606401610473565b60038160048111156118f2576118f2611cab565b0361194a5760405162461bcd60e51b815260206004820152602260248201527f45434453413a20696e76616c6964207369676e6174757265202773272076616c604482015261756560f01b6064820152608401610473565b600481600481111561195e5761195e611cab565b036119b65760405162461bcd60e51b815260206004820152602260248201527f45434453413a20696e76616c6964207369676e6174757265202776272076616c604482015261756560f01b6064820152608401610473565b50565b6000602082840312156119cb57600080fd5b5035919050565b600060208083528351808285015260005b818110156119ff578581018301518582016040015282016119e3565b81811115611a11576000604083870101525b50601f01601f1916929092016040019392505050565b80356001600160a01b0381168114611a3e57600080fd5b919050565b60008060408385031215611a5657600080fd5b611a5f83611a27565b946020939093013593505050565b600060208284031215611a7f57600080fd5b610fc182611a27565b600080600060608486031215611a9d57600080fd5b611aa684611a27565b95602085013595506040909401359392505050565b600080600060608486031215611ad057600080fd5b611ad984611a27565b9250611ae760208501611a27565b9150604084013590509250925092565b600080600080600080600060e0888a031215611b1257600080fd5b611b1b88611a27565b9650611b2960208901611a27565b95506040880135945060608801359350608088013560ff81168114611b4d57600080fd5b9699959850939692959460a0840135945060c09093013592915050565b60008060408385031215611b7d57600080fd5b611b8683611a27565b9150611b9460208401611a27565b90509250929050565b600181811c90821680611bb157607f821691505b602082108103610fc857634e487b7160e01b600052602260045260246000fd5b634e487b7160e01b600052601160045260246000fd5b600060018201611bf957611bf9611bd1565b5060010190565b6000816000190483118215151615611c1a57611c1a611bd1565b500290565b600082611c3c57634e487b7160e01b600052601260045260246000fd5b500490565b600060208284031215611c5357600080fd5b81518015158114610fc157600080fd5b60008219821115611c7657611c76611bd1565b500190565b600082821015611c8d57611c8d611bd1565b500390565b600060208284031215611ca457600080fd5b5051919050565b634e487b7160e01b600052602160045260246000fdfea164736f6c634300080d000aa164736f6c634300080d000a",
  "linkReferences": {},
  "deployedLinkReferences": {}
}