{
  "_format": "hh-sol-artifact-1",
  "contractName": "AggregatePoolFactory",
  "sourceName": "contracts/aggregate-pool/AggregatePoolFactory.sol",
  "abi": [
    {
      "inputs": [
        {
          "internalType": "address",
          "name": "_checker",
          "type": "address"
        },
        {
          "internalType": "address",
          "name": "_fur",
          "type": "address"
        },
        {
          "internalType": "address",
          "name": "_oracle",
          "type": "address"
        },
        {
          "internalType": "address",
          "name": "_spFactory",
          "type": "address"
        }
      ],
      "stateMutability": "nonpayable",
      "type": "constructor"
    },
    {
      "anonymous": false,
      "inputs": [
        {
          "indexed": true,
          "internalType": "address",
          "name": "previousOwner",
          "type": "address"
        },
        {
          "indexed": true,
          "internalType": "address",
          "name": "newOwner",
          "type": "address"
        }
      ],
      "name": "OwnershipTransferred",
      "type": "event"
    },
    {
      "anonymous": false,
      "inputs": [
        {
          "indexed": false,
          "internalType": "address",
          "name": "poolAddress",
          "type": "address"
        },
        {
          "indexed": false,
          "internalType": "uint256",
          "name": "id",
          "type": "uint256"
        }
      ],
      "name": "PoolCreated",
      "type": "event"
    },
    {
      "inputs": [],
      "name": "allPoolsLength",
      "outputs": [
        {
          "internalType": "uint256",
          "name": "",
          "type": "uint256"
        }
      ],
      "stateMutability": "view",
      "type": "function"
    },
    {
      "inputs": [],
      "name": "checker",
      "outputs": [
        {
          "internalType": "address",
          "name": "",
          "type": "address"
        }
      ],
      "stateMutability": "view",
      "type": "function"
    },
    {
      "inputs": [
        {
          "internalType": "address[]",
          "name": "_tokens",
          "type": "address[]"
        },
        {
          "internalType": "string",
          "name": "_name",
          "type": "string"
        },
        {
          "internalType": "string",
          "name": "_symbol",
          "type": "string"
        }
      ],
      "name": "createPool",
      "outputs": [
        {
          "internalType": "address",
          "name": "poolAddress",
          "type": "address"
        }
      ],
      "stateMutability": "nonpayable",
      "type": "function"
    },
    {
      "inputs": [],
      "name": "fur",
      "outputs": [
        {
          "internalType": "address",
          "name": "",
          "type": "address"
        }
      ],
      "stateMutability": "view",
      "type": "function"
    },
    {
      "inputs": [
        {
          "internalType": "uint256",
          "name": "",
          "type": "uint256"
        }
      ],
      "name": "getPool",
      "outputs": [
        {
          "internalType": "address",
          "name": "",
          "type": "address"
        }
      ],
      "stateMutability": "view",
      "type": "function"
    },
    {
      "inputs": [],
      "name": "oracle",
      "outputs": [
        {
          "internalType": "address",
          "name": "",
          "type": "address"
        }
      ],
      "stateMutability": "view",
      "type": "function"
    },
    {
      "inputs": [],
      "name": "owner",
      "outputs": [
        {
          "internalType": "address",
          "name": "",
          "type": "address"
        }
      ],
      "stateMutability": "view",
      "type": "function"
    },
    {
      "inputs": [],
      "name": "renounceOwnership",
      "outputs": [],
      "stateMutability": "nonpayable",
      "type": "function"
    },
    {
      "inputs": [],
      "name": "spFactory",
      "outputs": [
        {
          "internalType": "address",
          "name": "",
          "type": "address"
        }
      ],
      "stateMutability": "view",
      "type": "function"
    },
    {
      "inputs": [
        {
          "internalType": "address",
          "name": "_newOwner",
          "type": "address"
        }
      ],
      "name": "transferOwnership",
      "outputs": [],
      "stateMutability": "nonpayable",
      "type": "function"
    }
  ],
  "bytecode": "0x60e060405234801561001057600080fd5b5060405161308838038061308883398101604081905261002f916100d8565b6100383361006c565b6001600160a01b0393841660a052918316608052600180546001600160a01b0319169184169190911790551660c05261012c565b600080546001600160a01b038381166001600160a01b0319831681178455604051919092169283917f8be0079c531659141344cd1fd0a4f28419497f9722a3daafe3b4186f6b6457e09190a35050565b80516001600160a01b03811681146100d357600080fd5b919050565b600080600080608085870312156100ee57600080fd5b6100f7856100bc565b9350610105602086016100bc565b9250610113604086016100bc565b9150610121606086016100bc565b905092959194509250565b60805160a05160c051612f116101776000396000818161017b01526103390152600081816101a3015281816102280152610451015260008181610153015261030e0152612f116000f3fe60806040523480156200001157600080fd5b5060043610620000cd5760003560e01c8063c03c9bd3116200007f578063e0f877491162000062578063e0f8774914620001c5578063efde4e6414620001dc578063f2fde38b14620001f557600080fd5b8063c03c9bd31462000175578063cf5303cf146200019d57600080fd5b80637dc0d1d011620000b45780637dc0d1d014620001275780638da5cb5b146200013b57806392eec6b2146200014d57600080fd5b8063068bcd8d14620000d2578063715018a6146200011b575b600080fd5b620000fe620000e33660046200070b565b6003602052600090815260409020546001600160a01b031681565b6040516001600160a01b0390911681526020015b60405180910390f35b620001256200020c565b005b600154620000fe906001600160a01b031681565b6000546001600160a01b0316620000fe565b620000fe7f000000000000000000000000000000000000000000000000000000000000000081565b620000fe7f000000000000000000000000000000000000000000000000000000000000000081565b620000fe7f000000000000000000000000000000000000000000000000000000000000000081565b620000fe620001d636600462000803565b62000224565b620001e662000507565b60405190815260200162000112565b620001256200020636600462000909565b62000518565b6200021662000644565b620002226000620006a0565b565b60007f00000000000000000000000000000000000000000000000000000000000000006001600160a01b0316620002c85760405162461bcd60e51b815260206004820152602660248201527f416767726567617465506f6f6c466163746f72793a20436865636b6572206e6f60448201527f74207365742e000000000000000000000000000000000000000000000000000060648201526084015b60405180910390fd5b620002d7600280546001019055565b600084604051602001620002ec91906200092e565b60408051601f19818403018152919052805160209091012060015490915081907f0000000000000000000000000000000000000000000000000000000000000000906001600160a01b03167f00000000000000000000000000000000000000000000000000000000000000006200036b6000546001600160a01b031690565b89896040516020016200037f9190620009a2565b60405160208183030381529060405289604051602001620003a19190620009e9565b604051602081830303815290604052604051620003be90620006fd565b620003d0979695949392919062000a45565b8190604051809103906000f5905080158015620003f1573d6000803e3d6000fd5b50915081600360006200040360025490565b815260208101919091526040908101600020805473ffffffffffffffffffffffffffffffffffffffff19166001600160a01b039384161790555163d48bfca760e01b815283821660048201527f00000000000000000000000000000000000000000000000000000000000000009091169063d48bfca790602401600060405180830381600087803b1580156200049857600080fd5b505af1158015620004ad573d6000803e3d6000fd5b505050507f641e49906554552c8c33d7e09e02d1270590f405bc1da0c7b99a9c2808abdd0582620004dd60025490565b604080516001600160a01b03909316835260208301919091520160405180910390a1509392505050565b60006200051360025490565b905090565b6200052262000644565b6001600160a01b038116620005a05760405162461bcd60e51b815260206004820152602660248201527f4f776e61626c653a204e6577206f776e657220697320746865207a65726f206160448201527f64647265737300000000000000000000000000000000000000000000000000006064820152608401620002bf565b620005ab81620006a0565b60015b600254620005be90600162000aea565b81101562000640576000818152600360205260409081902054905163a6f9dae160e01b81526001600160a01b0384811660048301529091169063a6f9dae190602401600060405180830381600087803b1580156200061b57600080fd5b505af115801562000630573d6000803e3d6000fd5b50505050806001019050620005ae565b5050565b6000546001600160a01b03163314620002225760405162461bcd60e51b815260206004820181905260248201527f4f776e61626c653a2063616c6c6572206973206e6f7420746865206f776e65726044820152606401620002bf565b600080546001600160a01b0383811673ffffffffffffffffffffffffffffffffffffffff19831681178455604051919092169283917f8be0079c531659141344cd1fd0a4f28419497f9722a3daafe3b4186f6b6457e09190a35050565b6123f38062000b1283390190565b6000602082840312156200071e57600080fd5b5035919050565b634e487b7160e01b600052604160045260246000fd5b604051601f8201601f1916810167ffffffffffffffff8111828210171562000767576200076762000725565b604052919050565b80356001600160a01b03811681146200078757600080fd5b919050565b600082601f8301126200079e57600080fd5b813567ffffffffffffffff811115620007bb57620007bb62000725565b620007d0601f8201601f19166020016200073b565b818152846020838601011115620007e657600080fd5b816020850160208301376000918101602001919091529392505050565b6000806000606084860312156200081957600080fd5b833567ffffffffffffffff808211156200083257600080fd5b818601915086601f8301126200084757600080fd5b81356020828211156200085e576200085e62000725565b8160051b6200086f8282016200073b565b928352848101820192828101908b8511156200088a57600080fd5b958301955b84871015620008b357620008a3876200076f565b825295830195908301906200088f565b9850505087013592505080821115620008cb57600080fd5b620008d9878388016200078c565b93506040860135915080821115620008f057600080fd5b50620008ff868287016200078c565b9150509250925092565b6000602082840312156200091c57600080fd5b62000927826200076f565b9392505050565b815160009082906020808601845b83811015620009635781516001600160a01b0316855293820193908201906001016200093c565b50929695505050505050565b60005b838110156200098c57818101518382015260200162000972565b838111156200099c576000848401525b50505050565b7f467572696f6e46756e6769626c65546f6b656e20000000000000000000000000815260008251620009dc8160148501602087016200096f565b9190910160140192915050565b634646542d60e01b81526000825162000a0a8160048501602087016200096f565b9190910160040192915050565b6000815180845262000a318160208601602086016200096f565b601f01601f19169290920160200192915050565b600060e082016001600160a01b03808b1684526020818b1681860152818a166040860152818916606086015260e0608086015282885180855261010087019150828a01945060005b8181101562000aad57855185168352948301949183019160010162000a8d565b505085810360a087015262000ac3818962000a17565b935050505082810360c084015262000adc818562000a17565b9a9950505050505050505050565b6000821982111562000b0c57634e487b7160e01b600052601160045260246000fd5b50019056fe61016060405268056bc75e2d63100000600d5568056bc75e2d63100000600e553480156200002c57600080fd5b50604051620023f3380380620023f38339810160408190526200004f91620003f0565b8180604051806040016040528060018152602001603160f81b81525084848160039080519060200190620000859291906200024f565b5080516200009b9060049060208401906200024f565b5050825160208085019190912083518483012060e08290526101008190524660a0818152604080517f8b73c3c69bb8fe3d512ecc4cf759cc79239f7b179b0ffacaa9a75d522b39400f81880181905281830187905260608201869052608082019490945230818401528151808203909301835260c0019052805194019390932091935091906080523060c05261012052505033610140525050600780546001600160a01b038a81166001600160a01b031992831617909255600880548a841690831617905560098054898416908316179055600a80549288169290911691909117905550825160005b818110156200023d576001600b6000878481518110620001a857620001a862000544565b60200260200101516001600160a01b03166001600160a01b0316815260200190815260200160002060006101000a81548160ff021916908315150217905550848181518110620001fc57620001fc62000544565b6020908102919091018101516000838152600c909252604090912080546001600160a01b0319166001600160a01b0390921691909117905560010162000184565b50600f55506200059695505050505050565b8280546200025d906200055a565b90600052602060002090601f016020900481019282620002815760008555620002cc565b82601f106200029c57805160ff1916838001178555620002cc565b82800160010185558215620002cc579182015b82811115620002cc578251825591602001919060010190620002af565b50620002da929150620002de565b5090565b5b80821115620002da5760008155600101620002df565b80516001600160a01b03811681146200030d57600080fd5b919050565b634e487b7160e01b600052604160045260246000fd5b604051601f8201601f191681016001600160401b038111828210171562000353576200035362000312565b604052919050565b600082601f8301126200036d57600080fd5b81516001600160401b0381111562000389576200038962000312565b60206200039f601f8301601f1916820162000328565b8281528582848701011115620003b457600080fd5b60005b83811015620003d4578581018301518282018401528201620003b7565b83811115620003e65760008385840101525b5095945050505050565b600080600080600080600060e0888a0312156200040c57600080fd5b6200041788620002f5565b9650602062000428818a01620002f5565b96506200043860408a01620002f5565b95506200044860608a01620002f5565b60808a01519095506001600160401b03808211156200046657600080fd5b818b0191508b601f8301126200047b57600080fd5b81518181111562000490576200049062000312565b8060051b620004a185820162000328565b918252838101850191858101908f841115620004bc57600080fd5b948601945b83861015620004e557620004d586620002f5565b82529486019490860190620004c1565b60a08f01519099509550505050808311156200050057600080fd5b6200050e8c848d016200035b565b945060c08b01519250808311156200052557600080fd5b5050620005358a828b016200035b565b91505092959891949750929550565b634e487b7160e01b600052603260045260246000fd5b600181811c908216806200056f57607f821691505b6020821081036200059057634e487b7160e01b600052602260045260246000fd5b50919050565b60805160a05160c05160e051610100516101205161014051611dfb620005f86000396000818161038e01526107970152600061125e015260006112ad01526000611288015260006111e10152600061120b015260006112350152611dfb6000f3fe608060405234801561001057600080fd5b50600436106101b85760003560e01c80638ea97d26116100f9578063b2951e0911610097578063c45a015511610071578063c45a015514610389578063d505accf146103b0578063dd62ed3e146103c3578063e2d7bee4146103fc57600080fd5b8063b2951e091461034a578063b2dd5c0714610353578063c2a672e01461037657600080fd5b8063a457c2d7116100d3578063a457c2d7146102fe578063a6f9dae114610311578063a9059cbb14610324578063adc9772e1461033757600080fd5b80638ea97d26146102e55780639358928b146102ee57806395d89b41146102f657600080fd5b806323b872dd116101665780633950935111610140578063395093511461026b57806370a082311461027e5780637ecebe00146102a75780638da5cb5b146102ba57600080fd5b806323b872dd14610241578063313ce567146102545780633644e5151461026357600080fd5b806309824a801161019757806309824a801461021357806318160ddd14610226578063222c97771461023857600080fd5b806218a116146101bd57806306fdde03146101d2578063095ea7b3146101f0575b600080fd5b6101d06101cb366004611af0565b61040f565b005b6101da610481565b6040516101e79190611b09565b60405180910390f35b6102036101fe366004611b73565b610513565b60405190151581526020016101e7565b6101d0610221366004611b9f565b61052b565b6002545b6040519081526020016101e7565b61022a600d5481565b61020361024f366004611bbc565b610636565b604051601281526020016101e7565b61022a61065a565b610203610279366004611b73565b610669565b61022a61028c366004611b9f565b6001600160a01b031660009081526020819052604090205490565b61022a6102b5366004611b9f565b6106a8565b600a546102cd906001600160a01b031681565b6040516001600160a01b0390911681526020016101e7565b61022a600e5481565b61022a6106c8565b6101da6106d3565b61020361030c366004611b73565b6106e2565b6101d061031f366004611b9f565b61078c565b610203610332366004611b73565b610841565b6101d0610345366004611b73565b61084f565b61022a600f5481565b610203610361366004611b9f565b600b6020526000908152604090205460ff1681565b6101d0610384366004611b73565b610a58565b6102cd7f000000000000000000000000000000000000000000000000000000000000000081565b6101d06103be366004611bfd565b610c4f565b61022a6103d1366004611c74565b6001600160a01b03918216600090815260016020908152604080832093909416825291909152205490565b6101d061040a366004611af0565b610db3565b600a546001600160a01b0316331461047c5760405162461bcd60e51b815260206004820152602560248201527f416767726567617465506f6f6c3a204e6f74207065726d697474656420746f2060448201526431b0b6361760d91b60648201526084015b60405180910390fd5b600e55565b60606003805461049090611cad565b80601f01602080910402602001604051908101604052809291908181526020018280546104bc90611cad565b80156105095780601f106104de57610100808354040283529160200191610509565b820191906000526020600020905b8154815290600101906020018083116104ec57829003601f168201915b5050505050905090565b600033610521818585610e20565b5060019392505050565b600a546001600160a01b031633146105935760405162461bcd60e51b815260206004820152602560248201527f416767726567617465506f6f6c3a204e6f74207065726d697474656420746f2060448201526431b0b6361760d91b6064820152608401610473565b6001600160a01b0381166000818152600b60209081526040808320805460ff19166001179055600f80548452600c9092528220805473ffffffffffffffffffffffffffffffffffffffff1916909317909255815491906105f283611cf7565b90915550506040516001600160a01b03821681527f5d0a1a502538b17810b0b5bb2ec57e41a9f0e4ff2c08490f11f1eef9b0ee9eb29060200160405180910390a150565b600033610644858285610f45565b61064f858585610fd7565b506001949350505050565b60006106646111d4565b905090565b3360008181526001602090815260408083206001600160a01b038716845290915281205490919061052190829086906106a3908790611d10565b610e20565b6001600160a01b0381166000908152600560205260408120545b92915050565b600061066460025490565b60606004805461049090611cad565b3360008181526001602090815260408083206001600160a01b03871684529091528120549091908381101561077f5760405162461bcd60e51b815260206004820152602560248201527f45524332303a2064656372656173656420616c6c6f77616e63652062656c6f7760448201527f207a65726f0000000000000000000000000000000000000000000000000000006064820152608401610473565b61064f8286868403610e20565b336001600160a01b037f000000000000000000000000000000000000000000000000000000000000000016146108125760405162461bcd60e51b815260206004820152602560248201527f416767726567617465506f6f6c3a204e6f74207065726d697474656420746f2060448201526431b0b6361760d91b6064820152608401610473565b600a805473ffffffffffffffffffffffffffffffffffffffff19166001600160a01b0392909216919091179055565b600033610521818585610fd7565b6001600160a01b0382166000908152600b6020526040902054829060ff1615156001146108d65760405162461bcd60e51b815260206004820152602f60248201527f416767726567617465506f6f6c3a20546f6b656e206e6f74206163636570746560448201526e321034b7103a3434b9903837b7b61760891b6064820152608401610473565b60006108e1846112fb565b905060006108ee85611477565b90506000816108fd8487611d28565b6109079190611d47565b600754600a54600d546040516323b872dd60e01b81523360048201526001600160a01b039283166024820152604481019190915292935016906323b872dd906064016020604051808303816000875af1158015610968573d6000803e3d6000fd5b505050506040513d601f19601f8201168201806040525081019061098c9190611d69565b506040516323b872dd60e01b8152336004820152306024820152604481018690526001600160a01b038716906323b872dd906064016020604051808303816000875af11580156109e0573d6000803e3d6000fd5b505050506040513d601f19601f82011682018060405250810190610a049190611d69565b50610a0f33826114bc565b60405185815233906001600160a01b038816907f572917b843dd6132f2ef4857991377e173c54cb472655bad280701adbd372dc4906020015b60405180910390a3505050505050565b6001600160a01b0382166000908152600b6020526040902054829060ff161515600114610adf5760405162461bcd60e51b815260206004820152602f60248201527f416767726567617465506f6f6c3a20546f6b656e206e6f74206163636570746560448201526e321034b7103a3434b9903837b7b61760891b6064820152608401610473565b6000610aea846112fb565b90506000610af785611477565b9050600082610b068387611d28565b610b109190611d47565b600754600a54600e546040516323b872dd60e01b81523360048201526001600160a01b039283166024820152604481019190915292935016906323b872dd906064016020604051808303816000875af1158015610b71573d6000803e3d6000fd5b505050506040513d601f19601f82011682018060405250810190610b959190611d69565b50610ba0338661159b565b60405163a9059cbb60e01b8152336004820152602481018290526001600160a01b0387169063a9059cbb906044016020604051808303816000875af1158015610bed573d6000803e3d6000fd5b505050506040513d601f19601f82011682018060405250810190610c119190611d69565b5060405181815233906001600160a01b038816907ff7fc830f89da6bb8e874b580b653a3fb2b6aa4aabcf2289983085a34f133b8b090602001610a48565b83421115610c9f5760405162461bcd60e51b815260206004820152601d60248201527f45524332305065726d69743a206578706972656420646561646c696e650000006044820152606401610473565b60007f6e71edae12b1b97f4d1f60370fef10105fa2faae0126114a169c64845d6126c9888888610cce8c6116e1565b6040805160208101969096526001600160a01b0394851690860152929091166060840152608083015260a082015260c0810186905260e0016040516020818303038152906040528051906020012090506000610d2982611707565b90506000610d3982878787611755565b9050896001600160a01b0316816001600160a01b031614610d9c5760405162461bcd60e51b815260206004820152601e60248201527f45524332305065726d69743a20696e76616c6964207369676e617475726500006044820152606401610473565b610da78a8a8a610e20565b50505050505050505050565b600a546001600160a01b03163314610e1b5760405162461bcd60e51b815260206004820152602560248201527f416767726567617465506f6f6c3a204e6f74207065726d697474656420746f2060448201526431b0b6361760d91b6064820152608401610473565b600d55565b6001600160a01b038316610e825760405162461bcd60e51b8152602060048201526024808201527f45524332303a20617070726f76652066726f6d20746865207a65726f206164646044820152637265737360e01b6064820152608401610473565b6001600160a01b038216610ee35760405162461bcd60e51b815260206004820152602260248201527f45524332303a20617070726f766520746f20746865207a65726f206164647265604482015261737360f01b6064820152608401610473565b6001600160a01b0383811660008181526001602090815260408083209487168084529482529182902085905590518481527f8c5be1e5ebec7d5bd14f71427d1e84f3dd0314c0f7b2291e5b200ac8c7c3b92591015b60405180910390a3505050565b6001600160a01b038381166000908152600160209081526040808320938616835292905220546000198114610fd15781811015610fc45760405162461bcd60e51b815260206004820152601d60248201527f45524332303a20696e73756666696369656e7420616c6c6f77616e63650000006044820152606401610473565b610fd18484848403610e20565b50505050565b6001600160a01b0383166110535760405162461bcd60e51b815260206004820152602560248201527f45524332303a207472616e736665722066726f6d20746865207a65726f20616460448201527f64726573730000000000000000000000000000000000000000000000000000006064820152608401610473565b6001600160a01b0382166110b55760405162461bcd60e51b815260206004820152602360248201527f45524332303a207472616e7366657220746f20746865207a65726f206164647260448201526265737360e81b6064820152608401610473565b6001600160a01b038316600090815260208190526040902054818110156111445760405162461bcd60e51b815260206004820152602660248201527f45524332303a207472616e7366657220616d6f756e742065786365656473206260448201527f616c616e636500000000000000000000000000000000000000000000000000006064820152608401610473565b6001600160a01b0380851660009081526020819052604080822085850390559185168152908120805484929061117b908490611d10565b92505081905550826001600160a01b0316846001600160a01b03167fddf252ad1be2c89b69c2b068fc378daa952ba7f163c4a11628f55a4df523b3ef846040516111c791815260200190565b60405180910390a3610fd1565b6000306001600160a01b037f00000000000000000000000000000000000000000000000000000000000000001614801561122d57507f000000000000000000000000000000000000000000000000000000000000000046145b1561125757507f000000000000000000000000000000000000000000000000000000000000000090565b50604080517f00000000000000000000000000000000000000000000000000000000000000006020808301919091527f0000000000000000000000000000000000000000000000000000000000000000828401527f000000000000000000000000000000000000000000000000000000000000000060608301524660808301523060a0808401919091528351808403909101815260c0909201909252805191012090565b60095460405163438493ed60e01b81526001600160a01b038381166004830152600092839291169063438493ed90602401602060405180830381865afa158015611349573d6000803e3d6000fd5b505050506040513d601f19601f8201168201806040525081019061136d9190611d8b565b90506001600160a01b0381166113eb5760405162461bcd60e51b815260206004820152603260248201527f416767726567617465506f6f6c3a20556e7265636f676e697a6564207365706160448201527f7261746520706f6f6c2070726f766964656400000000000000000000000000006064820152608401610473565b60085460405163bc24179360e01b81526001600160a01b03838116600483015260006024830181905292169063bc24179390604401602060405180830381865afa15801561143d573d6000803e3d6000fd5b505050506040513d601f19601f820116820180604052508101906114619190611da8565b905061146f6103e882611d47565b949350505050565b6000806114826106c8565b90508060000361149b5750662386f26fc1000092915050565b806114a58461177d565b6114af9190611d47565b9392505050565b50919050565b6001600160a01b0382166115125760405162461bcd60e51b815260206004820152601f60248201527f45524332303a206d696e7420746f20746865207a65726f2061646472657373006044820152606401610473565b80600260008282546115249190611d10565b90915550506001600160a01b03821660009081526020819052604081208054839290611551908490611d10565b90915550506040518181526001600160a01b038316906000907fddf252ad1be2c89b69c2b068fc378daa952ba7f163c4a11628f55a4df523b3ef9060200160405180910390a35050565b6001600160a01b0382166115fb5760405162461bcd60e51b815260206004820152602160248201527f45524332303a206275726e2066726f6d20746865207a65726f206164647265736044820152607360f81b6064820152608401610473565b6001600160a01b0382166000908152602081905260409020548181101561166f5760405162461bcd60e51b815260206004820152602260248201527f45524332303a206275726e20616d6f756e7420657863656564732062616c616e604482015261636560f01b6064820152608401610473565b6001600160a01b038316600090815260208190526040812083830390556002805484929061169e908490611dc1565b90915550506040518281526000906001600160a01b038516907fddf252ad1be2c89b69c2b068fc378daa952ba7f163c4a11628f55a4df523b3ef90602001610f38565b6001600160a01b03811660009081526005602052604090208054600181018255906114b6565b60006106c26117146111d4565b8360405161190160f01b6020820152602281018390526042810182905260009060620160405160208183030381529060405280519060200120905092915050565b60008060006117668787878761184a565b9150915061177381611937565b5095945050505050565b60008060005b600f54811015611843576000818152600c60205260408120546001600160a01b0316906117af866112fb565b6040516370a0823160e01b81523060048201529091506000906001600160a01b038416906370a0823190602401602060405180830381865afa1580156117f9573d6000803e3d6000fd5b505050506040513d601f19601f8201168201806040525081019061181d9190611da8565b90506118298183611d28565b6118339086611d10565b9450836001019350505050611783565b5092915050565b6000807f7fffffffffffffffffffffffffffffff5d576e7357a4501ddfe92f46681b20a0831115611881575060009050600361192e565b8460ff16601b1415801561189957508460ff16601c14155b156118aa575060009050600461192e565b6040805160008082526020820180845289905260ff881692820192909252606081018690526080810185905260019060a0016020604051602081039080840390855afa1580156118fe573d6000803e3d6000fd5b5050604051601f1901519150506001600160a01b0381166119275760006001925092505061192e565b9150600090505b94509492505050565b600081600481111561194b5761194b611dd8565b036119535750565b600181600481111561196757611967611dd8565b036119b45760405162461bcd60e51b815260206004820152601860248201527f45434453413a20696e76616c6964207369676e617475726500000000000000006044820152606401610473565b60028160048111156119c8576119c8611dd8565b03611a155760405162461bcd60e51b815260206004820152601f60248201527f45434453413a20696e76616c6964207369676e6174757265206c656e677468006044820152606401610473565b6003816004811115611a2957611a29611dd8565b03611a815760405162461bcd60e51b815260206004820152602260248201527f45434453413a20696e76616c6964207369676e6174757265202773272076616c604482015261756560f01b6064820152608401610473565b6004816004811115611a9557611a95611dd8565b03611aed5760405162461bcd60e51b815260206004820152602260248201527f45434453413a20696e76616c6964207369676e6174757265202776272076616c604482015261756560f01b6064820152608401610473565b50565b600060208284031215611b0257600080fd5b5035919050565b600060208083528351808285015260005b81811015611b3657858101830151858201604001528201611b1a565b81811115611b48576000604083870101525b50601f01601f1916929092016040019392505050565b6001600160a01b0381168114611aed57600080fd5b60008060408385031215611b8657600080fd5b8235611b9181611b5e565b946020939093013593505050565b600060208284031215611bb157600080fd5b81356114af81611b5e565b600080600060608486031215611bd157600080fd5b8335611bdc81611b5e565b92506020840135611bec81611b5e565b929592945050506040919091013590565b600080600080600080600060e0888a031215611c1857600080fd5b8735611c2381611b5e565b96506020880135611c3381611b5e565b95506040880135945060608801359350608088013560ff81168114611c5757600080fd5b9699959850939692959460a0840135945060c09093013592915050565b60008060408385031215611c8757600080fd5b8235611c9281611b5e565b91506020830135611ca281611b5e565b809150509250929050565b600181811c90821680611cc157607f821691505b6020821081036114b657634e487b7160e01b600052602260045260246000fd5b634e487b7160e01b600052601160045260246000fd5b600060018201611d0957611d09611ce1565b5060010190565b60008219821115611d2357611d23611ce1565b500190565b6000816000190483118215151615611d4257611d42611ce1565b500290565b600082611d6457634e487b7160e01b600052601260045260246000fd5b500490565b600060208284031215611d7b57600080fd5b815180151581146114af57600080fd5b600060208284031215611d9d57600080fd5b81516114af81611b5e565b600060208284031215611dba57600080fd5b5051919050565b600082821015611dd357611dd3611ce1565b500390565b634e487b7160e01b600052602160045260246000fdfea164736f6c634300080d000aa164736f6c634300080d000a",
  "linkReferences": {},
  "deployedLinkReferences": {}
}