{
  "_format": "hh-sol-artifact-1",
  "contractName": "FuNFTPass",
  "sourceName": "contracts/FuNFTPass.sol",
  "abi": [
    {
      "inputs": [
        {
          "internalType": "address",
          "name": "_fuCatNFT",
          "type": "address"
        }
      ],
      "stateMutability": "nonpayable",
      "type": "constructor"
    },
    {
      "anonymous": false,
      "inputs": [
        {
          "indexed": false,
          "internalType": "address",
          "name": "badgeToken",
          "type": "address"
        },
        {
          "indexed": false,
          "internalType": "uint256",
          "name": "score",
          "type": "uint256"
        }
      ],
      "name": "BadgeScoreUpdated",
      "type": "event"
    },
    {
      "anonymous": false,
      "inputs": [
        {
          "indexed": false,
          "internalType": "address",
          "name": "operator",
          "type": "address"
        },
        {
          "indexed": false,
          "internalType": "address",
          "name": "from",
          "type": "address"
        },
        {
          "indexed": false,
          "internalType": "uint256",
          "name": "tokenId",
          "type": "uint256"
        },
        {
          "indexed": false,
          "internalType": "bytes",
          "name": "data",
          "type": "bytes"
        }
      ],
      "name": "ChampionReceived",
      "type": "event"
    },
    {
      "anonymous": false,
      "inputs": [
        {
          "indexed": false,
          "internalType": "address",
          "name": "previewsFuCatNFT",
          "type": "address"
        },
        {
          "indexed": false,
          "internalType": "address",
          "name": "newFuCatNFT",
          "type": "address"
        }
      ],
      "name": "FuCatNFTUpdated",
      "type": "event"
    },
    {
      "anonymous": false,
      "inputs": [
        {
          "indexed": false,
          "internalType": "address",
          "name": "previousOperator",
          "type": "address"
        },
        {
          "indexed": false,
          "internalType": "address",
          "name": "newOperator",
          "type": "address"
        }
      ],
      "name": "OperatorTransferred",
      "type": "event"
    },
    {
      "anonymous": false,
      "inputs": [
        {
          "indexed": true,
          "internalType": "address",
          "name": "previousOwner",
          "type": "address"
        },
        {
          "indexed": true,
          "internalType": "address",
          "name": "newOwner",
          "type": "address"
        }
      ],
      "name": "OwnershipTransferred",
      "type": "event"
    },
    {
      "anonymous": false,
      "inputs": [
        {
          "indexed": false,
          "internalType": "address",
          "name": "user",
          "type": "address"
        },
        {
          "indexed": false,
          "internalType": "uint256",
          "name": "tokenId",
          "type": "uint256"
        },
        {
          "indexed": false,
          "internalType": "uint256",
          "name": "tokenScore",
          "type": "uint256"
        }
      ],
      "name": "Stake",
      "type": "event"
    },
    {
      "anonymous": false,
      "inputs": [
        {
          "indexed": false,
          "internalType": "uint256",
          "name": "tier",
          "type": "uint256"
        },
        {
          "indexed": false,
          "internalType": "uint256",
          "name": "score",
          "type": "uint256"
        },
        {
          "indexed": false,
          "internalType": "uint256",
          "name": "discount",
          "type": "uint256"
        }
      ],
      "name": "TierInfoUpdated",
      "type": "event"
    },
    {
      "anonymous": false,
      "inputs": [
        {
          "indexed": false,
          "internalType": "address",
          "name": "user",
          "type": "address"
        },
        {
          "indexed": false,
          "internalType": "uint256",
          "name": "tokenId",
          "type": "uint256"
        }
      ],
      "name": "Unstake",
      "type": "event"
    },
    {
      "inputs": [
        {
          "internalType": "address",
          "name": "",
          "type": "address"
        }
      ],
      "name": "badgeTokenScore",
      "outputs": [
        {
          "internalType": "uint256",
          "name": "",
          "type": "uint256"
        }
      ],
      "stateMutability": "view",
      "type": "function"
    },
    {
      "inputs": [
        {
          "internalType": "uint256",
          "name": "",
          "type": "uint256"
        }
      ],
      "name": "badgeTokens",
      "outputs": [
        {
          "internalType": "contract IERC721",
          "name": "",
          "type": "address"
        }
      ],
      "stateMutability": "view",
      "type": "function"
    },
    {
      "inputs": [],
      "name": "fuCatNFT",
      "outputs": [
        {
          "internalType": "contract IFuCatNFT",
          "name": "",
          "type": "address"
        }
      ],
      "stateMutability": "view",
      "type": "function"
    },
    {
      "inputs": [
        {
          "internalType": "uint256",
          "name": "score",
          "type": "uint256"
        }
      ],
      "name": "getTierInfo",
      "outputs": [
        {
          "internalType": "uint256",
          "name": "infoTier",
          "type": "uint256"
        },
        {
          "internalType": "uint256",
          "name": "infoScore",
          "type": "uint256"
        },
        {
          "internalType": "uint256",
          "name": "infoDiscount",
          "type": "uint256"
        }
      ],
      "stateMutability": "view",
      "type": "function"
    },
    {
      "inputs": [
        {
          "internalType": "uint256",
          "name": "",
          "type": "uint256"
        }
      ],
      "name": "hasTierAdded",
      "outputs": [
        {
          "internalType": "bool",
          "name": "",
          "type": "bool"
        }
      ],
      "stateMutability": "view",
      "type": "function"
    },
    {
      "inputs": [
        {
          "internalType": "address",
          "name": "",
          "type": "address"
        }
      ],
      "name": "isBadgeTokenListed",
      "outputs": [
        {
          "internalType": "bool",
          "name": "",
          "type": "bool"
        }
      ],
      "stateMutability": "view",
      "type": "function"
    },
    {
      "inputs": [
        {
          "internalType": "address",
          "name": "_operator",
          "type": "address"
        },
        {
          "internalType": "address",
          "name": "_from",
          "type": "address"
        },
        {
          "internalType": "uint256",
          "name": "_tokenId",
          "type": "uint256"
        },
        {
          "internalType": "bytes",
          "name": "_data",
          "type": "bytes"
        }
      ],
      "name": "onERC721Received",
      "outputs": [
        {
          "internalType": "bytes4",
          "name": "",
          "type": "bytes4"
        }
      ],
      "stateMutability": "nonpayable",
      "type": "function"
    },
    {
      "inputs": [],
      "name": "operator",
      "outputs": [
        {
          "internalType": "address",
          "name": "",
          "type": "address"
        }
      ],
      "stateMutability": "view",
      "type": "function"
    },
    {
      "inputs": [],
      "name": "owner",
      "outputs": [
        {
          "internalType": "address",
          "name": "",
          "type": "address"
        }
      ],
      "stateMutability": "view",
      "type": "function"
    },
    {
      "inputs": [
        {
          "internalType": "address",
          "name": "_user",
          "type": "address"
        }
      ],
      "name": "profileOf",
      "outputs": [
        {
          "internalType": "uint256",
          "name": "profileTier",
          "type": "uint256"
        },
        {
          "internalType": "uint256",
          "name": "profileScore",
          "type": "uint256"
        },
        {
          "internalType": "uint256",
          "name": "profileDiscount",
          "type": "uint256"
        }
      ],
      "stateMutability": "view",
      "type": "function"
    },
    {
      "inputs": [],
      "name": "renounceOwnership",
      "outputs": [],
      "stateMutability": "nonpayable",
      "type": "function"
    },
    {
      "inputs": [
        {
          "internalType": "address",
          "name": "_token",
          "type": "address"
        },
        {
          "internalType": "uint256",
          "name": "score",
          "type": "uint256"
        }
      ],
      "name": "setBadgeScore",
      "outputs": [],
      "stateMutability": "nonpayable",
      "type": "function"
    },
    {
      "inputs": [
        {
          "internalType": "address",
          "name": "_fuCatNFT",
          "type": "address"
        }
      ],
      "name": "setFuCatNFT",
      "outputs": [],
      "stateMutability": "nonpayable",
      "type": "function"
    },
    {
      "inputs": [
        {
          "internalType": "address",
          "name": "_operator",
          "type": "address"
        }
      ],
      "name": "setOperator",
      "outputs": [],
      "stateMutability": "nonpayable",
      "type": "function"
    },
    {
      "inputs": [
        {
          "internalType": "uint256",
          "name": "_tier",
          "type": "uint256"
        },
        {
          "internalType": "uint256",
          "name": "_score",
          "type": "uint256"
        },
        {
          "internalType": "uint256",
          "name": "_discount",
          "type": "uint256"
        }
      ],
      "name": "setTierInfo",
      "outputs": [],
      "stateMutability": "nonpayable",
      "type": "function"
    },
    {
      "inputs": [
        {
          "internalType": "uint256",
          "name": "_tokenId",
          "type": "uint256"
        }
      ],
      "name": "stake",
      "outputs": [],
      "stateMutability": "nonpayable",
      "type": "function"
    },
    {
      "inputs": [
        {
          "internalType": "uint256",
          "name": "",
          "type": "uint256"
        }
      ],
      "name": "tierInfos",
      "outputs": [
        {
          "internalType": "uint256",
          "name": "tier",
          "type": "uint256"
        },
        {
          "internalType": "uint256",
          "name": "score",
          "type": "uint256"
        },
        {
          "internalType": "uint256",
          "name": "discount",
          "type": "uint256"
        }
      ],
      "stateMutability": "view",
      "type": "function"
    },
    {
      "inputs": [
        {
          "internalType": "uint256",
          "name": "",
          "type": "uint256"
        }
      ],
      "name": "tiers",
      "outputs": [
        {
          "internalType": "uint256",
          "name": "",
          "type": "uint256"
        }
      ],
      "stateMutability": "view",
      "type": "function"
    },
    {
      "inputs": [
        {
          "internalType": "address",
          "name": "newOwner",
          "type": "address"
        }
      ],
      "name": "transferOwnership",
      "outputs": [],
      "stateMutability": "nonpayable",
      "type": "function"
    },
    {
      "inputs": [
        {
          "internalType": "uint256",
          "name": "_tokenId",
          "type": "uint256"
        }
      ],
      "name": "unstake",
      "outputs": [],
      "stateMutability": "nonpayable",
      "type": "function"
    },
    {
      "inputs": [
        {
          "internalType": "address",
          "name": "",
          "type": "address"
        }
      ],
      "name": "userStaked",
      "outputs": [
        {
          "internalType": "uint256",
          "name": "",
          "type": "uint256"
        }
      ],
      "stateMutability": "view",
      "type": "function"
    },
    {
      "inputs": [
        {
          "internalType": "address",
          "name": "",
          "type": "address"
        }
      ],
      "name": "userStakedScore",
      "outputs": [
        {
          "internalType": "uint256",
          "name": "",
          "type": "uint256"
        }
      ],
      "stateMutability": "view",
      "type": "function"
    }
  ],
  "bytecode": "0x608060405234801561001057600080fd5b5060405161164038038061164083398101604081905261002f916100ad565b6100383361005d565b600280546001600160a01b0319166001600160a01b03929092169190911790556100dd565b600080546001600160a01b038381166001600160a01b0319831681178455604051919092169283917f8be0079c531659141344cd1fd0a4f28419497f9722a3daafe3b4186f6b6457e09190a35050565b6000602082840312156100bf57600080fd5b81516001600160a01b03811681146100d657600080fd5b9392505050565b611554806100ec6000396000f3fe608060405234801561001057600080fd5b50600436106101815760003560e01c806398abe5d8116100d8578063acc3a9391161008c578063ef73502411610066578063ef735024146103a6578063f2fde38b146103c9578063fbe1b4cf146103dc57600080fd5b8063acc3a93914610360578063b3ab15fb14610380578063cc9d75191461039357600080fd5b80639c75ca03116100bd5780639c75ca03146102fa578063a694fc3a1461032d578063a6fd32cc1461034057600080fd5b806398abe5d8146102b85780639a432cb5146102cb57600080fd5b80632f8eb9cb1161013a578063715018a611610114578063715018a61461028c5780638da5cb5b14610294578063970a2293146102a557600080fd5b80632f8eb9cb14610220578063570ca7351461024e5780636e93da721461027957600080fd5b806305216ef81161016b57806305216ef8146101c1578063150b7a02146101e15780632e17de781461020d57600080fd5b806215e4aa14610186578063039af9eb1461019b575b600080fd5b6101996101943660046112fe565b6103ef565b005b6101ae6101a936600461132a565b6105a9565b6040519081526020015b60405180910390f35b6101ae6101cf366004611343565b60056020526000908152604090205481565b6101f46101ef366004611367565b6105ca565b6040516001600160e01b031990911681526020016101b8565b61019961021b36600461132a565b61061d565b61023361022e366004611343565b61078c565b604080519384526020840192909252908201526060016101b8565b600154610261906001600160a01b031681565b6040516001600160a01b0390911681526020016101b8565b61026161028736600461132a565b61096b565b610199610995565b6000546001600160a01b0316610261565b6101996102b3366004611406565b6109a9565b600254610261906001600160a01b031681565b6102336102d936600461132a565b60086020526000908152604090208054600182015460029092015490919083565b61031d610308366004611343565b60046020526000908152604090205460ff1681565b60405190151581526020016101b8565b61019961033b36600461132a565b610bbf565b6101ae61034e366004611343565b600a6020526000908152604090205481565b6101ae61036e366004611343565b60096020526000908152604090205481565b61019961038e366004611343565b610f20565b6102336103a136600461132a565b610fd8565b61031d6103b436600461132a565b60076020526000908152604090205460ff1681565b6101996103d7366004611343565b611078565b6101996103ea366004611343565b611108565b6001546001600160a01b0316336001600160a01b0316148061041b57506000546001600160a01b031633145b61047b5760405162461bcd60e51b815260206004820152602660248201527f4f706572617461626c653a2063616c6c6572206973206e6f7420746865206f7060448201526532b930ba37b960d11b60648201526084015b60405180910390fd5b6001600160a01b0382166104d15760405162461bcd60e51b815260206004820152601660248201527f416464726573732063616e6e6f74206265207a65726f000000000000000000006044820152606401610472565b6001600160a01b0382166000908152600560209081526040808320849055600490915290205460ff16610562576003805460018082019092557fc2575a0e9e593c00f959f8c92f12db2869c3395a3b0502d05e2516446f71f85b0180546001600160a01b0319166001600160a01b0385169081179091556000908152600460205260409020805460ff191690911790555b604080516001600160a01b0384168152602081018390527f8aef5a5a70c5812b47fe4a0b4a419358395307805391fdc223e76df1bdfee5c491015b60405180910390a15050565b600681815481106105b957600080fd5b600091825260209091200154905081565b60007f8bf366fb2b5dc4dda1dab8251af4a716e2a2c5d8a9f45191ffa2f56385fd61468686868686604051610603959493929190611432565b60405180910390a150630a85bd0160e11b95945050505050565b33600090815260096020526040902054811461067b5760405162461bcd60e51b815260206004820152601260248201527f4e6f74206f776e6572206f6620746f6b656e00000000000000000000000000006044820152606401610472565b6002546001600160a01b03166342842e0e30336040516001600160e01b031960e085901b1681526001600160a01b0392831660048201529116602482015260448101849052606401600060405180830381600087803b1580156106dd57600080fd5b505af11580156106f1573d6000803e3d6000fd5b505050506000600960006107023390565b6001600160a01b03166001600160a01b03168152602001908152602001600020819055506000600a60006107333390565b6001600160a01b0316815260208082019290925260409081016000209290925581513381529081018390527f85082129d87b2fe11527cb1b3b7a520aeb5aa6913f88a3d8757fe40d1db02fdd910160405180910390a150565b600080806001600160a01b0384166107e65760405162461bcd60e51b815260206004820152601660248201527f546f6b656e49642063616e6e6f74206265207a65726f000000000000000000006044820152606401610472565b6001600160a01b0384166000908152600a602052604090205491508161081457506000915081905080610964565b60005b60035481101561095257600460006003838154811061083857610838611486565b60009182526020808320909101546001600160a01b0316835282019290925260400190205460ff16156109405760006003828154811061087a5761087a611486565b6000918252602090912001546040516370a0823160e01b81526001600160a01b038881166004830152909116906370a0823190602401602060405180830381865afa1580156108cd573d6000803e3d6000fd5b505050506040513d601f19601f820116820180604052508101906108f1919061149c565b111561094057600560006003838154811061090e5761090e611486565b60009182526020808320909101546001600160a01b0316835282019290925260400190205461093d90846114cb565b92505b8061094a816114e3565b915050610817565b5061095c82610fd8565b919450909150505b9193909250565b6003818154811061097b57600080fd5b6000918252602090912001546001600160a01b0316905081565b61099d61123f565b6109a76000611299565b565b6001546001600160a01b0316336001600160a01b031614806109d557506000546001600160a01b031633145b610a305760405162461bcd60e51b815260206004820152602660248201527f4f706572617461626c653a2063616c6c6572206973206e6f7420746865206f7060448201526532b930ba37b960d11b6064820152608401610472565b600654600003610a435760009250610a95565b600654831115610a955760405162461bcd60e51b815260206004820152600a60248201527f54696572206572726f72000000000000000000000000000000000000000000006044820152606401610472565b60648110610ae55760405162461bcd60e51b815260206004820152601360248201527f5469657220646973636f756e74206572726f72000000000000000000000000006044820152606401610472565b60408051606081018252848152602080820185815282840185815260008881526008845285812094518555915160018501555160029093019290925560079052205460ff16610b79576006805460018181019092557ff652222313e28459528d920b65115c16c04f3efc82aaedc97be59f3f377c0d3f018490556000848152600760205260409020805460ff191690911790555b60408051848152602081018490529081018290527ff40c892c6bb02ba59a2cc6f1a7b9dccf5aec4892c8091aaad9487bcdede6ef009060600160405180910390a1505050565b80600003610c0f5760405162461bcd60e51b815260206004820152601660248201527f546f6b656e49642063616e6e6f74206265207a65726f000000000000000000006044820152606401610472565b3360009081526009602052604090205415610c6c5760405162461bcd60e51b815260206004820152600e60248201527f416c7265616479207374616b65640000000000000000000000000000000000006044820152606401610472565b336002546040516331a9108f60e11b8152600481018490526001600160a01b039283169290911690636352211e90602401602060405180830381865afa158015610cba573d6000803e3d6000fd5b505050506040513d601f19601f82011682018060405250810190610cde91906114fc565b6001600160a01b031614610d345760405162461bcd60e51b815260206004820152601260248201527f4e6f74206f776e6572206f6620746f6b656e00000000000000000000000000006044820152606401610472565b60025460405163095ea7b360e01b8152306004820152602481018390526001600160a01b039091169063095ea7b390604401600060405180830381600087803b158015610d8057600080fd5b505af1158015610d94573d6000803e3d6000fd5b50506002546040516344f1c7fd60e11b815260048101859052600093506001600160a01b0390911691506389e38ffa90602401602060405180830381865afa158015610de4573d6000803e3d6000fd5b505050506040513d601f19601f82011682018060405250810190610e08919061149c565b6002549091506001600160a01b03166342842e0e336040516001600160e01b031960e084901b1681526001600160a01b03909116600482015230602482015260448101859052606401600060405180830381600087803b158015610e6b57600080fd5b505af1158015610e7f573d6000803e3d6000fd5b505050508160096000610e8f3390565b6001600160a01b03166001600160a01b031681526020019081526020016000208190555080600a6000610ebf3390565b6001600160a01b031681526020810191909152604001600020557f5af417134f72a9d41143ace85b0a26dce6f550f894f2cbc1eeee8810603d91b633604080516001600160a01b03909216825260208201859052810183905260600161059d565b610f2861123f565b6001600160a01b038116610f7e5760405162461bcd60e51b815260206004820152601460248201527f4f70657261746f722061646472657373206572720000000000000000000000006044820152606401610472565b600180546001600160a01b038381166001600160a01b031983168117909355604080519190921680825260208201939093527f74da04524d50c64947f5dd5381ef1a4dca5cba8ed1d816243f9e48aa0b5617ed910161059d565b600654600090819081905b80156110715760006006610ff8600184611519565b8154811061100857611008611486565b6000918252602080832090910154808352600882526040928390208351606081018552815481526001820154938101849052600290910154938101939093529250871061105c578051604082015190965093505b5050808061106990611530565b915050610fe3565b5091939050565b61108061123f565b6001600160a01b0381166110fc5760405162461bcd60e51b815260206004820152602660248201527f4f776e61626c653a206e6577206f776e657220697320746865207a65726f206160448201527f64647265737300000000000000000000000000000000000000000000000000006064820152608401610472565b61110581611299565b50565b6001546001600160a01b0316336001600160a01b0316148061113457506000546001600160a01b031633145b61118f5760405162461bcd60e51b815260206004820152602660248201527f4f706572617461626c653a2063616c6c6572206973206e6f7420746865206f7060448201526532b930ba37b960d11b6064820152608401610472565b6001600160a01b0381166111e55760405162461bcd60e51b815260206004820152601660248201527f416464726573732063616e6e6f74206265207a65726f000000000000000000006044820152606401610472565b600280546001600160a01b038381166001600160a01b031983168117909355604080519190921680825260208201939093527f1d2ac02725ca354b67b171bcf326fa5baf03e180ff6e5a9e9cf7c163d0240fb7910161059d565b6000546001600160a01b031633146109a75760405162461bcd60e51b815260206004820181905260248201527f4f776e61626c653a2063616c6c6572206973206e6f7420746865206f776e65726044820152606401610472565b600080546001600160a01b038381166001600160a01b0319831681178455604051919092169283917f8be0079c531659141344cd1fd0a4f28419497f9722a3daafe3b4186f6b6457e09190a35050565b6001600160a01b038116811461110557600080fd5b6000806040838503121561131157600080fd5b823561131c816112e9565b946020939093013593505050565b60006020828403121561133c57600080fd5b5035919050565b60006020828403121561135557600080fd5b8135611360816112e9565b9392505050565b60008060008060006080868803121561137f57600080fd5b853561138a816112e9565b9450602086013561139a816112e9565b935060408601359250606086013567ffffffffffffffff808211156113be57600080fd5b818801915088601f8301126113d257600080fd5b8135818111156113e157600080fd5b8960208285010111156113f357600080fd5b9699959850939650602001949392505050565b60008060006060848603121561141b57600080fd5b505081359360208301359350604090920135919050565b60006001600160a01b03808816835280871660208401525084604083015260806060830152826080830152828460a0840137600060a0848401015260a0601f19601f85011683010190509695505050505050565b634e487b7160e01b600052603260045260246000fd5b6000602082840312156114ae57600080fd5b5051919050565b634e487b7160e01b600052601160045260246000fd5b600082198211156114de576114de6114b5565b500190565b6000600182016114f5576114f56114b5565b5060010190565b60006020828403121561150e57600080fd5b8151611360816112e9565b60008282101561152b5761152b6114b5565b500390565b60008161153f5761153f6114b5565b50600019019056fea164736f6c634300080d000a",
  "linkReferences": {},
  "deployedLinkReferences": {}
}