{
  "_format": "hh-sol-artifact-1",
  "contractName": "SeparatePoolFactory",
  "sourceName": "contracts/separate-pool/SeparatePoolFactory.sol",
  "abi": [
    {
      "inputs": [
        {
          "internalType": "address",
          "name": "_incomeMaker",
          "type": "address"
        },
        {
          "internalType": "address",
          "name": "_checker",
          "type": "address"
        },
        {
          "internalType": "address",
          "name": "_fur",
          "type": "address"
        }
      ],
      "stateMutability": "nonpayable",
      "type": "constructor"
    },
    {
      "anonymous": false,
      "inputs": [
        {
          "indexed": true,
          "internalType": "address",
          "name": "previousOwner",
          "type": "address"
        },
        {
          "indexed": true,
          "internalType": "address",
          "name": "newOwner",
          "type": "address"
        }
      ],
      "name": "OwnershipTransferred",
      "type": "event"
    },
    {
      "anonymous": false,
      "inputs": [
        {
          "indexed": false,
          "internalType": "address",
          "name": "nftAddress",
          "type": "address"
        },
        {
          "indexed": false,
          "internalType": "address",
          "name": "poolAddress",
          "type": "address"
        },
        {
          "indexed": false,
          "internalType": "uint256",
          "name": "poolIndex",
          "type": "uint256"
        }
      ],
      "name": "PoolCreated",
      "type": "event"
    },
    {
      "inputs": [
        {
          "internalType": "uint256",
          "name": "",
          "type": "uint256"
        }
      ],
      "name": "allNfts",
      "outputs": [
        {
          "internalType": "address",
          "name": "",
          "type": "address"
        }
      ],
      "stateMutability": "view",
      "type": "function"
    },
    {
      "inputs": [
        {
          "internalType": "address",
          "name": "_nftAddress",
          "type": "address"
        }
      ],
      "name": "createPool",
      "outputs": [
        {
          "internalType": "address",
          "name": "poolAddress",
          "type": "address"
        }
      ],
      "stateMutability": "nonpayable",
      "type": "function"
    },
    {
      "inputs": [],
      "name": "fur",
      "outputs": [
        {
          "internalType": "address",
          "name": "",
          "type": "address"
        }
      ],
      "stateMutability": "view",
      "type": "function"
    },
    {
      "inputs": [],
      "name": "getAllNfts",
      "outputs": [
        {
          "internalType": "address[]",
          "name": "nftsWithPool",
          "type": "address[]"
        }
      ],
      "stateMutability": "view",
      "type": "function"
    },
    {
      "inputs": [
        {
          "internalType": "address",
          "name": "",
          "type": "address"
        }
      ],
      "name": "getPool",
      "outputs": [
        {
          "internalType": "address",
          "name": "",
          "type": "address"
        }
      ],
      "stateMutability": "view",
      "type": "function"
    },
    {
      "inputs": [],
      "name": "incomeMaker",
      "outputs": [
        {
          "internalType": "address",
          "name": "",
          "type": "address"
        }
      ],
      "stateMutability": "view",
      "type": "function"
    },
    {
      "inputs": [],
      "name": "numOfPools",
      "outputs": [
        {
          "internalType": "uint256",
          "name": "totalPools",
          "type": "uint256"
        }
      ],
      "stateMutability": "view",
      "type": "function"
    },
    {
      "inputs": [],
      "name": "owner",
      "outputs": [
        {
          "internalType": "address",
          "name": "",
          "type": "address"
        }
      ],
      "stateMutability": "view",
      "type": "function"
    },
    {
      "inputs": [],
      "name": "renounceOwnership",
      "outputs": [],
      "stateMutability": "nonpayable",
      "type": "function"
    },
    {
      "inputs": [
        {
          "internalType": "address",
          "name": "_newOwner",
          "type": "address"
        }
      ],
      "name": "transferOwnership",
      "outputs": [],
      "stateMutability": "nonpayable",
      "type": "function"
    }
  ],
  "bytecode": "0x60a060405234801561001057600080fd5b5060405161411838038061411883398101604081905261002f916100da565b6100383361006e565b6001600160a01b03928316608052600380549284166001600160a01b03199384161790556004805491909316911617905561011d565b600080546001600160a01b038381166001600160a01b0319831681178455604051919092169283917f8be0079c531659141344cd1fd0a4f28419497f9722a3daafe3b4186f6b6457e09190a35050565b80516001600160a01b03811681146100d557600080fd5b919050565b6000806000606084860312156100ef57600080fd5b6100f8846100be565b9250610106602085016100be565b9150610114604085016100be565b90509250925092565b608051613fd961013f60003960008181610183015261045f0152613fd96000f3fe60806040523480156200001157600080fd5b5060043610620000cd5760003560e01c8063bbe4f6db116200007f578063c529de651162000062578063c529de6514620001a5578063f2fde38b14620001bc578063fcbd2a8814620001d357600080fd5b8063bbe4f6db1462000151578063be1bd331146200017d57600080fd5b80638da5cb5b11620000b45780638da5cb5b14620001005780639049f9d2146200012657806392eec6b2146200013d57600080fd5b8063715018a614620000d2578063732e8d7314620000de575b600080fd5b620000dc620001e5565b005b620000e862000253565b604051620000f791906200095e565b60405180910390f35b6000546001600160a01b03165b6040516001600160a01b039091168152602001620000f7565b6200010d62000137366004620009ad565b620002b7565b6004546200010d906001600160a01b031681565b6200010d62000162366004620009ad565b6002602052600090815260409020546001600160a01b031681565b6200010d7f000000000000000000000000000000000000000000000000000000000000000081565b6200010d620001b6366004620009df565b62000600565b620000dc620001cd366004620009ad565b6200062b565b600154604051908152602001620000f7565b6000546001600160a01b03163314620002455760405162461bcd60e51b815260206004820181905260248201527f4f776e61626c653a2063616c6c6572206973206e6f7420746865206f776e657260448201526064015b60405180910390fd5b620002516000620007c7565b565b60606001805480602002602001604051908101604052809291908181526020018280548015620002ad57602002820191906000526020600020905b81546001600160a01b031681526001909101906020018083116200028e575b5050505050905090565b6003546000906001600160a01b03166200033a5760405162461bcd60e51b815260206004820152602560248201527f5365706172617465506f6f6c466163746f72793a20436865636b6572206e6f7460448201527f207365742e00000000000000000000000000000000000000000000000000000060648201526084016200023c565b6001600160a01b0382166200039c5760405162461bcd60e51b815260206004820152602160248201527f5365706172617465506f6f6c466163746f72793a205a45524f5f4144445245536044820152605360f81b60648201526084016200023c565b6001600160a01b038281166000908152600260205260409020541615620004065760405162461bcd60e51b815260206004820181905260248201527f5365706172617465506f6f6c466163746f72793a20504149525f45584953545360448201526064016200023c565b600080620004148462000824565b6040516bffffffffffffffffffffffff19606088901b166020820152919350915060009060340160408051601f198184030181529190528051602090910120600454909150819086907f0000000000000000000000000000000000000000000000000000000000000000906001600160a01b03166200049b6000546001600160a01b031690565b8787604051620004ab9062000950565b620004bc9695949392919062000a5a565b8190604051809103906000f5905080158015620004dd573d6000803e3d6000fd5b50600180548082019091557fb10e2d527612073b26eecdfd717e6a320cf44b4afac2b0732d9fcbe2b7fa0cf60180546001600160a01b0388811673ffffffffffffffffffffffffffffffffffffffff199283168117909355600092835260026020526040928390208054858316931683179055600354925163d48bfca760e01b8152600481019290925292965091169063d48bfca790602401600060405180830381600087803b1580156200059157600080fd5b505af1158015620005a6573d6000803e3d6000fd5b5050600154604080516001600160a01b038a811682528916602082015280820192909252517ff8a0462f666b427ea753848be7e91f9ce413975906f6f39950be296ca9a4d5249350908190036060019150a1505050919050565b600181815481106200061157600080fd5b6000918252602090912001546001600160a01b0316905081565b6000546001600160a01b03163314620006875760405162461bcd60e51b815260206004820181905260248201527f4f776e61626c653a2063616c6c6572206973206e6f7420746865206f776e657260448201526064016200023c565b6001600160a01b038116620007055760405162461bcd60e51b815260206004820152602660248201527f4f776e61626c653a204e6577206f776e657220697320746865207a65726f206160448201527f646472657373000000000000000000000000000000000000000000000000000060648201526084016200023c565b6200071081620007c7565b60005b600154811015620007c357600260006001838154811062000738576200073862000ab9565b6000918252602080832091909101546001600160a01b039081168452908301939093526040918201902054905163a6f9dae160e01b8152848316600482015291169063a6f9dae190602401600060405180830381600087803b1580156200079e57600080fd5b505af1158015620007b3573d6000803e3d6000fd5b5050505080600101905062000713565b5050565b600080546001600160a01b0383811673ffffffffffffffffffffffffffffffffffffffff19831681178455604051919092169283917f8be0079c531659141344cd1fd0a4f28419497f9722a3daafe3b4186f6b6457e09190a35050565b6060806000836001600160a01b03166306fdde036040518163ffffffff1660e01b8152600401600060405180830381865afa15801562000868573d6000803e3d6000fd5b505050506040513d6000823e601f3d908101601f1916820160405262000892919081019062000ae5565b90506000846001600160a01b03166395d89b416040518163ffffffff1660e01b8152600401600060405180830381865afa158015620008d5573d6000803e3d6000fd5b505050506040513d6000823e601f3d908101601f19168201604052620008ff919081019062000ae5565b90508160405160200162000914919062000b9e565b60405160208183030381529060405293508060405160200162000938919062000be5565b60405160208183030381529060405292505050915091565b6133bb8062000c1283390190565b6020808252825182820181905260009190848201906040850190845b81811015620009a15783516001600160a01b0316835292840192918401916001016200097a565b50909695505050505050565b600060208284031215620009c057600080fd5b81356001600160a01b0381168114620009d857600080fd5b9392505050565b600060208284031215620009f257600080fd5b5035919050565b60005b8381101562000a16578181015183820152602001620009fc565b8381111562000a26576000848401525b50505050565b6000815180845262000a46816020860160208601620009f9565b601f01601f19169290920160200192915050565b60006001600160a01b0380891683528088166020840152808716604084015280861660608401525060c0608083015262000a9860c083018562000a2c565b82810360a084015262000aac818562000a2c565b9998505050505050505050565b634e487b7160e01b600052603260045260246000fd5b634e487b7160e01b600052604160045260246000fd5b60006020828403121562000af857600080fd5b815167ffffffffffffffff8082111562000b1157600080fd5b818401915084601f83011262000b2657600080fd5b81518181111562000b3b5762000b3b62000acf565b604051601f8201601f19908116603f0116810190838211818310171562000b665762000b6662000acf565b8160405282815287602084870101111562000b8057600080fd5b62000b93836020830160208801620009f9565b979650505050505050565b7f467572696f6e200000000000000000000000000000000000000000000000000081526000825162000bd8816007850160208701620009f9565b9190910160070192915050565b61462d60f01b81526000825162000c04816002850160208701620009f9565b919091016002019291505056fe6101a060405268056bc75e2d63100000600955680821ab0d4414980000600a553480156200002c57600080fd5b50604051620033bb380380620033bb8339810160408190526200004f9162000309565b8180604051806040016040528060018152602001603160f81b815250848481600390805190602001906200008592919062000179565b5080516200009b90600490602084019062000179565b5050825160208085019190912083518483012060e08290526101008190524660a0818152604080517f8b73c3c69bb8fe3d512ecc4cf759cc79239f7b179b0ffacaa9a75d522b39400f81880181905281830187905260608201869052608082019490945230818401528151808203909301835260c0019052805194019390932091935091906080523060c0526101205250503361014052505050506001600160a01b03938416610180525092821661016052600780549183166001600160a01b031992831617905560088054939092169216919091179055620003f9565b8280546200018790620003bd565b90600052602060002090601f016020900481019282620001ab5760008555620001f6565b82601f10620001c657805160ff1916838001178555620001f6565b82800160010185558215620001f6579182015b82811115620001f6578251825591602001919060010190620001d9565b506200020492915062000208565b5090565b5b8082111562000204576000815560010162000209565b80516001600160a01b03811681146200023757600080fd5b919050565b634e487b7160e01b600052604160045260246000fd5b600082601f8301126200026457600080fd5b81516001600160401b03808211156200028157620002816200023c565b604051601f8301601f19908116603f01168101908282118183101715620002ac57620002ac6200023c565b81604052838152602092508683858801011115620002c957600080fd5b600091505b83821015620002ed5785820183015181830184015290820190620002ce565b83821115620002ff5760008385830101525b9695505050505050565b60008060008060008060c087890312156200032357600080fd5b6200032e876200021f565b95506200033e602088016200021f565b94506200034e604088016200021f565b93506200035e606088016200021f565b60808801519093506001600160401b03808211156200037c57600080fd5b6200038a8a838b0162000252565b935060a0890151915080821115620003a157600080fd5b50620003b089828a0162000252565b9150509295509295509295565b600181811c90821680620003d257607f821691505b602082108103620003f357634e487b7160e01b600052602260045260246000fd5b50919050565b60805160a05160c05160e0516101005161012051610140516101605161018051612ee8620004d3600039600081816104e9015281816108b701528181610b9e01528181610f8a015281816111dd01528181611c7d0152611f390152600081816103750152818161143a015281816120b10152818161214301528181612211015281816122d201528181612361015281816123e0015261257e0152600081816105230152610da701526000611a7601526000611ac501526000611aa0015260006119f901526000611a2301526000611a4d0152612ee86000f3fe608060405234801561001057600080fd5b50600436106102775760003560e01c806395d89b4111610160578063c45a0155116100d8578063db006a751161008c578063dd62ed3e11610071578063dd62ed3e146105b7578063e1b044b9146105f0578063e4849b321461060057600080fd5b8063db006a7514610591578063dd467064146105a457600080fd5b8063d505accf116100bd578063d505accf14610558578063d96a094a1461056b578063d99f69561461057e57600080fd5b8063c45a01551461051e578063d289ade21461054557600080fd5b8063a9059cbb1161012f578063b2024ff811610114578063b2024ff8146104be578063be1bd331146104e4578063c243c72b1461050b57600080fd5b8063a9059cbb1461049b578063a9cee934146104ae57600080fd5b806395d89b411461045d578063a3d2d78614610465578063a457c2d714610475578063a6f9dae11461048857600080fd5b806347ccca02116101f357806370a08231116101c2578063859610c6116101a7578063859610c61461042457806386a976cf146104375780638da5cb5b1461044a57600080fd5b806370a08231146103e85780637ecebe001461041157600080fd5b806347ccca02146103705780634dd020da146103af57806352db191f146103c2578063639316c7146103d557600080fd5b806323b872dd1161024a5780633644e5151161022f5780633644e5151461034057806337bdc99b14610348578063395093511461035d57600080fd5b806323b872dd1461031e578063313ce5671461033157600080fd5b806306fdde031461027c578063095ea7b31461029a578063150b7a02146102bd57806318160ddd1461030c575b600080fd5b610284610613565b6040516102919190612a67565b60405180910390f35b6102ad6102a8366004612aaf565b6106a5565b6040519015158152602001610291565b6102db6102cb366004612af1565b630a85bd0160e11b949350505050565b6040517fffffffff000000000000000000000000000000000000000000000000000000009091168152602001610291565b6002545b604051908152602001610291565b6102ad61032c366004612bd1565b6106bd565b60405160128152602001610291565b6103106106e1565b61035b610356366004612c12565b6106f0565b005b6102ad61036b366004612aaf565b610929565b6103977f000000000000000000000000000000000000000000000000000000000000000081565b6040516001600160a01b039091168152602001610291565b61035b6103bd366004612c2b565b610968565b6103106103d0366004612c12565b610a32565b61035b6103e3366004612ca0565b610a57565b6103106103f6366004612cd9565b6001600160a01b031660009081526020819052604090205490565b61031061041f366004612cd9565b610ad4565b61035b610432366004612c2b565b610af4565b61035b610445366004612ca0565b610c66565b600854610397906001600160a01b031681565b610284610ce3565b610310681b1ae4d6e2ef50000081565b6102ad610483366004612aaf565b610cf2565b61035b610496366004612cd9565b610d9c565b6102ad6104a9366004612aaf565b610e8e565b610310680ad78ebc5ac620000081565b6104d16104cc366004612c12565b610e9c565b60405161ffff9091168152602001610291565b6103977f000000000000000000000000000000000000000000000000000000000000000081565b61035b610519366004612c2b565b610ed4565b6103977f000000000000000000000000000000000000000000000000000000000000000081565b61035b610553366004612c12565b611046565b61035b610566366004612cf6565b6112b5565b61035b610579366004612c12565b611419565b61031061058c366004612c12565b611427565b61035b61059f366004612c12565b61148c565b61035b6105b2366004612c12565b611623565b6103106105c5366004612d6d565b6001600160a01b03918216600090815260016020908152604080832093909416825291909152205490565b610310683635c9adc5dea0000081565b61035b61060e366004612c12565b61162e565b60606003805461062290612da6565b80601f016020809104026020016040519081016040528092919081815260200182805461064e90612da6565b801561069b5780601f106106705761010080835404028352916020019161069b565b820191906000526020600020905b81548152906001019060200180831161067e57829003601f168201915b5050505050905090565b6000336106b3818585611639565b5060019392505050565b6000336106cb85828561175d565b6106d68585856117ef565b506001949350505050565b60006106eb6119ec565b905090565b6008546001600160a01b0316331461075b5760405162461bcd60e51b8152602060048201526024808201527f5365706172617465506f6f6c3a204e6f74207065726d697474656420746f206360448201526330b6361760e11b60648201526084015b60405180910390fd5b80600061076782611427565b6000818152600b60205260409020549091506001600160a01b03166107ce5760405162461bcd60e51b815260206004820181905260248201527f5365706172617465506f6f6c3a204e4654206973206e6f74206c6f636b65642e6044820152606401610752565b6000818152600b602052604090206001015442116108545760405162461bcd60e51b815260206004820152602b60248201527f5365706172617465506f6f6c3a2052656c656173652074696d65206e6f74207960448201527f657420726561636865642e0000000000000000000000000000000000000000006064820152608401610752565b600061085f84611427565b6000818152600b60205260408120805474ffffffffffffffffffffffffffffffffffffffffff19811682556001909101919091559091506001600160a01b03166108b281680ad78ebc5ac6200000611b13565b6108f77f00000000000000000000000000000000000000000000000000000000000000006108f2680ad78ebc5ac6200000681b1ae4d6e2ef500000612df0565b611b13565b60405182907f5ffcbf541b95042ad4bfb5a8d242e9b698ac0a648a7a6410d874a0d9f5108dc390600090a25050505050565b3360008181526001602090815260408083206001600160a01b03871684529091528120549091906106b39082908690610963908790612e07565b611639565b80600a81106109df5760405162461bcd60e51b815260206004820152602a60248201527f5365706172617465506f6f6c3a2043616e206f6e6c792073656c6c2039204e4660448201527f5473206174206f6e6365000000000000000000000000000000000000000000006064820152608401610752565b60005b81811015610a1557610a0d8484838181106109ff576109ff612e1f565b905060200201356000611bf2565b6001016109e2565b50610a2d336108f283683635c9adc5dea00000612e35565b505050565b600080610a3e83611427565b6000908152600b60205260409020600101549392505050565b6008546001600160a01b03163314610abd5760405162461bcd60e51b8152602060048201526024808201527f5365706172617465506f6f6c3a204e6f74207065726d697474656420746f206360448201526330b6361760e11b6064820152608401610752565b6fffffffffffffffffffffffffffffffff16600955565b6001600160a01b0381166000908152600560205260408120545b92915050565b80600a8110610b575760405162461bcd60e51b815260206004820152602960248201527f5365706172617465506f6f6c3a2043616e206f6e6c79206275792039204e465460448201526873206174206f6e636560b81b6064820152608401610752565b6000610b6c82681b1ae4d6e2ef500000612e35565b9050600082600954610b7e9190612e35565b6007546040516323b872dd60e01b81523360048201526001600160a01b037f000000000000000000000000000000000000000000000000000000000000000081166024830152604482018490529293509116906323b872dd906064016020604051808303816000875af1158015610bf9573d6000803e3d6000fd5b505050506040513d601f19601f82011682018060405250810190610c1d9190612e54565b5060005b83811015610c5457610c4c868683818110610c3e57610c3e612e1f565b905060200201356000611c4b565b600101610c21565b50610c5f3383611b13565b5050505050565b6008546001600160a01b03163314610ccc5760405162461bcd60e51b8152602060048201526024808201527f5365706172617465506f6f6c3a204e6f74207065726d697474656420746f206360448201526330b6361760e11b6064820152608401610752565b6fffffffffffffffffffffffffffffffff16600a55565b60606004805461062290612da6565b3360008181526001602090815260408083206001600160a01b038716845290915281205490919083811015610d8f5760405162461bcd60e51b815260206004820152602560248201527f45524332303a2064656372656173656420616c6c6f77616e63652062656c6f7760448201527f207a65726f0000000000000000000000000000000000000000000000000000006064820152608401610752565b6106d68286868403611639565b336001600160a01b037f00000000000000000000000000000000000000000000000000000000000000001614610e205760405162461bcd60e51b8152602060048201526024808201527f5365706172617465506f6f6c3a204e6f74207065726d697474656420746f206360448201526330b6361760e11b6064820152608401610752565b600880546001600160a01b0383811673ffffffffffffffffffffffffffffffffffffffff1983168117909355604080519190921680825260208201939093527fb532073b38c83145e3e5135377a08bf9aab55bc0fd7c1179cd4fb995d2a5159c910160405180910390a15050565b6000336106b38185856117ef565b600c8181548110610eac57600080fd5b9060005260206000209060109182820401919006600202915054906101000a900461ffff1681565b80600a8110610f375760405162461bcd60e51b815260206004820152602960248201527f5365706172617465506f6f6c3a2043616e206f6e6c79206275792039204e465460448201526873206174206f6e636560b81b6064820152608401610752565b6000610f4c82683635c9adc5dea00000612e35565b9050600082600954610f5e9190612e35565b9050610f6a3383611daf565b6007546040516323b872dd60e01b81523360048201526001600160a01b037f00000000000000000000000000000000000000000000000000000000000000008116602483015260448201849052909116906323b872dd906064016020604051808303816000875af1158015610fe3573d6000803e3d6000fd5b505050506040513d601f19601f820116820180604052508101906110079190612e54565b5060005b8381101561103e5761103686868381811061102857611028612e1f565b905060200201356000611efd565b60010161100b565b505050505050565b600061105182611427565b6000818152600b6020908152604091829020825160608101845281546001600160a01b038116808352600160a01b90910460ff16151593820193909352600190910154928101929092529192509033146110fe5760405162461bcd60e51b815260206004820152602860248201527f5365706172617465506f6f6c3a20596f7520646964206e6f74206c6f636b20746044820152673434b99027232a1760c11b6064820152608401610752565b4281604001511161115c5760405162461bcd60e51b815260206004820152602260248201527f5365706172617465506f6f6c3a204e465420616c72656164792072656c656173604482015261195960f21b6064820152608401610752565b8060200151156111ba5760405162461bcd60e51b815260206004820152602360248201527f5365706172617465506f6f6c3a20416c726561647920657874656e646564206f6044820152626e636560e81b6064820152608401610752565b600754600a546040516323b872dd60e01b81523360048201526001600160a01b037f00000000000000000000000000000000000000000000000000000000000000008116602483015260448201929092529116906323b872dd906064016020604051808303816000875af1158015611236573d6000803e3d6000fd5b505050506040513d601f19601f8201168201806040525081019061125a9190612e54565b506000828152600b6020526040812080547fffffffffffffffffffffff00ffffffffffffffffffffffffffffffffffffffff16600160a01b178155600101805462278d0092906112ab908490612e07565b9091555050505050565b834211156113055760405162461bcd60e51b815260206004820152601d60248201527f45524332305065726d69743a206578706972656420646561646c696e650000006044820152606401610752565b60007f6e71edae12b1b97f4d1f60370fef10105fa2faae0126114a169c64845d6126c98888886113348c611ff9565b6040805160208101969096526001600160a01b0394851690860152929091166060840152608083015260a082015260c0810186905260e001604051602081830303815290604052805190602001209050600061138f82612021565b9050600061139f8287878761206f565b9050896001600160a01b0316816001600160a01b0316146114025760405162461bcd60e51b815260206004820152601e60248201527f45524332305065726d69743a20696e76616c6964207369676e617475726500006044820152606401610752565b61140d8a8a8a611639565b50505050505050505050565b611424816001611efd565b50565b6040516bffffffffffffffffffffffff197f000000000000000000000000000000000000000000000000000000000000000060601b16602082015260348101829052600090605401604051602081830303815290604052805190602001209050919050565b80600061149882611427565b6000818152600b60205260409020549091506001600160a01b031633146115125760405162461bcd60e51b815260206004820152602860248201527f5365706172617465506f6f6c3a20596f7520646964206e6f74206c6f636b20746044820152673434b99027232a1760c11b6064820152608401610752565b6000818152600b602052604090206001015442106115985760405162461bcd60e51b815260206004820152603b60248201527f5365706172617465506f6f6c3a204e46542068617320616c726561647920626560448201527f656e2072656c656173656420746f207075626c696320706f6f6c2e00000000006064820152608401610752565b60006115a384611427565b90506115b833681b1ae4d6e2ef500000611daf565b6000818152600b60205260408120805474ffffffffffffffffffffffffffffffffffffffffff19168155600101556115f03385612097565b604051339082907fa8f5b1e6a7a31a9b1ace738585dd638417682dbcb52f7e74bc7c68b6efd42f3690600090a350505050565b611424816001611c4b565b611424816001611bf2565b6001600160a01b03831661169b5760405162461bcd60e51b8152602060048201526024808201527f45524332303a20617070726f76652066726f6d20746865207a65726f206164646044820152637265737360e01b6064820152608401610752565b6001600160a01b0382166116fc5760405162461bcd60e51b815260206004820152602260248201527f45524332303a20617070726f766520746f20746865207a65726f206164647265604482015261737360f01b6064820152608401610752565b6001600160a01b0383811660008181526001602090815260408083209487168084529482529182902085905590518481527f8c5be1e5ebec7d5bd14f71427d1e84f3dd0314c0f7b2291e5b200ac8c7c3b925910160405180910390a3505050565b6001600160a01b0383811660009081526001602090815260408083209386168352929052205460001981146117e957818110156117dc5760405162461bcd60e51b815260206004820152601d60248201527f45524332303a20696e73756666696369656e7420616c6c6f77616e63650000006044820152606401610752565b6117e98484848403611639565b50505050565b6001600160a01b03831661186b5760405162461bcd60e51b815260206004820152602560248201527f45524332303a207472616e736665722066726f6d20746865207a65726f20616460448201527f64726573730000000000000000000000000000000000000000000000000000006064820152608401610752565b6001600160a01b0382166118cd5760405162461bcd60e51b815260206004820152602360248201527f45524332303a207472616e7366657220746f20746865207a65726f206164647260448201526265737360e81b6064820152608401610752565b6001600160a01b0383166000908152602081905260409020548181101561195c5760405162461bcd60e51b815260206004820152602660248201527f45524332303a207472616e7366657220616d6f756e742065786365656473206260448201527f616c616e636500000000000000000000000000000000000000000000000000006064820152608401610752565b6001600160a01b03808516600090815260208190526040808220858503905591851681529081208054849290611993908490612e07565b92505081905550826001600160a01b0316846001600160a01b03167fddf252ad1be2c89b69c2b068fc378daa952ba7f163c4a11628f55a4df523b3ef846040516119df91815260200190565b60405180910390a36117e9565b6000306001600160a01b037f000000000000000000000000000000000000000000000000000000000000000016148015611a4557507f000000000000000000000000000000000000000000000000000000000000000046145b15611a6f57507f000000000000000000000000000000000000000000000000000000000000000090565b50604080517f00000000000000000000000000000000000000000000000000000000000000006020808301919091527f0000000000000000000000000000000000000000000000000000000000000000828401527f000000000000000000000000000000000000000000000000000000000000000060608301524660808301523060a0808401919091528351808403909101815260c0909201909252805191012090565b6001600160a01b038216611b695760405162461bcd60e51b815260206004820152601f60248201527f45524332303a206d696e7420746f20746865207a65726f2061646472657373006044820152606401610752565b8060026000828254611b7b9190612e07565b90915550506001600160a01b03821660009081526020819052604081208054839290611ba8908490612e07565b90915550506040518181526001600160a01b038316906000907fddf252ad1be2c89b69c2b068fc378daa952ba7f163c4a11628f55a4df523b3ef9060200160405180910390a35050565b611bfb826122b8565b8015611c1457611c1433683635c9adc5dea00000611b13565b33611c1e83611427565b6040517f917c587c613b16b6343d3a89b9e086ab4c70befe649715315fb4499f2716346490600090a35050565b611c54826122b8565b8015611d0e57600754600a546040516323b872dd60e01b81523360048201526001600160a01b037f00000000000000000000000000000000000000000000000000000000000000008116602483015260448201929092529116906323b872dd906064016020604051808303816000875af1158015611cd6573d6000803e3d6000fd5b505050506040513d601f19601f82011682018060405250810190611cfa9190612e54565b50611d0e33681b1ae4d6e2ef500000611b13565b6000611d1983611427565b6000818152600b60205260408120805473ffffffffffffffffffffffffffffffffffffffff191633179055909150611d544262278d00612e07565b6000838152600b60209081526040918290206001018390558151428152908101839052919250339184917f9b9011fb811d271fd0ca96372235d28181a8fca7131f0721509538f148408ea7910160405180910390a350505050565b6001600160a01b038216611e0f5760405162461bcd60e51b815260206004820152602160248201527f45524332303a206275726e2066726f6d20746865207a65726f206164647265736044820152607360f81b6064820152608401610752565b6001600160a01b03821660009081526020819052604090205481811015611e835760405162461bcd60e51b815260206004820152602260248201527f45524332303a206275726e20616d6f756e7420657863656564732062616c616e604482015261636560f01b6064820152608401610752565b6001600160a01b0383166000908152602081905260408120838303905560028054849290611eb2908490612df0565b90915550506040518281526000906001600160a01b038516907fddf252ad1be2c89b69c2b068fc378daa952ba7f163c4a11628f55a4df523b3ef9060200160405180910390a3505050565b8015611fb857611f1633683635c9adc5dea00000611daf565b6007546009546040516323b872dd60e01b81523360048201526001600160a01b037f00000000000000000000000000000000000000000000000000000000000000008116602483015260448201929092529116906323b872dd906064016020604051808303816000875af1158015611f92573d6000803e3d6000fd5b505050506040513d601f19601f82011682018060405250810190611fb69190612e54565b505b611fc23383612097565b33611fcc83611427565b6040517f679cf881bff701c5c0ce785cdd4e564867933381ec480a52ae6c283cb00d679290600090a35050565b6001600160a01b03811660009081526005602052604090208054600181018255905b50919050565b6000610aee61202e6119ec565b8360405161190160f01b6020820152602281018390526042810182905260009060620160405160208183030381529060405280519060200120905092915050565b60008060006120808787878761267e565b9150915061208d8161276b565b5095945050505050565b60607306012c8cf97bead5deae237070f9587f8e7a266c197f00000000000000000000000000000000000000000000000000000000000000006001600160a01b03160161212b576040516001600160a01b03841660248201526044810183905260640160408051601f198184030181529190526020810180516001600160e01b031663a9059cbb60e01b179052905061220c565b73b47e3cd837ddf8e4c57f05d70ab865de6e193bba197f00000000000000000000000000000000000000000000000000000000000000006001600160a01b0316016121bd576040516001600160a01b03841660248201526044810183905260640160408051601f198184030181529190526020810180516001600160e01b03166322dca8bb60e21b179052905061220c565b6040513060248201526001600160a01b03841660448201526064810183905260840160408051601f198184030181529190526020810180516001600160e01b0316632142170760e11b17905290505b6000807f00000000000000000000000000000000000000000000000000000000000000006001600160a01b0316836040516122479190612e76565b6000604051808303816000865af19150503d8060008114612284576040519150601f19603f3d011682016040523d82523d6000602084013e612289565b606091505b50915091508181906122ae5760405162461bcd60e51b81526004016107529190612a67565b50610c5f84612921565b60607306012c8cf97bead5deae237070f9587f8e7a266c197f00000000000000000000000000000000000000000000000000000000000000006001600160a01b031601612349576040513360248201523060448201526064810183905260840160408051601f198184030181529190526020810180516001600160e01b03166323b872dd60e01b1790529050612579565b73b47e3cd837ddf8e4c57f05d70ab865de6e193bba197f00000000000000000000000000000000000000000000000000000000000000006001600160a01b031601612533576000826040516024016123a391815260200190565b60408051601f198184030181529181526020820180516001600160e01b0316630b02f02d60e31b1790525190915060009081906001600160a01b037f0000000000000000000000000000000000000000000000000000000000000000169061240c908590612e76565b600060405180830381855afa9150503d8060008114612447576040519150601f19603f3d011682016040523d82523d6000602084013e61244c565b606091505b50915091506000818060200190518101906124679190612e92565b905082801561247e57506001600160a01b03811633145b6124f05760405162461bcd60e51b815260206004820152602960248201527f5365706172617465506f6f6c3a2050756e6b206f776e6572736869702063686560448201527f636b206661696c656400000000000000000000000000000000000000000000006064820152608401610752565b6040516024810187905260440160408051601f198184030181529190526020810180516001600160e01b031663104c9fd360e31b17905294506125799350505050565b6040513360248201523060448201526064810183905260840160408051601f198184030181529190526020810180516001600160e01b0316632142170760e11b17905290505b6000807f00000000000000000000000000000000000000000000000000000000000000006001600160a01b0316836040516125b49190612e76565b6000604051808303816000865af19150503d80600081146125f1576040519150601f19603f3d011682016040523d82523d6000602084013e6125f6565b606091505b509150915081819061261b5760405162461bcd60e51b81526004016107529190612a67565b5050600c80546001810182556000919091527fdf6966c971051c3d54ec59162606531493a51404a002842f56009d7e5cf4a8c760108204018054600f9092166002026101000a61ffff818102199093169590921691909102939093179092555050565b6000807f7fffffffffffffffffffffffffffffff5d576e7357a4501ddfe92f46681b20a08311156126b55750600090506003612762565b8460ff16601b141580156126cd57508460ff16601c14155b156126de5750600090506004612762565b6040805160008082526020820180845289905260ff881692820192909252606081018690526080810185905260019060a0016020604051602081039080840390855afa158015612732573d6000803e3d6000fd5b5050604051601f1901519150506001600160a01b03811661275b57600060019250925050612762565b9150600090505b94509492505050565b600081600481111561277f5761277f612eaf565b036127875750565b600181600481111561279b5761279b612eaf565b036127e85760405162461bcd60e51b815260206004820152601860248201527f45434453413a20696e76616c6964207369676e617475726500000000000000006044820152606401610752565b60028160048111156127fc576127fc612eaf565b036128495760405162461bcd60e51b815260206004820152601f60248201527f45434453413a20696e76616c6964207369676e6174757265206c656e677468006044820152606401610752565b600381600481111561285d5761285d612eaf565b036128b55760405162461bcd60e51b815260206004820152602260248201527f45434453413a20696e76616c6964207369676e6174757265202773272076616c604482015261756560f01b6064820152608401610752565b60048160048111156128c9576128c9612eaf565b036114245760405162461bcd60e51b815260206004820152602260248201527f45434453413a20696e76616c6964207369676e6174757265202776272076616c604482015261756560f01b6064820152608401610752565b600c5460005b81811015610a2d578261ffff16600c828154811061294757612947612e1f565b60009182526020909120601082040154600f9091166002026101000a900461ffff1603612a3357600c61297b600184612df0565b8154811061298b5761298b612e1f565b90600052602060002090601091828204019190066002029054906101000a900461ffff16600c82815481106129c2576129c2612e1f565b90600052602060002090601091828204019190066002026101000a81548161ffff021916908361ffff160217905550600c805480612a0257612a02612ec5565b600082815260209020601060001990920191820401805461ffff6002600f8516026101000a02191690559055505050565b600101612927565b60005b83811015612a56578181015183820152602001612a3e565b838111156117e95750506000910152565b6020815260008251806020840152612a86816040850160208701612a3b565b601f01601f19169190910160400192915050565b6001600160a01b038116811461142457600080fd5b60008060408385031215612ac257600080fd5b8235612acd81612a9a565b946020939093013593505050565b634e487b7160e01b600052604160045260246000fd5b60008060008060808587031215612b0757600080fd5b8435612b1281612a9a565b93506020850135612b2281612a9a565b925060408501359150606085013567ffffffffffffffff80821115612b4657600080fd5b818701915087601f830112612b5a57600080fd5b813581811115612b6c57612b6c612adb565b604051601f8201601f19908116603f01168101908382118183101715612b9457612b94612adb565b816040528281528a6020848701011115612bad57600080fd5b82602086016020830137600060208483010152809550505050505092959194509250565b600080600060608486031215612be657600080fd5b8335612bf181612a9a565b92506020840135612c0181612a9a565b929592945050506040919091013590565b600060208284031215612c2457600080fd5b5035919050565b60008060208385031215612c3e57600080fd5b823567ffffffffffffffff80821115612c5657600080fd5b818501915085601f830112612c6a57600080fd5b813581811115612c7957600080fd5b8660208260051b8501011115612c8e57600080fd5b60209290920196919550909350505050565b600060208284031215612cb257600080fd5b81356fffffffffffffffffffffffffffffffff81168114612cd257600080fd5b9392505050565b600060208284031215612ceb57600080fd5b8135612cd281612a9a565b600080600080600080600060e0888a031215612d1157600080fd5b8735612d1c81612a9a565b96506020880135612d2c81612a9a565b95506040880135945060608801359350608088013560ff81168114612d5057600080fd5b9699959850939692959460a0840135945060c09093013592915050565b60008060408385031215612d8057600080fd5b8235612d8b81612a9a565b91506020830135612d9b81612a9a565b809150509250929050565b600181811c90821680612dba57607f821691505b60208210810361201b57634e487b7160e01b600052602260045260246000fd5b634e487b7160e01b600052601160045260246000fd5b600082821015612e0257612e02612dda565b500390565b60008219821115612e1a57612e1a612dda565b500190565b634e487b7160e01b600052603260045260246000fd5b6000816000190483118215151615612e4f57612e4f612dda565b500290565b600060208284031215612e6657600080fd5b81518015158114612cd257600080fd5b60008251612e88818460208701612a3b565b9190910192915050565b600060208284031215612ea457600080fd5b8151612cd281612a9a565b634e487b7160e01b600052602160045260246000fd5b634e487b7160e01b600052603160045260246000fdfea164736f6c634300080d000aa164736f6c634300080d000a",
  "linkReferences": {},
  "deployedLinkReferences": {}
}