{
  "_format": "hh-sol-artifact-1",
  "contractName": "RiskManager",
  "sourceName": "contracts/money-market/RiskManager.sol",
  "abi": [
    {
      "anonymous": false,
      "inputs": [
        {
          "indexed": false,
          "internalType": "string",
          "name": "action",
          "type": "string"
        },
        {
          "indexed": false,
          "internalType": "bool",
          "name": "pauseState",
          "type": "bool"
        }
      ],
      "name": "ActionPausedGlobal",
      "type": "event"
    },
    {
      "anonymous": false,
      "inputs": [
        {
          "indexed": false,
          "internalType": "address",
          "name": "fToken",
          "type": "address"
        },
        {
          "indexed": false,
          "internalType": "string",
          "name": "action",
          "type": "string"
        },
        {
          "indexed": false,
          "internalType": "bool",
          "name": "pauseState",
          "type": "bool"
        }
      ],
      "name": "ActionPausedMarket",
      "type": "event"
    },
    {
      "anonymous": false,
      "inputs": [
        {
          "indexed": false,
          "internalType": "uint8",
          "name": "version",
          "type": "uint8"
        }
      ],
      "name": "Initialized",
      "type": "event"
    },
    {
      "anonymous": false,
      "inputs": [
        {
          "indexed": false,
          "internalType": "address",
          "name": "fToken",
          "type": "address"
        },
        {
          "indexed": false,
          "internalType": "address",
          "name": "account",
          "type": "address"
        }
      ],
      "name": "MarketEntered",
      "type": "event"
    },
    {
      "anonymous": false,
      "inputs": [
        {
          "indexed": false,
          "internalType": "address",
          "name": "fToken",
          "type": "address"
        },
        {
          "indexed": false,
          "internalType": "address",
          "name": "account",
          "type": "address"
        }
      ],
      "name": "MarketExited",
      "type": "event"
    },
    {
      "anonymous": false,
      "inputs": [
        {
          "indexed": false,
          "internalType": "address",
          "name": "fToken",
          "type": "address"
        }
      ],
      "name": "MarketListed",
      "type": "event"
    },
    {
      "anonymous": false,
      "inputs": [
        {
          "indexed": false,
          "internalType": "address",
          "name": "oldAdmin",
          "type": "address"
        },
        {
          "indexed": false,
          "internalType": "address",
          "name": "newAdmin",
          "type": "address"
        }
      ],
      "name": "NewAdmin",
      "type": "event"
    },
    {
      "anonymous": false,
      "inputs": [
        {
          "indexed": false,
          "internalType": "uint256",
          "name": "oldCloseFactorMantissa",
          "type": "uint256"
        },
        {
          "indexed": false,
          "internalType": "uint256",
          "name": "newCloseFactorMantissa",
          "type": "uint256"
        }
      ],
      "name": "NewCloseFactor",
      "type": "event"
    },
    {
      "anonymous": false,
      "inputs": [
        {
          "indexed": false,
          "internalType": "address",
          "name": "fToken",
          "type": "address"
        },
        {
          "indexed": false,
          "internalType": "uint256",
          "name": "oldCollateralFactorMantissa",
          "type": "uint256"
        },
        {
          "indexed": false,
          "internalType": "uint256",
          "name": "newCollateralFactorMantissa",
          "type": "uint256"
        }
      ],
      "name": "NewCollateralFactor",
      "type": "event"
    },
    {
      "anonymous": false,
      "inputs": [
        {
          "indexed": false,
          "internalType": "address",
          "name": "oldPendingAdmin",
          "type": "address"
        },
        {
          "indexed": false,
          "internalType": "address",
          "name": "newPendingAdmin",
          "type": "address"
        }
      ],
      "name": "NewPendingAdmin",
      "type": "event"
    },
    {
      "anonymous": false,
      "inputs": [
        {
          "indexed": false,
          "internalType": "address",
          "name": "oldPriceOracle",
          "type": "address"
        },
        {
          "indexed": false,
          "internalType": "address",
          "name": "newPriceOracle",
          "type": "address"
        }
      ],
      "name": "NewPriceOracle",
      "type": "event"
    },
    {
      "inputs": [],
      "name": "IS_RISK_MANAGER",
      "outputs": [
        {
          "internalType": "bool",
          "name": "",
          "type": "bool"
        }
      ],
      "stateMutability": "view",
      "type": "function"
    },
    {
      "inputs": [],
      "name": "_borrowGuardianPaused",
      "outputs": [
        {
          "internalType": "bool",
          "name": "",
          "type": "bool"
        }
      ],
      "stateMutability": "view",
      "type": "function"
    },
    {
      "inputs": [],
      "name": "_supplyGuardianPaused",
      "outputs": [
        {
          "internalType": "bool",
          "name": "",
          "type": "bool"
        }
      ],
      "stateMutability": "view",
      "type": "function"
    },
    {
      "inputs": [],
      "name": "acceptAdmin",
      "outputs": [],
      "stateMutability": "nonpayable",
      "type": "function"
    },
    {
      "inputs": [],
      "name": "admin",
      "outputs": [
        {
          "internalType": "address",
          "name": "",
          "type": "address"
        }
      ],
      "stateMutability": "view",
      "type": "function"
    },
    {
      "inputs": [
        {
          "internalType": "address",
          "name": "_fToken",
          "type": "address"
        },
        {
          "internalType": "address",
          "name": "_borrower",
          "type": "address"
        },
        {
          "internalType": "uint256",
          "name": "_borrowAmount",
          "type": "uint256"
        }
      ],
      "name": "borrowAllowed",
      "outputs": [
        {
          "internalType": "bool",
          "name": "",
          "type": "bool"
        }
      ],
      "stateMutability": "nonpayable",
      "type": "function"
    },
    {
      "inputs": [
        {
          "internalType": "address",
          "name": "",
          "type": "address"
        }
      ],
      "name": "borrowGuardianPaused",
      "outputs": [
        {
          "internalType": "bool",
          "name": "",
          "type": "bool"
        }
      ],
      "stateMutability": "view",
      "type": "function"
    },
    {
      "inputs": [
        {
          "internalType": "address",
          "name": "_fToken",
          "type": "address"
        }
      ],
      "name": "checkListed",
      "outputs": [
        {
          "internalType": "bool",
          "name": "",
          "type": "bool"
        }
      ],
      "stateMutability": "view",
      "type": "function"
    },
    {
      "inputs": [
        {
          "internalType": "address",
          "name": "_account",
          "type": "address"
        },
        {
          "internalType": "address",
          "name": "_fToken",
          "type": "address"
        }
      ],
      "name": "checkMembership",
      "outputs": [
        {
          "internalType": "bool",
          "name": "",
          "type": "bool"
        }
      ],
      "stateMutability": "view",
      "type": "function"
    },
    {
      "inputs": [],
      "name": "closeFactorMantissa",
      "outputs": [
        {
          "internalType": "uint256",
          "name": "",
          "type": "uint256"
        }
      ],
      "stateMutability": "view",
      "type": "function"
    },
    {
      "inputs": [
        {
          "internalType": "address",
          "name": "_account",
          "type": "address"
        }
      ],
      "name": "closeLiquidation",
      "outputs": [],
      "stateMutability": "nonpayable",
      "type": "function"
    },
    {
      "inputs": [
        {
          "internalType": "address",
          "name": "_account",
          "type": "address"
        }
      ],
      "name": "collateralFactorBoost",
      "outputs": [
        {
          "internalType": "uint256",
          "name": "boostMantissa",
          "type": "uint256"
        }
      ],
      "stateMutability": "view",
      "type": "function"
    },
    {
      "inputs": [
        {
          "internalType": "address[]",
          "name": "_fTokens",
          "type": "address[]"
        }
      ],
      "name": "enterMarkets",
      "outputs": [],
      "stateMutability": "nonpayable",
      "type": "function"
    },
    {
      "inputs": [
        {
          "internalType": "address",
          "name": "_fToken",
          "type": "address"
        }
      ],
      "name": "exitMarket",
      "outputs": [],
      "stateMutability": "nonpayable",
      "type": "function"
    },
    {
      "inputs": [
        {
          "internalType": "address",
          "name": "_account",
          "type": "address"
        }
      ],
      "name": "getAccountLiquidity",
      "outputs": [
        {
          "internalType": "uint256[]",
          "name": "liquidities",
          "type": "uint256[]"
        },
        {
          "internalType": "uint256",
          "name": "shortfall",
          "type": "uint256"
        },
        {
          "internalType": "uint256",
          "name": "highestBorrowTier",
          "type": "uint256"
        }
      ],
      "stateMutability": "view",
      "type": "function"
    },
    {
      "inputs": [
        {
          "internalType": "address",
          "name": "_account",
          "type": "address"
        },
        {
          "internalType": "address",
          "name": "_fToken",
          "type": "address"
        },
        {
          "internalType": "uint256",
          "name": "_redeemToken",
          "type": "uint256"
        },
        {
          "internalType": "uint256",
          "name": "_borrowAmount",
          "type": "uint256"
        }
      ],
      "name": "getHypotheticalAccountLiquidity",
      "outputs": [
        {
          "internalType": "uint256[]",
          "name": "liquidities",
          "type": "uint256[]"
        },
        {
          "internalType": "uint256",
          "name": "shortfall",
          "type": "uint256"
        },
        {
          "internalType": "uint256",
          "name": "highestBorrowTier",
          "type": "uint256"
        }
      ],
      "stateMutability": "view",
      "type": "function"
    },
    {
      "inputs": [
        {
          "internalType": "address",
          "name": "_account",
          "type": "address"
        }
      ],
      "name": "getMarketsEntered",
      "outputs": [
        {
          "internalType": "address[]",
          "name": "",
          "type": "address[]"
        }
      ],
      "stateMutability": "view",
      "type": "function"
    },
    {
      "inputs": [
        {
          "internalType": "address",
          "name": "_priceOracle",
          "type": "address"
        }
      ],
      "name": "initialize",
      "outputs": [],
      "stateMutability": "nonpayable",
      "type": "function"
    },
    {
      "inputs": [
        {
          "internalType": "address",
          "name": "_account",
          "type": "address"
        }
      ],
      "name": "initiateLiquidation",
      "outputs": [],
      "stateMutability": "nonpayable",
      "type": "function"
    },
    {
      "inputs": [],
      "name": "isRiskManager",
      "outputs": [
        {
          "internalType": "bool",
          "name": "",
          "type": "bool"
        }
      ],
      "stateMutability": "pure",
      "type": "function"
    },
    {
      "inputs": [
        {
          "internalType": "address",
          "name": "",
          "type": "address"
        }
      ],
      "name": "liquidatableTime",
      "outputs": [
        {
          "internalType": "uint256",
          "name": "",
          "type": "uint256"
        }
      ],
      "stateMutability": "view",
      "type": "function"
    },
    {
      "inputs": [
        {
          "internalType": "address",
          "name": "_fTokenBorrowed",
          "type": "address"
        },
        {
          "internalType": "address",
          "name": "_fTokenCollateral",
          "type": "address"
        },
        {
          "internalType": "address",
          "name": "_borrower",
          "type": "address"
        },
        {
          "internalType": "uint256",
          "name": "_repayAmount",
          "type": "uint256"
        }
      ],
      "name": "liquidateBorrowAllowed",
      "outputs": [
        {
          "internalType": "bool",
          "name": "",
          "type": "bool"
        }
      ],
      "stateMutability": "view",
      "type": "function"
    },
    {
      "inputs": [
        {
          "internalType": "address",
          "name": "_borrower",
          "type": "address"
        }
      ],
      "name": "liquidateCalculateDiscount",
      "outputs": [
        {
          "internalType": "uint256",
          "name": "discountMantissa",
          "type": "uint256"
        }
      ],
      "stateMutability": "view",
      "type": "function"
    },
    {
      "inputs": [
        {
          "internalType": "address",
          "name": "_borrower",
          "type": "address"
        },
        {
          "internalType": "address",
          "name": "_fTokenBorrowed",
          "type": "address"
        },
        {
          "internalType": "address",
          "name": "_fTokenCollateral",
          "type": "address"
        },
        {
          "internalType": "uint256",
          "name": "_repayAmount",
          "type": "uint256"
        }
      ],
      "name": "liquidateCalculateSeizeTokens",
      "outputs": [
        {
          "internalType": "uint256",
          "name": "seizeTokens",
          "type": "uint256"
        },
        {
          "internalType": "uint256",
          "name": "repayValue",
          "type": "uint256"
        }
      ],
      "stateMutability": "view",
      "type": "function"
    },
    {
      "inputs": [
        {
          "internalType": "address",
          "name": "",
          "type": "address"
        }
      ],
      "name": "markets",
      "outputs": [
        {
          "internalType": "bool",
          "name": "isListed",
          "type": "bool"
        },
        {
          "internalType": "uint256",
          "name": "collateralFactorMantissa",
          "type": "uint256"
        },
        {
          "internalType": "uint256",
          "name": "tier",
          "type": "uint256"
        }
      ],
      "stateMutability": "view",
      "type": "function"
    },
    {
      "inputs": [
        {
          "internalType": "address",
          "name": "",
          "type": "address"
        },
        {
          "internalType": "uint256",
          "name": "",
          "type": "uint256"
        }
      ],
      "name": "marketsEntered",
      "outputs": [
        {
          "internalType": "address",
          "name": "",
          "type": "address"
        }
      ],
      "stateMutability": "view",
      "type": "function"
    },
    {
      "inputs": [],
      "name": "oracle",
      "outputs": [
        {
          "internalType": "contract IPriceOracle",
          "name": "",
          "type": "address"
        }
      ],
      "stateMutability": "view",
      "type": "function"
    },
    {
      "inputs": [],
      "name": "pauseGuardian",
      "outputs": [
        {
          "internalType": "address",
          "name": "",
          "type": "address"
        }
      ],
      "stateMutability": "view",
      "type": "function"
    },
    {
      "inputs": [],
      "name": "pendingAdmin",
      "outputs": [
        {
          "internalType": "address",
          "name": "",
          "type": "address"
        }
      ],
      "stateMutability": "view",
      "type": "function"
    },
    {
      "inputs": [
        {
          "internalType": "address",
          "name": "_fToken",
          "type": "address"
        },
        {
          "internalType": "address",
          "name": "_redeemer",
          "type": "address"
        },
        {
          "internalType": "uint256",
          "name": "_redeemTokens",
          "type": "uint256"
        }
      ],
      "name": "redeemAllowed",
      "outputs": [
        {
          "internalType": "bool",
          "name": "",
          "type": "bool"
        }
      ],
      "stateMutability": "view",
      "type": "function"
    },
    {
      "inputs": [
        {
          "internalType": "address",
          "name": "_fToken",
          "type": "address"
        }
      ],
      "name": "repayBorrowAllowed",
      "outputs": [
        {
          "internalType": "bool",
          "name": "",
          "type": "bool"
        }
      ],
      "stateMutability": "view",
      "type": "function"
    },
    {
      "inputs": [
        {
          "internalType": "address",
          "name": "_fTokenCollateral",
          "type": "address"
        },
        {
          "internalType": "address",
          "name": "_fTokenBorrowed",
          "type": "address"
        },
        {
          "internalType": "address",
          "name": "_borrower",
          "type": "address"
        },
        {
          "internalType": "uint256",
          "name": "_seizeTokens",
          "type": "uint256"
        }
      ],
      "name": "seizeAllowed",
      "outputs": [
        {
          "internalType": "bool",
          "name": "allowed",
          "type": "bool"
        },
        {
          "internalType": "bool",
          "name": "isCollateralTier",
          "type": "bool"
        }
      ],
      "stateMutability": "view",
      "type": "function"
    },
    {
      "inputs": [],
      "name": "seizeGuardianPaused",
      "outputs": [
        {
          "internalType": "bool",
          "name": "",
          "type": "bool"
        }
      ],
      "stateMutability": "view",
      "type": "function"
    },
    {
      "inputs": [
        {
          "internalType": "address",
          "name": "_fToken",
          "type": "address"
        },
        {
          "internalType": "bool",
          "name": "_state",
          "type": "bool"
        }
      ],
      "name": "setBorrowPaused",
      "outputs": [
        {
          "internalType": "bool",
          "name": "",
          "type": "bool"
        }
      ],
      "stateMutability": "nonpayable",
      "type": "function"
    },
    {
      "inputs": [
        {
          "internalType": "uint256",
          "name": "_newCloseFactorMantissa",
          "type": "uint256"
        }
      ],
      "name": "setCloseFactor",
      "outputs": [],
      "stateMutability": "nonpayable",
      "type": "function"
    },
    {
      "inputs": [
        {
          "internalType": "address",
          "name": "_fToken",
          "type": "address"
        },
        {
          "internalType": "uint256",
          "name": "_newCollateralFactorMantissa",
          "type": "uint256"
        }
      ],
      "name": "setCollateralFactor",
      "outputs": [],
      "stateMutability": "nonpayable",
      "type": "function"
    },
    {
      "inputs": [
        {
          "internalType": "address",
          "name": "_newPendingAdmin",
          "type": "address"
        }
      ],
      "name": "setPendingAdmin",
      "outputs": [],
      "stateMutability": "nonpayable",
      "type": "function"
    },
    {
      "inputs": [
        {
          "internalType": "address",
          "name": "_newOracle",
          "type": "address"
        }
      ],
      "name": "setPriceOracle",
      "outputs": [],
      "stateMutability": "nonpayable",
      "type": "function"
    },
    {
      "inputs": [
        {
          "internalType": "bool",
          "name": "_state",
          "type": "bool"
        }
      ],
      "name": "setSeizePaused",
      "outputs": [
        {
          "internalType": "bool",
          "name": "",
          "type": "bool"
        }
      ],
      "stateMutability": "nonpayable",
      "type": "function"
    },
    {
      "inputs": [
        {
          "internalType": "address",
          "name": "_fToken",
          "type": "address"
        },
        {
          "internalType": "bool",
          "name": "_state",
          "type": "bool"
        }
      ],
      "name": "setSupplyPaused",
      "outputs": [
        {
          "internalType": "bool",
          "name": "",
          "type": "bool"
        }
      ],
      "stateMutability": "nonpayable",
      "type": "function"
    },
    {
      "inputs": [
        {
          "internalType": "address",
          "name": "_fToken",
          "type": "address"
        },
        {
          "internalType": "uint256",
          "name": "_tier",
          "type": "uint256"
        }
      ],
      "name": "setTier",
      "outputs": [],
      "stateMutability": "nonpayable",
      "type": "function"
    },
    {
      "inputs": [
        {
          "internalType": "bool",
          "name": "_state",
          "type": "bool"
        }
      ],
      "name": "setTransferPaused",
      "outputs": [
        {
          "internalType": "bool",
          "name": "",
          "type": "bool"
        }
      ],
      "stateMutability": "nonpayable",
      "type": "function"
    },
    {
      "inputs": [
        {
          "internalType": "address",
          "name": "_newVetoken",
          "type": "address"
        }
      ],
      "name": "setVeToken",
      "outputs": [],
      "stateMutability": "nonpayable",
      "type": "function"
    },
    {
      "inputs": [
        {
          "internalType": "address",
          "name": "_fToken",
          "type": "address"
        }
      ],
      "name": "supplyAllowed",
      "outputs": [
        {
          "internalType": "bool",
          "name": "",
          "type": "bool"
        }
      ],
      "stateMutability": "view",
      "type": "function"
    },
    {
      "inputs": [
        {
          "internalType": "address",
          "name": "",
          "type": "address"
        }
      ],
      "name": "supplyGuardianPaused",
      "outputs": [
        {
          "internalType": "bool",
          "name": "",
          "type": "bool"
        }
      ],
      "stateMutability": "view",
      "type": "function"
    },
    {
      "inputs": [
        {
          "internalType": "address",
          "name": "_fToken",
          "type": "address"
        },
        {
          "internalType": "uint256",
          "name": "_collateralFactorMantissa",
          "type": "uint256"
        },
        {
          "internalType": "uint256",
          "name": "_tier",
          "type": "uint256"
        }
      ],
      "name": "supportMarket",
      "outputs": [],
      "stateMutability": "nonpayable",
      "type": "function"
    },
    {
      "inputs": [
        {
          "internalType": "address",
          "name": "_fToken",
          "type": "address"
        },
        {
          "internalType": "address",
          "name": "_src",
          "type": "address"
        },
        {
          "internalType": "uint256",
          "name": "_amount",
          "type": "uint256"
        }
      ],
      "name": "transferAllowed",
      "outputs": [
        {
          "internalType": "bool",
          "name": "",
          "type": "bool"
        }
      ],
      "stateMutability": "view",
      "type": "function"
    },
    {
      "inputs": [],
      "name": "transferGuardianPaused",
      "outputs": [
        {
          "internalType": "bool",
          "name": "",
          "type": "bool"
        }
      ],
      "stateMutability": "view",
      "type": "function"
    },
    {
      "inputs": [],
      "name": "veToken",
      "outputs": [
        {
          "internalType": "contract IERC20",
          "name": "",
          "type": "address"
        }
      ],
      "stateMutability": "view",
      "type": "function"
    }
  ],
  "bytecode": "0x608060405234801561001057600080fd5b50613c99806100206000396000f3fe608060405234801561001057600080fd5b506004361061032b5760003560e01c80639665ce0b116101b2578063c5c8dd08116100f9578063e8755446116100a2578063ede4edd01161007c578063ede4edd0146107ab578063eeffd25e146107be578063f851a440146107de578063ff125c8a146107f757600080fd5b8063e87554461461077c578063eabe7d9114610785578063ece080d81461079857600080fd5b8063db09e0d1116100d3578063db09e0d114610720578063de7b6d3414610743578063e6653f3d1461075657600080fd5b8063c5c8dd08146106c3578063d466746f146106ed578063da3d454c1461070d57600080fd5b8063ac0b0bb71161015b578063c04f31ff11610135578063c04f31ff1461068a578063c29982381461069d578063c4d66de8146106b057600080fd5b8063ac0b0bb714610650578063afabb4e014610664578063b6606d1c1461067757600080fd5b8063a914adce1161018c578063a914adce14610623578063a996e7ba14610636578063abcc6b191461063d57600080fd5b80639665ce0b146105d85780639d488a0c146105fd578063a8a087951461061057600080fd5b80634e79238f116102765780637dc0d1d01161021f57806387f76303116101f957806387f76303146105335780638e8f294b14610547578063929fe9a11461059757600080fd5b80637dc0d1d0146104ec5780637e55bc00146104ff5780637eaa53171461051257600080fd5b80636d154ea5116102505780636d154ea5146104a35780636e2cf5af146104c65780636f3a3652146104d957600080fd5b80634e79238f1461045b578063530e784f1461047d5780635ec88c791461049057600080fd5b806326782247116102d857806343b5f5be116102b257806343b5f5be1461042d578063441fd1cb146104405780634dd18bf51461044857600080fd5b806326782247146103db578063384cf1d7146103ee5780633b92eb231461041a57600080fd5b806312348e961161030957806312348e961461039257806314797568146103a557806324a3d622146103c857600080fd5b80630e18b681146103305780630ef332ca1461033a5780630efaae4114610367575b600080fd5b61033861080a565b005b61034d610348366004613774565b610942565b604080519283526020830191909152015b60405180910390f35b61037a6103753660046137c5565b610b8d565b6040516001600160a01b03909116815260200161035e565b6103386103a03660046137f1565b610bc5565b6103b86103b336600461380a565b610c5d565b604051901515815260200161035e565b60085461037a906001600160a01b031681565b60015461037a906001600160a01b031681565b6103b86103fc36600461380a565b6001600160a01b031660009081526006602052604090205460ff1690565b60025461037a906001600160a01b031681565b6103b861043b366004613835565b610d31565b6103b8600181565b61033861045636600461380a565b610e3a565b61046e610469366004613852565b610eee565b60405161035e93929190613898565b61033861048b36600461380a565b611503565b61046e61049e36600461380a565b6115b7565b6103b86104b136600461380a565b600a6020526000908152604090205460ff1681565b6103b86104d4366004613774565b6115d7565b6103386104e736600461380a565b611936565b60035461037a906001600160a01b031681565b6103b861050d36600461380a565b6119b2565b61052561052036600461380a565b611a14565b60405190815260200161035e565b6008546103b890600160b01b900460ff1681565b61057a61055536600461380a565b60066020526000908152604090208054600182015460039092015460ff909116919083565b60408051931515845260208401929092529082015260600161035e565b6103b86105a53660046138e5565b6001600160a01b038082166000908152600660209081526040808320938616835260029093019052205460ff1692915050565b6008546103b89074010000000000000000000000000000000000000000900460ff1681565b6103b861060b366004613835565b611a90565b61033861061e36600461380a565b611b85565b6103386106313660046137c5565b611caf565b60016103b8565b61033861064b36600461391e565b611d86565b6008546103b890600160b81b900460ff1681565b61033861067236600461380a565b611ff5565b6103b8610685366004613953565b612082565b6103386106983660046137c5565b6121df565b6103386106ab366004613997565b612467565b6103386106be36600461380a565b61249f565b6106d66106d1366004613774565b61260a565b60408051921515835290151560208301520161035e565b6107006106fb36600461380a565b612936565b60405161035e9190613a5c565b6103b861071b366004613aa9565b6129ac565b6103b861072e36600461380a565b60096020526000908152604090205460ff1681565b6103b8610751366004613953565b612cba565b6008546103b8907501000000000000000000000000000000000000000000900460ff1681565b61052560045481565b6103b8610793366004613aa9565b612e0b565b6105256107a636600461380a565b612f14565b6103386107b936600461380a565b612fd4565b6105256107cc36600461380a565b600b6020526000908152604090205481565b60005461037a906201000090046001600160a01b031681565b6103b8610805366004613aa9565b61336e565b6001546001600160a01b031633146108695760405162461bcd60e51b815260206004820152601c60248201527f546f6b656e426173653a204e6f742070656e64696e672061646d696e0000000060448201526064015b60405180910390fd5b60008054600180546001600160a01b038082166201000081810275ffffffffffffffffffffffffffffffffffffffff000019871617968790556001600160a01b031990931690935560408051948390048216808652929095041660208401529290917ff9ffabca9c8276e99321725bcb43fb076a6c66a54b7f21c4e8146d8519b417dc910160405180910390a1600154604080516001600160a01b03808516825290921660208301527fca4f2f25d0898edd99413412fb94012f9e54ec8142f9b093e7720646a95b16a991015b60405180910390a15050565b60035460405163fc57d4df60e01b81526001600160a01b038581166004830152600092839283929091169063fc57d4df90602401602060405180830381865afa158015610993573d6000803e3d6000fd5b505050506040513d601f19601f820116820180604052508101906109b79190613aea565b60035460405163fc57d4df60e01b81526001600160a01b0388811660048301529293506000929091169063fc57d4df90602401602060405180830381865afa158015610a07573d6000803e3d6000fd5b505050506040513d601f19601f82011682018060405250810190610a2b9190613aea565b9050600082118015610a3d5750600081115b610a895760405162461bcd60e51b815260206004820152601e60248201527f5269736b4d616e616765723a204f7261636c65207072696365206973203000006044820152606401610860565b6000610aaa6040518060200160405280610aa28c611a14565b905287613452565b90506000610ac660405180602001604052808681525083613452565b90506000886001600160a01b031663182df0f56040518163ffffffff1660e01b8152600401602060405180830381865afa158015610b08573d6000803e3d6000fd5b505050506040513d601f19601f82011682018060405250810190610b2c9190613aea565b90506000610b56604051806020016040528087815250604051806020016040528085815250613472565b9050610b6283826134ba565b9750610b7c6040518060200160405280888152508a613452565b965050505050505094509492505050565b60056020528160005260406000208181548110610ba957600080fd5b6000918252602090912001546001600160a01b03169150829050565b6000546201000090046001600160a01b03163314610c1f5760405162461bcd60e51b81526020600482015260236024820152600080516020613c6d833981519152604482015262185b1b60ea1b6064820152608401610860565b600480549082905560408051828152602081018490527f3b9670cf975d26958e754b57098eaa2ac914d8d2a31b83257997b9f346110fd99101610936565b6001600160a01b038116600090815260066020526040812054829060ff16610cbf5760405162461bcd60e51b81526020600482015260216024820152600080516020613c4d8339815191526044820152601960fa1b6064820152608401610860565b6001600160a01b03831660009081526009602052604090205460ff1615610d285760405162461bcd60e51b815260206004820181905260248201527f5269736b4d616e616765723a20537570706c79696e67206973207061757365646044820152606401610860565b50600192915050565b600080546201000090046001600160a01b03163314610d8c5760405162461bcd60e51b81526020600482015260236024820152600080516020613c6d833981519152604482015262185b1b60ea1b6064820152608401610860565b60088054831515600160b81b027fffffffffffffffff00ffffffffffffffffffffffffffffffffffffffffffffff9091161790556040517f4c12397c45142190be448f61407c097c308b57bea8055aef6f5caf5ac95aabe690610e2a90849060408082526005908201527f5365697a650000000000000000000000000000000000000000000000000000006060820152901515602082015260800190565b60405180910390a150805b919050565b6000546201000090046001600160a01b03163314610e945760405162461bcd60e51b81526020600482015260236024820152600080516020613c6d833981519152604482015262185b1b60ea1b6064820152608401610860565b600180546001600160a01b038381166001600160a01b031983168117909355604080519190921680825260208201939093527fca4f2f25d0898edd99413412fb94012f9e54ec8142f9b093e7720646a95b16a99101610936565b606060006003610efc61368a565b60075480825260009067ffffffffffffffff811115610f1d57610f1d613981565b604051908082528060200260200182016040528015610f46578160200160208202803683370190505b5090506000826000015167ffffffffffffffff811115610f6857610f68613981565b604051908082528060200260200182016040528015610f91578160200160208202803683370190505b50835190915067ffffffffffffffff811115610faf57610faf613981565b604051908082528060200260200182016040528015610fd8578160200160208202803683370190505b506001600160a01b038b1660009081526005602090815260408083208054825181850281018501909352808352949a50929390929183018282801561104657602002820191906000526020600020905b81546001600160a01b03168152600190910190602001808311611028575b5050505050905060005b81518110156113d85781818151811061106b5761106b613b03565b6020908102919091018101516001600160a01b03908116878301818152600091825260069093526040908190206003015481890152915191516361bfb47160e11b81528e8216600482015291169063c37f68e290602401606060405180830381865afa1580156110df573d6000803e3d6000fd5b505050506040513d601f19601f820116820180604052508101906111039190613b19565b60a0880152608087018190526060870191909152158015906111285750858560400151105b1561113557846040015195505b6040805160208082018352878101516001600160a01b031660009081526006909152918220600101549091829161116b91613b5d565b9052610140860152604080516020808201835260a0880151825261016088019190915260035490870151915163fc57d4df60e01b81526001600160a01b03928316600482015291169063fc57d4df90602401602060405180830381865afa1580156111da573d6000803e3d6000fd5b505050506040513d601f19601f820116820180604052508101906111fe9190613aea565b60c086018190526112515760405162461bcd60e51b815260206004820152601e60248201527f5269736b4d616e616765723a204f7261636c65207072696365206973203000006044820152606401610860565b604080516020810190915260c0860151815261018086018190526101608601516112899161127e91613472565b866101400151613472565b6101a08601819052606086015161129f916134df565b84600187604001516112b19190613b75565b815181106112c1576112c1613b03565b602002602001018181516112d59190613b5d565b90525060808501516101808601516112ed91906134df565b83600187604001516112ff9190613b75565b8151811061130f5761130f613b03565b602002602001018181516113239190613b5d565b90525060208501516001600160a01b03808d169116036113d05761134c8a866101a001516134df565b846001876040015161135e9190613b75565b8151811061136e5761136e613b03565b602002602001018181516113829190613b75565b905250610180850151611396908a906134df565b83600187604001516113a89190613b75565b815181106113b8576113b8613b03565b602002602001018181516113cc9190613b5d565b9052505b600101611050565b5083515b80156114ec57836113ee600183613b75565b815181106113fe576113fe613b03565b602090810291909101015160e086015261012085015183611420600184613b75565b8151811061143057611430613b03565b60200260200101516114429190613b5d565b610100860181905260e08601511061149d578461010001518560e001516114699190613b75565b88611475600184613b75565b8151811061148557611485613b03565b602090810291909101015260006101208601526114e3565b8460e001518561010001516114b29190613b75565b6101208601526000886114c6600184613b75565b815181106114d6576114d6613b03565b6020026020010181815250505b600019016113dc565b508361012001519550505050509450945094915050565b6000546201000090046001600160a01b0316331461155d5760405162461bcd60e51b81526020600482015260236024820152600080516020613c6d833981519152604482015262185b1b60ea1b6064820152608401610860565b600380546001600160a01b038381166001600160a01b031983168117909355604080519190921680825260208201939093527fd52b2b9b7e9ee655fcb95d2e5b9e0c9f69e7ef2b8e9d2d0ea78402d576d22e229101610936565b60606000806115ca846000806000610eee565b9196909550909350915050565b6001600160a01b0382166000908152600b6020526040812054806116635760405162461bcd60e51b815260206004820152602a60248201527f5269736b4d616e616765723a204c69717569646174696f6e206e6f742079657460448201527f20696e69746961746564000000000000000000000000000000000000000000006064820152608401610860565b4361166f82603c613b5d565b116116c85760405162461bcd60e51b815260206004820152602360248201527f5269736b4d616e616765723a2052657365742061756374696f6e2072657175696044820152621c995960ea1b6064820152608401610860565b6001600160a01b03861660009081526006602052604090205460ff16801561170857506001600160a01b03851660009081526006602052604090205460ff165b61174c5760405162461bcd60e51b81526020600482015260216024820152600080516020613c4d8339815191526044820152601960fa1b6064820152608401610860565b6040516395dd919360e01b81526001600160a01b038581166004830152600091908816906395dd919390602401602060405180830381865afa158015611796573d6000803e3d6000fd5b505050506040513d601f19601f820116820180604052508101906117ba9190613aea565b90506000806117c8876115b7565b9250925050600082116118295760405162461bcd60e51b815260206004820152602360248201527f5269736b4d616e616765723a20496e73756666696369656e742073686f727466604482015262185b1b60ea1b6064820152608401610860565b6001600160a01b03891660009081526006602052604090206003015481146118b95760405162461bcd60e51b815260206004820152603760248201527f5269736b4d616e616765723a204c69717569646174696f6e2073686f756c642060448201527f73746172742066726f6d206869676865737420746965720000000000000000006064820152608401610860565b60006118d5604051806020016040528060045481525085613452565b90508681116119265760405162461bcd60e51b815260206004820152601b60248201527f5269736b4d616e616765723a20526570617920746f6f206d75636800000000006044820152606401610860565b5060019998505050505050505050565b6000546201000090046001600160a01b031633146119905760405162461bcd60e51b81526020600482015260236024820152600080516020613c6d833981519152604482015262185b1b60ea1b6064820152608401610860565b600280546001600160a01b0319166001600160a01b0392909216919091179055565b6001600160a01b038116600090815260066020526040812054829060ff16610d285760405162461bcd60e51b81526020600482015260216024820152600080516020613c4d8339815191526044820152601960fa1b6064820152608401610860565b6001600160a01b0381166000908152600b6020526040812054600c5443908390611a3e8484613b75565b611a489190613b8c565b905080600d54611a589190613bae565b611a6a90670e92596fd6290000613b5d565b9350670f43fc2c04ee0000841115611a8857670f43fc2c04ee000093505b505050919050565b600080546201000090046001600160a01b03163314611aeb5760405162461bcd60e51b81526020600482015260236024820152600080516020613c6d833981519152604482015262185b1b60ea1b6064820152608401610860565b600880547fffffffffffffffffff00ffffffffffffffffffffffffffffffffffffffffffff16600160b01b84151590810291909117825560408051818152908101929092527f5472616e73666572000000000000000000000000000000000000000000000000606083015260208201527f4c12397c45142190be448f61407c097c308b57bea8055aef6f5caf5ac95aabe690608001610e2a565b6001600160a01b0381166000908152600b6020526040902054801580611bb45750611bb181603c613b5d565b43115b611c265760405162461bcd60e51b815260206004820152602a60248201527f5269736b4d616e616765723a20416c726561647920696e69746961746564206c60448201527f69717569646174696f6e000000000000000000000000000000000000000000006064820152608401610860565b6000611c31836115b7565b5091505060008111611c915760405162461bcd60e51b815260206004820152602360248201527f5269736b4d616e616765723a20496e73756666696369656e742073686f727466604482015262185b1b60ea1b6064820152608401610860565b50506001600160a01b03166000908152600b60205260409020439055565b6000546201000090046001600160a01b03163314611d095760405162461bcd60e51b81526020600482015260236024820152600080516020613c6d833981519152604482015262185b1b60ea1b6064820152608401610860565b600081118015611d1b57506007548111155b611d675760405162461bcd60e51b815260206004820152601960248201527f5269736b4d616e616765723a20496e76616c69642074696572000000000000006044820152606401610860565b6001600160a01b03909116600090815260066020526040902060030155565b6000546201000090046001600160a01b03163314611de05760405162461bcd60e51b81526020600482015260236024820152600080516020613c6d833981519152604482015262185b1b60ea1b6064820152608401610860565b6001600160a01b03831660009081526006602052604090205460ff1615611e545760405162461bcd60e51b815260206004820152602260248201527f5269736b4d616e616765723a204d61726b657420616c7265616479206c697374604482015261195960f21b6064820152608401610860565b670c7d713b49da0000821115611ed25760405162461bcd60e51b815260206004820152602660248201527f5269736b4d616e616765723a20496e76616c696420636f6c6c61746572616c2060448201527f666163746f7200000000000000000000000000000000000000000000000000006064820152608401610860565b600754811115611f245760405162461bcd60e51b815260206004820152601960248201527f5269736b4d616e616765723a20496e76616c69642074696572000000000000006044820152606401610860565b826001600160a01b031663542a1f0b6040518163ffffffff1660e01b8152600401602060405180830381865afa158015611f62573d6000803e3d6000fd5b505050506040513d601f19601f82011682018060405250810190611f869190613bcd565b506001600160a01b038316600081815260066020908152604091829020805460ff191660019081178255810186905560038101859055915192835290917fcf583bb0c569eb967f806b11601c4cb93c10310485c67add5f8362c2f212321f91015b60405180910390a150505050565b3360008181526006602052604090205460ff1661204c5760405162461bcd60e51b81526020600482015260216024820152600080516020613c4d8339815191526044820152601960fa1b6064820152608401610860565b6000612057836115b7565b509150508060000361207d576001600160a01b0383166000908152600b60205260408120555b505050565b6001600160a01b038216600090815260066020526040812054839060ff166120e45760405162461bcd60e51b81526020600482015260216024820152600080516020613c4d8339815191526044820152601960fa1b6064820152608401610860565b6000546201000090046001600160a01b0316331461213e5760405162461bcd60e51b81526020600482015260236024820152600080516020613c6d833981519152604482015262185b1b60ea1b6064820152608401610860565b6001600160a01b0384166000818152600a6020908152604091829020805460ff1916871515908117909155825193845260609184018290526006918401919091527f426f72726f7700000000000000000000000000000000000000000000000000006080840152908201527fae9bd19d6b7dcb722457462ed82420131e5740c4283e4f5b0c8332e96becd5569060a0015b60405180910390a1509092915050565b6000546201000090046001600160a01b031633146122395760405162461bcd60e51b81526020600482015260236024820152600080516020613c6d833981519152604482015262185b1b60ea1b6064820152608401610860565b6001600160a01b038216600090815260066020526040902054829060ff1661229b5760405162461bcd60e51b81526020600482015260216024820152600080516020613c4d8339815191526044820152601960fa1b6064820152608401610860565b6001600160a01b038316600090815260066020908152604091829020825180830184528581528351928301909352670c7d713b49da00008083528351919392911061234e5760405162461bcd60e51b815260206004820152603060248201527f5269736b4d616e616765723a20436f6c6c61746572616c20666163746f72206c60448201527f6172676572207468616e206c696d6974000000000000000000000000000000006064820152608401610860565b60035460405163fc57d4df60e01b81526001600160a01b038881166004830152600092169063fc57d4df90602401602060405180830381865afa158015612399573d6000803e3d6000fd5b505050506040513d601f19601f820116820180604052508101906123bd9190613aea565b1161240a5760405162461bcd60e51b815260206004820152601e60248201527f5269736b4d616e616765723a204f7261636c65207072696365206973203000006044820152606401610860565b60018301805490869055604080516001600160a01b0389168152602081018390529081018790527f70483e6592cd5182d45ac970e05bc62cdcc90e9d8ef2c2dbe686cf383bcd7fc59060600160405180910390a150505050505050565b805160005b8181101561207d5761249783828151811061248957612489613b03565b602002602001015133613502565b60010161246c565b600054610100900460ff16158080156124bf5750600054600160ff909116105b806124d95750303b1580156124d9575060005460ff166001145b61254b5760405162461bcd60e51b815260206004820152602e60248201527f496e697469616c697a61626c653a20636f6e747261637420697320616c72656160448201527f647920696e697469616c697a65640000000000000000000000000000000000006064820152608401610860565b6000805460ff19166001179055801561256e576000805461ff0019166101001790555b6000805475ffffffffffffffffffffffffffffffffffffffff0000191633620100000217905560036007819055600a600c55662386f26fc10000600d5580546001600160a01b0319166001600160a01b0384161790558015612606576000805461ff0019169055604051600181527f7f26b83ff96e1f2b6a682f133852f6798a09c465da95921460cefb384740249890602001610936565b5050565b6008546000908190600160b81b900460ff16156126695760405162461bcd60e51b815260206004820152601c60248201527f5269736b4d616e616765723a205365697a6520697320706175736564000000006044820152606401610860565b6040516370a0823160e01b81526001600160a01b0385811660048301528491908816906370a0823190602401602060405180830381865afa1580156126b2573d6000803e3d6000fd5b505050506040513d601f19601f820116820180604052508101906126d69190613aea565b101561274a5760405162461bcd60e51b815260206004820152603260248201527f5269736b4d616e616765723a205365697a6520746f6b656e20616d6f756e742060448201527f6578636565647320636f6c6c61746572616c00000000000000000000000000006064820152608401610860565b6001600160a01b03851660009081526006602052604090205460ff168061278957506001600160a01b03861660009081526006602052604090205460ff165b6127cd5760405162461bcd60e51b81526020600482015260216024820152600080516020613c4d8339815191526044820152601960fa1b6064820152608401610860565b846001600160a01b031663d71f05e66040518163ffffffff1660e01b8152600401602060405180830381865afa15801561280b573d6000803e3d6000fd5b505050506040513d601f19601f8201168201806040525081019061282f9190613bea565b6001600160a01b0316866001600160a01b031663d71f05e66040518163ffffffff1660e01b8152600401602060405180830381865afa158015612876573d6000803e3d6000fd5b505050506040513d601f19601f8201168201806040525081019061289a9190613bea565b6001600160a01b0316146128fb5760405162461bcd60e51b815260206004820152602260248201527f5269736b4d616e616765723a205269736b206d616e61676572206d69736d61746044820152610c6d60f31b6064820152608401610860565b6001600160a01b0386166000908152600660205260409020600301546001925082036129295750600161292d565b5060005b94509492505050565b6001600160a01b038116600090815260056020908152604080832080548251818502810185019093528083526060949383018282801561299f57602002820191906000526020600020905b81546001600160a01b03168152600190910190602001808311612981575b5093979650505050505050565b6001600160a01b038316600090815260066020526040812054849060ff16612a0e5760405162461bcd60e51b81526020600482015260216024820152600080516020613c4d8339815191526044820152601960fa1b6064820152608401610860565b6001600160a01b0385166000908152600a602052604090205460ff1615612a775760405162461bcd60e51b815260206004820152601d60248201527f5269736b4d616e616765723a20426f72726f77206973207061757365640000006044820152606401610860565b6001600160a01b038086166000908152600660209081526040808320938816835260029093019052205460ff16612b6957336001600160a01b03861614612b265760405162461bcd60e51b815260206004820152602b60248201527f5269736b4d616e616765723a2053656e646572206d7573742062652066546f6b60448201527f656e20636f6e74726163740000000000000000000000000000000000000000006064820152608401610860565b612b308585613502565b6001600160a01b038086166000908152600660209081526040808320938816835260029093019052205460ff16612b6957612b69613c07565b60035460405163fc57d4df60e01b81526001600160a01b038781166004830152600092169063fc57d4df90602401602060405180830381865afa158015612bb4573d6000803e3d6000fd5b505050506040513d601f19601f82011682018060405250810190612bd89190613aea565b11612c255760405162461bcd60e51b815260206004820152601e60248201527f5269736b4d616e616765723a204f7261636c65207072696365206973203000006044820152606401610860565b6000612c348587600087610eee565b509150508015612cac5760405162461bcd60e51b815260206004820152602d60248201527f5269736b4d616e616765723a2053686f727466616c6c20637265617465642c2060448201527f63616e6e6f7420626f72726f77000000000000000000000000000000000000006064820152608401610860565b60019250505b509392505050565b6001600160a01b038216600090815260066020526040812054839060ff16612d1c5760405162461bcd60e51b81526020600482015260216024820152600080516020613c4d8339815191526044820152601960fa1b6064820152608401610860565b6000546201000090046001600160a01b03163314612d765760405162461bcd60e51b81526020600482015260236024820152600080516020613c6d833981519152604482015262185b1b60ea1b6064820152608401610860565b6001600160a01b038416600081815260096020908152604091829020805460ff1916871515908117909155825193845260609184018290526006918401919091527f537570706c7900000000000000000000000000000000000000000000000000006080840152908201527fae9bd19d6b7dcb722457462ed82420131e5740c4283e4f5b0c8332e96becd5569060a0016121cf565b6001600160a01b038316600090815260066020526040812054849060ff16612e6d5760405162461bcd60e51b81526020600482015260216024820152600080516020613c4d8339815191526044820152601960fa1b6064820152608401610860565b6001600160a01b038086166000908152600660209081526040808320938816835260029093019052205460ff16612ea75760019150612cb2565b6000612eb68587866000610eee565b509150508015612cac5760405162461bcd60e51b815260206004820152602360248201527f5269736b4d616e616765723a20496e73756666696369656e74206c697175696460448201526269747960e81b6064820152608401610860565b6002546040516370a0823160e01b81526001600160a01b03838116600483015260009283929116906370a0823190602401602060405180830381865afa158015612f62573d6000803e3d6000fd5b505050506040513d601f19601f82011682018060405250810190612f869190613aea565b90506000612f9e69d3c21bcecceda100000083613b8c565b9050612fb18166038d7ea4c68000613bae565b92506658d15e17628000831115612fcd576658d15e1762800092505b5050919050565b6040516361bfb47160e11b815233600482015260009081906001600160a01b0384169063c37f68e290602401606060405180830381865afa15801561301d573d6000803e3d6000fd5b505050506040513d601f19601f820116820180604052508101906130419190613b19565b5091509150806000146130bc5760405162461bcd60e51b815260206004820152602760248201527f5269736b4d616e616765723a20426f72726f772062616c616e6365206973206e60448201527f6f74207a65726f000000000000000000000000000000000000000000000000006064820152608401610860565b6130c7833384612e0b565b6131395760405162461bcd60e51b815260206004820152602760248201527f5269736b4d616e616765723a2043616e6e6f7420776974686472617720616c6c60448201527f20746f6b656e73000000000000000000000000000000000000000000000000006064820152608401610860565b6001600160a01b0383166000908152600660209081526040808320338452600281019092529091205460ff1661316f5750505050565b3360009081526002820160209081526040808320805460ff1916905560058252808320805482518185028101850190935280835291929091908301828280156131e157602002820191906000526020600020905b81546001600160a01b031681526001909101906020018083116131c3575b505050505090506000815190506000805b8281101561324657876001600160a01b031684828151811061321657613216613b03565b60200260200101516001600160a01b03160361323457809150613246565b8061323e81613c1d565b9150506131f2565b5081811061325657613256613c07565b3360009081526005602052604090208054819061327590600190613b75565b8154811061328557613285613b03565b9060005260206000200160009054906101000a90046001600160a01b03168183815481106132b5576132b5613b03565b9060005260206000200160006101000a8154816001600160a01b0302191690836001600160a01b03160217905550808054806132f3576132f3613c36565b600082815260209020810160001990810180546001600160a01b03191690550190556040517fe699a64c18b07ac5b7301aa273f36a2287239eb9501d81950672794afba29a0d9061335c908a9033906001600160a01b0392831681529116602082015260400190565b60405180910390a15050505050505050565b600854600090600160b01b900460ff16156133cb5760405162461bcd60e51b815260206004820152601260248201527f7472616e736665722069732070617573656400000000000000000000000000006044820152606401610860565b6133d6848484612e0b565b6134485760405162461bcd60e51b815260206004820152603b60248201527f5269736b4d616e616765723a20536f75726365206e6f7420616c6c6f7765642060448201527f746f2072656465656d2074686174206d7563682066546f6b656e7300000000006064820152608401610860565b5060019392505050565b60008061345f848461362c565b905061346a81613654565b949350505050565b6040805160208101909152600081526040518060200160405280670de0b6b3a76400006134a786600001518660000151613672565b6134b19190613b8c565b90529392505050565b60006134d86134d184670de0b6b3a7640000613672565b835161367e565b9392505050565b6000670de0b6b3a76400006134f8848460000151613672565b6134d89190613b8c565b6001600160a01b038216600090815260066020526040902054829060ff166135645760405162461bcd60e51b81526020600482015260216024820152600080516020613c4d8339815191526044820152601960fa1b6064820152608401610860565b6001600160a01b03808416600090815260066020908152604080832093861683526002840190915290205460ff1615156001036135a15750505050565b6001600160a01b03838116600081815260028401602090815260408083208054600160ff199091168117909155600583528184208054918201815584529282902090920180546001600160a01b031916948916948517905581519384528301919091527f3ab23ab0d51cccc0c3085aec51f99228625aa1a922b3a8ca89a26b0f2027a1a59101611fe7565b60408051602081019091526000815260405180602001604052806134b1856000015185613672565b805160009061366c90670de0b6b3a764000090613b8c565b92915050565b60006134d88284613bae565b60006134d88284613b8c565b604051806101c001604052806000815260200160006001600160a01b0316815260200160008152602001600081526020016000815260200160008152602001600081526020016000815260200160008152602001600081526020016136fb6040518060200160405280600081525090565b81526020016137166040518060200160405280600081525090565b81526020016137316040518060200160405280600081525090565b815260200161374c6040518060200160405280600081525090565b905290565b6001600160a01b038116811461376657600080fd5b50565b8035610e3581613751565b6000806000806080858703121561378a57600080fd5b843561379581613751565b935060208501356137a581613751565b925060408501356137b581613751565b9396929550929360600135925050565b600080604083850312156137d857600080fd5b82356137e381613751565b946020939093013593505050565b60006020828403121561380357600080fd5b5035919050565b60006020828403121561381c57600080fd5b81356134d881613751565b801515811461376657600080fd5b60006020828403121561384757600080fd5b81356134d881613827565b6000806000806080858703121561386857600080fd5b843561387381613751565b9350602085013561388381613751565b93969395505050506040820135916060013590565b606080825284519082018190526000906020906080840190828801845b828110156138d1578151845292840192908401906001016138b5565b505050908301949094525060400152919050565b600080604083850312156138f857600080fd5b823561390381613751565b9150602083013561391381613751565b809150509250929050565b60008060006060848603121561393357600080fd5b833561393e81613751565b95602085013595506040909401359392505050565b6000806040838503121561396657600080fd5b823561397181613751565b9150602083013561391381613827565b634e487b7160e01b600052604160045260246000fd5b600060208083850312156139aa57600080fd5b823567ffffffffffffffff808211156139c257600080fd5b818501915085601f8301126139d657600080fd5b8135818111156139e8576139e8613981565b8060051b604051601f19603f83011681018181108582111715613a0d57613a0d613981565b604052918252848201925083810185019188831115613a2b57600080fd5b938501935b82851015613a5057613a4185613769565b84529385019392850192613a30565b98975050505050505050565b6020808252825182820181905260009190848201906040850190845b81811015613a9d5783516001600160a01b031683529284019291840191600101613a78565b50909695505050505050565b600080600060608486031215613abe57600080fd5b8335613ac981613751565b92506020840135613ad981613751565b929592945050506040919091013590565b600060208284031215613afc57600080fd5b5051919050565b634e487b7160e01b600052603260045260246000fd5b600080600060608486031215613b2e57600080fd5b8351925060208401519150604084015190509250925092565b634e487b7160e01b600052601160045260246000fd5b60008219821115613b7057613b70613b47565b500190565b600082821015613b8757613b87613b47565b500390565b600082613ba957634e487b7160e01b600052601260045260246000fd5b500490565b6000816000190483118215151615613bc857613bc8613b47565b500290565b600060208284031215613bdf57600080fd5b81516134d881613827565b600060208284031215613bfc57600080fd5b81516134d881613751565b634e487b7160e01b600052600160045260246000fd5b600060018201613c2f57613c2f613b47565b5060010190565b634e487b7160e01b600052603160045260246000fdfe5269736b4d616e616765723a204d61726b6574206973206e6f74206c697374655269736b4d616e616765723a204e6f7420617574686f72697a656420746f2063a164736f6c634300080d000a",
  "linkReferences": {},
  "deployedLinkReferences": {}
}