{
  "_format": "hh-sol-artifact-1",
  "contractName": "SimplePriceOracle",
  "sourceName": "contracts/money-market/SimplePriceOracle.sol",
  "abi": [
    {
      "anonymous": false,
      "inputs": [
        {
          "indexed": false,
          "internalType": "address",
          "name": "asset",
          "type": "address"
        },
        {
          "indexed": false,
          "internalType": "uint256",
          "name": "previousPriceMantissa",
          "type": "uint256"
        },
        {
          "indexed": false,
          "internalType": "uint256",
          "name": "requestedPriceMantissa",
          "type": "uint256"
        },
        {
          "indexed": false,
          "internalType": "uint256",
          "name": "newPriceMantissa",
          "type": "uint256"
        }
      ],
      "name": "PricePosted",
      "type": "event"
    },
    {
      "inputs": [
        {
          "internalType": "address",
          "name": "_asset",
          "type": "address"
        }
      ],
      "name": "assetPrices",
      "outputs": [
        {
          "internalType": "uint256",
          "name": "",
          "type": "uint256"
        }
      ],
      "stateMutability": "view",
      "type": "function"
    },
    {
      "inputs": [
        {
          "internalType": "address",
          "name": "_fToken",
          "type": "address"
        }
      ],
      "name": "getUnderlyingPrice",
      "outputs": [
        {
          "internalType": "uint256",
          "name": "",
          "type": "uint256"
        }
      ],
      "stateMutability": "view",
      "type": "function"
    },
    {
      "inputs": [
        {
          "internalType": "address",
          "name": "_asset",
          "type": "address"
        },
        {
          "internalType": "uint256",
          "name": "_price",
          "type": "uint256"
        }
      ],
      "name": "setDirectPrice",
      "outputs": [],
      "stateMutability": "nonpayable",
      "type": "function"
    },
    {
      "inputs": [
        {
          "internalType": "address",
          "name": "_fToken",
          "type": "address"
        },
        {
          "internalType": "uint256",
          "name": "_underlyingPriceMantissa",
          "type": "uint256"
        }
      ],
      "name": "setUnderlyingPrice",
      "outputs": [],
      "stateMutability": "nonpayable",
      "type": "function"
    }
  ],
  "bytecode": "0x608060405234801561001057600080fd5b50610503806100206000396000f3fe608060405234801561001057600080fd5b506004361061004c5760003560e01c806309a8acb014610051578063127ffda0146100665780635e9a523c14610079578063fc57d4df146100b4575b600080fd5b61006461005f36600461037a565b6100c7565b005b61006461007436600461037a565b610140565b6100a26100873660046103a6565b6001600160a01b031660009081526020819052604090205490565b60405190815260200160405180910390f35b6100a26100c23660046103a6565b6101c6565b6001600160a01b03821660008181526020818152604091829020548251938452908301528101829052606081018290527fdd71a1d19fcba687442a1d5c58578f1e409af71a79d10fd95a4d66efd8fa9ae79060800160405180910390a16001600160a01b03909116600090815260208190526040902055565b600061014b836101f4565b6001600160a01b03811660008181526020818152604091829020548251938452908301528101849052606081018490529091507fdd71a1d19fcba687442a1d5c58578f1e409af71a79d10fd95a4d66efd8fa9ae79060800160405180910390a16001600160a01b031660009081526020819052604090205550565b60008060006101d4846101f4565b6001600160a01b0316815260208101919091526040016000205492915050565b6000610281826001600160a01b03166395d89b416040518163ffffffff1660e01b8152600401600060405180830381865afa158015610237573d6000803e3d6000fd5b505050506040513d6000823e601f3d908101601f1916820160405261025f9190810190610410565b604051806040016040528060048152602001630cc8aa8960e31b815250610309565b156102a1575073eeeeeeeeeeeeeeeeeeeeeeeeeeeeeeeeeeeeeeee919050565b816001600160a01b0316639816f4736040518163ffffffff1660e01b8152600401602060405180830381865afa1580156102df573d6000803e3d6000fd5b505050506040513d601f19601f8201168201806040525081019061030391906104bd565b92915050565b60008160405160200161031c91906104da565b604051602081830303815290604052805190602001208360405160200161034391906104da565b6040516020818303038152906040528051906020012014905092915050565b6001600160a01b038116811461037757600080fd5b50565b6000806040838503121561038d57600080fd5b823561039881610362565b946020939093013593505050565b6000602082840312156103b857600080fd5b81356103c381610362565b9392505050565b634e487b7160e01b600052604160045260246000fd5b60005b838110156103fb5781810151838201526020016103e3565b8381111561040a576000848401525b50505050565b60006020828403121561042257600080fd5b815167ffffffffffffffff8082111561043a57600080fd5b818401915084601f83011261044e57600080fd5b815181811115610460576104606103ca565b604051601f8201601f19908116603f01168101908382118183101715610488576104886103ca565b816040528281528760208487010111156104a157600080fd5b6104b28360208301602088016103e0565b979650505050505050565b6000602082840312156104cf57600080fd5b81516103c381610362565b600082516104ec8184602087016103e0565b919091019291505056fea164736f6c634300080d000a",
  "linkReferences": {},
  "deployedLinkReferences": {}
}