{
  "_format": "hh-sol-artifact-1",
  "contractName": "FEther",
  "sourceName": "contracts/money-market/FEther.sol",
  "abi": [
    {
      "anonymous": false,
      "inputs": [
        {
          "indexed": false,
          "internalType": "uint256",
          "name": "cashPrior",
          "type": "uint256"
        },
        {
          "indexed": false,
          "internalType": "uint256",
          "name": "interestAccumulated",
          "type": "uint256"
        },
        {
          "indexed": false,
          "internalType": "uint256",
          "name": "borrowIndex",
          "type": "uint256"
        },
        {
          "indexed": false,
          "internalType": "uint256",
          "name": "totalBorrows",
          "type": "uint256"
        }
      ],
      "name": "AccrueInterest",
      "type": "event"
    },
    {
      "anonymous": false,
      "inputs": [
        {
          "indexed": true,
          "internalType": "address",
          "name": "owner",
          "type": "address"
        },
        {
          "indexed": true,
          "internalType": "address",
          "name": "spender",
          "type": "address"
        },
        {
          "indexed": false,
          "internalType": "uint256",
          "name": "value",
          "type": "uint256"
        }
      ],
      "name": "Approval",
      "type": "event"
    },
    {
      "anonymous": false,
      "inputs": [
        {
          "indexed": false,
          "internalType": "address",
          "name": "borrower",
          "type": "address"
        },
        {
          "indexed": false,
          "internalType": "uint256",
          "name": "borrowAmount",
          "type": "uint256"
        },
        {
          "indexed": false,
          "internalType": "uint256",
          "name": "accountBorrows",
          "type": "uint256"
        },
        {
          "indexed": false,
          "internalType": "uint256",
          "name": "totalBorrows",
          "type": "uint256"
        }
      ],
      "name": "Borrow",
      "type": "event"
    },
    {
      "anonymous": false,
      "inputs": [
        {
          "indexed": false,
          "internalType": "uint8",
          "name": "version",
          "type": "uint8"
        }
      ],
      "name": "Initialized",
      "type": "event"
    },
    {
      "anonymous": false,
      "inputs": [
        {
          "indexed": false,
          "internalType": "address",
          "name": "liquidator",
          "type": "address"
        },
        {
          "indexed": false,
          "internalType": "address",
          "name": "borrower",
          "type": "address"
        },
        {
          "indexed": false,
          "internalType": "uint256",
          "name": "repayAmount",
          "type": "uint256"
        },
        {
          "indexed": false,
          "internalType": "address",
          "name": "fTokenCollateral",
          "type": "address"
        }
      ],
      "name": "LiquidateBorrow",
      "type": "event"
    },
    {
      "anonymous": false,
      "inputs": [
        {
          "indexed": false,
          "internalType": "address",
          "name": "oldAdmin",
          "type": "address"
        },
        {
          "indexed": false,
          "internalType": "address",
          "name": "newAdmin",
          "type": "address"
        }
      ],
      "name": "NewAdmin",
      "type": "event"
    },
    {
      "anonymous": false,
      "inputs": [
        {
          "indexed": false,
          "internalType": "address",
          "name": "oldPendingAdmin",
          "type": "address"
        },
        {
          "indexed": false,
          "internalType": "address",
          "name": "newPendingAdmin",
          "type": "address"
        }
      ],
      "name": "NewPendingAdmin",
      "type": "event"
    },
    {
      "anonymous": false,
      "inputs": [
        {
          "indexed": false,
          "internalType": "uint256",
          "name": "oldReserveFactor",
          "type": "uint256"
        },
        {
          "indexed": false,
          "internalType": "uint256",
          "name": "newReserveFactor",
          "type": "uint256"
        }
      ],
      "name": "NewReserveFactor",
      "type": "event"
    },
    {
      "anonymous": false,
      "inputs": [
        {
          "indexed": false,
          "internalType": "address",
          "name": "redeemer",
          "type": "address"
        },
        {
          "indexed": false,
          "internalType": "uint256",
          "name": "redeemAmount",
          "type": "uint256"
        },
        {
          "indexed": false,
          "internalType": "uint256",
          "name": "redeemTokens",
          "type": "uint256"
        }
      ],
      "name": "Redeem",
      "type": "event"
    },
    {
      "anonymous": false,
      "inputs": [
        {
          "indexed": false,
          "internalType": "address",
          "name": "payer",
          "type": "address"
        },
        {
          "indexed": false,
          "internalType": "address",
          "name": "borrower",
          "type": "address"
        },
        {
          "indexed": false,
          "internalType": "uint256",
          "name": "repayAmount",
          "type": "uint256"
        },
        {
          "indexed": false,
          "internalType": "uint256",
          "name": "accountBorrows",
          "type": "uint256"
        },
        {
          "indexed": false,
          "internalType": "uint256",
          "name": "totalBorrows",
          "type": "uint256"
        }
      ],
      "name": "RepayBorrow",
      "type": "event"
    },
    {
      "anonymous": false,
      "inputs": [
        {
          "indexed": false,
          "internalType": "address",
          "name": "benefactor",
          "type": "address"
        },
        {
          "indexed": false,
          "internalType": "uint256",
          "name": "addAmount",
          "type": "uint256"
        },
        {
          "indexed": false,
          "internalType": "uint256",
          "name": "newTotalReserves",
          "type": "uint256"
        }
      ],
      "name": "ReservesAdded",
      "type": "event"
    },
    {
      "anonymous": false,
      "inputs": [
        {
          "indexed": false,
          "internalType": "address",
          "name": "supplier",
          "type": "address"
        },
        {
          "indexed": false,
          "internalType": "uint256",
          "name": "supplyAmount",
          "type": "uint256"
        },
        {
          "indexed": false,
          "internalType": "uint256",
          "name": "tokensMinted",
          "type": "uint256"
        }
      ],
      "name": "Supply",
      "type": "event"
    },
    {
      "anonymous": false,
      "inputs": [
        {
          "indexed": false,
          "internalType": "address",
          "name": "from",
          "type": "address"
        },
        {
          "indexed": false,
          "internalType": "address",
          "name": "to",
          "type": "address"
        },
        {
          "indexed": false,
          "internalType": "uint256",
          "name": "amount",
          "type": "uint256"
        }
      ],
      "name": "TokenSeized",
      "type": "event"
    },
    {
      "anonymous": false,
      "inputs": [
        {
          "indexed": true,
          "internalType": "address",
          "name": "from",
          "type": "address"
        },
        {
          "indexed": true,
          "internalType": "address",
          "name": "to",
          "type": "address"
        },
        {
          "indexed": false,
          "internalType": "uint256",
          "name": "value",
          "type": "uint256"
        }
      ],
      "name": "Transfer",
      "type": "event"
    },
    {
      "inputs": [],
      "name": "DOMAIN_SEPARATOR",
      "outputs": [
        {
          "internalType": "bytes32",
          "name": "",
          "type": "bytes32"
        }
      ],
      "stateMutability": "view",
      "type": "function"
    },
    {
      "inputs": [],
      "name": "IS_FTOKEN",
      "outputs": [
        {
          "internalType": "bool",
          "name": "",
          "type": "bool"
        }
      ],
      "stateMutability": "view",
      "type": "function"
    },
    {
      "inputs": [],
      "name": "acceptAdmin",
      "outputs": [],
      "stateMutability": "nonpayable",
      "type": "function"
    },
    {
      "inputs": [],
      "name": "accrueInterest",
      "outputs": [],
      "stateMutability": "nonpayable",
      "type": "function"
    },
    {
      "inputs": [],
      "name": "admin",
      "outputs": [
        {
          "internalType": "address",
          "name": "",
          "type": "address"
        }
      ],
      "stateMutability": "view",
      "type": "function"
    },
    {
      "inputs": [
        {
          "internalType": "address",
          "name": "owner",
          "type": "address"
        },
        {
          "internalType": "address",
          "name": "spender",
          "type": "address"
        }
      ],
      "name": "allowance",
      "outputs": [
        {
          "internalType": "uint256",
          "name": "",
          "type": "uint256"
        }
      ],
      "stateMutability": "view",
      "type": "function"
    },
    {
      "inputs": [
        {
          "internalType": "address",
          "name": "spender",
          "type": "address"
        },
        {
          "internalType": "uint256",
          "name": "amount",
          "type": "uint256"
        }
      ],
      "name": "approve",
      "outputs": [
        {
          "internalType": "bool",
          "name": "",
          "type": "bool"
        }
      ],
      "stateMutability": "nonpayable",
      "type": "function"
    },
    {
      "inputs": [
        {
          "internalType": "address",
          "name": "account",
          "type": "address"
        }
      ],
      "name": "balanceOf",
      "outputs": [
        {
          "internalType": "uint256",
          "name": "",
          "type": "uint256"
        }
      ],
      "stateMutability": "view",
      "type": "function"
    },
    {
      "inputs": [
        {
          "internalType": "address",
          "name": "_account",
          "type": "address"
        }
      ],
      "name": "balanceOfUnderlying",
      "outputs": [
        {
          "internalType": "uint256",
          "name": "",
          "type": "uint256"
        }
      ],
      "stateMutability": "nonpayable",
      "type": "function"
    },
    {
      "inputs": [
        {
          "internalType": "uint256",
          "name": "_borrowAmount",
          "type": "uint256"
        }
      ],
      "name": "borrow",
      "outputs": [],
      "stateMutability": "nonpayable",
      "type": "function"
    },
    {
      "inputs": [
        {
          "internalType": "address",
          "name": "_account",
          "type": "address"
        }
      ],
      "name": "borrowBalanceCurrent",
      "outputs": [
        {
          "internalType": "uint256",
          "name": "",
          "type": "uint256"
        }
      ],
      "stateMutability": "nonpayable",
      "type": "function"
    },
    {
      "inputs": [
        {
          "internalType": "address",
          "name": "_account",
          "type": "address"
        }
      ],
      "name": "borrowBalanceStored",
      "outputs": [
        {
          "internalType": "uint256",
          "name": "",
          "type": "uint256"
        }
      ],
      "stateMutability": "view",
      "type": "function"
    },
    {
      "inputs": [],
      "name": "borrowIndex",
      "outputs": [
        {
          "internalType": "uint256",
          "name": "",
          "type": "uint256"
        }
      ],
      "stateMutability": "view",
      "type": "function"
    },
    {
      "inputs": [],
      "name": "borrowRatePerBlock",
      "outputs": [
        {
          "internalType": "uint256",
          "name": "",
          "type": "uint256"
        }
      ],
      "stateMutability": "view",
      "type": "function"
    },
    {
      "inputs": [],
      "name": "checker",
      "outputs": [
        {
          "internalType": "contract IChecker",
          "name": "",
          "type": "address"
        }
      ],
      "stateMutability": "view",
      "type": "function"
    },
    {
      "inputs": [
        {
          "internalType": "uint256",
          "name": "_timestamp",
          "type": "uint256"
        }
      ],
      "name": "claimLiquidation",
      "outputs": [],
      "stateMutability": "nonpayable",
      "type": "function"
    },
    {
      "inputs": [],
      "name": "decimals",
      "outputs": [
        {
          "internalType": "uint8",
          "name": "",
          "type": "uint8"
        }
      ],
      "stateMutability": "view",
      "type": "function"
    },
    {
      "inputs": [
        {
          "internalType": "address",
          "name": "spender",
          "type": "address"
        },
        {
          "internalType": "uint256",
          "name": "subtractedValue",
          "type": "uint256"
        }
      ],
      "name": "decreaseAllowance",
      "outputs": [
        {
          "internalType": "bool",
          "name": "",
          "type": "bool"
        }
      ],
      "stateMutability": "nonpayable",
      "type": "function"
    },
    {
      "inputs": [],
      "name": "exchangeRateCurrent",
      "outputs": [
        {
          "internalType": "uint256",
          "name": "",
          "type": "uint256"
        }
      ],
      "stateMutability": "nonpayable",
      "type": "function"
    },
    {
      "inputs": [],
      "name": "exchangeRateStored",
      "outputs": [
        {
          "internalType": "uint256",
          "name": "",
          "type": "uint256"
        }
      ],
      "stateMutability": "view",
      "type": "function"
    },
    {
      "inputs": [
        {
          "internalType": "address",
          "name": "_account",
          "type": "address"
        }
      ],
      "name": "getAccountSnapshot",
      "outputs": [
        {
          "internalType": "uint256",
          "name": "",
          "type": "uint256"
        },
        {
          "internalType": "uint256",
          "name": "",
          "type": "uint256"
        },
        {
          "internalType": "uint256",
          "name": "",
          "type": "uint256"
        }
      ],
      "stateMutability": "view",
      "type": "function"
    },
    {
      "inputs": [],
      "name": "getLastAccrualBlock",
      "outputs": [
        {
          "internalType": "uint256",
          "name": "",
          "type": "uint256"
        }
      ],
      "stateMutability": "view",
      "type": "function"
    },
    {
      "inputs": [],
      "name": "getRiskManager",
      "outputs": [
        {
          "internalType": "address",
          "name": "",
          "type": "address"
        }
      ],
      "stateMutability": "view",
      "type": "function"
    },
    {
      "inputs": [
        {
          "internalType": "address",
          "name": "spender",
          "type": "address"
        },
        {
          "internalType": "uint256",
          "name": "addedValue",
          "type": "uint256"
        }
      ],
      "name": "increaseAllowance",
      "outputs": [
        {
          "internalType": "bool",
          "name": "",
          "type": "bool"
        }
      ],
      "stateMutability": "nonpayable",
      "type": "function"
    },
    {
      "inputs": [
        {
          "internalType": "address",
          "name": "_riskManager",
          "type": "address"
        },
        {
          "internalType": "address",
          "name": "_interestRateModel",
          "type": "address"
        },
        {
          "internalType": "address",
          "name": "_priceOracle",
          "type": "address"
        },
        {
          "internalType": "address",
          "name": "_checker",
          "type": "address"
        }
      ],
      "name": "initialize",
      "outputs": [],
      "stateMutability": "nonpayable",
      "type": "function"
    },
    {
      "inputs": [],
      "name": "interestRateModel",
      "outputs": [
        {
          "internalType": "contract IInterestRateModel",
          "name": "",
          "type": "address"
        }
      ],
      "stateMutability": "view",
      "type": "function"
    },
    {
      "inputs": [],
      "name": "isFToken",
      "outputs": [
        {
          "internalType": "bool",
          "name": "",
          "type": "bool"
        }
      ],
      "stateMutability": "pure",
      "type": "function"
    },
    {
      "inputs": [],
      "name": "lastAccrualBlock",
      "outputs": [
        {
          "internalType": "uint256",
          "name": "",
          "type": "uint256"
        }
      ],
      "stateMutability": "view",
      "type": "function"
    },
    {
      "inputs": [
        {
          "internalType": "address",
          "name": "_borrower",
          "type": "address"
        },
        {
          "internalType": "address",
          "name": "_fTokenCollateral",
          "type": "address"
        }
      ],
      "name": "liquidateBorrow",
      "outputs": [],
      "stateMutability": "payable",
      "type": "function"
    },
    {
      "inputs": [
        {
          "internalType": "uint256",
          "name": "",
          "type": "uint256"
        }
      ],
      "name": "liquidationProtection",
      "outputs": [
        {
          "internalType": "address",
          "name": "borrower",
          "type": "address"
        },
        {
          "internalType": "address",
          "name": "liquidator",
          "type": "address"
        },
        {
          "internalType": "uint128",
          "name": "value",
          "type": "uint128"
        },
        {
          "internalType": "uint128",
          "name": "tokenSeized",
          "type": "uint128"
        }
      ],
      "stateMutability": "view",
      "type": "function"
    },
    {
      "inputs": [],
      "name": "name",
      "outputs": [
        {
          "internalType": "string",
          "name": "",
          "type": "string"
        }
      ],
      "stateMutability": "view",
      "type": "function"
    },
    {
      "inputs": [
        {
          "internalType": "address",
          "name": "owner",
          "type": "address"
        }
      ],
      "name": "nonces",
      "outputs": [
        {
          "internalType": "uint256",
          "name": "",
          "type": "uint256"
        }
      ],
      "stateMutability": "view",
      "type": "function"
    },
    {
      "inputs": [],
      "name": "oracle",
      "outputs": [
        {
          "internalType": "contract IPriceOracle",
          "name": "",
          "type": "address"
        }
      ],
      "stateMutability": "view",
      "type": "function"
    },
    {
      "inputs": [],
      "name": "pendingAdmin",
      "outputs": [
        {
          "internalType": "address",
          "name": "",
          "type": "address"
        }
      ],
      "stateMutability": "view",
      "type": "function"
    },
    {
      "inputs": [
        {
          "internalType": "address",
          "name": "owner",
          "type": "address"
        },
        {
          "internalType": "address",
          "name": "spender",
          "type": "address"
        },
        {
          "internalType": "uint256",
          "name": "value",
          "type": "uint256"
        },
        {
          "internalType": "uint256",
          "name": "deadline",
          "type": "uint256"
        },
        {
          "internalType": "uint8",
          "name": "v",
          "type": "uint8"
        },
        {
          "internalType": "bytes32",
          "name": "r",
          "type": "bytes32"
        },
        {
          "internalType": "bytes32",
          "name": "s",
          "type": "bytes32"
        }
      ],
      "name": "permit",
      "outputs": [],
      "stateMutability": "nonpayable",
      "type": "function"
    },
    {
      "inputs": [],
      "name": "protocolSeizeShareMantissa",
      "outputs": [
        {
          "internalType": "uint256",
          "name": "",
          "type": "uint256"
        }
      ],
      "stateMutability": "view",
      "type": "function"
    },
    {
      "inputs": [
        {
          "internalType": "uint256",
          "name": "_redeemTokens",
          "type": "uint256"
        }
      ],
      "name": "redeem",
      "outputs": [],
      "stateMutability": "nonpayable",
      "type": "function"
    },
    {
      "inputs": [
        {
          "internalType": "uint256",
          "name": "_redeemAmount",
          "type": "uint256"
        }
      ],
      "name": "redeemUnderlying",
      "outputs": [],
      "stateMutability": "nonpayable",
      "type": "function"
    },
    {
      "inputs": [],
      "name": "repayBorrow",
      "outputs": [],
      "stateMutability": "payable",
      "type": "function"
    },
    {
      "inputs": [
        {
          "internalType": "address",
          "name": "_borrower",
          "type": "address"
        }
      ],
      "name": "repayBorrowBehalf",
      "outputs": [],
      "stateMutability": "payable",
      "type": "function"
    },
    {
      "inputs": [
        {
          "internalType": "uint256",
          "name": "_timestamp",
          "type": "uint256"
        },
        {
          "internalType": "address",
          "name": "_fToken",
          "type": "address"
        }
      ],
      "name": "repayLiquidationWithErc",
      "outputs": [],
      "stateMutability": "nonpayable",
      "type": "function"
    },
    {
      "inputs": [
        {
          "internalType": "uint256",
          "name": "_timestamp",
          "type": "uint256"
        }
      ],
      "name": "repayLiquidationWithEth",
      "outputs": [],
      "stateMutability": "payable",
      "type": "function"
    },
    {
      "inputs": [],
      "name": "reserveFactorMantissa",
      "outputs": [
        {
          "internalType": "uint256",
          "name": "",
          "type": "uint256"
        }
      ],
      "stateMutability": "view",
      "type": "function"
    },
    {
      "inputs": [],
      "name": "riskManager",
      "outputs": [
        {
          "internalType": "contract IRiskManager",
          "name": "",
          "type": "address"
        }
      ],
      "stateMutability": "view",
      "type": "function"
    },
    {
      "inputs": [
        {
          "internalType": "address",
          "name": "_liquidator",
          "type": "address"
        },
        {
          "internalType": "address",
          "name": "_borrower",
          "type": "address"
        },
        {
          "internalType": "uint256",
          "name": "_repayAmount",
          "type": "uint256"
        }
      ],
      "name": "seize",
      "outputs": [],
      "stateMutability": "nonpayable",
      "type": "function"
    },
    {
      "inputs": [
        {
          "internalType": "address",
          "name": "_newPendingAdmin",
          "type": "address"
        }
      ],
      "name": "setPendingAdmin",
      "outputs": [],
      "stateMutability": "nonpayable",
      "type": "function"
    },
    {
      "inputs": [
        {
          "internalType": "uint256",
          "name": "_newReserveFactorMantissa",
          "type": "uint256"
        }
      ],
      "name": "setReserveFactor",
      "outputs": [],
      "stateMutability": "nonpayable",
      "type": "function"
    },
    {
      "inputs": [],
      "name": "supply",
      "outputs": [],
      "stateMutability": "payable",
      "type": "function"
    },
    {
      "inputs": [],
      "name": "supplyRatePerBlock",
      "outputs": [
        {
          "internalType": "uint256",
          "name": "",
          "type": "uint256"
        }
      ],
      "stateMutability": "view",
      "type": "function"
    },
    {
      "inputs": [],
      "name": "symbol",
      "outputs": [
        {
          "internalType": "string",
          "name": "",
          "type": "string"
        }
      ],
      "stateMutability": "view",
      "type": "function"
    },
    {
      "inputs": [],
      "name": "totalBorrows",
      "outputs": [
        {
          "internalType": "uint256",
          "name": "",
          "type": "uint256"
        }
      ],
      "stateMutability": "view",
      "type": "function"
    },
    {
      "inputs": [],
      "name": "totalBorrowsCurrent",
      "outputs": [
        {
          "internalType": "uint256",
          "name": "",
          "type": "uint256"
        }
      ],
      "stateMutability": "nonpayable",
      "type": "function"
    },
    {
      "inputs": [],
      "name": "totalCash",
      "outputs": [
        {
          "internalType": "uint256",
          "name": "",
          "type": "uint256"
        }
      ],
      "stateMutability": "view",
      "type": "function"
    },
    {
      "inputs": [],
      "name": "totalReserves",
      "outputs": [
        {
          "internalType": "uint256",
          "name": "",
          "type": "uint256"
        }
      ],
      "stateMutability": "view",
      "type": "function"
    },
    {
      "inputs": [],
      "name": "totalSupply",
      "outputs": [
        {
          "internalType": "uint256",
          "name": "",
          "type": "uint256"
        }
      ],
      "stateMutability": "view",
      "type": "function"
    },
    {
      "inputs": [
        {
          "internalType": "address",
          "name": "to",
          "type": "address"
        },
        {
          "internalType": "uint256",
          "name": "amount",
          "type": "uint256"
        }
      ],
      "name": "transfer",
      "outputs": [
        {
          "internalType": "bool",
          "name": "",
          "type": "bool"
        }
      ],
      "stateMutability": "nonpayable",
      "type": "function"
    },
    {
      "inputs": [
        {
          "internalType": "address",
          "name": "from",
          "type": "address"
        },
        {
          "internalType": "address",
          "name": "to",
          "type": "address"
        },
        {
          "internalType": "uint256",
          "name": "amount",
          "type": "uint256"
        }
      ],
      "name": "transferFrom",
      "outputs": [
        {
          "internalType": "bool",
          "name": "",
          "type": "bool"
        }
      ],
      "stateMutability": "nonpayable",
      "type": "function"
    }
  ],
  "bytecode": "0x608060405234801561001057600080fd5b506148fa806100206000396000f3fe6080604052600436106103765760003560e01c806373acee98116101d1578063b2a02ff111610102578063d71f05e6116100a0578063f3fdb15a1161006f578063f3fdb15a14610a04578063f851a44014610a24578063f8c8765e14610a44578063f8f9da2814610a6457600080fd5b8063d71f05e61461096d578063db006a751461098b578063dd62ed3e146109ab578063e5974619146109f157600080fd5b8063c37f68e2116100dc578063c37f68e2146108d2578063c5ebeaec1461090d578063cf5303cf1461092d578063d505accf1461094d57600080fd5b8063b2a02ff114610887578063bd6d894d146108a7578063bee12d53146108bc57600080fd5b8063a457c2d71161016f578063aa5af0fd11610149578063aa5af0fd14610829578063aae40a2a1461083f578063ae9d70b014610852578063b07797bb1461086757600080fd5b8063a457c2d7146107d4578063a6afed95146107f4578063a9059cbb1461080957600080fd5b8063852a12e3116101ab578063852a12e3146107695780638f840ddd1461078957806395d89b411461079f57806395dd9193146107b457600080fd5b806373acee98146107145780637dc0d1d0146107295780637ecebe001461074957600080fd5b80633644e515116102ab578063511842d31161024957806362b595621161022357806362b59562146106115780636752e702146106a857806370a08231146106be578063732c8009146106f457600080fd5b8063511842d3146105d5578063542a1f0b146105ea57806354a8b2fb146105fe57600080fd5b80634784266311610285578063478426631461057757806347bd3718146105975780634dd18bf5146105ad5780634e4d9fea146105cd57600080fd5b80633644e5151461052257806339509351146105375780633af9e6691461055757600080fd5b8063182df0f51161031857806323b872dd116102f257806323b872dd14610499578063252e1a0b146104b957806326782247146104ce578063313ce5671461050657600080fd5b8063182df0f51461044e5780631c446983146104635780631f46eaae1461048357600080fd5b80630e18b681116103545780630e18b681146103e0578063173b9904146103f557806317bfdfbc1461041957806318160ddd1461043957600080fd5b8063047fc9aa1461037b57806306fdde0314610385578063095ea7b3146103b0575b600080fd5b610383610a79565b005b34801561039157600080fd5b5061039a610a85565b6040516103a79190614522565b60405180910390f35b3480156103bc57600080fd5b506103d06103cb36600461458c565b610b17565b60405190151581526020016103a7565b3480156103ec57600080fd5b50610383610b2f565b34801561040157600080fd5b5061040b60d35481565b6040519081526020016103a7565b34801561042557600080fd5b5061040b6104343660046145b8565b610c44565b34801561044557600080fd5b5060355461040b565b34801561045a57600080fd5b5061040b610c5d565b34801561046f57600080fd5b5061038361047e3660046145d5565b610cc7565b34801561048f57600080fd5b5061040b60d45481565b3480156104a557600080fd5b506103d06104b43660046145ee565b610e29565b3480156104c557600080fd5b506103d0600181565b3480156104da57600080fd5b5060d1546104ee906001600160a01b031681565b6040516001600160a01b0390911681526020016103a7565b34801561051257600080fd5b50604051601281526020016103a7565b34801561052e57600080fd5b5061040b610f4c565b34801561054357600080fd5b506103d061055236600461458c565b610f5b565b34801561056357600080fd5b5061040b6105723660046145b8565b610f9a565b34801561058357600080fd5b5060cc546104ee906001600160a01b031681565b3480156105a357600080fd5b5061040b60d75481565b3480156105b957600080fd5b506103836105c83660046145b8565b610fe3565b610383611097565b3480156105e157600080fd5b5060d45461040b565b3480156105f657600080fd5b5060016103d0565b61038361060c3660046145d5565b6110a2565b34801561061d57600080fd5b5061066e61062c3660046145d5565b60db602052600090815260409020805460018201546002909201546001600160a01b0391821692909116906001600160801b0380821691600160801b90041684565b604080516001600160a01b0395861681529490931660208501526001600160801b03918216928401929092521660608201526080016103a7565b3480156106b457600080fd5b5061040b60da5481565b3480156106ca57600080fd5b5061040b6106d93660046145b8565b6001600160a01b031660009081526033602052604090205490565b34801561070057600080fd5b5061038361070f3660046145d5565b61132b565b34801561072057600080fd5b5061040b6115f4565b34801561073557600080fd5b5060ce546104ee906001600160a01b031681565b34801561075557600080fd5b5061040b6107643660046145b8565b611605565b34801561077557600080fd5b506103836107843660046145d5565b611623565b34801561079557600080fd5b5061040b60d85481565b3480156107ab57600080fd5b5061039a611632565b3480156107c057600080fd5b5061040b6107cf3660046145b8565b611641565b3480156107e057600080fd5b506103d06107ef36600461458c565b6116a4565b34801561080057600080fd5b5061038361174e565b34801561081557600080fd5b506103d061082436600461458c565b611929565b34801561083557600080fd5b5061040b60d55481565b61038361084d36600461462f565b611a3a565b34801561085e57600080fd5b5061040b611a4a565b34801561087357600080fd5b50610383610882366004614668565b611ad8565b34801561089357600080fd5b506103836108a23660046145ee565b611f42565b3480156108b357600080fd5b5061040b611f53565b3480156108c857600080fd5b5061040b60d65481565b3480156108de57600080fd5b506108f26108ed3660046145b8565b611f65565b604080519384526020840192909252908201526060016103a7565b34801561091957600080fd5b506103836109283660046145d5565b611fa7565b34801561093957600080fd5b5060cf546104ee906001600160a01b031681565b34801561095957600080fd5b5061038361096836600461468d565b611fb1565b34801561097957600080fd5b5060cc546001600160a01b03166104ee565b34801561099757600080fd5b506103836109a63660046145d5565b612115565b3480156109b757600080fd5b5061040b6109c636600461462f565b6001600160a01b03918216600090815260346020908152604080832093909416825291909152205490565b6103836109ff3660046145b8565b612121565b348015610a1057600080fd5b5060cd546104ee906001600160a01b031681565b348015610a3057600080fd5b5060d0546104ee906001600160a01b031681565b348015610a5057600080fd5b50610383610a5f366004614704565b61212c565b348015610a7057600080fd5b5061040b6122a8565b610a8333346122f1565b565b606060368054610a9490614760565b80601f0160208091040260200160405190810160405280929190818152602001828054610ac090614760565b8015610b0d5780601f10610ae257610100808354040283529160200191610b0d565b820191906000526020600020905b815481529060010190602001808311610af057829003601f168201915b5050505050905090565b600033610b258185856124b2565b5060019392505050565b60d1546001600160a01b03163314610b8e5760405162461bcd60e51b815260206004820152601c60248201527f546f6b656e426173653a204e6f742070656e64696e672061646d696e0000000060448201526064015b60405180910390fd5b60d0805460d180546001600160a01b038082166001600160a01b031980861682179096559490911690915560408051919092168082526020820184905292917ff9ffabca9c8276e99321725bcb43fb076a6c66a54b7f21c4e8146d8519b417dc910160405180910390a160d154604080516001600160a01b03808516825290921660208301527fca4f2f25d0898edd99413412fb94012f9e54ec8142f9b093e7720646a95b16a991015b60405180910390a15050565b6000610c4e61174e565b610c5782611641565b92915050565b600080610c6960355490565b905080600003610c7b57505060d25490565b600060d85460d75460d654610c9091906147aa565b610c9a91906147c2565b9050600082610cb1670de0b6b3a7640000846147d9565b610cbb91906147f8565b949350505050565b5090565b60d0546001600160a01b03163314610d215760405162461bcd60e51b815260206004820152601660248201527f4e6f7420617574686f72697a656420746f2063616c6c000000000000000000006044820152606401610b85565b610d2961174e565b4360d45414610d8a5760405162461bcd60e51b815260206004820152602760248201527f546f6b656e426173653a204d61726b6574207374617465206e6f7420796574206044820152661d5c19185d195960ca1b6064820152608401610b85565b670de0b6b3a76400008110610deb5760405162461bcd60e51b815260206004820152602160248201527f546f6b656e426173653a20496e76616c6964207265736572766520666163746f6044820152603960f91b6064820152608401610b85565b60d380549082905560408051828152602081018490527faaa68312e2ea9d50e16af5068410ab56e1a1fd06037b1a35664812c30f8214609101610c38565b6000610e3361174e565b60cc546040517fff125c8a0000000000000000000000000000000000000000000000000000000081523060048201526001600160a01b038681166024830152604482018590529091169063ff125c8a90606401602060405180830381865afa158015610ea3573d6000803e3d6000fd5b505050506040513d601f19601f82011682018060405250810190610ec7919061482f565b610f2a5760405162461bcd60e51b815260206004820152602e60248201527f546f6b656e426173653a205472616e7366657220646973616c6c6f776564206260448201526d3c903934b9b59036b0b730b3b2b960911b6064820152608401610b85565b33610f368582856125d6565b610f41858585612668565b506001949350505050565b6000610f56612865565b905090565b3360008181526034602090815260408083206001600160a01b0387168452909152812054909190610b259082908690610f959087906147aa565b6124b2565b6000806040518060200160405280610fb0611f53565b90529050610fdc81610fd7856001600160a01b031660009081526033602052604090205490565b6128e0565b9392505050565b60d0546001600160a01b0316331461103d5760405162461bcd60e51b815260206004820152601660248201527f4e6f7420617574686f72697a656420746f2063616c6c000000000000000000006044820152606401610b85565b60d180546001600160a01b038381166001600160a01b031983168117909355604080519190921680825260208201939093527fca4f2f25d0898edd99413412fb94012f9e54ec8142f9b093e7720646a95b16a99101610c38565b610a833333346128f8565b600081815260db6020908152604091829020825160808101845281546001600160a01b03908116825260018301541692810192909252600201546001600160801b0380821693830193909352600160801b9004909116606082015261110a82620151806147aa565b42106111585760405162461bcd60e51b815260206004820152601c60248201527f546f6b656e426173653a2054696d65206c696d697420706173736564000000006044820152606401610b85565b80604001516001600160801b03166000036111db5760405162461bcd60e51b815260206004820152603860248201527f546f6b656e426173653a204c69717569646174696f6e2070726f74656374696f60448201527f6e20636c6f736564202f206e65766572206578697374656400000000000000006064820152608401610b85565b6000606482604001516001600160801b031660786111f991906147d9565b61120391906147f8565b9050803410156112555760405162461bcd60e51b815260206004820152601f60248201527f546f6b656e426173653a204e6f7420656e6f7567682045544820676976656e006044820152606401610b85565b600061126182346147c2565b60208401516040519192506001600160a01b03169083156108fc029084906000818181858888f1935050505015801561129e573d6000803e3d6000fd5b5080156112d457604051339082156108fc029083906000818181858888f193505050501580156112d2573d6000803e3d6000fd5b505b60608301516001600160801b03166112ec3082612b31565b83516112f89082612c7f565b50505060009182525060db6020526040812080546001600160a01b03199081168255600182018054909116905560020155565b600081815260db6020908152604091829020825160808101845281546001600160a01b03908116825260018301541692810192909252600201546001600160801b0380821693830193909352600160801b9004909116606082015261139382620151806147aa565b42116113e15760405162461bcd60e51b815260206004820181905260248201527f546f6b656e426173653a2054696d65206c696d6974206e6f74207061737365646044820152606401610b85565b80604001516001600160801b03166000036114645760405162461bcd60e51b815260206004820152603860248201527f546f6b656e426173653a204c69717569646174696f6e2070726f74656374696f60448201527f6e20636c6f736564202f206e65766572206578697374656400000000000000006064820152608401610b85565b80602001516001600160a01b0316336001600160a01b0316146114ef5760405162461bcd60e51b815260206004820152602d60248201527f546f6b656e426173653a204e6f74206c697175696461746f72206f662074686960448201527f73206c69717569646174696f6e000000000000000000000000000000000000006064820152608401610b85565b60608101516001600160801b03166000808061150a84612d5e565b92509250925061151a3085612b31565b6115243384612c7f565b60d88190558451602080870151604080516001600160a01b039485168152939091169183019190915281018490527feac344312e08a6e34d3cb14733c432e8b20995a316e9abf4bc59640dc90d10ca9060600160405180910390a160408051308152602081018490529081018290527fa91e67c5ea634cd43a12c5a482724b03de01e85ca68702a53d0c2f45cb7c1dc59060600160405180910390a15050506000928352505060db6020526040812080546001600160a01b03199081168255600182018054909116905560020155565b60006115fe61174e565b5060d75490565b6001600160a01b038116600090815260996020526040812054610c57565b61162f33600083612dc9565b50565b606060378054610a9490614760565b6001600160a01b038116600090815260d96020908152604080832081518083019092528054808352600190910154928201929092529082036116865750600092915050565b602081015160d554825161169a91906147d9565b610fdc91906147f8565b3360008181526034602090815260408083206001600160a01b0387168452909152812054909190838110156117415760405162461bcd60e51b815260206004820152602560248201527f45524332303a2064656372656173656420616c6c6f77616e63652062656c6f7760448201527f207a65726f0000000000000000000000000000000000000000000000000000006064820152608401610b85565b610f4182868684036124b2565b60d454439081810361175e575050565b60d65460d75460d85460d55460cd546040516315f2405360e01b81526004810186905260248101859052604481018490526000916001600160a01b0316906315f2405390606401602060405180830381865afa1580156117c2573d6000803e3d6000fd5b505050506040513d601f19601f820116820180604052508101906117e6919061484a565b905065048c2739500081111561183e5760405162461bcd60e51b815260206004820152601c60248201527f626f72726f772072617465206973206162737572646c792068696768000000006044820152606401610b85565b600061184a87896147c2565b9050600061186660405180602001604052808581525083613098565b905060006118758286876130c9565b9050600085611884838a6147d9565b61188e91906147f8565b9050600061189c89836147c2565b905060006118bb604051806020016040528060d354815250838b6130c9565b60d48e905560d585905560d784905560d8819055604080518d815260208101859052908101869052606081018590529091507f4dec04e750ca11537cabcd8a9eab06494de08da3735bc8871cd41250e190bc049060800160405180910390a150505050505050505050505050565b600061193361174e565b60003360cc546040517fff125c8a0000000000000000000000000000000000000000000000000000000081523060048201526001600160a01b0380841660248301526044820187905292935091169063ff125c8a90606401602060405180830381865afa1580156119a8573d6000803e3d6000fd5b505050506040513d601f19601f820116820180604052508101906119cc919061482f565b611a2f5760405162461bcd60e51b815260206004820152602e60248201527f546f6b656e426173653a205472616e7366657220646973616c6c6f776564206260448201526d3c903934b9b59036b0b730b3b2b960911b6064820152608401610b85565b610b25818585612668565b611a46338334846130f3565b5050565b60cd5460d65460d75460d85460d354604051635c0b440b60e11b815260048101949094526024840192909252604483015260648201526000916001600160a01b03169063b8168816906084015b602060405180830381865afa158015611ab4573d6000803e3d6000fd5b505050506040513d601f19601f82011682018060405250810190610f56919061484a565b600082815260db6020908152604091829020825160808101845281546001600160a01b03908116825260018301541692810192909252600201546001600160801b0380821693830193909352600160801b90049091166060820152611b4083620151806147aa565b4210611b8e5760405162461bcd60e51b815260206004820152601c60248201527f546f6b656e426173653a2054696d65206c696d697420706173736564000000006044820152606401610b85565b60cc5460405163384cf1d760e01b81526001600160a01b0384811660048301529091169063384cf1d790602401602060405180830381865afa158015611bd8573d6000803e3d6000fd5b505050506040513d601f19601f82011682018060405250810190611bfc919061482f565b611c485760405162461bcd60e51b815260206004820152601c60248201527f546f6b656e426173653a204d61726b6574206e6f74206c6973746564000000006044820152606401610b85565b80604001516001600160801b0316600003611ccb5760405162461bcd60e51b815260206004820152603860248201527f546f6b656e426173653a204c69717569646174696f6e2070726f74656374696f60448201527f6e20636c6f736564202f206e65766572206578697374656400000000000000006064820152608401610b85565b80516001600160a01b03163314611d4a5760405162461bcd60e51b815260206004820152602b60248201527f546f6b656e426173653a204e6f7420626f72726f776572206f6620746869732060448201527f6c69717569646174696f6e0000000000000000000000000000000000000000006064820152608401610b85565b6000606482604001516001600160801b03166078611d6891906147d9565b611d7291906147f8565b90506000836001600160a01b0316639816f4736040518163ffffffff1660e01b8152600401602060405180830381865afa158015611db4573d6000803e3d6000fd5b505050506040513d601f19601f82011682018060405250810190611dd89190614863565b60ce5460405163fc57d4df60e01b81526001600160a01b0387811660048301529293506000929091169063fc57d4df90602401602060405180830381865afa158015611e28573d6000803e3d6000fd5b505050506040513d601f19601f82011682018060405250810190611e4c919061484a565b90506000611e6884604051806020016040528085815250613594565b60208601516040516323b872dd60e01b81523360048201526001600160a01b039182166024820152604481018390529192508416906323b872dd906064016020604051808303816000875af1158015611ec5573d6000803e3d6000fd5b505050506040513d601f19601f82011682018060405250810190611ee9919061482f565b5060608501516001600160801b0316611f023082612b31565b611f0c3382612c7f565b5050506000948552505060db60205250506040812080546001600160a01b03199081168255600182018054909116905560020155565b611f4e338484846135b2565b505050565b6000611f5d61174e565b610f56610c5d565b6000806000611f89846001600160a01b031660009081526033602052604090205490565b611f9285611641565b611f9a610c5d565b9250925092509193909250565b61162f33826138ea565b834211156120015760405162461bcd60e51b815260206004820152601d60248201527f45524332305065726d69743a206578706972656420646561646c696e650000006044820152606401610b85565b60007f6e71edae12b1b97f4d1f60370fef10105fa2faae0126114a169c64845d6126c98888886120308c613b40565b6040805160208101969096526001600160a01b0394851690860152929091166060840152608083015260a082015260c0810186905260e001604051602081830303815290604052805190602001209050600061208b82613b68565b9050600061209b82878787613bb6565b9050896001600160a01b0316816001600160a01b0316146120fe5760405162461bcd60e51b815260206004820152601e60248201527f45524332305065726d69743a20696e76616c6964207369676e617475726500006044820152606401610b85565b6121098a8a8a6124b2565b50505050505050505050565b61162f33826000612dc9565b61162f3382346128f8565b600054610100900460ff161580801561214c5750600054600160ff909116105b806121665750303b158015612166575060005460ff166001145b6121d85760405162461bcd60e51b815260206004820152602e60248201527f496e697469616c697a61626c653a20636f6e747261637420697320616c72656160448201527f647920696e697469616c697a65640000000000000000000000000000000000006064820152608401610b85565b6000805460ff1916600117905580156121fb576000805461ff0019166101001790555b61225a858585856040518060400160405280600c81526020017f467572696f6e2045746865720000000000000000000000000000000000000000815250604051806040016040528060048152602001630cc8aa8960e31b815250613bde565b80156122a1576000805461ff0019169055604051600181527f7f26b83ff96e1f2b6a682f133852f6798a09c465da95921460cefb3847402498906020015b60405180910390a15b5050505050565b60cd5460d65460d75460d8546040516315f2405360e01b81526004810193909352602483019190915260448201526000916001600160a01b0316906315f2405390606401611a97565b6122f961174e565b60cc5460405163028f2ead60e31b81523060048201526001600160a01b0390911690631479756890602401602060405180830381865afa158015612341573d6000803e3d6000fd5b505050506040513d601f19601f82011682018060405250810190612365919061482f565b6123c65760405162461bcd60e51b815260206004820152602c60248201527f546f6b656e426173653a20537570706c7920646973616c6c6f7765642062792060448201526b3934b9b59036b0b730b3b2b960a11b6064820152608401610b85565b4360d454146124275760405162461bcd60e51b815260206004820152602760248201527f546f6b656e426173653a204d61726b6574207374617465206e6f7420796574206044820152661d5c19185d195960ca1b6064820152608401610b85565b6000604051806020016040528061243c610c5d565b9052905061244a8383613e79565b60006124568383613594565b90506124628482612c7f565b604080516001600160a01b0386168152602081018590529081018290527f9d624b01705090e0c402c84f2bdef9c498399a009cee9a4e08ab004bae4471219060600160405180910390a150505050565b6001600160a01b0383166125145760405162461bcd60e51b8152602060048201526024808201527f45524332303a20617070726f76652066726f6d20746865207a65726f206164646044820152637265737360e01b6064820152608401610b85565b6001600160a01b0382166125755760405162461bcd60e51b815260206004820152602260248201527f45524332303a20617070726f766520746f20746865207a65726f206164647265604482015261737360f01b6064820152608401610b85565b6001600160a01b0383811660008181526034602090815260408083209487168084529482529182902085905590518481527f8c5be1e5ebec7d5bd14f71427d1e84f3dd0314c0f7b2291e5b200ac8c7c3b925910160405180910390a3505050565b6001600160a01b03838116600090815260346020908152604080832093861683529290522054600019811461266257818110156126555760405162461bcd60e51b815260206004820152601d60248201527f45524332303a20696e73756666696369656e7420616c6c6f77616e63650000006044820152606401610b85565b61266284848484036124b2565b50505050565b6001600160a01b0383166126e45760405162461bcd60e51b815260206004820152602560248201527f45524332303a207472616e736665722066726f6d20746865207a65726f20616460448201527f64726573730000000000000000000000000000000000000000000000000000006064820152608401610b85565b6001600160a01b0382166127465760405162461bcd60e51b815260206004820152602360248201527f45524332303a207472616e7366657220746f20746865207a65726f206164647260448201526265737360e81b6064820152608401610b85565b6001600160a01b038316600090815260336020526040902054818110156127d55760405162461bcd60e51b815260206004820152602660248201527f45524332303a207472616e7366657220616d6f756e742065786365656473206260448201527f616c616e636500000000000000000000000000000000000000000000000000006064820152608401610b85565b6001600160a01b0380851660009081526033602052604080822085850390559185168152908120805484929061280c9084906147aa565b92505081905550826001600160a01b0316846001600160a01b03167fddf252ad1be2c89b69c2b068fc378daa952ba7f163c4a11628f55a4df523b3ef8460405161285891815260200190565b60405180910390a3612662565b6000610f567f8b73c3c69bb8fe3d512ecc4cf759cc79239f7b179b0ffacaa9a75d522b39400f61289460655490565b6066546040805160208101859052908101839052606081018290524660808201523060a082015260009060c0016040516020818303038152906040528051906020012090509392505050565b6000806128ed8484613098565b9050610cbb81613f3b565b61290061174e565b60cc54604051621f956f60ea1b81523060048201526001600160a01b0390911690637e55bc00906024016020604051808303816000875af1158015612949573d6000803e3d6000fd5b505050506040513d601f19601f8201168201806040525081019061296d919061482f565b6129df5760405162461bcd60e51b815260206004820152602b60248201527f546f6b656e426173653a20526570617920646973616c6c6f776564206279207260448201527f69736b206d616e616765720000000000000000000000000000000000000000006064820152608401610b85565b4360d45414612a405760405162461bcd60e51b815260206004820152602760248201527f546f6b656e426173653a204d61726b6574207374617465206e6f7420796574206044820152661d5c19185d195960ca1b6064820152608401610b85565b6000612a4b83611641565b905060006000198314612a5e5782612a60565b815b9050612a6c8582613e79565b6000828211612a8457612a7f82846147c2565b612a87565b60005b9050600060d7548311612aa7578260d754612aa291906147c2565b612aaa565b60005b6001600160a01b03878116600081815260d9602090815260409182902087815560d55460019091015560d78590558151938c168452830191909152810185905260608101849052608081018290529091507f1a2a22cb034d26d1854bdc6666a5b91fe25efbbb5dcad3b0355478d6f5c362a19060a00160405180910390a150505050505050565b6001600160a01b038216612b915760405162461bcd60e51b815260206004820152602160248201527f45524332303a206275726e2066726f6d20746865207a65726f206164647265736044820152607360f81b6064820152608401610b85565b6001600160a01b03821660009081526033602052604090205481811015612c055760405162461bcd60e51b815260206004820152602260248201527f45524332303a206275726e20616d6f756e7420657863656564732062616c616e604482015261636560f01b6064820152608401610b85565b6001600160a01b0383166000908152603360205260408120838303905560358054849290612c349084906147c2565b90915550506040518281526000906001600160a01b038516907fddf252ad1be2c89b69c2b068fc378daa952ba7f163c4a11628f55a4df523b3ef9060200160405180910390a3505050565b6001600160a01b038216612cd55760405162461bcd60e51b815260206004820152601f60248201527f45524332303a206d696e7420746f20746865207a65726f2061646472657373006044820152606401610b85565b8060356000828254612ce791906147aa565b90915550506001600160a01b03821660009081526033602052604081208054839290612d149084906147aa565b90915550506040518181526001600160a01b038316906000907fddf252ad1be2c89b69c2b068fc378daa952ba7f163c4a11628f55a4df523b3ef9060200160405180910390a35050565b600080600080612d7e85604051806020016040528060da54815250613f53565b9050612d8a81866147c2565b935060006040518060200160405280612da1610c5d565b90529050612daf81836128e0565b93508360d854612dbf91906147aa565b9496939550505050565b612dd161174e565b811580612ddc575080155b612e4e5760405162461bcd60e51b815260206004820152603b60248201527f546f6b656e426173653a204f6e65206f662072656465656d546f6b656e73206f60448201527f722072656465656d416d6f756e74206d757374206265207a65726f00000000006064820152608401610b85565b60006040518060200160405280612e63610c5d565b905290506000808415612e8457849150612e7d83866128e0565b9050612e94565b612e8e8484613594565b91508390505b60cc5460405163eabe7d9160e01b81523060048201526001600160a01b038881166024830152604482018590529091169063eabe7d9190606401602060405180830381865afa158015612eeb573d6000803e3d6000fd5b505050506040513d601f19601f82011682018060405250810190612f0f919061482f565b612f705760405162461bcd60e51b815260206004820152602c60248201527f546f6b656e426173653a2052656465656d20646973616c6c6f7765642062792060448201526b3934b9b59036b0b730b3b2b960a11b6064820152608401610b85565b4360d45414612fd15760405162461bcd60e51b815260206004820152602760248201527f546f6b656e426173653a204d61726b6574207374617465206e6f7420796574206044820152661d5c19185d195960ca1b6064820152608401610b85565b8060d654116130325760405162461bcd60e51b815260206004820152602760248201527f546f6b656e426173653a204d61726b65742068617320696e73756666696369656044820152660dce840c6c2e6d60cb1b6064820152608401610b85565b61303c8683612b31565b6130468682613f6c565b604080516001600160a01b0388168152602081018390529081018390527fe5b754fb1abb7f01b499791d0b820ae3b6af3424ac1c59768edb53f4ec31a9299060600160405180910390a1505050505050565b60408051602081019091526000815260405180602001604052806130c0856000015185613fb5565b90529392505050565b6000806130d68585613098565b90506130ea6130e482613f3b565b84613fc1565b95945050505050565b6130fb61174e565b6000819050806001600160a01b031663a6afed956040518163ffffffff1660e01b8152600401600060405180830381600087803b15801561313b57600080fd5b505af115801561314f573d6000803e3d6000fd5b505060cc54604051636e2cf5af60e01b81523060048201526001600160a01b0386811660248301528881166044830152606482018890529091169250636e2cf5af91506084016020604051808303816000875af11580156131b4573d6000803e3d6000fd5b505050506040513d601f19601f820116820180604052508101906131d8919061482f565b61324a5760405162461bcd60e51b815260206004820152603160248201527f546f6b656e426173653a204c69717569646174696f6e20646973616c6c6f776560448201527f64206279207269736b206d616e616765720000000000000000000000000000006064820152608401610b85565b4360d454146132ab5760405162461bcd60e51b815260206004820152602760248201527f546f6b656e426173653a204d61726b6574207374617465206e6f7420796574206044820152661d5c19185d195960ca1b6064820152608401610b85565b43816001600160a01b031663511842d36040518163ffffffff1660e01b8152600401602060405180830381865afa1580156132ea573d6000803e3d6000fd5b505050506040513d601f19601f8201168201806040525081019061330e919061484a565b146133815760405162461bcd60e51b815260206004820152603260248201527f546f6b656e426173653a20436f6c6c61746572616c206d61726b65742073746160448201527f7465206e6f7420796574207570646174656400000000000000000000000000006064820152608401610b85565b846001600160a01b0316846001600160a01b0316036133ee5760405162461bcd60e51b8152602060048201526024808201527f546f6b656e426173653a2043616e6e6f74206c697175696461746520796f757260448201526339b2b63360e11b6064820152608401610b85565b60008311801561340057506000198314155b61344c5760405162461bcd60e51b815260206004820152601f60248201527f546f6b656e426173653a20496e76616c696420726570617920616d6f756e74006044820152606401610b85565b6134578585856128f8565b306001600160a01b0383160361347857613473308686866135b2565b6134e3565b60405163b2a02ff160e01b81526001600160a01b03868116600483015285811660248301526044820185905282169063b2a02ff190606401600060405180830381600087803b1580156134ca57600080fd5b505af11580156134de573d6000803e3d6000fd5b505050505b60cc5460405163057d5da760e51b81526001600160a01b0386811660048301529091169063afabb4e090602401600060405180830381600087803b15801561352a57600080fd5b505af115801561353e573d6000803e3d6000fd5b5050604080516001600160a01b03808a168252808916602083015291810187905290851660608201527fb317550be5409ae673b9326d836608f387c2de00a16e325ad58d4394a30d3f1092506080019050612298565b6000610fdc6135ab84670de0b6b3a7640000613fb5565b8351613fcd565b60cc54604051630779996560e11b81526001600160a01b0384811660048301528681166024830152306044830152606482018490526000928392911690630ef332ca906084016040805180830381865afa158015613614573d6000803e3d6000fd5b505050506040513d601f19601f820116820180604052508101906136389190614880565b60cc546040516318b91ba160e31b81523060048201526001600160a01b038a81166024830152888116604483015260648201859052939550919350600092839291169063c5c8dd08906084016040805180830381865afa1580156136a0573d6000803e3d6000fd5b505050506040513d601f19601f820116820180604052508101906136c491906148a4565b915091508161373b5760405162461bcd60e51b815260206004820152603360248201527f546f6b656e426173653a20546f6b656e207365697a75726520646973616c6c6f60448201527f776564206279207269736b206d616e61676572000000000000000000000000006064820152608401610b85565b8080156137af575060cf546040516310d5383b60e21b81523060048201526001600160a01b0390911690634354e0ec90602401602060405180830381865afa15801561378b573d6000803e3d6000fd5b505050506040513d601f19601f820116820180604052508101906137af919061482f565b15613823576137be8685612b31565b6137c83085612c7f565b42600090815260db6020526040902080546001600160a01b038089166001600160a01b0319928316178355600183018054918b16919092161790556001600160801b03858116600160801b02908516176002909101556138e0565b600080600061383187612d5e565b9250925092506138418988612b31565b61384b8a84612c7f565b60d8819055604080516001600160a01b03808c1682528c1660208201529081018490527feac344312e08a6e34d3cb14733c432e8b20995a316e9abf4bc59640dc90d10ca9060600160405180910390a160408051308152602081018490529081018290527fa91e67c5ea634cd43a12c5a482724b03de01e85ca68702a53d0c2f45cb7c1dc59060600160405180910390a15050505b5050505050505050565b6138f261174e565b60cc5460405163368f515360e21b81523060048201526001600160a01b038481166024830152604482018490529091169063da3d454c906064016020604051808303816000875af115801561394b573d6000803e3d6000fd5b505050506040513d601f19601f8201168201806040525081019061396f919061482f565b6139d05760405162461bcd60e51b815260206004820152602c60248201527f546f6b656e426173653a20426f72726f7720646973616c6c6f7765642062792060448201526b3934b9b59036b0b730b3b2b960a11b6064820152608401610b85565b4360d45414613a315760405162461bcd60e51b815260206004820152602760248201527f546f6b656e426173653a204d61726b6574207374617465206e6f7420796574206044820152661d5c19185d195960ca1b6064820152608401610b85565b8060d65411613a925760405162461bcd60e51b815260206004820152602760248201527f546f6b656e426173653a204d61726b65742068617320696e73756666696369656044820152660dce840c6c2e6d60cb1b6064820152608401610b85565b6000613a9d83611641565b90506000613aab83836147aa565b905060008360d754613abd91906147aa565b6001600160a01b038616600090815260d96020526040902083815560d55460019091015560d78190559050613af28585613f6c565b604080516001600160a01b038716815260208101869052908101839052606081018290527f13ed6866d4e1ee6da46f845c46d7e54120883d75c5ea9a2dacc1c4ca8984ab8090608001612298565b6001600160a01b03811660009081526099602052604090208054600181018255905b50919050565b6000610c57613b75612865565b8360405161190160f01b6020820152602281018390526042810182905260009060620160405160208183030381529060405280519060200120905092915050565b6000806000613bc787878787613fd9565b91509150613bd4816140c6565b5095945050505050565b600054610100900460ff16613c495760405162461bcd60e51b815260206004820152602b60248201527f496e697469616c697a61626c653a20636f6e7472616374206973206e6f74206960448201526a6e697469616c697a696e6760a81b6064820152608401610b85565b613c528261427c565b613c5c828261430a565b856001600160a01b031663a996e7ba6040518163ffffffff1660e01b81526004016020604051808303816000875af1158015613c9c573d6000803e3d6000fd5b505050506040513d601f19601f82011682018060405250810190613cc0919061482f565b613d185760405162461bcd60e51b8152602060048201526024808201527f546f6b656e426173653a204e6f74207269736b206d616e6167657220636f6e746044820152631c9858dd60e21b6064820152608401610b85565b60cc80546001600160a01b0319166001600160a01b03888116919091179091554360d455670de0b6b3a764000060d555604080516310c8fc9560e11b8152905191871691632191f92a916004808201926020929091908290030181865afa158015613d87573d6000803e3d6000fd5b505050506040513d601f19601f82011682018060405250810190613dab919061482f565b613e1d5760405162461bcd60e51b815260206004820152602a60248201527f546f6b656e426173653a204e6f7420696e74657273742072617465206d6f646560448201527f6c20636f6e7472616374000000000000000000000000000000000000000000006064820152608401610b85565b505060cd80546001600160a01b039485166001600160a01b03199182161790915560ce80549385169382169390931790925560cf805491909316908216179091556802b5e3af16b188000060d25560d080549091163317905550565b336001600160a01b03831614613ed15760405162461bcd60e51b815260206004820152601c60248201527f4645746865723a204e6f74206f776e6572206f66206163636f756e74000000006044820152606401610b85565b803414613f205760405162461bcd60e51b815260206004820152601f60248201527f4645746865723a204e6f7420656e6f7567682045544820737570706c696564006044820152606401610b85565b8060d66000828254613f3291906147aa565b90915550505050565b8051600090610c5790670de0b6b3a7640000906147f8565b6000670de0b6b3a764000061169a848460000151613fb5565b6040516001600160a01b0383169082156108fc029083906000818181858888f19350505050158015613fa2573d6000803e3d6000fd5b508060d66000828254613f3291906147c2565b6000610fdc82846147d9565b6000610fdc82846147aa565b6000610fdc82846147f8565b6000807f7fffffffffffffffffffffffffffffff5d576e7357a4501ddfe92f46681b20a083111561401057506000905060036140bd565b8460ff16601b1415801561402857508460ff16601c14155b1561403957506000905060046140bd565b6040805160008082526020820180845289905260ff881692820192909252606081018690526080810185905260019060a0016020604051602081039080840390855afa15801561408d573d6000803e3d6000fd5b5050604051601f1901519150506001600160a01b0381166140b6576000600192509250506140bd565b9150600090505b94509492505050565b60008160048111156140da576140da6148d7565b036140e25750565b60018160048111156140f6576140f66148d7565b036141435760405162461bcd60e51b815260206004820152601860248201527f45434453413a20696e76616c6964207369676e617475726500000000000000006044820152606401610b85565b6002816004811115614157576141576148d7565b036141a45760405162461bcd60e51b815260206004820152601f60248201527f45434453413a20696e76616c6964207369676e6174757265206c656e677468006044820152606401610b85565b60038160048111156141b8576141b86148d7565b036142105760405162461bcd60e51b815260206004820152602260248201527f45434453413a20696e76616c6964207369676e6174757265202773272076616c604482015261756560f01b6064820152608401610b85565b6004816004811115614224576142246148d7565b0361162f5760405162461bcd60e51b815260206004820152602260248201527f45434453413a20696e76616c6964207369676e6174757265202776272076616c604482015261756560f01b6064820152608401610b85565b600054610100900460ff166142e75760405162461bcd60e51b815260206004820152602b60248201527f496e697469616c697a61626c653a20636f6e7472616374206973206e6f74206960448201526a6e697469616c697a696e6760a81b6064820152608401610b85565b61162f81604051806040016040528060018152602001603160f81b81525061437f565b600054610100900460ff166143755760405162461bcd60e51b815260206004820152602b60248201527f496e697469616c697a61626c653a20636f6e7472616374206973206e6f74206960448201526a6e697469616c697a696e6760a81b6064820152608401610b85565b611a468282614404565b600054610100900460ff166143ea5760405162461bcd60e51b815260206004820152602b60248201527f496e697469616c697a61626c653a20636f6e7472616374206973206e6f74206960448201526a6e697469616c697a696e6760a81b6064820152608401610b85565b815160209283012081519190920120606591909155606655565b600054610100900460ff1661446f5760405162461bcd60e51b815260206004820152602b60248201527f496e697469616c697a61626c653a20636f6e7472616374206973206e6f74206960448201526a6e697469616c697a696e6760a81b6064820152608401610b85565b8151614482906036906020850190614492565b508051611f4e9060379060208401905b82805461449e90614760565b90600052602060002090601f0160209004810192826144c05760008555614506565b82601f106144d957805160ff1916838001178555614506565b82800160010185558215614506579182015b828111156145065782518255916020019190600101906144eb565b50610cc39291505b80821115610cc3576000815560010161450e565b600060208083528351808285015260005b8181101561454f57858101830151858201604001528201614533565b81811115614561576000604083870101525b50601f01601f1916929092016040019392505050565b6001600160a01b038116811461162f57600080fd5b6000806040838503121561459f57600080fd5b82356145aa81614577565b946020939093013593505050565b6000602082840312156145ca57600080fd5b8135610fdc81614577565b6000602082840312156145e757600080fd5b5035919050565b60008060006060848603121561460357600080fd5b833561460e81614577565b9250602084013561461e81614577565b929592945050506040919091013590565b6000806040838503121561464257600080fd5b823561464d81614577565b9150602083013561465d81614577565b809150509250929050565b6000806040838503121561467b57600080fd5b82359150602083013561465d81614577565b600080600080600080600060e0888a0312156146a857600080fd5b87356146b381614577565b965060208801356146c381614577565b95506040880135945060608801359350608088013560ff811681146146e757600080fd5b9699959850939692959460a0840135945060c09093013592915050565b6000806000806080858703121561471a57600080fd5b843561472581614577565b9350602085013561473581614577565b9250604085013561474581614577565b9150606085013561475581614577565b939692955090935050565b600181811c9082168061477457607f821691505b602082108103613b6257634e487b7160e01b600052602260045260246000fd5b634e487b7160e01b600052601160045260246000fd5b600082198211156147bd576147bd614794565b500190565b6000828210156147d4576147d4614794565b500390565b60008160001904831182151516156147f3576147f3614794565b500290565b60008261481557634e487b7160e01b600052601260045260246000fd5b500490565b8051801515811461482a57600080fd5b919050565b60006020828403121561484157600080fd5b610fdc8261481a565b60006020828403121561485c57600080fd5b5051919050565b60006020828403121561487557600080fd5b8151610fdc81614577565b6000806040838503121561489357600080fd5b505080516020909101519092909150565b600080604083850312156148b757600080fd5b6148c08361481a565b91506148ce6020840161481a565b90509250929050565b634e487b7160e01b600052602160045260246000fdfea164736f6c634300080d000a",
  "linkReferences": {},
  "deployedLinkReferences": {}
}