{
  "_format": "hh-sol-artifact-1",
  "contractName": "FEther",
  "sourceName": "contracts/money-market/FEther.sol",
  "abi": [
    {
      "anonymous": false,
      "inputs": [
        {
          "indexed": false,
          "internalType": "uint256",
          "name": "cashPrior",
          "type": "uint256"
        },
        {
          "indexed": false,
          "internalType": "uint256",
          "name": "interestAccumulated",
          "type": "uint256"
        },
        {
          "indexed": false,
          "internalType": "uint256",
          "name": "borrowIndex",
          "type": "uint256"
        },
        {
          "indexed": false,
          "internalType": "uint256",
          "name": "totalBorrows",
          "type": "uint256"
        }
      ],
      "name": "AccrueInterest",
      "type": "event"
    },
    {
      "anonymous": false,
      "inputs": [
        {
          "indexed": true,
          "internalType": "address",
          "name": "owner",
          "type": "address"
        },
        {
          "indexed": true,
          "internalType": "address",
          "name": "spender",
          "type": "address"
        },
        {
          "indexed": false,
          "internalType": "uint256",
          "name": "value",
          "type": "uint256"
        }
      ],
      "name": "Approval",
      "type": "event"
    },
    {
      "anonymous": false,
      "inputs": [
        {
          "indexed": false,
          "internalType": "address",
          "name": "borrower",
          "type": "address"
        },
        {
          "indexed": false,
          "internalType": "uint256",
          "name": "borrowAmount",
          "type": "uint256"
        },
        {
          "indexed": false,
          "internalType": "uint256",
          "name": "accountBorrows",
          "type": "uint256"
        },
        {
          "indexed": false,
          "internalType": "uint256",
          "name": "totalBorrows",
          "type": "uint256"
        }
      ],
      "name": "Borrow",
      "type": "event"
    },
    {
      "anonymous": false,
      "inputs": [
        {
          "indexed": false,
          "internalType": "uint8",
          "name": "version",
          "type": "uint8"
        }
      ],
      "name": "Initialized",
      "type": "event"
    },
    {
      "anonymous": false,
      "inputs": [
        {
          "indexed": false,
          "internalType": "address",
          "name": "liquidator",
          "type": "address"
        },
        {
          "indexed": false,
          "internalType": "address",
          "name": "borrower",
          "type": "address"
        },
        {
          "indexed": false,
          "internalType": "uint256",
          "name": "repayAmount",
          "type": "uint256"
        },
        {
          "indexed": false,
          "internalType": "address",
          "name": "fTokenCollateral",
          "type": "address"
        }
      ],
      "name": "LiquidateBorrow",
      "type": "event"
    },
    {
      "anonymous": false,
      "inputs": [
        {
          "indexed": false,
          "internalType": "address",
          "name": "oldAdmin",
          "type": "address"
        },
        {
          "indexed": false,
          "internalType": "address",
          "name": "newAdmin",
          "type": "address"
        }
      ],
      "name": "NewAdmin",
      "type": "event"
    },
    {
      "anonymous": false,
      "inputs": [
        {
          "indexed": false,
          "internalType": "address",
          "name": "oldPendingAdmin",
          "type": "address"
        },
        {
          "indexed": false,
          "internalType": "address",
          "name": "newPendingAdmin",
          "type": "address"
        }
      ],
      "name": "NewPendingAdmin",
      "type": "event"
    },
    {
      "anonymous": false,
      "inputs": [
        {
          "indexed": false,
          "internalType": "address",
          "name": "oldOracle",
          "type": "address"
        },
        {
          "indexed": false,
          "internalType": "address",
          "name": "newOracle",
          "type": "address"
        }
      ],
      "name": "NewPriceOracle",
      "type": "event"
    },
    {
      "anonymous": false,
      "inputs": [
        {
          "indexed": false,
          "internalType": "uint256",
          "name": "oldReserveFactor",
          "type": "uint256"
        },
        {
          "indexed": false,
          "internalType": "uint256",
          "name": "newReserveFactor",
          "type": "uint256"
        }
      ],
      "name": "NewReserveFactor",
      "type": "event"
    },
    {
      "anonymous": false,
      "inputs": [
        {
          "indexed": false,
          "internalType": "address",
          "name": "redeemer",
          "type": "address"
        },
        {
          "indexed": false,
          "internalType": "uint256",
          "name": "redeemAmount",
          "type": "uint256"
        },
        {
          "indexed": false,
          "internalType": "uint256",
          "name": "redeemTokens",
          "type": "uint256"
        }
      ],
      "name": "Redeem",
      "type": "event"
    },
    {
      "anonymous": false,
      "inputs": [
        {
          "indexed": false,
          "internalType": "address",
          "name": "payer",
          "type": "address"
        },
        {
          "indexed": false,
          "internalType": "address",
          "name": "borrower",
          "type": "address"
        },
        {
          "indexed": false,
          "internalType": "uint256",
          "name": "repayAmount",
          "type": "uint256"
        },
        {
          "indexed": false,
          "internalType": "uint256",
          "name": "accountBorrows",
          "type": "uint256"
        },
        {
          "indexed": false,
          "internalType": "uint256",
          "name": "totalBorrows",
          "type": "uint256"
        }
      ],
      "name": "RepayBorrow",
      "type": "event"
    },
    {
      "anonymous": false,
      "inputs": [
        {
          "indexed": false,
          "internalType": "address",
          "name": "benefactor",
          "type": "address"
        },
        {
          "indexed": false,
          "internalType": "uint256",
          "name": "addAmount",
          "type": "uint256"
        },
        {
          "indexed": false,
          "internalType": "uint256",
          "name": "newTotalReserves",
          "type": "uint256"
        }
      ],
      "name": "ReservesAdded",
      "type": "event"
    },
    {
      "anonymous": false,
      "inputs": [
        {
          "indexed": false,
          "internalType": "address",
          "name": "supplier",
          "type": "address"
        },
        {
          "indexed": false,
          "internalType": "uint256",
          "name": "supplyAmount",
          "type": "uint256"
        },
        {
          "indexed": false,
          "internalType": "uint256",
          "name": "tokensMinted",
          "type": "uint256"
        }
      ],
      "name": "Supply",
      "type": "event"
    },
    {
      "anonymous": false,
      "inputs": [
        {
          "indexed": false,
          "internalType": "address",
          "name": "from",
          "type": "address"
        },
        {
          "indexed": false,
          "internalType": "address",
          "name": "to",
          "type": "address"
        },
        {
          "indexed": false,
          "internalType": "uint256",
          "name": "amount",
          "type": "uint256"
        }
      ],
      "name": "TokenSeized",
      "type": "event"
    },
    {
      "anonymous": false,
      "inputs": [
        {
          "indexed": true,
          "internalType": "address",
          "name": "from",
          "type": "address"
        },
        {
          "indexed": true,
          "internalType": "address",
          "name": "to",
          "type": "address"
        },
        {
          "indexed": false,
          "internalType": "uint256",
          "name": "value",
          "type": "uint256"
        }
      ],
      "name": "Transfer",
      "type": "event"
    },
    {
      "inputs": [],
      "name": "DOMAIN_SEPARATOR",
      "outputs": [
        {
          "internalType": "bytes32",
          "name": "",
          "type": "bytes32"
        }
      ],
      "stateMutability": "view",
      "type": "function"
    },
    {
      "inputs": [],
      "name": "IS_FTOKEN",
      "outputs": [
        {
          "internalType": "bool",
          "name": "",
          "type": "bool"
        }
      ],
      "stateMutability": "view",
      "type": "function"
    },
    {
      "inputs": [],
      "name": "acceptAdmin",
      "outputs": [],
      "stateMutability": "nonpayable",
      "type": "function"
    },
    {
      "inputs": [],
      "name": "accrueInterest",
      "outputs": [],
      "stateMutability": "nonpayable",
      "type": "function"
    },
    {
      "inputs": [],
      "name": "admin",
      "outputs": [
        {
          "internalType": "address",
          "name": "",
          "type": "address"
        }
      ],
      "stateMutability": "view",
      "type": "function"
    },
    {
      "inputs": [
        {
          "internalType": "address",
          "name": "owner",
          "type": "address"
        },
        {
          "internalType": "address",
          "name": "spender",
          "type": "address"
        }
      ],
      "name": "allowance",
      "outputs": [
        {
          "internalType": "uint256",
          "name": "",
          "type": "uint256"
        }
      ],
      "stateMutability": "view",
      "type": "function"
    },
    {
      "inputs": [
        {
          "internalType": "address",
          "name": "spender",
          "type": "address"
        },
        {
          "internalType": "uint256",
          "name": "amount",
          "type": "uint256"
        }
      ],
      "name": "approve",
      "outputs": [
        {
          "internalType": "bool",
          "name": "",
          "type": "bool"
        }
      ],
      "stateMutability": "nonpayable",
      "type": "function"
    },
    {
      "inputs": [
        {
          "internalType": "address",
          "name": "account",
          "type": "address"
        }
      ],
      "name": "balanceOf",
      "outputs": [
        {
          "internalType": "uint256",
          "name": "",
          "type": "uint256"
        }
      ],
      "stateMutability": "view",
      "type": "function"
    },
    {
      "inputs": [
        {
          "internalType": "address",
          "name": "_account",
          "type": "address"
        }
      ],
      "name": "balanceOfUnderlying",
      "outputs": [
        {
          "internalType": "uint256",
          "name": "",
          "type": "uint256"
        }
      ],
      "stateMutability": "nonpayable",
      "type": "function"
    },
    {
      "inputs": [
        {
          "internalType": "uint256",
          "name": "_borrowAmount",
          "type": "uint256"
        }
      ],
      "name": "borrow",
      "outputs": [],
      "stateMutability": "nonpayable",
      "type": "function"
    },
    {
      "inputs": [
        {
          "internalType": "address",
          "name": "_account",
          "type": "address"
        }
      ],
      "name": "borrowBalanceCurrent",
      "outputs": [
        {
          "internalType": "uint256",
          "name": "",
          "type": "uint256"
        }
      ],
      "stateMutability": "nonpayable",
      "type": "function"
    },
    {
      "inputs": [
        {
          "internalType": "address",
          "name": "_account",
          "type": "address"
        }
      ],
      "name": "borrowBalanceStored",
      "outputs": [
        {
          "internalType": "uint256",
          "name": "",
          "type": "uint256"
        }
      ],
      "stateMutability": "view",
      "type": "function"
    },
    {
      "inputs": [],
      "name": "borrowIndex",
      "outputs": [
        {
          "internalType": "uint256",
          "name": "",
          "type": "uint256"
        }
      ],
      "stateMutability": "view",
      "type": "function"
    },
    {
      "inputs": [],
      "name": "borrowRatePerBlock",
      "outputs": [
        {
          "internalType": "uint256",
          "name": "",
          "type": "uint256"
        }
      ],
      "stateMutability": "view",
      "type": "function"
    },
    {
      "inputs": [],
      "name": "checker",
      "outputs": [
        {
          "internalType": "contract IChecker",
          "name": "",
          "type": "address"
        }
      ],
      "stateMutability": "view",
      "type": "function"
    },
    {
      "inputs": [
        {
          "internalType": "uint256",
          "name": "_timestamp",
          "type": "uint256"
        }
      ],
      "name": "claimLiquidation",
      "outputs": [],
      "stateMutability": "nonpayable",
      "type": "function"
    },
    {
      "inputs": [],
      "name": "decimals",
      "outputs": [
        {
          "internalType": "uint8",
          "name": "",
          "type": "uint8"
        }
      ],
      "stateMutability": "view",
      "type": "function"
    },
    {
      "inputs": [
        {
          "internalType": "address",
          "name": "spender",
          "type": "address"
        },
        {
          "internalType": "uint256",
          "name": "subtractedValue",
          "type": "uint256"
        }
      ],
      "name": "decreaseAllowance",
      "outputs": [
        {
          "internalType": "bool",
          "name": "",
          "type": "bool"
        }
      ],
      "stateMutability": "nonpayable",
      "type": "function"
    },
    {
      "inputs": [],
      "name": "exchangeRateCurrent",
      "outputs": [
        {
          "internalType": "uint256",
          "name": "",
          "type": "uint256"
        }
      ],
      "stateMutability": "nonpayable",
      "type": "function"
    },
    {
      "inputs": [],
      "name": "exchangeRateStored",
      "outputs": [
        {
          "internalType": "uint256",
          "name": "",
          "type": "uint256"
        }
      ],
      "stateMutability": "view",
      "type": "function"
    },
    {
      "inputs": [
        {
          "internalType": "address",
          "name": "_account",
          "type": "address"
        }
      ],
      "name": "getAccountSnapshot",
      "outputs": [
        {
          "internalType": "uint256",
          "name": "",
          "type": "uint256"
        },
        {
          "internalType": "uint256",
          "name": "",
          "type": "uint256"
        },
        {
          "internalType": "uint256",
          "name": "",
          "type": "uint256"
        }
      ],
      "stateMutability": "view",
      "type": "function"
    },
    {
      "inputs": [],
      "name": "getLastAccrualBlock",
      "outputs": [
        {
          "internalType": "uint256",
          "name": "",
          "type": "uint256"
        }
      ],
      "stateMutability": "view",
      "type": "function"
    },
    {
      "inputs": [],
      "name": "getRiskManager",
      "outputs": [
        {
          "internalType": "address",
          "name": "",
          "type": "address"
        }
      ],
      "stateMutability": "view",
      "type": "function"
    },
    {
      "inputs": [
        {
          "internalType": "address",
          "name": "spender",
          "type": "address"
        },
        {
          "internalType": "uint256",
          "name": "addedValue",
          "type": "uint256"
        }
      ],
      "name": "increaseAllowance",
      "outputs": [
        {
          "internalType": "bool",
          "name": "",
          "type": "bool"
        }
      ],
      "stateMutability": "nonpayable",
      "type": "function"
    },
    {
      "inputs": [
        {
          "internalType": "address",
          "name": "_riskManager",
          "type": "address"
        },
        {
          "internalType": "address",
          "name": "_interestRateModel",
          "type": "address"
        },
        {
          "internalType": "address",
          "name": "_priceOracle",
          "type": "address"
        },
        {
          "internalType": "address",
          "name": "_checker",
          "type": "address"
        }
      ],
      "name": "initialize",
      "outputs": [],
      "stateMutability": "nonpayable",
      "type": "function"
    },
    {
      "inputs": [],
      "name": "interestRateModel",
      "outputs": [
        {
          "internalType": "contract IInterestRateModel",
          "name": "",
          "type": "address"
        }
      ],
      "stateMutability": "view",
      "type": "function"
    },
    {
      "inputs": [],
      "name": "isFToken",
      "outputs": [
        {
          "internalType": "bool",
          "name": "",
          "type": "bool"
        }
      ],
      "stateMutability": "pure",
      "type": "function"
    },
    {
      "inputs": [],
      "name": "lastAccrualBlock",
      "outputs": [
        {
          "internalType": "uint256",
          "name": "",
          "type": "uint256"
        }
      ],
      "stateMutability": "view",
      "type": "function"
    },
    {
      "inputs": [
        {
          "internalType": "address",
          "name": "_borrower",
          "type": "address"
        },
        {
          "internalType": "address",
          "name": "_fTokenCollateral",
          "type": "address"
        }
      ],
      "name": "liquidateBorrow",
      "outputs": [],
      "stateMutability": "payable",
      "type": "function"
    },
    {
      "inputs": [
        {
          "internalType": "uint256",
          "name": "",
          "type": "uint256"
        }
      ],
      "name": "liquidationProtection",
      "outputs": [
        {
          "internalType": "address",
          "name": "borrower",
          "type": "address"
        },
        {
          "internalType": "address",
          "name": "liquidator",
          "type": "address"
        },
        {
          "internalType": "uint128",
          "name": "value",
          "type": "uint128"
        },
        {
          "internalType": "uint128",
          "name": "tokenSeized",
          "type": "uint128"
        }
      ],
      "stateMutability": "view",
      "type": "function"
    },
    {
      "inputs": [],
      "name": "name",
      "outputs": [
        {
          "internalType": "string",
          "name": "",
          "type": "string"
        }
      ],
      "stateMutability": "view",
      "type": "function"
    },
    {
      "inputs": [
        {
          "internalType": "address",
          "name": "owner",
          "type": "address"
        }
      ],
      "name": "nonces",
      "outputs": [
        {
          "internalType": "uint256",
          "name": "",
          "type": "uint256"
        }
      ],
      "stateMutability": "view",
      "type": "function"
    },
    {
      "inputs": [],
      "name": "oracle",
      "outputs": [
        {
          "internalType": "contract IPriceOracle",
          "name": "",
          "type": "address"
        }
      ],
      "stateMutability": "view",
      "type": "function"
    },
    {
      "inputs": [],
      "name": "pendingAdmin",
      "outputs": [
        {
          "internalType": "address",
          "name": "",
          "type": "address"
        }
      ],
      "stateMutability": "view",
      "type": "function"
    },
    {
      "inputs": [
        {
          "internalType": "address",
          "name": "owner",
          "type": "address"
        },
        {
          "internalType": "address",
          "name": "spender",
          "type": "address"
        },
        {
          "internalType": "uint256",
          "name": "value",
          "type": "uint256"
        },
        {
          "internalType": "uint256",
          "name": "deadline",
          "type": "uint256"
        },
        {
          "internalType": "uint8",
          "name": "v",
          "type": "uint8"
        },
        {
          "internalType": "bytes32",
          "name": "r",
          "type": "bytes32"
        },
        {
          "internalType": "bytes32",
          "name": "s",
          "type": "bytes32"
        }
      ],
      "name": "permit",
      "outputs": [],
      "stateMutability": "nonpayable",
      "type": "function"
    },
    {
      "inputs": [],
      "name": "protocolSeizeShareMantissa",
      "outputs": [
        {
          "internalType": "uint256",
          "name": "",
          "type": "uint256"
        }
      ],
      "stateMutability": "view",
      "type": "function"
    },
    {
      "inputs": [
        {
          "internalType": "uint256",
          "name": "_redeemTokens",
          "type": "uint256"
        }
      ],
      "name": "redeem",
      "outputs": [],
      "stateMutability": "nonpayable",
      "type": "function"
    },
    {
      "inputs": [
        {
          "internalType": "uint256",
          "name": "_redeemAmount",
          "type": "uint256"
        }
      ],
      "name": "redeemUnderlying",
      "outputs": [],
      "stateMutability": "nonpayable",
      "type": "function"
    },
    {
      "inputs": [],
      "name": "repayBorrow",
      "outputs": [],
      "stateMutability": "payable",
      "type": "function"
    },
    {
      "inputs": [
        {
          "internalType": "address",
          "name": "_borrower",
          "type": "address"
        }
      ],
      "name": "repayBorrowBehalf",
      "outputs": [],
      "stateMutability": "payable",
      "type": "function"
    },
    {
      "inputs": [
        {
          "internalType": "uint256",
          "name": "_timestamp",
          "type": "uint256"
        },
        {
          "internalType": "address",
          "name": "_fToken",
          "type": "address"
        }
      ],
      "name": "repayLiquidationWithErc",
      "outputs": [],
      "stateMutability": "nonpayable",
      "type": "function"
    },
    {
      "inputs": [
        {
          "internalType": "uint256",
          "name": "_timestamp",
          "type": "uint256"
        }
      ],
      "name": "repayLiquidationWithEth",
      "outputs": [],
      "stateMutability": "payable",
      "type": "function"
    },
    {
      "inputs": [],
      "name": "reserveFactorMantissa",
      "outputs": [
        {
          "internalType": "uint256",
          "name": "",
          "type": "uint256"
        }
      ],
      "stateMutability": "view",
      "type": "function"
    },
    {
      "inputs": [],
      "name": "riskManager",
      "outputs": [
        {
          "internalType": "contract IRiskManager",
          "name": "",
          "type": "address"
        }
      ],
      "stateMutability": "view",
      "type": "function"
    },
    {
      "inputs": [
        {
          "internalType": "address",
          "name": "_liquidator",
          "type": "address"
        },
        {
          "internalType": "address",
          "name": "_borrower",
          "type": "address"
        },
        {
          "internalType": "uint256",
          "name": "_repayAmount",
          "type": "uint256"
        }
      ],
      "name": "seize",
      "outputs": [],
      "stateMutability": "nonpayable",
      "type": "function"
    },
    {
      "inputs": [
        {
          "internalType": "address",
          "name": "_newPendingAdmin",
          "type": "address"
        }
      ],
      "name": "setPendingAdmin",
      "outputs": [],
      "stateMutability": "nonpayable",
      "type": "function"
    },
    {
      "inputs": [
        {
          "internalType": "address",
          "name": "_newOracle",
          "type": "address"
        }
      ],
      "name": "setPriceOracle",
      "outputs": [],
      "stateMutability": "nonpayable",
      "type": "function"
    },
    {
      "inputs": [
        {
          "internalType": "uint256",
          "name": "_newReserveFactorMantissa",
          "type": "uint256"
        }
      ],
      "name": "setReserveFactor",
      "outputs": [],
      "stateMutability": "nonpayable",
      "type": "function"
    },
    {
      "inputs": [],
      "name": "supply",
      "outputs": [],
      "stateMutability": "payable",
      "type": "function"
    },
    {
      "inputs": [],
      "name": "supplyRatePerBlock",
      "outputs": [
        {
          "internalType": "uint256",
          "name": "",
          "type": "uint256"
        }
      ],
      "stateMutability": "view",
      "type": "function"
    },
    {
      "inputs": [],
      "name": "symbol",
      "outputs": [
        {
          "internalType": "string",
          "name": "",
          "type": "string"
        }
      ],
      "stateMutability": "view",
      "type": "function"
    },
    {
      "inputs": [],
      "name": "totalBorrows",
      "outputs": [
        {
          "internalType": "uint256",
          "name": "",
          "type": "uint256"
        }
      ],
      "stateMutability": "view",
      "type": "function"
    },
    {
      "inputs": [],
      "name": "totalBorrowsCurrent",
      "outputs": [
        {
          "internalType": "uint256",
          "name": "",
          "type": "uint256"
        }
      ],
      "stateMutability": "nonpayable",
      "type": "function"
    },
    {
      "inputs": [],
      "name": "totalCash",
      "outputs": [
        {
          "internalType": "uint256",
          "name": "",
          "type": "uint256"
        }
      ],
      "stateMutability": "view",
      "type": "function"
    },
    {
      "inputs": [],
      "name": "totalReserves",
      "outputs": [
        {
          "internalType": "uint256",
          "name": "",
          "type": "uint256"
        }
      ],
      "stateMutability": "view",
      "type": "function"
    },
    {
      "inputs": [],
      "name": "totalSupply",
      "outputs": [
        {
          "internalType": "uint256",
          "name": "",
          "type": "uint256"
        }
      ],
      "stateMutability": "view",
      "type": "function"
    },
    {
      "inputs": [
        {
          "internalType": "address",
          "name": "to",
          "type": "address"
        },
        {
          "internalType": "uint256",
          "name": "amount",
          "type": "uint256"
        }
      ],
      "name": "transfer",
      "outputs": [
        {
          "internalType": "bool",
          "name": "",
          "type": "bool"
        }
      ],
      "stateMutability": "nonpayable",
      "type": "function"
    },
    {
      "inputs": [
        {
          "internalType": "address",
          "name": "from",
          "type": "address"
        },
        {
          "internalType": "address",
          "name": "to",
          "type": "address"
        },
        {
          "internalType": "uint256",
          "name": "amount",
          "type": "uint256"
        }
      ],
      "name": "transferFrom",
      "outputs": [
        {
          "internalType": "bool",
          "name": "",
          "type": "bool"
        }
      ],
      "stateMutability": "nonpayable",
      "type": "function"
    }
  ],
  "bytecode": "0x608060405234801561001057600080fd5b506149d9806100206000396000f3fe6080604052600436106103815760003560e01c806373acee98116101d1578063b2a02ff111610102578063d71f05e6116100a0578063f3fdb15a1161006f578063f3fdb15a14610a2f578063f851a44014610a4f578063f8c8765e14610a6f578063f8f9da2814610a8f57600080fd5b8063d71f05e614610998578063db006a75146109b6578063dd62ed3e146109d6578063e597461914610a1c57600080fd5b8063c37f68e2116100dc578063c37f68e2146108fd578063c5ebeaec14610938578063cf5303cf14610958578063d505accf1461097857600080fd5b8063b2a02ff1146108b2578063bd6d894d146108d2578063bee12d53146108e757600080fd5b8063a457c2d71161016f578063aa5af0fd11610149578063aa5af0fd14610854578063aae40a2a1461086a578063ae9d70b01461087d578063b07797bb1461089257600080fd5b8063a457c2d7146107ff578063a6afed951461081f578063a9059cbb1461083457600080fd5b8063852a12e3116101ab578063852a12e3146107945780638f840ddd146107b457806395d89b41146107ca57806395dd9193146107df57600080fd5b806373acee981461073f5780637dc0d1d0146107545780637ecebe001461077457600080fd5b80633644e515116102b6578063511842d31161025457806362b595621161022357806362b595621461063c5780636752e702146106d357806370a08231146106e9578063732c80091461071f57600080fd5b8063511842d3146105e0578063530e784f146105f5578063542a1f0b1461061557806354a8b2fb1461062957600080fd5b80634784266311610290578063478426631461058257806347bd3718146105a25780634dd18bf5146105b85780634e4d9fea146105d857600080fd5b80633644e5151461052d57806339509351146105425780633af9e6691461056257600080fd5b8063182df0f51161032357806323b872dd116102fd57806323b872dd146104a4578063252e1a0b146104c457806326782247146104d9578063313ce5671461051157600080fd5b8063182df0f5146104595780631c4469831461046e5780631f46eaae1461048e57600080fd5b80630e18b6811161035f5780630e18b681146103eb578063173b99041461040057806317bfdfbc1461042457806318160ddd1461044457600080fd5b8063047fc9aa1461038657806306fdde0314610390578063095ea7b3146103bb575b600080fd5b61038e610aa4565b005b34801561039c57600080fd5b506103a5610ab0565b6040516103b29190614601565b60405180910390f35b3480156103c757600080fd5b506103db6103d636600461466b565b610b42565b60405190151581526020016103b2565b3480156103f757600080fd5b5061038e610b5a565b34801561040c57600080fd5b5061041660d35481565b6040519081526020016103b2565b34801561043057600080fd5b5061041661043f366004614697565b610c6f565b34801561045057600080fd5b50603554610416565b34801561046557600080fd5b50610416610c88565b34801561047a57600080fd5b5061038e6104893660046146b4565b610cf2565b34801561049a57600080fd5b5061041660d45481565b3480156104b057600080fd5b506103db6104bf3660046146cd565b610e54565b3480156104d057600080fd5b506103db600181565b3480156104e557600080fd5b5060d1546104f9906001600160a01b031681565b6040516001600160a01b0390911681526020016103b2565b34801561051d57600080fd5b50604051601281526020016103b2565b34801561053957600080fd5b50610416610f77565b34801561054e57600080fd5b506103db61055d36600461466b565b610f86565b34801561056e57600080fd5b5061041661057d366004614697565b610fc5565b34801561058e57600080fd5b5060cc546104f9906001600160a01b031681565b3480156105ae57600080fd5b5061041660d75481565b3480156105c457600080fd5b5061038e6105d3366004614697565b61100e565b61038e6110c2565b3480156105ec57600080fd5b5060d454610416565b34801561060157600080fd5b5061038e610610366004614697565b6110cd565b34801561062157600080fd5b5060016103db565b61038e6106373660046146b4565b611181565b34801561064857600080fd5b506106996106573660046146b4565b60db602052600090815260409020805460018201546002909201546001600160a01b0391821692909116906001600160801b0380821691600160801b90041684565b604080516001600160a01b0395861681529490931660208501526001600160801b03918216928401929092521660608201526080016103b2565b3480156106df57600080fd5b5061041660da5481565b3480156106f557600080fd5b50610416610704366004614697565b6001600160a01b031660009081526033602052604090205490565b34801561072b57600080fd5b5061038e61073a3660046146b4565b61140a565b34801561074b57600080fd5b506104166116d3565b34801561076057600080fd5b5060ce546104f9906001600160a01b031681565b34801561078057600080fd5b5061041661078f366004614697565b6116e4565b3480156107a057600080fd5b5061038e6107af3660046146b4565b611702565b3480156107c057600080fd5b5061041660d85481565b3480156107d657600080fd5b506103a5611711565b3480156107eb57600080fd5b506104166107fa366004614697565b611720565b34801561080b57600080fd5b506103db61081a36600461466b565b611783565b34801561082b57600080fd5b5061038e61182d565b34801561084057600080fd5b506103db61084f36600461466b565b611a08565b34801561086057600080fd5b5061041660d55481565b61038e61087836600461470e565b611b19565b34801561088957600080fd5b50610416611b29565b34801561089e57600080fd5b5061038e6108ad366004614747565b611bb7565b3480156108be57600080fd5b5061038e6108cd3660046146cd565b612021565b3480156108de57600080fd5b50610416612032565b3480156108f357600080fd5b5061041660d65481565b34801561090957600080fd5b5061091d610918366004614697565b612044565b604080519384526020840192909252908201526060016103b2565b34801561094457600080fd5b5061038e6109533660046146b4565b612086565b34801561096457600080fd5b5060cf546104f9906001600160a01b031681565b34801561098457600080fd5b5061038e61099336600461476c565b612090565b3480156109a457600080fd5b5060cc546001600160a01b03166104f9565b3480156109c257600080fd5b5061038e6109d13660046146b4565b6121f4565b3480156109e257600080fd5b506104166109f136600461470e565b6001600160a01b03918216600090815260346020908152604080832093909416825291909152205490565b61038e610a2a366004614697565b612200565b348015610a3b57600080fd5b5060cd546104f9906001600160a01b031681565b348015610a5b57600080fd5b5060d0546104f9906001600160a01b031681565b348015610a7b57600080fd5b5061038e610a8a3660046147e3565b61220b565b348015610a9b57600080fd5b50610416612387565b610aae33346123d0565b565b606060368054610abf9061483f565b80601f0160208091040260200160405190810160405280929190818152602001828054610aeb9061483f565b8015610b385780601f10610b0d57610100808354040283529160200191610b38565b820191906000526020600020905b815481529060010190602001808311610b1b57829003601f168201915b5050505050905090565b600033610b50818585612591565b5060019392505050565b60d1546001600160a01b03163314610bb95760405162461bcd60e51b815260206004820152601c60248201527f546f6b656e426173653a204e6f742070656e64696e672061646d696e0000000060448201526064015b60405180910390fd5b60d0805460d180546001600160a01b038082166001600160a01b031980861682179096559490911690915560408051919092168082526020820184905292917ff9ffabca9c8276e99321725bcb43fb076a6c66a54b7f21c4e8146d8519b417dc910160405180910390a160d154604080516001600160a01b03808516825290921660208301527fca4f2f25d0898edd99413412fb94012f9e54ec8142f9b093e7720646a95b16a991015b60405180910390a15050565b6000610c7961182d565b610c8282611720565b92915050565b600080610c9460355490565b905080600003610ca657505060d25490565b600060d85460d75460d654610cbb9190614889565b610cc591906148a1565b9050600082610cdc670de0b6b3a7640000846148b8565b610ce691906148d7565b949350505050565b5090565b60d0546001600160a01b03163314610d4c5760405162461bcd60e51b815260206004820152601660248201527f4e6f7420617574686f72697a656420746f2063616c6c000000000000000000006044820152606401610bb0565b610d5461182d565b4360d45414610db55760405162461bcd60e51b815260206004820152602760248201527f546f6b656e426173653a204d61726b6574207374617465206e6f7420796574206044820152661d5c19185d195960ca1b6064820152608401610bb0565b670de0b6b3a76400008110610e165760405162461bcd60e51b815260206004820152602160248201527f546f6b656e426173653a20496e76616c6964207265736572766520666163746f6044820152603960f91b6064820152608401610bb0565b60d380549082905560408051828152602081018490527faaa68312e2ea9d50e16af5068410ab56e1a1fd06037b1a35664812c30f8214609101610c63565b6000610e5e61182d565b60cc546040517fff125c8a0000000000000000000000000000000000000000000000000000000081523060048201526001600160a01b038681166024830152604482018590529091169063ff125c8a90606401602060405180830381865afa158015610ece573d6000803e3d6000fd5b505050506040513d601f19601f82011682018060405250810190610ef2919061490e565b610f555760405162461bcd60e51b815260206004820152602e60248201527f546f6b656e426173653a205472616e7366657220646973616c6c6f776564206260448201526d3c903934b9b59036b0b730b3b2b960911b6064820152608401610bb0565b33610f618582856126b5565b610f6c858585612747565b506001949350505050565b6000610f81612944565b905090565b3360008181526034602090815260408083206001600160a01b0387168452909152812054909190610b509082908690610fc0908790614889565b612591565b6000806040518060200160405280610fdb612032565b9052905061100781611002856001600160a01b031660009081526033602052604090205490565b6129bf565b9392505050565b60d0546001600160a01b031633146110685760405162461bcd60e51b815260206004820152601660248201527f4e6f7420617574686f72697a656420746f2063616c6c000000000000000000006044820152606401610bb0565b60d180546001600160a01b038381166001600160a01b031983168117909355604080519190921680825260208201939093527fca4f2f25d0898edd99413412fb94012f9e54ec8142f9b093e7720646a95b16a99101610c63565b610aae3333346129d7565b60d0546001600160a01b031633146111275760405162461bcd60e51b815260206004820152601660248201527f4e6f7420617574686f72697a656420746f2063616c6c000000000000000000006044820152606401610bb0565b60ce80546001600160a01b038381166001600160a01b031983168117909355604080519190921680825260208201939093527fd52b2b9b7e9ee655fcb95d2e5b9e0c9f69e7ef2b8e9d2d0ea78402d576d22e229101610c63565b600081815260db6020908152604091829020825160808101845281546001600160a01b03908116825260018301541692810192909252600201546001600160801b0380821693830193909352600160801b900490911660608201526111e98262015180614889565b42106112375760405162461bcd60e51b815260206004820152601c60248201527f546f6b656e426173653a2054696d65206c696d697420706173736564000000006044820152606401610bb0565b80604001516001600160801b03166000036112ba5760405162461bcd60e51b815260206004820152603860248201527f546f6b656e426173653a204c69717569646174696f6e2070726f74656374696f60448201527f6e20636c6f736564202f206e65766572206578697374656400000000000000006064820152608401610bb0565b6000606482604001516001600160801b031660786112d891906148b8565b6112e291906148d7565b9050803410156113345760405162461bcd60e51b815260206004820152601f60248201527f546f6b656e426173653a204e6f7420656e6f7567682045544820676976656e006044820152606401610bb0565b600061134082346148a1565b60208401516040519192506001600160a01b03169083156108fc029084906000818181858888f1935050505015801561137d573d6000803e3d6000fd5b5080156113b357604051339082156108fc029083906000818181858888f193505050501580156113b1573d6000803e3d6000fd5b505b60608301516001600160801b03166113cb3082612c10565b83516113d79082612d5e565b50505060009182525060db6020526040812080546001600160a01b03199081168255600182018054909116905560020155565b600081815260db6020908152604091829020825160808101845281546001600160a01b03908116825260018301541692810192909252600201546001600160801b0380821693830193909352600160801b900490911660608201526114728262015180614889565b42116114c05760405162461bcd60e51b815260206004820181905260248201527f546f6b656e426173653a2054696d65206c696d6974206e6f74207061737365646044820152606401610bb0565b80604001516001600160801b03166000036115435760405162461bcd60e51b815260206004820152603860248201527f546f6b656e426173653a204c69717569646174696f6e2070726f74656374696f60448201527f6e20636c6f736564202f206e65766572206578697374656400000000000000006064820152608401610bb0565b80602001516001600160a01b0316336001600160a01b0316146115ce5760405162461bcd60e51b815260206004820152602d60248201527f546f6b656e426173653a204e6f74206c697175696461746f72206f662074686960448201527f73206c69717569646174696f6e000000000000000000000000000000000000006064820152608401610bb0565b60608101516001600160801b0316600080806115e984612e3d565b9250925092506115f93085612c10565b6116033384612d5e565b60d88190558451602080870151604080516001600160a01b039485168152939091169183019190915281018490527feac344312e08a6e34d3cb14733c432e8b20995a316e9abf4bc59640dc90d10ca9060600160405180910390a160408051308152602081018490529081018290527fa91e67c5ea634cd43a12c5a482724b03de01e85ca68702a53d0c2f45cb7c1dc59060600160405180910390a15050506000928352505060db6020526040812080546001600160a01b03199081168255600182018054909116905560020155565b60006116dd61182d565b5060d75490565b6001600160a01b038116600090815260996020526040812054610c82565b61170e33600083612ea8565b50565b606060378054610abf9061483f565b6001600160a01b038116600090815260d96020908152604080832081518083019092528054808352600190910154928201929092529082036117655750600092915050565b602081015160d554825161177991906148b8565b61100791906148d7565b3360008181526034602090815260408083206001600160a01b0387168452909152812054909190838110156118205760405162461bcd60e51b815260206004820152602560248201527f45524332303a2064656372656173656420616c6c6f77616e63652062656c6f7760448201527f207a65726f0000000000000000000000000000000000000000000000000000006064820152608401610bb0565b610f6c8286868403612591565b60d454439081810361183d575050565b60d65460d75460d85460d55460cd546040516315f2405360e01b81526004810186905260248101859052604481018490526000916001600160a01b0316906315f2405390606401602060405180830381865afa1580156118a1573d6000803e3d6000fd5b505050506040513d601f19601f820116820180604052508101906118c59190614929565b905065048c2739500081111561191d5760405162461bcd60e51b815260206004820152601c60248201527f626f72726f772072617465206973206162737572646c792068696768000000006044820152606401610bb0565b600061192987896148a1565b9050600061194560405180602001604052808581525083613177565b905060006119548286876131a8565b9050600085611963838a6148b8565b61196d91906148d7565b9050600061197b89836148a1565b9050600061199a604051806020016040528060d354815250838b6131a8565b60d48e905560d585905560d784905560d8819055604080518d815260208101859052908101869052606081018590529091507f4dec04e750ca11537cabcd8a9eab06494de08da3735bc8871cd41250e190bc049060800160405180910390a150505050505050505050505050565b6000611a1261182d565b60003360cc546040517fff125c8a0000000000000000000000000000000000000000000000000000000081523060048201526001600160a01b0380841660248301526044820187905292935091169063ff125c8a90606401602060405180830381865afa158015611a87573d6000803e3d6000fd5b505050506040513d601f19601f82011682018060405250810190611aab919061490e565b611b0e5760405162461bcd60e51b815260206004820152602e60248201527f546f6b656e426173653a205472616e7366657220646973616c6c6f776564206260448201526d3c903934b9b59036b0b730b3b2b960911b6064820152608401610bb0565b610b50818585612747565b611b25338334846131d2565b5050565b60cd5460d65460d75460d85460d354604051635c0b440b60e11b815260048101949094526024840192909252604483015260648201526000916001600160a01b03169063b8168816906084015b602060405180830381865afa158015611b93573d6000803e3d6000fd5b505050506040513d601f19601f82011682018060405250810190610f819190614929565b600082815260db6020908152604091829020825160808101845281546001600160a01b03908116825260018301541692810192909252600201546001600160801b0380821693830193909352600160801b90049091166060820152611c1f8362015180614889565b4210611c6d5760405162461bcd60e51b815260206004820152601c60248201527f546f6b656e426173653a2054696d65206c696d697420706173736564000000006044820152606401610bb0565b60cc5460405163384cf1d760e01b81526001600160a01b0384811660048301529091169063384cf1d790602401602060405180830381865afa158015611cb7573d6000803e3d6000fd5b505050506040513d601f19601f82011682018060405250810190611cdb919061490e565b611d275760405162461bcd60e51b815260206004820152601c60248201527f546f6b656e426173653a204d61726b6574206e6f74206c6973746564000000006044820152606401610bb0565b80604001516001600160801b0316600003611daa5760405162461bcd60e51b815260206004820152603860248201527f546f6b656e426173653a204c69717569646174696f6e2070726f74656374696f60448201527f6e20636c6f736564202f206e65766572206578697374656400000000000000006064820152608401610bb0565b80516001600160a01b03163314611e295760405162461bcd60e51b815260206004820152602b60248201527f546f6b656e426173653a204e6f7420626f72726f776572206f6620746869732060448201527f6c69717569646174696f6e0000000000000000000000000000000000000000006064820152608401610bb0565b6000606482604001516001600160801b03166078611e4791906148b8565b611e5191906148d7565b90506000836001600160a01b0316639816f4736040518163ffffffff1660e01b8152600401602060405180830381865afa158015611e93573d6000803e3d6000fd5b505050506040513d601f19601f82011682018060405250810190611eb79190614942565b60ce5460405163fc57d4df60e01b81526001600160a01b0387811660048301529293506000929091169063fc57d4df906024016040805180830381865afa158015611f06573d6000803e3d6000fd5b505050506040513d601f19601f82011682018060405250810190611f2a919061495f565b5090506000611f4784604051806020016040528085815250613673565b60208601516040516323b872dd60e01b81523360048201526001600160a01b039182166024820152604481018390529192508416906323b872dd906064016020604051808303816000875af1158015611fa4573d6000803e3d6000fd5b505050506040513d601f19601f82011682018060405250810190611fc8919061490e565b5060608501516001600160801b0316611fe13082612c10565b611feb3382612d5e565b5050506000948552505060db60205250506040812080546001600160a01b03199081168255600182018054909116905560020155565b61202d33848484613691565b505050565b600061203c61182d565b610f81610c88565b6000806000612068846001600160a01b031660009081526033602052604090205490565b61207185611720565b612079610c88565b9250925092509193909250565b61170e33826139c9565b834211156120e05760405162461bcd60e51b815260206004820152601d60248201527f45524332305065726d69743a206578706972656420646561646c696e650000006044820152606401610bb0565b60007f6e71edae12b1b97f4d1f60370fef10105fa2faae0126114a169c64845d6126c988888861210f8c613c1f565b6040805160208101969096526001600160a01b0394851690860152929091166060840152608083015260a082015260c0810186905260e001604051602081830303815290604052805190602001209050600061216a82613c47565b9050600061217a82878787613c95565b9050896001600160a01b0316816001600160a01b0316146121dd5760405162461bcd60e51b815260206004820152601e60248201527f45524332305065726d69743a20696e76616c6964207369676e617475726500006044820152606401610bb0565b6121e88a8a8a612591565b50505050505050505050565b61170e33826000612ea8565b61170e3382346129d7565b600054610100900460ff161580801561222b5750600054600160ff909116105b806122455750303b158015612245575060005460ff166001145b6122b75760405162461bcd60e51b815260206004820152602e60248201527f496e697469616c697a61626c653a20636f6e747261637420697320616c72656160448201527f647920696e697469616c697a65640000000000000000000000000000000000006064820152608401610bb0565b6000805460ff1916600117905580156122da576000805461ff0019166101001790555b612339858585856040518060400160405280600c81526020017f467572696f6e2045746865720000000000000000000000000000000000000000815250604051806040016040528060048152602001630cc8aa8960e31b815250613cbd565b8015612380576000805461ff0019169055604051600181527f7f26b83ff96e1f2b6a682f133852f6798a09c465da95921460cefb3847402498906020015b60405180910390a15b5050505050565b60cd5460d65460d75460d8546040516315f2405360e01b81526004810193909352602483019190915260448201526000916001600160a01b0316906315f2405390606401611b76565b6123d861182d565b60cc5460405163028f2ead60e31b81523060048201526001600160a01b0390911690631479756890602401602060405180830381865afa158015612420573d6000803e3d6000fd5b505050506040513d601f19601f82011682018060405250810190612444919061490e565b6124a55760405162461bcd60e51b815260206004820152602c60248201527f546f6b656e426173653a20537570706c7920646973616c6c6f7765642062792060448201526b3934b9b59036b0b730b3b2b960a11b6064820152608401610bb0565b4360d454146125065760405162461bcd60e51b815260206004820152602760248201527f546f6b656e426173653a204d61726b6574207374617465206e6f7420796574206044820152661d5c19185d195960ca1b6064820152608401610bb0565b6000604051806020016040528061251b610c88565b905290506125298383613f58565b60006125358383613673565b90506125418482612d5e565b604080516001600160a01b0386168152602081018590529081018290527f9d624b01705090e0c402c84f2bdef9c498399a009cee9a4e08ab004bae4471219060600160405180910390a150505050565b6001600160a01b0383166125f35760405162461bcd60e51b8152602060048201526024808201527f45524332303a20617070726f76652066726f6d20746865207a65726f206164646044820152637265737360e01b6064820152608401610bb0565b6001600160a01b0382166126545760405162461bcd60e51b815260206004820152602260248201527f45524332303a20617070726f766520746f20746865207a65726f206164647265604482015261737360f01b6064820152608401610bb0565b6001600160a01b0383811660008181526034602090815260408083209487168084529482529182902085905590518481527f8c5be1e5ebec7d5bd14f71427d1e84f3dd0314c0f7b2291e5b200ac8c7c3b925910160405180910390a3505050565b6001600160a01b03838116600090815260346020908152604080832093861683529290522054600019811461274157818110156127345760405162461bcd60e51b815260206004820152601d60248201527f45524332303a20696e73756666696369656e7420616c6c6f77616e63650000006044820152606401610bb0565b6127418484848403612591565b50505050565b6001600160a01b0383166127c35760405162461bcd60e51b815260206004820152602560248201527f45524332303a207472616e736665722066726f6d20746865207a65726f20616460448201527f64726573730000000000000000000000000000000000000000000000000000006064820152608401610bb0565b6001600160a01b0382166128255760405162461bcd60e51b815260206004820152602360248201527f45524332303a207472616e7366657220746f20746865207a65726f206164647260448201526265737360e81b6064820152608401610bb0565b6001600160a01b038316600090815260336020526040902054818110156128b45760405162461bcd60e51b815260206004820152602660248201527f45524332303a207472616e7366657220616d6f756e742065786365656473206260448201527f616c616e636500000000000000000000000000000000000000000000000000006064820152608401610bb0565b6001600160a01b038085166000908152603360205260408082208585039055918516815290812080548492906128eb908490614889565b92505081905550826001600160a01b0316846001600160a01b03167fddf252ad1be2c89b69c2b068fc378daa952ba7f163c4a11628f55a4df523b3ef8460405161293791815260200190565b60405180910390a3612741565b6000610f817f8b73c3c69bb8fe3d512ecc4cf759cc79239f7b179b0ffacaa9a75d522b39400f61297360655490565b6066546040805160208101859052908101839052606081018290524660808201523060a082015260009060c0016040516020818303038152906040528051906020012090509392505050565b6000806129cc8484613177565b9050610ce68161401a565b6129df61182d565b60cc54604051621f956f60ea1b81523060048201526001600160a01b0390911690637e55bc00906024016020604051808303816000875af1158015612a28573d6000803e3d6000fd5b505050506040513d601f19601f82011682018060405250810190612a4c919061490e565b612abe5760405162461bcd60e51b815260206004820152602b60248201527f546f6b656e426173653a20526570617920646973616c6c6f776564206279207260448201527f69736b206d616e616765720000000000000000000000000000000000000000006064820152608401610bb0565b4360d45414612b1f5760405162461bcd60e51b815260206004820152602760248201527f546f6b656e426173653a204d61726b6574207374617465206e6f7420796574206044820152661d5c19185d195960ca1b6064820152608401610bb0565b6000612b2a83611720565b905060006000198314612b3d5782612b3f565b815b9050612b4b8582613f58565b6000828211612b6357612b5e82846148a1565b612b66565b60005b9050600060d7548311612b86578260d754612b8191906148a1565b612b89565b60005b6001600160a01b03878116600081815260d9602090815260409182902087815560d55460019091015560d78590558151938c168452830191909152810185905260608101849052608081018290529091507f1a2a22cb034d26d1854bdc6666a5b91fe25efbbb5dcad3b0355478d6f5c362a19060a00160405180910390a150505050505050565b6001600160a01b038216612c705760405162461bcd60e51b815260206004820152602160248201527f45524332303a206275726e2066726f6d20746865207a65726f206164647265736044820152607360f81b6064820152608401610bb0565b6001600160a01b03821660009081526033602052604090205481811015612ce45760405162461bcd60e51b815260206004820152602260248201527f45524332303a206275726e20616d6f756e7420657863656564732062616c616e604482015261636560f01b6064820152608401610bb0565b6001600160a01b0383166000908152603360205260408120838303905560358054849290612d139084906148a1565b90915550506040518281526000906001600160a01b038516907fddf252ad1be2c89b69c2b068fc378daa952ba7f163c4a11628f55a4df523b3ef9060200160405180910390a3505050565b6001600160a01b038216612db45760405162461bcd60e51b815260206004820152601f60248201527f45524332303a206d696e7420746f20746865207a65726f2061646472657373006044820152606401610bb0565b8060356000828254612dc69190614889565b90915550506001600160a01b03821660009081526033602052604081208054839290612df3908490614889565b90915550506040518181526001600160a01b038316906000907fddf252ad1be2c89b69c2b068fc378daa952ba7f163c4a11628f55a4df523b3ef9060200160405180910390a35050565b600080600080612e5d85604051806020016040528060da54815250614032565b9050612e6981866148a1565b935060006040518060200160405280612e80610c88565b90529050612e8e81836129bf565b93508360d854612e9e9190614889565b9496939550505050565b612eb061182d565b811580612ebb575080155b612f2d5760405162461bcd60e51b815260206004820152603b60248201527f546f6b656e426173653a204f6e65206f662072656465656d546f6b656e73206f60448201527f722072656465656d416d6f756e74206d757374206265207a65726f00000000006064820152608401610bb0565b60006040518060200160405280612f42610c88565b905290506000808415612f6357849150612f5c83866129bf565b9050612f73565b612f6d8484613673565b91508390505b60cc5460405163eabe7d9160e01b81523060048201526001600160a01b038881166024830152604482018590529091169063eabe7d9190606401602060405180830381865afa158015612fca573d6000803e3d6000fd5b505050506040513d601f19601f82011682018060405250810190612fee919061490e565b61304f5760405162461bcd60e51b815260206004820152602c60248201527f546f6b656e426173653a2052656465656d20646973616c6c6f7765642062792060448201526b3934b9b59036b0b730b3b2b960a11b6064820152608401610bb0565b4360d454146130b05760405162461bcd60e51b815260206004820152602760248201527f546f6b656e426173653a204d61726b6574207374617465206e6f7420796574206044820152661d5c19185d195960ca1b6064820152608401610bb0565b8060d654116131115760405162461bcd60e51b815260206004820152602760248201527f546f6b656e426173653a204d61726b65742068617320696e73756666696369656044820152660dce840c6c2e6d60cb1b6064820152608401610bb0565b61311b8683612c10565b613125868261404b565b604080516001600160a01b0388168152602081018390529081018390527fe5b754fb1abb7f01b499791d0b820ae3b6af3424ac1c59768edb53f4ec31a9299060600160405180910390a1505050505050565b604080516020810190915260008152604051806020016040528061319f856000015185614094565b90529392505050565b6000806131b58585613177565b90506131c96131c38261401a565b846140a0565b95945050505050565b6131da61182d565b6000819050806001600160a01b031663a6afed956040518163ffffffff1660e01b8152600401600060405180830381600087803b15801561321a57600080fd5b505af115801561322e573d6000803e3d6000fd5b505060cc54604051636e2cf5af60e01b81523060048201526001600160a01b0386811660248301528881166044830152606482018890529091169250636e2cf5af91506084016020604051808303816000875af1158015613293573d6000803e3d6000fd5b505050506040513d601f19601f820116820180604052508101906132b7919061490e565b6133295760405162461bcd60e51b815260206004820152603160248201527f546f6b656e426173653a204c69717569646174696f6e20646973616c6c6f776560448201527f64206279207269736b206d616e616765720000000000000000000000000000006064820152608401610bb0565b4360d4541461338a5760405162461bcd60e51b815260206004820152602760248201527f546f6b656e426173653a204d61726b6574207374617465206e6f7420796574206044820152661d5c19185d195960ca1b6064820152608401610bb0565b43816001600160a01b031663511842d36040518163ffffffff1660e01b8152600401602060405180830381865afa1580156133c9573d6000803e3d6000fd5b505050506040513d601f19601f820116820180604052508101906133ed9190614929565b146134605760405162461bcd60e51b815260206004820152603260248201527f546f6b656e426173653a20436f6c6c61746572616c206d61726b65742073746160448201527f7465206e6f7420796574207570646174656400000000000000000000000000006064820152608401610bb0565b846001600160a01b0316846001600160a01b0316036134cd5760405162461bcd60e51b8152602060048201526024808201527f546f6b656e426173653a2043616e6e6f74206c697175696461746520796f757260448201526339b2b63360e11b6064820152608401610bb0565b6000831180156134df57506000198314155b61352b5760405162461bcd60e51b815260206004820152601f60248201527f546f6b656e426173653a20496e76616c696420726570617920616d6f756e74006044820152606401610bb0565b6135368585856129d7565b306001600160a01b038316036135575761355230868686613691565b6135c2565b60405163b2a02ff160e01b81526001600160a01b03868116600483015285811660248301526044820185905282169063b2a02ff190606401600060405180830381600087803b1580156135a957600080fd5b505af11580156135bd573d6000803e3d6000fd5b505050505b60cc5460405163057d5da760e51b81526001600160a01b0386811660048301529091169063afabb4e090602401600060405180830381600087803b15801561360957600080fd5b505af115801561361d573d6000803e3d6000fd5b5050604080516001600160a01b03808a168252808916602083015291810187905290851660608201527fb317550be5409ae673b9326d836608f387c2de00a16e325ad58d4394a30d3f1092506080019050612377565b600061100761368a84670de0b6b3a7640000614094565b83516140ac565b60cc54604051630779996560e11b81526001600160a01b0384811660048301528681166024830152306044830152606482018490526000928392911690630ef332ca906084016040805180830381865afa1580156136f3573d6000803e3d6000fd5b505050506040513d601f19601f82011682018060405250810190613717919061495f565b60cc546040516318b91ba160e31b81523060048201526001600160a01b038a81166024830152888116604483015260648201859052939550919350600092839291169063c5c8dd08906084016040805180830381865afa15801561377f573d6000803e3d6000fd5b505050506040513d601f19601f820116820180604052508101906137a39190614983565b915091508161381a5760405162461bcd60e51b815260206004820152603360248201527f546f6b656e426173653a20546f6b656e207365697a75726520646973616c6c6f60448201527f776564206279207269736b206d616e61676572000000000000000000000000006064820152608401610bb0565b80801561388e575060cf546040516310d5383b60e21b81523060048201526001600160a01b0390911690634354e0ec90602401602060405180830381865afa15801561386a573d6000803e3d6000fd5b505050506040513d601f19601f8201168201806040525081019061388e919061490e565b156139025761389d8685612c10565b6138a73085612d5e565b42600090815260db6020526040902080546001600160a01b038089166001600160a01b0319928316178355600183018054918b16919092161790556001600160801b03858116600160801b02908516176002909101556139bf565b600080600061391087612e3d565b9250925092506139208988612c10565b61392a8a84612d5e565b60d8819055604080516001600160a01b03808c1682528c1660208201529081018490527feac344312e08a6e34d3cb14733c432e8b20995a316e9abf4bc59640dc90d10ca9060600160405180910390a160408051308152602081018490529081018290527fa91e67c5ea634cd43a12c5a482724b03de01e85ca68702a53d0c2f45cb7c1dc59060600160405180910390a15050505b5050505050505050565b6139d161182d565b60cc5460405163368f515360e21b81523060048201526001600160a01b038481166024830152604482018490529091169063da3d454c906064016020604051808303816000875af1158015613a2a573d6000803e3d6000fd5b505050506040513d601f19601f82011682018060405250810190613a4e919061490e565b613aaf5760405162461bcd60e51b815260206004820152602c60248201527f546f6b656e426173653a20426f72726f7720646973616c6c6f7765642062792060448201526b3934b9b59036b0b730b3b2b960a11b6064820152608401610bb0565b4360d45414613b105760405162461bcd60e51b815260206004820152602760248201527f546f6b656e426173653a204d61726b6574207374617465206e6f7420796574206044820152661d5c19185d195960ca1b6064820152608401610bb0565b8060d65411613b715760405162461bcd60e51b815260206004820152602760248201527f546f6b656e426173653a204d61726b65742068617320696e73756666696369656044820152660dce840c6c2e6d60cb1b6064820152608401610bb0565b6000613b7c83611720565b90506000613b8a8383614889565b905060008360d754613b9c9190614889565b6001600160a01b038616600090815260d96020526040902083815560d55460019091015560d78190559050613bd1858561404b565b604080516001600160a01b038716815260208101869052908101839052606081018290527f13ed6866d4e1ee6da46f845c46d7e54120883d75c5ea9a2dacc1c4ca8984ab8090608001612377565b6001600160a01b03811660009081526099602052604090208054600181018255905b50919050565b6000610c82613c54612944565b8360405161190160f01b6020820152602281018390526042810182905260009060620160405160208183030381529060405280519060200120905092915050565b6000806000613ca6878787876140b8565b91509150613cb3816141a5565b5095945050505050565b600054610100900460ff16613d285760405162461bcd60e51b815260206004820152602b60248201527f496e697469616c697a61626c653a20636f6e7472616374206973206e6f74206960448201526a6e697469616c697a696e6760a81b6064820152608401610bb0565b613d318261435b565b613d3b82826143e9565b856001600160a01b031663a996e7ba6040518163ffffffff1660e01b81526004016020604051808303816000875af1158015613d7b573d6000803e3d6000fd5b505050506040513d601f19601f82011682018060405250810190613d9f919061490e565b613df75760405162461bcd60e51b8152602060048201526024808201527f546f6b656e426173653a204e6f74207269736b206d616e6167657220636f6e746044820152631c9858dd60e21b6064820152608401610bb0565b60cc80546001600160a01b0319166001600160a01b03888116919091179091554360d455670de0b6b3a764000060d555604080516310c8fc9560e11b8152905191871691632191f92a916004808201926020929091908290030181865afa158015613e66573d6000803e3d6000fd5b505050506040513d601f19601f82011682018060405250810190613e8a919061490e565b613efc5760405162461bcd60e51b815260206004820152602a60248201527f546f6b656e426173653a204e6f7420696e74657273742072617465206d6f646560448201527f6c20636f6e7472616374000000000000000000000000000000000000000000006064820152608401610bb0565b505060cd80546001600160a01b039485166001600160a01b03199182161790915560ce80549385169382169390931790925560cf805491909316908216179091556802b5e3af16b188000060d25560d080549091163317905550565b336001600160a01b03831614613fb05760405162461bcd60e51b815260206004820152601c60248201527f4645746865723a204e6f74206f776e6572206f66206163636f756e74000000006044820152606401610bb0565b803414613fff5760405162461bcd60e51b815260206004820152601f60248201527f4645746865723a204e6f7420656e6f7567682045544820737570706c696564006044820152606401610bb0565b8060d660008282546140119190614889565b90915550505050565b8051600090610c8290670de0b6b3a7640000906148d7565b6000670de0b6b3a7640000611779848460000151614094565b6040516001600160a01b0383169082156108fc029083906000818181858888f19350505050158015614081573d6000803e3d6000fd5b508060d6600082825461401191906148a1565b600061100782846148b8565b60006110078284614889565b600061100782846148d7565b6000807f7fffffffffffffffffffffffffffffff5d576e7357a4501ddfe92f46681b20a08311156140ef575060009050600361419c565b8460ff16601b1415801561410757508460ff16601c14155b15614118575060009050600461419c565b6040805160008082526020820180845289905260ff881692820192909252606081018690526080810185905260019060a0016020604051602081039080840390855afa15801561416c573d6000803e3d6000fd5b5050604051601f1901519150506001600160a01b0381166141955760006001925092505061419c565b9150600090505b94509492505050565b60008160048111156141b9576141b96149b6565b036141c15750565b60018160048111156141d5576141d56149b6565b036142225760405162461bcd60e51b815260206004820152601860248201527f45434453413a20696e76616c6964207369676e617475726500000000000000006044820152606401610bb0565b6002816004811115614236576142366149b6565b036142835760405162461bcd60e51b815260206004820152601f60248201527f45434453413a20696e76616c6964207369676e6174757265206c656e677468006044820152606401610bb0565b6003816004811115614297576142976149b6565b036142ef5760405162461bcd60e51b815260206004820152602260248201527f45434453413a20696e76616c6964207369676e6174757265202773272076616c604482015261756560f01b6064820152608401610bb0565b6004816004811115614303576143036149b6565b0361170e5760405162461bcd60e51b815260206004820152602260248201527f45434453413a20696e76616c6964207369676e6174757265202776272076616c604482015261756560f01b6064820152608401610bb0565b600054610100900460ff166143c65760405162461bcd60e51b815260206004820152602b60248201527f496e697469616c697a61626c653a20636f6e7472616374206973206e6f74206960448201526a6e697469616c697a696e6760a81b6064820152608401610bb0565b61170e81604051806040016040528060018152602001603160f81b81525061445e565b600054610100900460ff166144545760405162461bcd60e51b815260206004820152602b60248201527f496e697469616c697a61626c653a20636f6e7472616374206973206e6f74206960448201526a6e697469616c697a696e6760a81b6064820152608401610bb0565b611b2582826144e3565b600054610100900460ff166144c95760405162461bcd60e51b815260206004820152602b60248201527f496e697469616c697a61626c653a20636f6e7472616374206973206e6f74206960448201526a6e697469616c697a696e6760a81b6064820152608401610bb0565b815160209283012081519190920120606591909155606655565b600054610100900460ff1661454e5760405162461bcd60e51b815260206004820152602b60248201527f496e697469616c697a61626c653a20636f6e7472616374206973206e6f74206960448201526a6e697469616c697a696e6760a81b6064820152608401610bb0565b8151614561906036906020850190614571565b50805161202d9060379060208401905b82805461457d9061483f565b90600052602060002090601f01602090048101928261459f57600085556145e5565b82601f106145b857805160ff19168380011785556145e5565b828001600101855582156145e5579182015b828111156145e55782518255916020019190600101906145ca565b50610cee9291505b80821115610cee57600081556001016145ed565b600060208083528351808285015260005b8181101561462e57858101830151858201604001528201614612565b81811115614640576000604083870101525b50601f01601f1916929092016040019392505050565b6001600160a01b038116811461170e57600080fd5b6000806040838503121561467e57600080fd5b823561468981614656565b946020939093013593505050565b6000602082840312156146a957600080fd5b813561100781614656565b6000602082840312156146c657600080fd5b5035919050565b6000806000606084860312156146e257600080fd5b83356146ed81614656565b925060208401356146fd81614656565b929592945050506040919091013590565b6000806040838503121561472157600080fd5b823561472c81614656565b9150602083013561473c81614656565b809150509250929050565b6000806040838503121561475a57600080fd5b82359150602083013561473c81614656565b600080600080600080600060e0888a03121561478757600080fd5b873561479281614656565b965060208801356147a281614656565b95506040880135945060608801359350608088013560ff811681146147c657600080fd5b9699959850939692959460a0840135945060c09093013592915050565b600080600080608085870312156147f957600080fd5b843561480481614656565b9350602085013561481481614656565b9250604085013561482481614656565b9150606085013561483481614656565b939692955090935050565b600181811c9082168061485357607f821691505b602082108103613c4157634e487b7160e01b600052602260045260246000fd5b634e487b7160e01b600052601160045260246000fd5b6000821982111561489c5761489c614873565b500190565b6000828210156148b3576148b3614873565b500390565b60008160001904831182151516156148d2576148d2614873565b500290565b6000826148f457634e487b7160e01b600052601260045260246000fd5b500490565b8051801515811461490957600080fd5b919050565b60006020828403121561492057600080fd5b611007826148f9565b60006020828403121561493b57600080fd5b5051919050565b60006020828403121561495457600080fd5b815161100781614656565b6000806040838503121561497257600080fd5b505080516020909101519092909150565b6000806040838503121561499657600080fd5b61499f836148f9565b91506149ad602084016148f9565b90509250929050565b634e487b7160e01b600052602160045260246000fdfea164736f6c634300080d000a",
  "linkReferences": {},
  "deployedLinkReferences": {}
}