{
  "_format": "hh-sol-artifact-1",
  "contractName": "FErc20",
  "sourceName": "contracts/money-market/FErc20.sol",
  "abi": [
    {
      "anonymous": false,
      "inputs": [
        {
          "indexed": false,
          "internalType": "uint256",
          "name": "cashPrior",
          "type": "uint256"
        },
        {
          "indexed": false,
          "internalType": "uint256",
          "name": "interestAccumulated",
          "type": "uint256"
        },
        {
          "indexed": false,
          "internalType": "uint256",
          "name": "borrowIndex",
          "type": "uint256"
        },
        {
          "indexed": false,
          "internalType": "uint256",
          "name": "totalBorrows",
          "type": "uint256"
        }
      ],
      "name": "AccrueInterest",
      "type": "event"
    },
    {
      "anonymous": false,
      "inputs": [
        {
          "indexed": true,
          "internalType": "address",
          "name": "owner",
          "type": "address"
        },
        {
          "indexed": true,
          "internalType": "address",
          "name": "spender",
          "type": "address"
        },
        {
          "indexed": false,
          "internalType": "uint256",
          "name": "value",
          "type": "uint256"
        }
      ],
      "name": "Approval",
      "type": "event"
    },
    {
      "anonymous": false,
      "inputs": [
        {
          "indexed": false,
          "internalType": "address",
          "name": "borrower",
          "type": "address"
        },
        {
          "indexed": false,
          "internalType": "uint256",
          "name": "borrowAmount",
          "type": "uint256"
        },
        {
          "indexed": false,
          "internalType": "uint256",
          "name": "accountBorrows",
          "type": "uint256"
        },
        {
          "indexed": false,
          "internalType": "uint256",
          "name": "totalBorrows",
          "type": "uint256"
        }
      ],
      "name": "Borrow",
      "type": "event"
    },
    {
      "anonymous": false,
      "inputs": [
        {
          "indexed": false,
          "internalType": "uint8",
          "name": "version",
          "type": "uint8"
        }
      ],
      "name": "Initialized",
      "type": "event"
    },
    {
      "anonymous": false,
      "inputs": [
        {
          "indexed": false,
          "internalType": "address",
          "name": "liquidator",
          "type": "address"
        },
        {
          "indexed": false,
          "internalType": "address",
          "name": "borrower",
          "type": "address"
        },
        {
          "indexed": false,
          "internalType": "uint256",
          "name": "repayAmount",
          "type": "uint256"
        },
        {
          "indexed": false,
          "internalType": "address",
          "name": "fTokenCollateral",
          "type": "address"
        }
      ],
      "name": "LiquidateBorrow",
      "type": "event"
    },
    {
      "anonymous": false,
      "inputs": [
        {
          "indexed": false,
          "internalType": "address",
          "name": "oldAdmin",
          "type": "address"
        },
        {
          "indexed": false,
          "internalType": "address",
          "name": "newAdmin",
          "type": "address"
        }
      ],
      "name": "NewAdmin",
      "type": "event"
    },
    {
      "anonymous": false,
      "inputs": [
        {
          "indexed": false,
          "internalType": "address",
          "name": "oldPendingAdmin",
          "type": "address"
        },
        {
          "indexed": false,
          "internalType": "address",
          "name": "newPendingAdmin",
          "type": "address"
        }
      ],
      "name": "NewPendingAdmin",
      "type": "event"
    },
    {
      "anonymous": false,
      "inputs": [
        {
          "indexed": false,
          "internalType": "uint256",
          "name": "oldReserveFactor",
          "type": "uint256"
        },
        {
          "indexed": false,
          "internalType": "uint256",
          "name": "newReserveFactor",
          "type": "uint256"
        }
      ],
      "name": "NewReserveFactor",
      "type": "event"
    },
    {
      "anonymous": false,
      "inputs": [
        {
          "indexed": false,
          "internalType": "address",
          "name": "redeemer",
          "type": "address"
        },
        {
          "indexed": false,
          "internalType": "uint256",
          "name": "redeemAmount",
          "type": "uint256"
        },
        {
          "indexed": false,
          "internalType": "uint256",
          "name": "redeemTokens",
          "type": "uint256"
        }
      ],
      "name": "Redeem",
      "type": "event"
    },
    {
      "anonymous": false,
      "inputs": [
        {
          "indexed": false,
          "internalType": "address",
          "name": "payer",
          "type": "address"
        },
        {
          "indexed": false,
          "internalType": "address",
          "name": "borrower",
          "type": "address"
        },
        {
          "indexed": false,
          "internalType": "uint256",
          "name": "repayAmount",
          "type": "uint256"
        },
        {
          "indexed": false,
          "internalType": "uint256",
          "name": "accountBorrows",
          "type": "uint256"
        },
        {
          "indexed": false,
          "internalType": "uint256",
          "name": "totalBorrows",
          "type": "uint256"
        }
      ],
      "name": "RepayBorrow",
      "type": "event"
    },
    {
      "anonymous": false,
      "inputs": [
        {
          "indexed": false,
          "internalType": "address",
          "name": "benefactor",
          "type": "address"
        },
        {
          "indexed": false,
          "internalType": "uint256",
          "name": "addAmount",
          "type": "uint256"
        },
        {
          "indexed": false,
          "internalType": "uint256",
          "name": "newTotalReserves",
          "type": "uint256"
        }
      ],
      "name": "ReservesAdded",
      "type": "event"
    },
    {
      "anonymous": false,
      "inputs": [
        {
          "indexed": false,
          "internalType": "address",
          "name": "supplier",
          "type": "address"
        },
        {
          "indexed": false,
          "internalType": "uint256",
          "name": "supplyAmount",
          "type": "uint256"
        },
        {
          "indexed": false,
          "internalType": "uint256",
          "name": "tokensMinted",
          "type": "uint256"
        }
      ],
      "name": "Supply",
      "type": "event"
    },
    {
      "anonymous": false,
      "inputs": [
        {
          "indexed": false,
          "internalType": "address",
          "name": "from",
          "type": "address"
        },
        {
          "indexed": false,
          "internalType": "address",
          "name": "to",
          "type": "address"
        },
        {
          "indexed": false,
          "internalType": "uint256",
          "name": "amount",
          "type": "uint256"
        }
      ],
      "name": "TokenSeized",
      "type": "event"
    },
    {
      "anonymous": false,
      "inputs": [
        {
          "indexed": true,
          "internalType": "address",
          "name": "from",
          "type": "address"
        },
        {
          "indexed": true,
          "internalType": "address",
          "name": "to",
          "type": "address"
        },
        {
          "indexed": false,
          "internalType": "uint256",
          "name": "value",
          "type": "uint256"
        }
      ],
      "name": "Transfer",
      "type": "event"
    },
    {
      "inputs": [],
      "name": "DOMAIN_SEPARATOR",
      "outputs": [
        {
          "internalType": "bytes32",
          "name": "",
          "type": "bytes32"
        }
      ],
      "stateMutability": "view",
      "type": "function"
    },
    {
      "inputs": [],
      "name": "IS_FTOKEN",
      "outputs": [
        {
          "internalType": "bool",
          "name": "",
          "type": "bool"
        }
      ],
      "stateMutability": "view",
      "type": "function"
    },
    {
      "inputs": [],
      "name": "acceptAdmin",
      "outputs": [],
      "stateMutability": "nonpayable",
      "type": "function"
    },
    {
      "inputs": [],
      "name": "accrueInterest",
      "outputs": [],
      "stateMutability": "nonpayable",
      "type": "function"
    },
    {
      "inputs": [],
      "name": "admin",
      "outputs": [
        {
          "internalType": "address",
          "name": "",
          "type": "address"
        }
      ],
      "stateMutability": "view",
      "type": "function"
    },
    {
      "inputs": [
        {
          "internalType": "address",
          "name": "owner",
          "type": "address"
        },
        {
          "internalType": "address",
          "name": "spender",
          "type": "address"
        }
      ],
      "name": "allowance",
      "outputs": [
        {
          "internalType": "uint256",
          "name": "",
          "type": "uint256"
        }
      ],
      "stateMutability": "view",
      "type": "function"
    },
    {
      "inputs": [
        {
          "internalType": "address",
          "name": "spender",
          "type": "address"
        },
        {
          "internalType": "uint256",
          "name": "amount",
          "type": "uint256"
        }
      ],
      "name": "approve",
      "outputs": [
        {
          "internalType": "bool",
          "name": "",
          "type": "bool"
        }
      ],
      "stateMutability": "nonpayable",
      "type": "function"
    },
    {
      "inputs": [
        {
          "internalType": "address",
          "name": "account",
          "type": "address"
        }
      ],
      "name": "balanceOf",
      "outputs": [
        {
          "internalType": "uint256",
          "name": "",
          "type": "uint256"
        }
      ],
      "stateMutability": "view",
      "type": "function"
    },
    {
      "inputs": [
        {
          "internalType": "address",
          "name": "_account",
          "type": "address"
        }
      ],
      "name": "balanceOfUnderlying",
      "outputs": [
        {
          "internalType": "uint256",
          "name": "",
          "type": "uint256"
        }
      ],
      "stateMutability": "nonpayable",
      "type": "function"
    },
    {
      "inputs": [
        {
          "internalType": "uint256",
          "name": "_borrowAmount",
          "type": "uint256"
        }
      ],
      "name": "borrow",
      "outputs": [],
      "stateMutability": "nonpayable",
      "type": "function"
    },
    {
      "inputs": [
        {
          "internalType": "address",
          "name": "_account",
          "type": "address"
        }
      ],
      "name": "borrowBalanceCurrent",
      "outputs": [
        {
          "internalType": "uint256",
          "name": "",
          "type": "uint256"
        }
      ],
      "stateMutability": "nonpayable",
      "type": "function"
    },
    {
      "inputs": [
        {
          "internalType": "address",
          "name": "_account",
          "type": "address"
        }
      ],
      "name": "borrowBalanceStored",
      "outputs": [
        {
          "internalType": "uint256",
          "name": "",
          "type": "uint256"
        }
      ],
      "stateMutability": "view",
      "type": "function"
    },
    {
      "inputs": [],
      "name": "borrowIndex",
      "outputs": [
        {
          "internalType": "uint256",
          "name": "",
          "type": "uint256"
        }
      ],
      "stateMutability": "view",
      "type": "function"
    },
    {
      "inputs": [],
      "name": "borrowRatePerBlock",
      "outputs": [
        {
          "internalType": "uint256",
          "name": "",
          "type": "uint256"
        }
      ],
      "stateMutability": "view",
      "type": "function"
    },
    {
      "inputs": [],
      "name": "checker",
      "outputs": [
        {
          "internalType": "contract IChecker",
          "name": "",
          "type": "address"
        }
      ],
      "stateMutability": "view",
      "type": "function"
    },
    {
      "inputs": [
        {
          "internalType": "uint256",
          "name": "_timestamp",
          "type": "uint256"
        }
      ],
      "name": "claimLiquidation",
      "outputs": [],
      "stateMutability": "nonpayable",
      "type": "function"
    },
    {
      "inputs": [],
      "name": "decimals",
      "outputs": [
        {
          "internalType": "uint8",
          "name": "",
          "type": "uint8"
        }
      ],
      "stateMutability": "view",
      "type": "function"
    },
    {
      "inputs": [
        {
          "internalType": "address",
          "name": "spender",
          "type": "address"
        },
        {
          "internalType": "uint256",
          "name": "subtractedValue",
          "type": "uint256"
        }
      ],
      "name": "decreaseAllowance",
      "outputs": [
        {
          "internalType": "bool",
          "name": "",
          "type": "bool"
        }
      ],
      "stateMutability": "nonpayable",
      "type": "function"
    },
    {
      "inputs": [],
      "name": "exchangeRateCurrent",
      "outputs": [
        {
          "internalType": "uint256",
          "name": "",
          "type": "uint256"
        }
      ],
      "stateMutability": "nonpayable",
      "type": "function"
    },
    {
      "inputs": [],
      "name": "exchangeRateStored",
      "outputs": [
        {
          "internalType": "uint256",
          "name": "",
          "type": "uint256"
        }
      ],
      "stateMutability": "view",
      "type": "function"
    },
    {
      "inputs": [
        {
          "internalType": "address",
          "name": "_account",
          "type": "address"
        }
      ],
      "name": "getAccountSnapshot",
      "outputs": [
        {
          "internalType": "uint256",
          "name": "",
          "type": "uint256"
        },
        {
          "internalType": "uint256",
          "name": "",
          "type": "uint256"
        },
        {
          "internalType": "uint256",
          "name": "",
          "type": "uint256"
        }
      ],
      "stateMutability": "view",
      "type": "function"
    },
    {
      "inputs": [],
      "name": "getLastAccrualBlock",
      "outputs": [
        {
          "internalType": "uint256",
          "name": "",
          "type": "uint256"
        }
      ],
      "stateMutability": "view",
      "type": "function"
    },
    {
      "inputs": [],
      "name": "getRiskManager",
      "outputs": [
        {
          "internalType": "address",
          "name": "",
          "type": "address"
        }
      ],
      "stateMutability": "view",
      "type": "function"
    },
    {
      "inputs": [],
      "name": "getUnderlying",
      "outputs": [
        {
          "internalType": "address",
          "name": "",
          "type": "address"
        }
      ],
      "stateMutability": "view",
      "type": "function"
    },
    {
      "inputs": [
        {
          "internalType": "address",
          "name": "spender",
          "type": "address"
        },
        {
          "internalType": "uint256",
          "name": "addedValue",
          "type": "uint256"
        }
      ],
      "name": "increaseAllowance",
      "outputs": [
        {
          "internalType": "bool",
          "name": "",
          "type": "bool"
        }
      ],
      "stateMutability": "nonpayable",
      "type": "function"
    },
    {
      "inputs": [
        {
          "internalType": "address",
          "name": "_underlying",
          "type": "address"
        },
        {
          "internalType": "address",
          "name": "_riskManager",
          "type": "address"
        },
        {
          "internalType": "address",
          "name": "_interestRateModel",
          "type": "address"
        },
        {
          "internalType": "address",
          "name": "_priceOracle",
          "type": "address"
        },
        {
          "internalType": "address",
          "name": "_checker",
          "type": "address"
        },
        {
          "internalType": "string",
          "name": "_name",
          "type": "string"
        },
        {
          "internalType": "string",
          "name": "_symbol",
          "type": "string"
        }
      ],
      "name": "initialize",
      "outputs": [],
      "stateMutability": "nonpayable",
      "type": "function"
    },
    {
      "inputs": [],
      "name": "interestRateModel",
      "outputs": [
        {
          "internalType": "contract IInterestRateModel",
          "name": "",
          "type": "address"
        }
      ],
      "stateMutability": "view",
      "type": "function"
    },
    {
      "inputs": [],
      "name": "isFToken",
      "outputs": [
        {
          "internalType": "bool",
          "name": "",
          "type": "bool"
        }
      ],
      "stateMutability": "pure",
      "type": "function"
    },
    {
      "inputs": [],
      "name": "lastAccrualBlock",
      "outputs": [
        {
          "internalType": "uint256",
          "name": "",
          "type": "uint256"
        }
      ],
      "stateMutability": "view",
      "type": "function"
    },
    {
      "inputs": [
        {
          "internalType": "address",
          "name": "_borrower",
          "type": "address"
        },
        {
          "internalType": "uint256",
          "name": "_repayAmount",
          "type": "uint256"
        },
        {
          "internalType": "address",
          "name": "_fTokenCollateral",
          "type": "address"
        }
      ],
      "name": "liquidateBorrow",
      "outputs": [],
      "stateMutability": "nonpayable",
      "type": "function"
    },
    {
      "inputs": [
        {
          "internalType": "uint256",
          "name": "",
          "type": "uint256"
        }
      ],
      "name": "liquidationProtection",
      "outputs": [
        {
          "internalType": "address",
          "name": "borrower",
          "type": "address"
        },
        {
          "internalType": "address",
          "name": "liquidator",
          "type": "address"
        },
        {
          "internalType": "uint128",
          "name": "value",
          "type": "uint128"
        },
        {
          "internalType": "uint128",
          "name": "tokenSeized",
          "type": "uint128"
        }
      ],
      "stateMutability": "view",
      "type": "function"
    },
    {
      "inputs": [],
      "name": "name",
      "outputs": [
        {
          "internalType": "string",
          "name": "",
          "type": "string"
        }
      ],
      "stateMutability": "view",
      "type": "function"
    },
    {
      "inputs": [
        {
          "internalType": "address",
          "name": "owner",
          "type": "address"
        }
      ],
      "name": "nonces",
      "outputs": [
        {
          "internalType": "uint256",
          "name": "",
          "type": "uint256"
        }
      ],
      "stateMutability": "view",
      "type": "function"
    },
    {
      "inputs": [],
      "name": "oracle",
      "outputs": [
        {
          "internalType": "contract IPriceOracle",
          "name": "",
          "type": "address"
        }
      ],
      "stateMutability": "view",
      "type": "function"
    },
    {
      "inputs": [],
      "name": "pendingAdmin",
      "outputs": [
        {
          "internalType": "address",
          "name": "",
          "type": "address"
        }
      ],
      "stateMutability": "view",
      "type": "function"
    },
    {
      "inputs": [
        {
          "internalType": "address",
          "name": "owner",
          "type": "address"
        },
        {
          "internalType": "address",
          "name": "spender",
          "type": "address"
        },
        {
          "internalType": "uint256",
          "name": "value",
          "type": "uint256"
        },
        {
          "internalType": "uint256",
          "name": "deadline",
          "type": "uint256"
        },
        {
          "internalType": "uint8",
          "name": "v",
          "type": "uint8"
        },
        {
          "internalType": "bytes32",
          "name": "r",
          "type": "bytes32"
        },
        {
          "internalType": "bytes32",
          "name": "s",
          "type": "bytes32"
        }
      ],
      "name": "permit",
      "outputs": [],
      "stateMutability": "nonpayable",
      "type": "function"
    },
    {
      "inputs": [],
      "name": "protocolSeizeShareMantissa",
      "outputs": [
        {
          "internalType": "uint256",
          "name": "",
          "type": "uint256"
        }
      ],
      "stateMutability": "view",
      "type": "function"
    },
    {
      "inputs": [
        {
          "internalType": "uint256",
          "name": "_redeemTokens",
          "type": "uint256"
        }
      ],
      "name": "redeem",
      "outputs": [],
      "stateMutability": "nonpayable",
      "type": "function"
    },
    {
      "inputs": [
        {
          "internalType": "uint256",
          "name": "_redeemAmount",
          "type": "uint256"
        }
      ],
      "name": "redeemUnderlying",
      "outputs": [],
      "stateMutability": "nonpayable",
      "type": "function"
    },
    {
      "inputs": [
        {
          "internalType": "uint256",
          "name": "_repayAmount",
          "type": "uint256"
        }
      ],
      "name": "repayBorrow",
      "outputs": [],
      "stateMutability": "nonpayable",
      "type": "function"
    },
    {
      "inputs": [
        {
          "internalType": "address",
          "name": "_borrower",
          "type": "address"
        },
        {
          "internalType": "uint256",
          "name": "_repayAmount",
          "type": "uint256"
        }
      ],
      "name": "repayBorrowBehalf",
      "outputs": [],
      "stateMutability": "nonpayable",
      "type": "function"
    },
    {
      "inputs": [
        {
          "internalType": "uint256",
          "name": "_timestamp",
          "type": "uint256"
        },
        {
          "internalType": "address",
          "name": "_fToken",
          "type": "address"
        }
      ],
      "name": "repayLiquidationWithErc",
      "outputs": [],
      "stateMutability": "nonpayable",
      "type": "function"
    },
    {
      "inputs": [
        {
          "internalType": "uint256",
          "name": "_timestamp",
          "type": "uint256"
        }
      ],
      "name": "repayLiquidationWithEth",
      "outputs": [],
      "stateMutability": "payable",
      "type": "function"
    },
    {
      "inputs": [],
      "name": "reserveFactorMantissa",
      "outputs": [
        {
          "internalType": "uint256",
          "name": "",
          "type": "uint256"
        }
      ],
      "stateMutability": "view",
      "type": "function"
    },
    {
      "inputs": [],
      "name": "riskManager",
      "outputs": [
        {
          "internalType": "contract IRiskManager",
          "name": "",
          "type": "address"
        }
      ],
      "stateMutability": "view",
      "type": "function"
    },
    {
      "inputs": [
        {
          "internalType": "address",
          "name": "_liquidator",
          "type": "address"
        },
        {
          "internalType": "address",
          "name": "_borrower",
          "type": "address"
        },
        {
          "internalType": "uint256",
          "name": "_repayAmount",
          "type": "uint256"
        }
      ],
      "name": "seize",
      "outputs": [],
      "stateMutability": "nonpayable",
      "type": "function"
    },
    {
      "inputs": [
        {
          "internalType": "address",
          "name": "_newPendingAdmin",
          "type": "address"
        }
      ],
      "name": "setPendingAdmin",
      "outputs": [],
      "stateMutability": "nonpayable",
      "type": "function"
    },
    {
      "inputs": [
        {
          "internalType": "uint256",
          "name": "_newReserveFactorMantissa",
          "type": "uint256"
        }
      ],
      "name": "setReserveFactor",
      "outputs": [],
      "stateMutability": "nonpayable",
      "type": "function"
    },
    {
      "inputs": [
        {
          "internalType": "uint256",
          "name": "_supplyAmount",
          "type": "uint256"
        }
      ],
      "name": "supply",
      "outputs": [],
      "stateMutability": "nonpayable",
      "type": "function"
    },
    {
      "inputs": [],
      "name": "supplyRatePerBlock",
      "outputs": [
        {
          "internalType": "uint256",
          "name": "",
          "type": "uint256"
        }
      ],
      "stateMutability": "view",
      "type": "function"
    },
    {
      "inputs": [],
      "name": "symbol",
      "outputs": [
        {
          "internalType": "string",
          "name": "",
          "type": "string"
        }
      ],
      "stateMutability": "view",
      "type": "function"
    },
    {
      "inputs": [],
      "name": "totalBorrows",
      "outputs": [
        {
          "internalType": "uint256",
          "name": "",
          "type": "uint256"
        }
      ],
      "stateMutability": "view",
      "type": "function"
    },
    {
      "inputs": [],
      "name": "totalBorrowsCurrent",
      "outputs": [
        {
          "internalType": "uint256",
          "name": "",
          "type": "uint256"
        }
      ],
      "stateMutability": "nonpayable",
      "type": "function"
    },
    {
      "inputs": [],
      "name": "totalCash",
      "outputs": [
        {
          "internalType": "uint256",
          "name": "",
          "type": "uint256"
        }
      ],
      "stateMutability": "view",
      "type": "function"
    },
    {
      "inputs": [],
      "name": "totalReserves",
      "outputs": [
        {
          "internalType": "uint256",
          "name": "",
          "type": "uint256"
        }
      ],
      "stateMutability": "view",
      "type": "function"
    },
    {
      "inputs": [],
      "name": "totalSupply",
      "outputs": [
        {
          "internalType": "uint256",
          "name": "",
          "type": "uint256"
        }
      ],
      "stateMutability": "view",
      "type": "function"
    },
    {
      "inputs": [
        {
          "internalType": "address",
          "name": "to",
          "type": "address"
        },
        {
          "internalType": "uint256",
          "name": "amount",
          "type": "uint256"
        }
      ],
      "name": "transfer",
      "outputs": [
        {
          "internalType": "bool",
          "name": "",
          "type": "bool"
        }
      ],
      "stateMutability": "nonpayable",
      "type": "function"
    },
    {
      "inputs": [
        {
          "internalType": "address",
          "name": "from",
          "type": "address"
        },
        {
          "internalType": "address",
          "name": "to",
          "type": "address"
        },
        {
          "internalType": "uint256",
          "name": "amount",
          "type": "uint256"
        }
      ],
      "name": "transferFrom",
      "outputs": [
        {
          "internalType": "bool",
          "name": "",
          "type": "bool"
        }
      ],
      "stateMutability": "nonpayable",
      "type": "function"
    },
    {
      "inputs": [],
      "name": "underlying",
      "outputs": [
        {
          "internalType": "address",
          "name": "",
          "type": "address"
        }
      ],
      "stateMutability": "view",
      "type": "function"
    }
  ],
  "bytecode": "0x608060405234801561001057600080fd5b50614ad3806100206000396000f3fe60806040526004361061038c5760003560e01c806370a08231116101dc578063b07797bb11610102578063d505accf116100a0578063f3fdb15a1161006f578063f3fdb15a14610aa2578063f5e3c46214610ac2578063f851a44014610ae2578063f8f9da2814610b0257600080fd5b8063d505accf146109fe578063d71f05e614610a1e578063db006a7514610a3c578063dd62ed3e14610a5c57600080fd5b8063bee12d53116100dc578063bee12d531461096d578063c37f68e214610983578063c5ebeaec146109be578063cf5303cf146109de57600080fd5b8063b07797bb14610918578063b2a02ff114610938578063bd6d894d1461095857600080fd5b806395d89b411161017a578063a6afed9511610149578063a6afed95146108b8578063a9059cbb146108cd578063aa5af0fd146108ed578063ae9d70b01461090357600080fd5b806395d89b411461084557806395dd91931461085a5780639816f4731461087a578063a457c2d71461089857600080fd5b80637dc0d1d0116101b65780637dc0d1d0146107cf5780637ecebe00146107ef578063852a12e31461080f5780638f840ddd1461082f57600080fd5b806370a0823114610764578063732c80091461079a57806373acee98146107ba57600080fd5b8063313ce567116102c15780634dd18bf51161025f578063571f09101161022e578063571f09101461067757806362b59562146106975780636752e7021461072e5780636f307dc31461074457600080fd5b80634dd18bf51461061b578063511842d31461063b578063542a1f0b1461065057806354a8b2fb1461066457600080fd5b8063395093511161029b57806339509351146105a55780633af9e669146105c557806347842663146105e557806347bd37181461060557600080fd5b8063313ce5671461055457806335403023146105705780633644e5151461059057600080fd5b8063182df0f51161032e57806323b872dd1161030857806323b872dd146104c7578063252e1a0b146104e75780632608f818146104fc578063267822471461051c57600080fd5b8063182df0f51461047c5780631c446983146104915780631f46eaae146104b157600080fd5b80630e7527021161036a5780630e75270214610403578063173b99041461042357806317bfdfbc1461044757806318160ddd1461046757600080fd5b806306fdde0314610391578063095ea7b3146103bc5780630e18b681146103ec575b600080fd5b34801561039d57600080fd5b506103a6610b17565b6040516103b391906145b1565b60405180910390f35b3480156103c857600080fd5b506103dc6103d736600461461b565b610ba9565b60405190151581526020016103b3565b3480156103f857600080fd5b50610401610bc1565b005b34801561040f57600080fd5b5061040161041e366004614647565b610cd6565b34801561042f57600080fd5b5061043960d35481565b6040519081526020016103b3565b34801561045357600080fd5b50610439610462366004614660565b610ce4565b34801561047357600080fd5b50603554610439565b34801561048857600080fd5b50610439610cfd565b34801561049d57600080fd5b506104016104ac366004614647565b610d67565b3480156104bd57600080fd5b5061043960d45481565b3480156104d357600080fd5b506103dc6104e236600461467d565b610ec9565b3480156104f357600080fd5b506103dc600181565b34801561050857600080fd5b5061040161051736600461461b565b610fec565b34801561052857600080fd5b5060d15461053c906001600160a01b031681565b6040516001600160a01b0390911681526020016103b3565b34801561056057600080fd5b50604051601281526020016103b3565b34801561057c57600080fd5b5061040161058b366004614647565b610ffb565b34801561059c57600080fd5b50610439611005565b3480156105b157600080fd5b506103dc6105c036600461461b565b611014565b3480156105d157600080fd5b506104396105e0366004614660565b611053565b3480156105f157600080fd5b5060cc5461053c906001600160a01b031681565b34801561061157600080fd5b5061043960d75481565b34801561062757600080fd5b50610401610636366004614660565b61109c565b34801561064757600080fd5b5060d454610439565b34801561065c57600080fd5b5060016103dc565b610401610672366004614647565b611150565b34801561068357600080fd5b50610401610692366004614761565b6113d9565b3480156106a357600080fd5b506106f46106b2366004614647565b60db602052600090815260409020805460018201546002909201546001600160a01b0391821692909116906001600160801b0380821691600160801b90041684565b604080516001600160a01b0395861681529490931660208501526001600160801b03918216928401929092521660608201526080016103b3565b34801561073a57600080fd5b5061043960da5481565b34801561075057600080fd5b5060dc5461053c906001600160a01b031681565b34801561077057600080fd5b5061043961077f366004614660565b6001600160a01b031660009081526033602052604090205490565b3480156107a657600080fd5b506104016107b5366004614647565b611521565b3480156107c657600080fd5b506104396117ea565b3480156107db57600080fd5b5060ce5461053c906001600160a01b031681565b3480156107fb57600080fd5b5061043961080a366004614660565b6117fb565b34801561081b57600080fd5b5061040161082a366004614647565b611819565b34801561083b57600080fd5b5061043960d85481565b34801561085157600080fd5b506103a6611825565b34801561086657600080fd5b50610439610875366004614660565b611834565b34801561088657600080fd5b5060dc546001600160a01b031661053c565b3480156108a457600080fd5b506103dc6108b336600461461b565b611897565b3480156108c457600080fd5b50610401611941565b3480156108d957600080fd5b506103dc6108e836600461461b565b611b1c565b3480156108f957600080fd5b5061043960d55481565b34801561090f57600080fd5b50610439611c2d565b34801561092457600080fd5b50610401610933366004614822565b611cbb565b34801561094457600080fd5b5061040161095336600461467d565b612125565b34801561096457600080fd5b50610439612136565b34801561097957600080fd5b5061043960d65481565b34801561098f57600080fd5b506109a361099e366004614660565b612148565b604080519384526020840192909252908201526060016103b3565b3480156109ca57600080fd5b506104016109d9366004614647565b61218a565b3480156109ea57600080fd5b5060cf5461053c906001600160a01b031681565b348015610a0a57600080fd5b50610401610a19366004614852565b612194565b348015610a2a57600080fd5b5060cc546001600160a01b031661053c565b348015610a4857600080fd5b50610401610a57366004614647565b6122f8565b348015610a6857600080fd5b50610439610a773660046148c9565b6001600160a01b03918216600090815260346020908152604080832093909416825291909152205490565b348015610aae57600080fd5b5060cd5461053c906001600160a01b031681565b348015610ace57600080fd5b50610401610add3660046148f7565b612304565b348015610aee57600080fd5b5060d05461053c906001600160a01b031681565b348015610b0e57600080fd5b50610439612310565b606060368054610b2690614939565b80601f0160208091040260200160405190810160405280929190818152602001828054610b5290614939565b8015610b9f5780601f10610b7457610100808354040283529160200191610b9f565b820191906000526020600020905b815481529060010190602001808311610b8257829003601f168201915b5050505050905090565b600033610bb7818585612359565b5060019392505050565b60d1546001600160a01b03163314610c205760405162461bcd60e51b815260206004820152601c60248201527f546f6b656e426173653a204e6f742070656e64696e672061646d696e0000000060448201526064015b60405180910390fd5b60d0805460d180546001600160a01b038082166001600160a01b031980861682179096559490911690915560408051919092168082526020820184905292917ff9ffabca9c8276e99321725bcb43fb076a6c66a54b7f21c4e8146d8519b417dc910160405180910390a160d154604080516001600160a01b03808516825290921660208301527fca4f2f25d0898edd99413412fb94012f9e54ec8142f9b093e7720646a95b16a991015b60405180910390a15050565b610ce133338361247d565b50565b6000610cee611941565b610cf782611834565b92915050565b600080610d0960355490565b905080600003610d1b57505060d25490565b600060d85460d75460d654610d309190614983565b610d3a919061499b565b9050600082610d51670de0b6b3a7640000846149b2565b610d5b91906149d1565b949350505050565b5090565b60d0546001600160a01b03163314610dc15760405162461bcd60e51b815260206004820152601660248201527f4e6f7420617574686f72697a656420746f2063616c6c000000000000000000006044820152606401610c17565b610dc9611941565b4360d45414610e2a5760405162461bcd60e51b815260206004820152602760248201527f546f6b656e426173653a204d61726b6574207374617465206e6f7420796574206044820152661d5c19185d195960ca1b6064820152608401610c17565b670de0b6b3a76400008110610e8b5760405162461bcd60e51b815260206004820152602160248201527f546f6b656e426173653a20496e76616c6964207265736572766520666163746f6044820152603960f91b6064820152608401610c17565b60d380549082905560408051828152602081018490527faaa68312e2ea9d50e16af5068410ab56e1a1fd06037b1a35664812c30f8214609101610cca565b6000610ed3611941565b60cc546040517fff125c8a0000000000000000000000000000000000000000000000000000000081523060048201526001600160a01b038681166024830152604482018590529091169063ff125c8a90606401602060405180830381865afa158015610f43573d6000803e3d6000fd5b505050506040513d601f19601f82011682018060405250810190610f679190614a08565b610fca5760405162461bcd60e51b815260206004820152602e60248201527f546f6b656e426173653a205472616e7366657220646973616c6c6f776564206260448201526d3c903934b9b59036b0b730b3b2b960911b6064820152608401610c17565b33610fd68582856126b6565b610fe1858585612748565b506001949350505050565b610ff733838361247d565b5050565b610ce13382612945565b600061100f612b06565b905090565b3360008181526034602090815260408083206001600160a01b0387168452909152812054909190610bb7908290869061104e908790614983565b612359565b6000806040518060200160405280611069612136565b9052905061109581611090856001600160a01b031660009081526033602052604090205490565b612b81565b9392505050565b60d0546001600160a01b031633146110f65760405162461bcd60e51b815260206004820152601660248201527f4e6f7420617574686f72697a656420746f2063616c6c000000000000000000006044820152606401610c17565b60d180546001600160a01b038381166001600160a01b031983168117909355604080519190921680825260208201939093527fca4f2f25d0898edd99413412fb94012f9e54ec8142f9b093e7720646a95b16a99101610cca565b600081815260db6020908152604091829020825160808101845281546001600160a01b03908116825260018301541692810192909252600201546001600160801b0380821693830193909352600160801b900490911660608201526111b88262015180614983565b42106112065760405162461bcd60e51b815260206004820152601c60248201527f546f6b656e426173653a2054696d65206c696d697420706173736564000000006044820152606401610c17565b80604001516001600160801b03166000036112895760405162461bcd60e51b815260206004820152603860248201527f546f6b656e426173653a204c69717569646174696f6e2070726f74656374696f60448201527f6e20636c6f736564202f206e65766572206578697374656400000000000000006064820152608401610c17565b6000606482604001516001600160801b031660786112a791906149b2565b6112b191906149d1565b9050803410156113035760405162461bcd60e51b815260206004820152601f60248201527f546f6b656e426173653a204e6f7420656e6f7567682045544820676976656e006044820152606401610c17565b600061130f823461499b565b60208401516040519192506001600160a01b03169083156108fc029084906000818181858888f1935050505015801561134c573d6000803e3d6000fd5b50801561138257604051339082156108fc029083906000818181858888f19350505050158015611380573d6000803e3d6000fd5b505b60608301516001600160801b031661139a3082612b99565b83516113a69082612ce7565b50505060009182525060db6020526040812080546001600160a01b03199081168255600182018054909116905560020155565b600054610100900460ff16158080156113f95750600054600160ff909116105b806114135750303b158015611413575060005460ff166001145b6114855760405162461bcd60e51b815260206004820152602e60248201527f496e697469616c697a61626c653a20636f6e747261637420697320616c72656160448201527f647920696e697469616c697a65640000000000000000000000000000000000006064820152608401610c17565b6000805460ff1916600117905580156114a8576000805461ff0019166101001790555b6114b6878787878787612dc6565b60dc80546001600160a01b0319166001600160a01b038a161790558015611517576000805461ff0019169055604051600181527f7f26b83ff96e1f2b6a682f133852f6798a09c465da95921460cefb38474024989060200160405180910390a15b5050505050505050565b600081815260db6020908152604091829020825160808101845281546001600160a01b03908116825260018301541692810192909252600201546001600160801b0380821693830193909352600160801b900490911660608201526115898262015180614983565b42116115d75760405162461bcd60e51b815260206004820181905260248201527f546f6b656e426173653a2054696d65206c696d6974206e6f74207061737365646044820152606401610c17565b80604001516001600160801b031660000361165a5760405162461bcd60e51b815260206004820152603860248201527f546f6b656e426173653a204c69717569646174696f6e2070726f74656374696f60448201527f6e20636c6f736564202f206e65766572206578697374656400000000000000006064820152608401610c17565b80602001516001600160a01b0316336001600160a01b0316146116e55760405162461bcd60e51b815260206004820152602d60248201527f546f6b656e426173653a204e6f74206c697175696461746f72206f662074686960448201527f73206c69717569646174696f6e000000000000000000000000000000000000006064820152608401610c17565b60608101516001600160801b03166000808061170084613061565b9250925092506117103085612b99565b61171a3384612ce7565b60d88190558451602080870151604080516001600160a01b039485168152939091169183019190915281018490527feac344312e08a6e34d3cb14733c432e8b20995a316e9abf4bc59640dc90d10ca9060600160405180910390a160408051308152602081018490529081018290527fa91e67c5ea634cd43a12c5a482724b03de01e85ca68702a53d0c2f45cb7c1dc59060600160405180910390a15050506000928352505060db6020526040812080546001600160a01b03199081168255600182018054909116905560020155565b60006117f4611941565b5060d75490565b6001600160a01b038116600090815260996020526040812054610cf7565b610ce1336000836130cc565b606060378054610b2690614939565b6001600160a01b038116600090815260d96020908152604080832081518083019092528054808352600190910154928201929092529082036118795750600092915050565b602081015160d554825161188d91906149b2565b61109591906149d1565b3360008181526034602090815260408083206001600160a01b0387168452909152812054909190838110156119345760405162461bcd60e51b815260206004820152602560248201527f45524332303a2064656372656173656420616c6c6f77616e63652062656c6f7760448201527f207a65726f0000000000000000000000000000000000000000000000000000006064820152608401610c17565b610fe18286868403612359565b60d4544390818103611951575050565b60d65460d75460d85460d55460cd546040516315f2405360e01b81526004810186905260248101859052604481018490526000916001600160a01b0316906315f2405390606401602060405180830381865afa1580156119b5573d6000803e3d6000fd5b505050506040513d601f19601f820116820180604052508101906119d99190614a23565b905065048c27395000811115611a315760405162461bcd60e51b815260206004820152601c60248201527f626f72726f772072617465206973206162737572646c792068696768000000006044820152606401610c17565b6000611a3d878961499b565b90506000611a596040518060200160405280858152508361339b565b90506000611a688286876133cc565b9050600085611a77838a6149b2565b611a8191906149d1565b90506000611a8f898361499b565b90506000611aae604051806020016040528060d354815250838b6133cc565b60d48e905560d585905560d784905560d8819055604080518d815260208101859052908101869052606081018590529091507f4dec04e750ca11537cabcd8a9eab06494de08da3735bc8871cd41250e190bc049060800160405180910390a150505050505050505050505050565b6000611b26611941565b60003360cc546040517fff125c8a0000000000000000000000000000000000000000000000000000000081523060048201526001600160a01b0380841660248301526044820187905292935091169063ff125c8a90606401602060405180830381865afa158015611b9b573d6000803e3d6000fd5b505050506040513d601f19601f82011682018060405250810190611bbf9190614a08565b611c225760405162461bcd60e51b815260206004820152602e60248201527f546f6b656e426173653a205472616e7366657220646973616c6c6f776564206260448201526d3c903934b9b59036b0b730b3b2b960911b6064820152608401610c17565b610bb7818585612748565b60cd5460d65460d75460d85460d354604051635c0b440b60e11b815260048101949094526024840192909252604483015260648201526000916001600160a01b03169063b8168816906084015b602060405180830381865afa158015611c97573d6000803e3d6000fd5b505050506040513d601f19601f8201168201806040525081019061100f9190614a23565b600082815260db6020908152604091829020825160808101845281546001600160a01b03908116825260018301541692810192909252600201546001600160801b0380821693830193909352600160801b90049091166060820152611d238362015180614983565b4210611d715760405162461bcd60e51b815260206004820152601c60248201527f546f6b656e426173653a2054696d65206c696d697420706173736564000000006044820152606401610c17565b60cc5460405163384cf1d760e01b81526001600160a01b0384811660048301529091169063384cf1d790602401602060405180830381865afa158015611dbb573d6000803e3d6000fd5b505050506040513d601f19601f82011682018060405250810190611ddf9190614a08565b611e2b5760405162461bcd60e51b815260206004820152601c60248201527f546f6b656e426173653a204d61726b6574206e6f74206c6973746564000000006044820152606401610c17565b80604001516001600160801b0316600003611eae5760405162461bcd60e51b815260206004820152603860248201527f546f6b656e426173653a204c69717569646174696f6e2070726f74656374696f60448201527f6e20636c6f736564202f206e65766572206578697374656400000000000000006064820152608401610c17565b80516001600160a01b03163314611f2d5760405162461bcd60e51b815260206004820152602b60248201527f546f6b656e426173653a204e6f7420626f72726f776572206f6620746869732060448201527f6c69717569646174696f6e0000000000000000000000000000000000000000006064820152608401610c17565b6000606482604001516001600160801b03166078611f4b91906149b2565b611f5591906149d1565b90506000836001600160a01b0316639816f4736040518163ffffffff1660e01b8152600401602060405180830381865afa158015611f97573d6000803e3d6000fd5b505050506040513d601f19601f82011682018060405250810190611fbb9190614a3c565b60ce5460405163fc57d4df60e01b81526001600160a01b0387811660048301529293506000929091169063fc57d4df90602401602060405180830381865afa15801561200b573d6000803e3d6000fd5b505050506040513d601f19601f8201168201806040525081019061202f9190614a23565b9050600061204b846040518060200160405280858152506133f6565b60208601516040516323b872dd60e01b81523360048201526001600160a01b039182166024820152604481018390529192508416906323b872dd906064016020604051808303816000875af11580156120a8573d6000803e3d6000fd5b505050506040513d601f19601f820116820180604052508101906120cc9190614a08565b5060608501516001600160801b03166120e53082612b99565b6120ef3382612ce7565b5050506000948552505060db60205250506040812080546001600160a01b03199081168255600182018054909116905560020155565b61213133848484613414565b505050565b6000612140611941565b61100f610cfd565b600080600061216c846001600160a01b031660009081526033602052604090205490565b61217585611834565b61217d610cfd565b9250925092509193909250565b610ce1338261374b565b834211156121e45760405162461bcd60e51b815260206004820152601d60248201527f45524332305065726d69743a206578706972656420646561646c696e650000006044820152606401610c17565b60007f6e71edae12b1b97f4d1f60370fef10105fa2faae0126114a169c64845d6126c98888886122138c6139ac565b6040805160208101969096526001600160a01b0394851690860152929091166060840152608083015260a082015260c0810186905260e001604051602081830303815290604052805190602001209050600061226e826139d4565b9050600061227e82878787613a22565b9050896001600160a01b0316816001600160a01b0316146122e15760405162461bcd60e51b815260206004820152601e60248201527f45524332305065726d69743a20696e76616c6964207369676e617475726500006044820152606401610c17565b6122ec8a8a8a612359565b50505050505050505050565b610ce1338260006130cc565b61213133848484613a4a565b60cd5460d65460d75460d8546040516315f2405360e01b81526004810193909352602483019190915260448201526000916001600160a01b0316906315f2405390606401611c7a565b6001600160a01b0383166123bb5760405162461bcd60e51b8152602060048201526024808201527f45524332303a20617070726f76652066726f6d20746865207a65726f206164646044820152637265737360e01b6064820152608401610c17565b6001600160a01b03821661241c5760405162461bcd60e51b815260206004820152602260248201527f45524332303a20617070726f766520746f20746865207a65726f206164647265604482015261737360f01b6064820152608401610c17565b6001600160a01b0383811660008181526034602090815260408083209487168084529482529182902085905590518481527f8c5be1e5ebec7d5bd14f71427d1e84f3dd0314c0f7b2291e5b200ac8c7c3b925910160405180910390a3505050565b612485611941565b60cc54604051621f956f60ea1b81523060048201526001600160a01b0390911690637e55bc00906024016020604051808303816000875af11580156124ce573d6000803e3d6000fd5b505050506040513d601f19601f820116820180604052508101906124f29190614a08565b6125645760405162461bcd60e51b815260206004820152602b60248201527f546f6b656e426173653a20526570617920646973616c6c6f776564206279207260448201527f69736b206d616e616765720000000000000000000000000000000000000000006064820152608401610c17565b4360d454146125c55760405162461bcd60e51b815260206004820152602760248201527f546f6b656e426173653a204d61726b6574207374617465206e6f7420796574206044820152661d5c19185d195960ca1b6064820152608401610c17565b60006125d083611834565b9050600060001983146125e357826125e5565b815b90506125f18582613eeb565b600082821161260957612604828461499b565b61260c565b60005b9050600060d754831161262c578260d754612627919061499b565b61262f565b60005b6001600160a01b03878116600081815260d9602090815260409182902087815560d55460019091015560d78590558151938c168452830191909152810185905260608101849052608081018290529091507f1a2a22cb034d26d1854bdc6666a5b91fe25efbbb5dcad3b0355478d6f5c362a19060a00160405180910390a150505050505050565b6001600160a01b03838116600090815260346020908152604080832093861683529290522054600019811461274257818110156127355760405162461bcd60e51b815260206004820152601d60248201527f45524332303a20696e73756666696369656e7420616c6c6f77616e63650000006044820152606401610c17565b6127428484848403612359565b50505050565b6001600160a01b0383166127c45760405162461bcd60e51b815260206004820152602560248201527f45524332303a207472616e736665722066726f6d20746865207a65726f20616460448201527f64726573730000000000000000000000000000000000000000000000000000006064820152608401610c17565b6001600160a01b0382166128265760405162461bcd60e51b815260206004820152602360248201527f45524332303a207472616e7366657220746f20746865207a65726f206164647260448201526265737360e81b6064820152608401610c17565b6001600160a01b038316600090815260336020526040902054818110156128b55760405162461bcd60e51b815260206004820152602660248201527f45524332303a207472616e7366657220616d6f756e742065786365656473206260448201527f616c616e636500000000000000000000000000000000000000000000000000006064820152608401610c17565b6001600160a01b038085166000908152603360205260408082208585039055918516815290812080548492906128ec908490614983565b92505081905550826001600160a01b0316846001600160a01b03167fddf252ad1be2c89b69c2b068fc378daa952ba7f163c4a11628f55a4df523b3ef8460405161293891815260200190565b60405180910390a3612742565b61294d611941565b60cc5460405163028f2ead60e31b81523060048201526001600160a01b0390911690631479756890602401602060405180830381865afa158015612995573d6000803e3d6000fd5b505050506040513d601f19601f820116820180604052508101906129b99190614a08565b612a1a5760405162461bcd60e51b815260206004820152602c60248201527f546f6b656e426173653a20537570706c7920646973616c6c6f7765642062792060448201526b3934b9b59036b0b730b3b2b960a11b6064820152608401610c17565b4360d45414612a7b5760405162461bcd60e51b815260206004820152602760248201527f546f6b656e426173653a204d61726b6574207374617465206e6f7420796574206044820152661d5c19185d195960ca1b6064820152608401610c17565b60006040518060200160405280612a90610cfd565b90529050612a9e8383613eeb565b6000612aaa83836133f6565b9050612ab68482612ce7565b604080516001600160a01b0386168152602081018590529081018290527f9d624b01705090e0c402c84f2bdef9c498399a009cee9a4e08ab004bae4471219060600160405180910390a150505050565b600061100f7f8b73c3c69bb8fe3d512ecc4cf759cc79239f7b179b0ffacaa9a75d522b39400f612b3560655490565b6066546040805160208101859052908101839052606081018290524660808201523060a082015260009060c0016040516020818303038152906040528051906020012090509392505050565b600080612b8e848461339b565b9050610d5b81613f87565b6001600160a01b038216612bf95760405162461bcd60e51b815260206004820152602160248201527f45524332303a206275726e2066726f6d20746865207a65726f206164647265736044820152607360f81b6064820152608401610c17565b6001600160a01b03821660009081526033602052604090205481811015612c6d5760405162461bcd60e51b815260206004820152602260248201527f45524332303a206275726e20616d6f756e7420657863656564732062616c616e604482015261636560f01b6064820152608401610c17565b6001600160a01b0383166000908152603360205260408120838303905560358054849290612c9c90849061499b565b90915550506040518281526000906001600160a01b038516907fddf252ad1be2c89b69c2b068fc378daa952ba7f163c4a11628f55a4df523b3ef9060200160405180910390a3505050565b6001600160a01b038216612d3d5760405162461bcd60e51b815260206004820152601f60248201527f45524332303a206d696e7420746f20746865207a65726f2061646472657373006044820152606401610c17565b8060356000828254612d4f9190614983565b90915550506001600160a01b03821660009081526033602052604081208054839290612d7c908490614983565b90915550506040518181526001600160a01b038316906000907fddf252ad1be2c89b69c2b068fc378daa952ba7f163c4a11628f55a4df523b3ef9060200160405180910390a35050565b600054610100900460ff16612e315760405162461bcd60e51b815260206004820152602b60248201527f496e697469616c697a61626c653a20636f6e7472616374206973206e6f74206960448201526a6e697469616c697a696e6760a81b6064820152608401610c17565b612e3a82613f9f565b612e44828261402d565b856001600160a01b031663a996e7ba6040518163ffffffff1660e01b81526004016020604051808303816000875af1158015612e84573d6000803e3d6000fd5b505050506040513d601f19601f82011682018060405250810190612ea89190614a08565b612f005760405162461bcd60e51b8152602060048201526024808201527f546f6b656e426173653a204e6f74207269736b206d616e6167657220636f6e746044820152631c9858dd60e21b6064820152608401610c17565b60cc80546001600160a01b0319166001600160a01b03888116919091179091554360d455670de0b6b3a764000060d555604080516310c8fc9560e11b8152905191871691632191f92a916004808201926020929091908290030181865afa158015612f6f573d6000803e3d6000fd5b505050506040513d601f19601f82011682018060405250810190612f939190614a08565b6130055760405162461bcd60e51b815260206004820152602a60248201527f546f6b656e426173653a204e6f7420696e74657273742072617465206d6f646560448201527f6c20636f6e7472616374000000000000000000000000000000000000000000006064820152608401610c17565b505060cd80546001600160a01b039485166001600160a01b03199182161790915560ce80549385169382169390931790925560cf805491909316908216179091556802b5e3af16b188000060d25560d080549091163317905550565b60008060008061308185604051806020016040528060da548152506140a2565b905061308d818661499b565b9350600060405180602001604052806130a4610cfd565b905290506130b28183612b81565b93508360d8546130c29190614983565b9496939550505050565b6130d4611941565b8115806130df575080155b6131515760405162461bcd60e51b815260206004820152603b60248201527f546f6b656e426173653a204f6e65206f662072656465656d546f6b656e73206f60448201527f722072656465656d416d6f756e74206d757374206265207a65726f00000000006064820152608401610c17565b60006040518060200160405280613166610cfd565b905290506000808415613187578491506131808386612b81565b9050613197565b61319184846133f6565b91508390505b60cc5460405163eabe7d9160e01b81523060048201526001600160a01b038881166024830152604482018590529091169063eabe7d9190606401602060405180830381865afa1580156131ee573d6000803e3d6000fd5b505050506040513d601f19601f820116820180604052508101906132129190614a08565b6132735760405162461bcd60e51b815260206004820152602c60248201527f546f6b656e426173653a2052656465656d20646973616c6c6f7765642062792060448201526b3934b9b59036b0b730b3b2b960a11b6064820152608401610c17565b4360d454146132d45760405162461bcd60e51b815260206004820152602760248201527f546f6b656e426173653a204d61726b6574207374617465206e6f7420796574206044820152661d5c19185d195960ca1b6064820152608401610c17565b8060d654116133355760405162461bcd60e51b815260206004820152602760248201527f546f6b656e426173653a204d61726b65742068617320696e73756666696369656044820152660dce840c6c2e6d60cb1b6064820152608401610c17565b61333f8683612b99565b61334986826140bb565b604080516001600160a01b0388168152602081018390529081018390527fe5b754fb1abb7f01b499791d0b820ae3b6af3424ac1c59768edb53f4ec31a9299060600160405180910390a1505050505050565b60408051602081019091526000815260405180602001604052806133c3856000015185614147565b90529392505050565b6000806133d9858561339b565b90506133ed6133e782613f87565b84614153565b95945050505050565b600061109561340d84670de0b6b3a7640000614147565b835161415f565b60cc54604051630779996560e11b81526001600160a01b0384811660048301528681166024830152306044830152606482018490526000928392911690630ef332ca906084016040805180830381865afa158015613476573d6000803e3d6000fd5b505050506040513d601f19601f8201168201806040525081019061349a9190614a59565b60cc546040516318b91ba160e31b81523060048201526001600160a01b038a81166024830152888116604483015260648201859052939550919350600092839291169063c5c8dd08906084016040805180830381865afa158015613502573d6000803e3d6000fd5b505050506040513d601f19601f820116820180604052508101906135269190614a7d565b915091508161359d5760405162461bcd60e51b815260206004820152603360248201527f546f6b656e426173653a20546f6b656e207365697a75726520646973616c6c6f60448201527f776564206279207269736b206d616e61676572000000000000000000000000006064820152608401610c17565b808015613611575060cf546040516310d5383b60e21b81523060048201526001600160a01b0390911690634354e0ec90602401602060405180830381865afa1580156135ed573d6000803e3d6000fd5b505050506040513d601f19601f820116820180604052508101906136119190614a08565b15613685576136208685612b99565b61362a3085612ce7565b42600090815260db6020526040902080546001600160a01b038089166001600160a01b0319928316178355600183018054918b16919092161790556001600160801b03858116600160801b0290851617600290910155611517565b600080600061369387613061565b9250925092506136a38988612b99565b6136ad8a84612ce7565b60d8819055604080516001600160a01b03808c1682528c1660208201529081018490527feac344312e08a6e34d3cb14733c432e8b20995a316e9abf4bc59640dc90d10ca9060600160405180910390a160408051308152602081018490529081018290527fa91e67c5ea634cd43a12c5a482724b03de01e85ca68702a53d0c2f45cb7c1dc59060600160405180910390a15050505050505050505050565b613753611941565b60cc5460405163368f515360e21b81523060048201526001600160a01b038481166024830152604482018490529091169063da3d454c906064016020604051808303816000875af11580156137ac573d6000803e3d6000fd5b505050506040513d601f19601f820116820180604052508101906137d09190614a08565b6138315760405162461bcd60e51b815260206004820152602c60248201527f546f6b656e426173653a20426f72726f7720646973616c6c6f7765642062792060448201526b3934b9b59036b0b730b3b2b960a11b6064820152608401610c17565b4360d454146138925760405162461bcd60e51b815260206004820152602760248201527f546f6b656e426173653a204d61726b6574207374617465206e6f7420796574206044820152661d5c19185d195960ca1b6064820152608401610c17565b8060d654116138f35760405162461bcd60e51b815260206004820152602760248201527f546f6b656e426173653a204d61726b65742068617320696e73756666696369656044820152660dce840c6c2e6d60cb1b6064820152608401610c17565b60006138fe83611834565b9050600061390c8383614983565b905060008360d75461391e9190614983565b6001600160a01b038616600090815260d96020526040902083815560d55460019091015560d7819055905061395385856140bb565b604080516001600160a01b038716815260208101869052908101839052606081018290527f13ed6866d4e1ee6da46f845c46d7e54120883d75c5ea9a2dacc1c4ca8984ab80906080015b60405180910390a15050505050565b6001600160a01b03811660009081526099602052604090208054600181018255905b50919050565b6000610cf76139e1612b06565b8360405161190160f01b6020820152602281018390526042810182905260009060620160405160208183030381529060405280519060200120905092915050565b6000806000613a338787878761416b565b91509150613a4081614258565b5095945050505050565b613a52611941565b6000819050806001600160a01b031663a6afed956040518163ffffffff1660e01b8152600401600060405180830381600087803b158015613a9257600080fd5b505af1158015613aa6573d6000803e3d6000fd5b505060cc54604051636e2cf5af60e01b81523060048201526001600160a01b0386811660248301528881166044830152606482018890529091169250636e2cf5af91506084016020604051808303816000875af1158015613b0b573d6000803e3d6000fd5b505050506040513d601f19601f82011682018060405250810190613b2f9190614a08565b613ba15760405162461bcd60e51b815260206004820152603160248201527f546f6b656e426173653a204c69717569646174696f6e20646973616c6c6f776560448201527f64206279207269736b206d616e616765720000000000000000000000000000006064820152608401610c17565b4360d45414613c025760405162461bcd60e51b815260206004820152602760248201527f546f6b656e426173653a204d61726b6574207374617465206e6f7420796574206044820152661d5c19185d195960ca1b6064820152608401610c17565b43816001600160a01b031663511842d36040518163ffffffff1660e01b8152600401602060405180830381865afa158015613c41573d6000803e3d6000fd5b505050506040513d601f19601f82011682018060405250810190613c659190614a23565b14613cd85760405162461bcd60e51b815260206004820152603260248201527f546f6b656e426173653a20436f6c6c61746572616c206d61726b65742073746160448201527f7465206e6f7420796574207570646174656400000000000000000000000000006064820152608401610c17565b846001600160a01b0316846001600160a01b031603613d455760405162461bcd60e51b8152602060048201526024808201527f546f6b656e426173653a2043616e6e6f74206c697175696461746520796f757260448201526339b2b63360e11b6064820152608401610c17565b600083118015613d5757506000198314155b613da35760405162461bcd60e51b815260206004820152601f60248201527f546f6b656e426173653a20496e76616c696420726570617920616d6f756e74006044820152606401610c17565b613dae85858561247d565b306001600160a01b03831603613dcf57613dca30868686613414565b613e3a565b60405163b2a02ff160e01b81526001600160a01b03868116600483015285811660248301526044820185905282169063b2a02ff190606401600060405180830381600087803b158015613e2157600080fd5b505af1158015613e35573d6000803e3d6000fd5b505050505b60cc5460405163057d5da760e51b81526001600160a01b0386811660048301529091169063afabb4e090602401600060405180830381600087803b158015613e8157600080fd5b505af1158015613e95573d6000803e3d6000fd5b5050604080516001600160a01b03808a168252808916602083015291810187905290851660608201527fb317550be5409ae673b9326d836608f387c2de00a16e325ad58d4394a30d3f109250608001905061399d565b60dc546040516323b872dd60e01b81526001600160a01b038481166004830152306024830152604482018490529091169081906323b872dd906064016020604051808303816000875af1158015613f46573d6000803e3d6000fd5b505050506040513d601f19601f82011682018060405250810190613f6a9190614a08565b508160d66000828254613f7d9190614983565b9091555050505050565b8051600090610cf790670de0b6b3a7640000906149d1565b600054610100900460ff1661400a5760405162461bcd60e51b815260206004820152602b60248201527f496e697469616c697a61626c653a20636f6e7472616374206973206e6f74206960448201526a6e697469616c697a696e6760a81b6064820152608401610c17565b610ce181604051806040016040528060018152602001603160f81b81525061440e565b600054610100900460ff166140985760405162461bcd60e51b815260206004820152602b60248201527f496e697469616c697a61626c653a20636f6e7472616374206973206e6f74206960448201526a6e697469616c697a696e6760a81b6064820152608401610c17565b610ff78282614493565b6000670de0b6b3a764000061188d848460000151614147565b60dc5460405163a9059cbb60e01b81526001600160a01b0384811660048301526024820184905290911690819063a9059cbb906044016020604051808303816000875af1158015614110573d6000803e3d6000fd5b505050506040513d601f19601f820116820180604052508101906141349190614a08565b508160d66000828254613f7d919061499b565b600061109582846149b2565b60006110958284614983565b600061109582846149d1565b6000807f7fffffffffffffffffffffffffffffff5d576e7357a4501ddfe92f46681b20a08311156141a2575060009050600361424f565b8460ff16601b141580156141ba57508460ff16601c14155b156141cb575060009050600461424f565b6040805160008082526020820180845289905260ff881692820192909252606081018690526080810185905260019060a0016020604051602081039080840390855afa15801561421f573d6000803e3d6000fd5b5050604051601f1901519150506001600160a01b0381166142485760006001925092505061424f565b9150600090505b94509492505050565b600081600481111561426c5761426c614ab0565b036142745750565b600181600481111561428857614288614ab0565b036142d55760405162461bcd60e51b815260206004820152601860248201527f45434453413a20696e76616c6964207369676e617475726500000000000000006044820152606401610c17565b60028160048111156142e9576142e9614ab0565b036143365760405162461bcd60e51b815260206004820152601f60248201527f45434453413a20696e76616c6964207369676e6174757265206c656e677468006044820152606401610c17565b600381600481111561434a5761434a614ab0565b036143a25760405162461bcd60e51b815260206004820152602260248201527f45434453413a20696e76616c6964207369676e6174757265202773272076616c604482015261756560f01b6064820152608401610c17565b60048160048111156143b6576143b6614ab0565b03610ce15760405162461bcd60e51b815260206004820152602260248201527f45434453413a20696e76616c6964207369676e6174757265202776272076616c604482015261756560f01b6064820152608401610c17565b600054610100900460ff166144795760405162461bcd60e51b815260206004820152602b60248201527f496e697469616c697a61626c653a20636f6e7472616374206973206e6f74206960448201526a6e697469616c697a696e6760a81b6064820152608401610c17565b815160209283012081519190920120606591909155606655565b600054610100900460ff166144fe5760405162461bcd60e51b815260206004820152602b60248201527f496e697469616c697a61626c653a20636f6e7472616374206973206e6f74206960448201526a6e697469616c697a696e6760a81b6064820152608401610c17565b8151614511906036906020850190614521565b5080516121319060379060208401905b82805461452d90614939565b90600052602060002090601f01602090048101928261454f5760008555614595565b82601f1061456857805160ff1916838001178555614595565b82800160010185558215614595579182015b8281111561459557825182559160200191906001019061457a565b50610d639291505b80821115610d63576000815560010161459d565b600060208083528351808285015260005b818110156145de578581018301518582016040015282016145c2565b818111156145f0576000604083870101525b50601f01601f1916929092016040019392505050565b6001600160a01b0381168114610ce157600080fd5b6000806040838503121561462e57600080fd5b823561463981614606565b946020939093013593505050565b60006020828403121561465957600080fd5b5035919050565b60006020828403121561467257600080fd5b813561109581614606565b60008060006060848603121561469257600080fd5b833561469d81614606565b925060208401356146ad81614606565b929592945050506040919091013590565b634e487b7160e01b600052604160045260246000fd5b600082601f8301126146e557600080fd5b813567ffffffffffffffff80821115614700576147006146be565b604051601f8301601f19908116603f01168101908282118183101715614728576147286146be565b8160405283815286602085880101111561474157600080fd5b836020870160208301376000602085830101528094505050505092915050565b600080600080600080600060e0888a03121561477c57600080fd5b873561478781614606565b9650602088013561479781614606565b955060408801356147a781614606565b945060608801356147b781614606565b935060808801356147c781614606565b925060a088013567ffffffffffffffff808211156147e457600080fd5b6147f08b838c016146d4565b935060c08a013591508082111561480657600080fd5b506148138a828b016146d4565b91505092959891949750929550565b6000806040838503121561483557600080fd5b82359150602083013561484781614606565b809150509250929050565b600080600080600080600060e0888a03121561486d57600080fd5b873561487881614606565b9650602088013561488881614606565b95506040880135945060608801359350608088013560ff811681146148ac57600080fd5b9699959850939692959460a0840135945060c09093013592915050565b600080604083850312156148dc57600080fd5b82356148e781614606565b9150602083013561484781614606565b60008060006060848603121561490c57600080fd5b833561491781614606565b925060208401359150604084013561492e81614606565b809150509250925092565b600181811c9082168061494d57607f821691505b6020821081036139ce57634e487b7160e01b600052602260045260246000fd5b634e487b7160e01b600052601160045260246000fd5b600082198211156149965761499661496d565b500190565b6000828210156149ad576149ad61496d565b500390565b60008160001904831182151516156149cc576149cc61496d565b500290565b6000826149ee57634e487b7160e01b600052601260045260246000fd5b500490565b80518015158114614a0357600080fd5b919050565b600060208284031215614a1a57600080fd5b611095826149f3565b600060208284031215614a3557600080fd5b5051919050565b600060208284031215614a4e57600080fd5b815161109581614606565b60008060408385031215614a6c57600080fd5b505080516020909101519092909150565b60008060408385031215614a9057600080fd5b614a99836149f3565b9150614aa7602084016149f3565b90509250929050565b634e487b7160e01b600052602160045260246000fdfea164736f6c634300080d000a",
  "linkReferences": {},
  "deployedLinkReferences": {}
}