{
  "_format": "hh-sol-artifact-1",
  "contractName": "FErc20",
  "sourceName": "contracts/money-market/FErc20.sol",
  "abi": [
    {
      "anonymous": false,
      "inputs": [
        {
          "indexed": false,
          "internalType": "uint256",
          "name": "cashPrior",
          "type": "uint256"
        },
        {
          "indexed": false,
          "internalType": "uint256",
          "name": "interestAccumulated",
          "type": "uint256"
        },
        {
          "indexed": false,
          "internalType": "uint256",
          "name": "borrowIndex",
          "type": "uint256"
        },
        {
          "indexed": false,
          "internalType": "uint256",
          "name": "totalBorrows",
          "type": "uint256"
        }
      ],
      "name": "AccrueInterest",
      "type": "event"
    },
    {
      "anonymous": false,
      "inputs": [
        {
          "indexed": true,
          "internalType": "address",
          "name": "owner",
          "type": "address"
        },
        {
          "indexed": true,
          "internalType": "address",
          "name": "spender",
          "type": "address"
        },
        {
          "indexed": false,
          "internalType": "uint256",
          "name": "value",
          "type": "uint256"
        }
      ],
      "name": "Approval",
      "type": "event"
    },
    {
      "anonymous": false,
      "inputs": [
        {
          "indexed": false,
          "internalType": "address",
          "name": "borrower",
          "type": "address"
        },
        {
          "indexed": false,
          "internalType": "uint256",
          "name": "borrowAmount",
          "type": "uint256"
        },
        {
          "indexed": false,
          "internalType": "uint256",
          "name": "accountBorrows",
          "type": "uint256"
        },
        {
          "indexed": false,
          "internalType": "uint256",
          "name": "totalBorrows",
          "type": "uint256"
        }
      ],
      "name": "Borrow",
      "type": "event"
    },
    {
      "anonymous": false,
      "inputs": [
        {
          "indexed": false,
          "internalType": "uint8",
          "name": "version",
          "type": "uint8"
        }
      ],
      "name": "Initialized",
      "type": "event"
    },
    {
      "anonymous": false,
      "inputs": [
        {
          "indexed": false,
          "internalType": "address",
          "name": "liquidator",
          "type": "address"
        },
        {
          "indexed": false,
          "internalType": "address",
          "name": "borrower",
          "type": "address"
        },
        {
          "indexed": false,
          "internalType": "uint256",
          "name": "repayAmount",
          "type": "uint256"
        },
        {
          "indexed": false,
          "internalType": "address",
          "name": "fTokenCollateral",
          "type": "address"
        }
      ],
      "name": "LiquidateBorrow",
      "type": "event"
    },
    {
      "anonymous": false,
      "inputs": [
        {
          "indexed": false,
          "internalType": "address",
          "name": "oldAdmin",
          "type": "address"
        },
        {
          "indexed": false,
          "internalType": "address",
          "name": "newAdmin",
          "type": "address"
        }
      ],
      "name": "NewAdmin",
      "type": "event"
    },
    {
      "anonymous": false,
      "inputs": [
        {
          "indexed": false,
          "internalType": "address",
          "name": "oldPendingAdmin",
          "type": "address"
        },
        {
          "indexed": false,
          "internalType": "address",
          "name": "newPendingAdmin",
          "type": "address"
        }
      ],
      "name": "NewPendingAdmin",
      "type": "event"
    },
    {
      "anonymous": false,
      "inputs": [
        {
          "indexed": false,
          "internalType": "address",
          "name": "oldOracle",
          "type": "address"
        },
        {
          "indexed": false,
          "internalType": "address",
          "name": "newOracle",
          "type": "address"
        }
      ],
      "name": "NewPriceOracle",
      "type": "event"
    },
    {
      "anonymous": false,
      "inputs": [
        {
          "indexed": false,
          "internalType": "uint256",
          "name": "oldReserveFactor",
          "type": "uint256"
        },
        {
          "indexed": false,
          "internalType": "uint256",
          "name": "newReserveFactor",
          "type": "uint256"
        }
      ],
      "name": "NewReserveFactor",
      "type": "event"
    },
    {
      "anonymous": false,
      "inputs": [
        {
          "indexed": false,
          "internalType": "address",
          "name": "redeemer",
          "type": "address"
        },
        {
          "indexed": false,
          "internalType": "uint256",
          "name": "redeemAmount",
          "type": "uint256"
        },
        {
          "indexed": false,
          "internalType": "uint256",
          "name": "redeemTokens",
          "type": "uint256"
        }
      ],
      "name": "Redeem",
      "type": "event"
    },
    {
      "anonymous": false,
      "inputs": [
        {
          "indexed": false,
          "internalType": "address",
          "name": "payer",
          "type": "address"
        },
        {
          "indexed": false,
          "internalType": "address",
          "name": "borrower",
          "type": "address"
        },
        {
          "indexed": false,
          "internalType": "uint256",
          "name": "repayAmount",
          "type": "uint256"
        },
        {
          "indexed": false,
          "internalType": "uint256",
          "name": "accountBorrows",
          "type": "uint256"
        },
        {
          "indexed": false,
          "internalType": "uint256",
          "name": "totalBorrows",
          "type": "uint256"
        }
      ],
      "name": "RepayBorrow",
      "type": "event"
    },
    {
      "anonymous": false,
      "inputs": [
        {
          "indexed": false,
          "internalType": "address",
          "name": "benefactor",
          "type": "address"
        },
        {
          "indexed": false,
          "internalType": "uint256",
          "name": "addAmount",
          "type": "uint256"
        },
        {
          "indexed": false,
          "internalType": "uint256",
          "name": "newTotalReserves",
          "type": "uint256"
        }
      ],
      "name": "ReservesAdded",
      "type": "event"
    },
    {
      "anonymous": false,
      "inputs": [
        {
          "indexed": false,
          "internalType": "address",
          "name": "supplier",
          "type": "address"
        },
        {
          "indexed": false,
          "internalType": "uint256",
          "name": "supplyAmount",
          "type": "uint256"
        },
        {
          "indexed": false,
          "internalType": "uint256",
          "name": "tokensMinted",
          "type": "uint256"
        }
      ],
      "name": "Supply",
      "type": "event"
    },
    {
      "anonymous": false,
      "inputs": [
        {
          "indexed": false,
          "internalType": "address",
          "name": "from",
          "type": "address"
        },
        {
          "indexed": false,
          "internalType": "address",
          "name": "to",
          "type": "address"
        },
        {
          "indexed": false,
          "internalType": "uint256",
          "name": "amount",
          "type": "uint256"
        }
      ],
      "name": "TokenSeized",
      "type": "event"
    },
    {
      "anonymous": false,
      "inputs": [
        {
          "indexed": true,
          "internalType": "address",
          "name": "from",
          "type": "address"
        },
        {
          "indexed": true,
          "internalType": "address",
          "name": "to",
          "type": "address"
        },
        {
          "indexed": false,
          "internalType": "uint256",
          "name": "value",
          "type": "uint256"
        }
      ],
      "name": "Transfer",
      "type": "event"
    },
    {
      "inputs": [],
      "name": "DOMAIN_SEPARATOR",
      "outputs": [
        {
          "internalType": "bytes32",
          "name": "",
          "type": "bytes32"
        }
      ],
      "stateMutability": "view",
      "type": "function"
    },
    {
      "inputs": [],
      "name": "IS_FTOKEN",
      "outputs": [
        {
          "internalType": "bool",
          "name": "",
          "type": "bool"
        }
      ],
      "stateMutability": "view",
      "type": "function"
    },
    {
      "inputs": [],
      "name": "acceptAdmin",
      "outputs": [],
      "stateMutability": "nonpayable",
      "type": "function"
    },
    {
      "inputs": [],
      "name": "accrueInterest",
      "outputs": [],
      "stateMutability": "nonpayable",
      "type": "function"
    },
    {
      "inputs": [],
      "name": "admin",
      "outputs": [
        {
          "internalType": "address",
          "name": "",
          "type": "address"
        }
      ],
      "stateMutability": "view",
      "type": "function"
    },
    {
      "inputs": [
        {
          "internalType": "address",
          "name": "owner",
          "type": "address"
        },
        {
          "internalType": "address",
          "name": "spender",
          "type": "address"
        }
      ],
      "name": "allowance",
      "outputs": [
        {
          "internalType": "uint256",
          "name": "",
          "type": "uint256"
        }
      ],
      "stateMutability": "view",
      "type": "function"
    },
    {
      "inputs": [
        {
          "internalType": "address",
          "name": "spender",
          "type": "address"
        },
        {
          "internalType": "uint256",
          "name": "amount",
          "type": "uint256"
        }
      ],
      "name": "approve",
      "outputs": [
        {
          "internalType": "bool",
          "name": "",
          "type": "bool"
        }
      ],
      "stateMutability": "nonpayable",
      "type": "function"
    },
    {
      "inputs": [
        {
          "internalType": "address",
          "name": "account",
          "type": "address"
        }
      ],
      "name": "balanceOf",
      "outputs": [
        {
          "internalType": "uint256",
          "name": "",
          "type": "uint256"
        }
      ],
      "stateMutability": "view",
      "type": "function"
    },
    {
      "inputs": [
        {
          "internalType": "address",
          "name": "_account",
          "type": "address"
        }
      ],
      "name": "balanceOfUnderlying",
      "outputs": [
        {
          "internalType": "uint256",
          "name": "",
          "type": "uint256"
        }
      ],
      "stateMutability": "nonpayable",
      "type": "function"
    },
    {
      "inputs": [
        {
          "internalType": "uint256",
          "name": "_borrowAmount",
          "type": "uint256"
        }
      ],
      "name": "borrow",
      "outputs": [],
      "stateMutability": "nonpayable",
      "type": "function"
    },
    {
      "inputs": [
        {
          "internalType": "address",
          "name": "_account",
          "type": "address"
        }
      ],
      "name": "borrowBalanceCurrent",
      "outputs": [
        {
          "internalType": "uint256",
          "name": "",
          "type": "uint256"
        }
      ],
      "stateMutability": "nonpayable",
      "type": "function"
    },
    {
      "inputs": [
        {
          "internalType": "address",
          "name": "_account",
          "type": "address"
        }
      ],
      "name": "borrowBalanceStored",
      "outputs": [
        {
          "internalType": "uint256",
          "name": "",
          "type": "uint256"
        }
      ],
      "stateMutability": "view",
      "type": "function"
    },
    {
      "inputs": [],
      "name": "borrowIndex",
      "outputs": [
        {
          "internalType": "uint256",
          "name": "",
          "type": "uint256"
        }
      ],
      "stateMutability": "view",
      "type": "function"
    },
    {
      "inputs": [],
      "name": "borrowRatePerBlock",
      "outputs": [
        {
          "internalType": "uint256",
          "name": "",
          "type": "uint256"
        }
      ],
      "stateMutability": "view",
      "type": "function"
    },
    {
      "inputs": [],
      "name": "checker",
      "outputs": [
        {
          "internalType": "contract IChecker",
          "name": "",
          "type": "address"
        }
      ],
      "stateMutability": "view",
      "type": "function"
    },
    {
      "inputs": [
        {
          "internalType": "uint256",
          "name": "_timestamp",
          "type": "uint256"
        }
      ],
      "name": "claimLiquidation",
      "outputs": [],
      "stateMutability": "nonpayable",
      "type": "function"
    },
    {
      "inputs": [],
      "name": "decimals",
      "outputs": [
        {
          "internalType": "uint8",
          "name": "",
          "type": "uint8"
        }
      ],
      "stateMutability": "view",
      "type": "function"
    },
    {
      "inputs": [
        {
          "internalType": "address",
          "name": "spender",
          "type": "address"
        },
        {
          "internalType": "uint256",
          "name": "subtractedValue",
          "type": "uint256"
        }
      ],
      "name": "decreaseAllowance",
      "outputs": [
        {
          "internalType": "bool",
          "name": "",
          "type": "bool"
        }
      ],
      "stateMutability": "nonpayable",
      "type": "function"
    },
    {
      "inputs": [],
      "name": "exchangeRateCurrent",
      "outputs": [
        {
          "internalType": "uint256",
          "name": "",
          "type": "uint256"
        }
      ],
      "stateMutability": "nonpayable",
      "type": "function"
    },
    {
      "inputs": [],
      "name": "exchangeRateStored",
      "outputs": [
        {
          "internalType": "uint256",
          "name": "",
          "type": "uint256"
        }
      ],
      "stateMutability": "view",
      "type": "function"
    },
    {
      "inputs": [
        {
          "internalType": "address",
          "name": "_account",
          "type": "address"
        }
      ],
      "name": "getAccountSnapshot",
      "outputs": [
        {
          "internalType": "uint256",
          "name": "",
          "type": "uint256"
        },
        {
          "internalType": "uint256",
          "name": "",
          "type": "uint256"
        },
        {
          "internalType": "uint256",
          "name": "",
          "type": "uint256"
        }
      ],
      "stateMutability": "view",
      "type": "function"
    },
    {
      "inputs": [],
      "name": "getLastAccrualBlock",
      "outputs": [
        {
          "internalType": "uint256",
          "name": "",
          "type": "uint256"
        }
      ],
      "stateMutability": "view",
      "type": "function"
    },
    {
      "inputs": [],
      "name": "getRiskManager",
      "outputs": [
        {
          "internalType": "address",
          "name": "",
          "type": "address"
        }
      ],
      "stateMutability": "view",
      "type": "function"
    },
    {
      "inputs": [],
      "name": "getUnderlying",
      "outputs": [
        {
          "internalType": "address",
          "name": "",
          "type": "address"
        }
      ],
      "stateMutability": "view",
      "type": "function"
    },
    {
      "inputs": [
        {
          "internalType": "address",
          "name": "spender",
          "type": "address"
        },
        {
          "internalType": "uint256",
          "name": "addedValue",
          "type": "uint256"
        }
      ],
      "name": "increaseAllowance",
      "outputs": [
        {
          "internalType": "bool",
          "name": "",
          "type": "bool"
        }
      ],
      "stateMutability": "nonpayable",
      "type": "function"
    },
    {
      "inputs": [
        {
          "internalType": "address",
          "name": "_underlying",
          "type": "address"
        },
        {
          "internalType": "address",
          "name": "_riskManager",
          "type": "address"
        },
        {
          "internalType": "address",
          "name": "_interestRateModel",
          "type": "address"
        },
        {
          "internalType": "address",
          "name": "_priceOracle",
          "type": "address"
        },
        {
          "internalType": "address",
          "name": "_checker",
          "type": "address"
        },
        {
          "internalType": "string",
          "name": "_name",
          "type": "string"
        },
        {
          "internalType": "string",
          "name": "_symbol",
          "type": "string"
        }
      ],
      "name": "initialize",
      "outputs": [],
      "stateMutability": "nonpayable",
      "type": "function"
    },
    {
      "inputs": [],
      "name": "interestRateModel",
      "outputs": [
        {
          "internalType": "contract IInterestRateModel",
          "name": "",
          "type": "address"
        }
      ],
      "stateMutability": "view",
      "type": "function"
    },
    {
      "inputs": [],
      "name": "isFToken",
      "outputs": [
        {
          "internalType": "bool",
          "name": "",
          "type": "bool"
        }
      ],
      "stateMutability": "pure",
      "type": "function"
    },
    {
      "inputs": [],
      "name": "lastAccrualBlock",
      "outputs": [
        {
          "internalType": "uint256",
          "name": "",
          "type": "uint256"
        }
      ],
      "stateMutability": "view",
      "type": "function"
    },
    {
      "inputs": [
        {
          "internalType": "address",
          "name": "_borrower",
          "type": "address"
        },
        {
          "internalType": "uint256",
          "name": "_repayAmount",
          "type": "uint256"
        },
        {
          "internalType": "address",
          "name": "_fTokenCollateral",
          "type": "address"
        }
      ],
      "name": "liquidateBorrow",
      "outputs": [],
      "stateMutability": "nonpayable",
      "type": "function"
    },
    {
      "inputs": [
        {
          "internalType": "uint256",
          "name": "",
          "type": "uint256"
        }
      ],
      "name": "liquidationProtection",
      "outputs": [
        {
          "internalType": "address",
          "name": "borrower",
          "type": "address"
        },
        {
          "internalType": "address",
          "name": "liquidator",
          "type": "address"
        },
        {
          "internalType": "uint128",
          "name": "value",
          "type": "uint128"
        },
        {
          "internalType": "uint128",
          "name": "tokenSeized",
          "type": "uint128"
        }
      ],
      "stateMutability": "view",
      "type": "function"
    },
    {
      "inputs": [],
      "name": "name",
      "outputs": [
        {
          "internalType": "string",
          "name": "",
          "type": "string"
        }
      ],
      "stateMutability": "view",
      "type": "function"
    },
    {
      "inputs": [
        {
          "internalType": "address",
          "name": "owner",
          "type": "address"
        }
      ],
      "name": "nonces",
      "outputs": [
        {
          "internalType": "uint256",
          "name": "",
          "type": "uint256"
        }
      ],
      "stateMutability": "view",
      "type": "function"
    },
    {
      "inputs": [],
      "name": "oracle",
      "outputs": [
        {
          "internalType": "contract IPriceOracle",
          "name": "",
          "type": "address"
        }
      ],
      "stateMutability": "view",
      "type": "function"
    },
    {
      "inputs": [],
      "name": "pendingAdmin",
      "outputs": [
        {
          "internalType": "address",
          "name": "",
          "type": "address"
        }
      ],
      "stateMutability": "view",
      "type": "function"
    },
    {
      "inputs": [
        {
          "internalType": "address",
          "name": "owner",
          "type": "address"
        },
        {
          "internalType": "address",
          "name": "spender",
          "type": "address"
        },
        {
          "internalType": "uint256",
          "name": "value",
          "type": "uint256"
        },
        {
          "internalType": "uint256",
          "name": "deadline",
          "type": "uint256"
        },
        {
          "internalType": "uint8",
          "name": "v",
          "type": "uint8"
        },
        {
          "internalType": "bytes32",
          "name": "r",
          "type": "bytes32"
        },
        {
          "internalType": "bytes32",
          "name": "s",
          "type": "bytes32"
        }
      ],
      "name": "permit",
      "outputs": [],
      "stateMutability": "nonpayable",
      "type": "function"
    },
    {
      "inputs": [],
      "name": "protocolSeizeShareMantissa",
      "outputs": [
        {
          "internalType": "uint256",
          "name": "",
          "type": "uint256"
        }
      ],
      "stateMutability": "view",
      "type": "function"
    },
    {
      "inputs": [
        {
          "internalType": "uint256",
          "name": "_redeemTokens",
          "type": "uint256"
        }
      ],
      "name": "redeem",
      "outputs": [],
      "stateMutability": "nonpayable",
      "type": "function"
    },
    {
      "inputs": [
        {
          "internalType": "uint256",
          "name": "_redeemAmount",
          "type": "uint256"
        }
      ],
      "name": "redeemUnderlying",
      "outputs": [],
      "stateMutability": "nonpayable",
      "type": "function"
    },
    {
      "inputs": [
        {
          "internalType": "uint256",
          "name": "_repayAmount",
          "type": "uint256"
        }
      ],
      "name": "repayBorrow",
      "outputs": [],
      "stateMutability": "nonpayable",
      "type": "function"
    },
    {
      "inputs": [
        {
          "internalType": "address",
          "name": "_borrower",
          "type": "address"
        },
        {
          "internalType": "uint256",
          "name": "_repayAmount",
          "type": "uint256"
        }
      ],
      "name": "repayBorrowBehalf",
      "outputs": [],
      "stateMutability": "nonpayable",
      "type": "function"
    },
    {
      "inputs": [
        {
          "internalType": "uint256",
          "name": "_timestamp",
          "type": "uint256"
        },
        {
          "internalType": "address",
          "name": "_fToken",
          "type": "address"
        }
      ],
      "name": "repayLiquidationWithErc",
      "outputs": [],
      "stateMutability": "nonpayable",
      "type": "function"
    },
    {
      "inputs": [
        {
          "internalType": "uint256",
          "name": "_timestamp",
          "type": "uint256"
        }
      ],
      "name": "repayLiquidationWithEth",
      "outputs": [],
      "stateMutability": "payable",
      "type": "function"
    },
    {
      "inputs": [],
      "name": "reserveFactorMantissa",
      "outputs": [
        {
          "internalType": "uint256",
          "name": "",
          "type": "uint256"
        }
      ],
      "stateMutability": "view",
      "type": "function"
    },
    {
      "inputs": [],
      "name": "riskManager",
      "outputs": [
        {
          "internalType": "contract IRiskManager",
          "name": "",
          "type": "address"
        }
      ],
      "stateMutability": "view",
      "type": "function"
    },
    {
      "inputs": [
        {
          "internalType": "address",
          "name": "_liquidator",
          "type": "address"
        },
        {
          "internalType": "address",
          "name": "_borrower",
          "type": "address"
        },
        {
          "internalType": "uint256",
          "name": "_repayAmount",
          "type": "uint256"
        }
      ],
      "name": "seize",
      "outputs": [],
      "stateMutability": "nonpayable",
      "type": "function"
    },
    {
      "inputs": [
        {
          "internalType": "address",
          "name": "_newPendingAdmin",
          "type": "address"
        }
      ],
      "name": "setPendingAdmin",
      "outputs": [],
      "stateMutability": "nonpayable",
      "type": "function"
    },
    {
      "inputs": [
        {
          "internalType": "address",
          "name": "_newOracle",
          "type": "address"
        }
      ],
      "name": "setPriceOracle",
      "outputs": [],
      "stateMutability": "nonpayable",
      "type": "function"
    },
    {
      "inputs": [
        {
          "internalType": "uint256",
          "name": "_newReserveFactorMantissa",
          "type": "uint256"
        }
      ],
      "name": "setReserveFactor",
      "outputs": [],
      "stateMutability": "nonpayable",
      "type": "function"
    },
    {
      "inputs": [
        {
          "internalType": "uint256",
          "name": "_supplyAmount",
          "type": "uint256"
        }
      ],
      "name": "supply",
      "outputs": [],
      "stateMutability": "nonpayable",
      "type": "function"
    },
    {
      "inputs": [],
      "name": "supplyRatePerBlock",
      "outputs": [
        {
          "internalType": "uint256",
          "name": "",
          "type": "uint256"
        }
      ],
      "stateMutability": "view",
      "type": "function"
    },
    {
      "inputs": [],
      "name": "symbol",
      "outputs": [
        {
          "internalType": "string",
          "name": "",
          "type": "string"
        }
      ],
      "stateMutability": "view",
      "type": "function"
    },
    {
      "inputs": [],
      "name": "totalBorrows",
      "outputs": [
        {
          "internalType": "uint256",
          "name": "",
          "type": "uint256"
        }
      ],
      "stateMutability": "view",
      "type": "function"
    },
    {
      "inputs": [],
      "name": "totalBorrowsCurrent",
      "outputs": [
        {
          "internalType": "uint256",
          "name": "",
          "type": "uint256"
        }
      ],
      "stateMutability": "nonpayable",
      "type": "function"
    },
    {
      "inputs": [],
      "name": "totalCash",
      "outputs": [
        {
          "internalType": "uint256",
          "name": "",
          "type": "uint256"
        }
      ],
      "stateMutability": "view",
      "type": "function"
    },
    {
      "inputs": [],
      "name": "totalReserves",
      "outputs": [
        {
          "internalType": "uint256",
          "name": "",
          "type": "uint256"
        }
      ],
      "stateMutability": "view",
      "type": "function"
    },
    {
      "inputs": [],
      "name": "totalSupply",
      "outputs": [
        {
          "internalType": "uint256",
          "name": "",
          "type": "uint256"
        }
      ],
      "stateMutability": "view",
      "type": "function"
    },
    {
      "inputs": [
        {
          "internalType": "address",
          "name": "to",
          "type": "address"
        },
        {
          "internalType": "uint256",
          "name": "amount",
          "type": "uint256"
        }
      ],
      "name": "transfer",
      "outputs": [
        {
          "internalType": "bool",
          "name": "",
          "type": "bool"
        }
      ],
      "stateMutability": "nonpayable",
      "type": "function"
    },
    {
      "inputs": [
        {
          "internalType": "address",
          "name": "from",
          "type": "address"
        },
        {
          "internalType": "address",
          "name": "to",
          "type": "address"
        },
        {
          "internalType": "uint256",
          "name": "amount",
          "type": "uint256"
        }
      ],
      "name": "transferFrom",
      "outputs": [
        {
          "internalType": "bool",
          "name": "",
          "type": "bool"
        }
      ],
      "stateMutability": "nonpayable",
      "type": "function"
    },
    {
      "inputs": [],
      "name": "underlying",
      "outputs": [
        {
          "internalType": "address",
          "name": "",
          "type": "address"
        }
      ],
      "stateMutability": "view",
      "type": "function"
    }
  ],
  "bytecode": "0x608060405234801561001057600080fd5b50614bb2806100206000396000f3fe6080604052600436106103975760003560e01c806370a08231116101dc578063b07797bb11610102578063d505accf116100a0578063f3fdb15a1161006f578063f3fdb15a14610acd578063f5e3c46214610aed578063f851a44014610b0d578063f8f9da2814610b2d57600080fd5b8063d505accf14610a29578063d71f05e614610a49578063db006a7514610a67578063dd62ed3e14610a8757600080fd5b8063bee12d53116100dc578063bee12d5314610998578063c37f68e2146109ae578063c5ebeaec146109e9578063cf5303cf14610a0957600080fd5b8063b07797bb14610943578063b2a02ff114610963578063bd6d894d1461098357600080fd5b806395d89b411161017a578063a6afed9511610149578063a6afed95146108e3578063a9059cbb146108f8578063aa5af0fd14610918578063ae9d70b01461092e57600080fd5b806395d89b411461087057806395dd9193146108855780639816f473146108a5578063a457c2d7146108c357600080fd5b80637dc0d1d0116101b65780637dc0d1d0146107fa5780637ecebe001461081a578063852a12e31461083a5780638f840ddd1461085a57600080fd5b806370a082311461078f578063732c8009146107c557806373acee98146107e557600080fd5b806335403023116102c1578063511842d31161025f578063571f09101161022e578063571f0910146106a257806362b59562146106c25780636752e702146107595780636f307dc31461076f57600080fd5b8063511842d314610646578063530e784f1461065b578063542a1f0b1461067b57806354a8b2fb1461068f57600080fd5b80633af9e6691161029b5780633af9e669146105d057806347842663146105f057806347bd3718146106105780634dd18bf51461062657600080fd5b8063354030231461057b5780633644e5151461059b57806339509351146105b057600080fd5b8063182df0f511610339578063252e1a0b11610308578063252e1a0b146104f25780632608f818146105075780632678224714610527578063313ce5671461055f57600080fd5b8063182df0f5146104875780631c4469831461049c5780631f46eaae146104bc57806323b872dd146104d257600080fd5b80630e752702116103755780630e7527021461040e578063173b99041461042e57806317bfdfbc1461045257806318160ddd1461047257600080fd5b806306fdde031461039c578063095ea7b3146103c75780630e18b681146103f7575b600080fd5b3480156103a857600080fd5b506103b1610b42565b6040516103be9190614690565b60405180910390f35b3480156103d357600080fd5b506103e76103e23660046146fa565b610bd4565b60405190151581526020016103be565b34801561040357600080fd5b5061040c610bec565b005b34801561041a57600080fd5b5061040c610429366004614726565b610d01565b34801561043a57600080fd5b5061044460d35481565b6040519081526020016103be565b34801561045e57600080fd5b5061044461046d36600461473f565b610d0f565b34801561047e57600080fd5b50603554610444565b34801561049357600080fd5b50610444610d28565b3480156104a857600080fd5b5061040c6104b7366004614726565b610d92565b3480156104c857600080fd5b5061044460d45481565b3480156104de57600080fd5b506103e76104ed36600461475c565b610ef4565b3480156104fe57600080fd5b506103e7600181565b34801561051357600080fd5b5061040c6105223660046146fa565b611017565b34801561053357600080fd5b5060d154610547906001600160a01b031681565b6040516001600160a01b0390911681526020016103be565b34801561056b57600080fd5b50604051601281526020016103be565b34801561058757600080fd5b5061040c610596366004614726565b611026565b3480156105a757600080fd5b50610444611030565b3480156105bc57600080fd5b506103e76105cb3660046146fa565b61103f565b3480156105dc57600080fd5b506104446105eb36600461473f565b61107e565b3480156105fc57600080fd5b5060cc54610547906001600160a01b031681565b34801561061c57600080fd5b5061044460d75481565b34801561063257600080fd5b5061040c61064136600461473f565b6110c7565b34801561065257600080fd5b5060d454610444565b34801561066757600080fd5b5061040c61067636600461473f565b61117b565b34801561068757600080fd5b5060016103e7565b61040c61069d366004614726565b61122f565b3480156106ae57600080fd5b5061040c6106bd366004614840565b6114b8565b3480156106ce57600080fd5b5061071f6106dd366004614726565b60db602052600090815260409020805460018201546002909201546001600160a01b0391821692909116906001600160801b0380821691600160801b90041684565b604080516001600160a01b0395861681529490931660208501526001600160801b03918216928401929092521660608201526080016103be565b34801561076557600080fd5b5061044460da5481565b34801561077b57600080fd5b5060dc54610547906001600160a01b031681565b34801561079b57600080fd5b506104446107aa36600461473f565b6001600160a01b031660009081526033602052604090205490565b3480156107d157600080fd5b5061040c6107e0366004614726565b611600565b3480156107f157600080fd5b506104446118c9565b34801561080657600080fd5b5060ce54610547906001600160a01b031681565b34801561082657600080fd5b5061044461083536600461473f565b6118da565b34801561084657600080fd5b5061040c610855366004614726565b6118f8565b34801561086657600080fd5b5061044460d85481565b34801561087c57600080fd5b506103b1611904565b34801561089157600080fd5b506104446108a036600461473f565b611913565b3480156108b157600080fd5b5060dc546001600160a01b0316610547565b3480156108cf57600080fd5b506103e76108de3660046146fa565b611976565b3480156108ef57600080fd5b5061040c611a20565b34801561090457600080fd5b506103e76109133660046146fa565b611bfb565b34801561092457600080fd5b5061044460d55481565b34801561093a57600080fd5b50610444611d0c565b34801561094f57600080fd5b5061040c61095e366004614901565b611d9a565b34801561096f57600080fd5b5061040c61097e36600461475c565b612204565b34801561098f57600080fd5b50610444612215565b3480156109a457600080fd5b5061044460d65481565b3480156109ba57600080fd5b506109ce6109c936600461473f565b612227565b604080519384526020840192909252908201526060016103be565b3480156109f557600080fd5b5061040c610a04366004614726565b612269565b348015610a1557600080fd5b5060cf54610547906001600160a01b031681565b348015610a3557600080fd5b5061040c610a44366004614931565b612273565b348015610a5557600080fd5b5060cc546001600160a01b0316610547565b348015610a7357600080fd5b5061040c610a82366004614726565b6123d7565b348015610a9357600080fd5b50610444610aa23660046149a8565b6001600160a01b03918216600090815260346020908152604080832093909416825291909152205490565b348015610ad957600080fd5b5060cd54610547906001600160a01b031681565b348015610af957600080fd5b5061040c610b083660046149d6565b6123e3565b348015610b1957600080fd5b5060d054610547906001600160a01b031681565b348015610b3957600080fd5b506104446123ef565b606060368054610b5190614a18565b80601f0160208091040260200160405190810160405280929190818152602001828054610b7d90614a18565b8015610bca5780601f10610b9f57610100808354040283529160200191610bca565b820191906000526020600020905b815481529060010190602001808311610bad57829003601f168201915b5050505050905090565b600033610be2818585612438565b5060019392505050565b60d1546001600160a01b03163314610c4b5760405162461bcd60e51b815260206004820152601c60248201527f546f6b656e426173653a204e6f742070656e64696e672061646d696e0000000060448201526064015b60405180910390fd5b60d0805460d180546001600160a01b038082166001600160a01b031980861682179096559490911690915560408051919092168082526020820184905292917ff9ffabca9c8276e99321725bcb43fb076a6c66a54b7f21c4e8146d8519b417dc910160405180910390a160d154604080516001600160a01b03808516825290921660208301527fca4f2f25d0898edd99413412fb94012f9e54ec8142f9b093e7720646a95b16a991015b60405180910390a15050565b610d0c33338361255c565b50565b6000610d19611a20565b610d2282611913565b92915050565b600080610d3460355490565b905080600003610d4657505060d25490565b600060d85460d75460d654610d5b9190614a62565b610d659190614a7a565b9050600082610d7c670de0b6b3a764000084614a91565b610d869190614ab0565b949350505050565b5090565b60d0546001600160a01b03163314610dec5760405162461bcd60e51b815260206004820152601660248201527f4e6f7420617574686f72697a656420746f2063616c6c000000000000000000006044820152606401610c42565b610df4611a20565b4360d45414610e555760405162461bcd60e51b815260206004820152602760248201527f546f6b656e426173653a204d61726b6574207374617465206e6f7420796574206044820152661d5c19185d195960ca1b6064820152608401610c42565b670de0b6b3a76400008110610eb65760405162461bcd60e51b815260206004820152602160248201527f546f6b656e426173653a20496e76616c6964207265736572766520666163746f6044820152603960f91b6064820152608401610c42565b60d380549082905560408051828152602081018490527faaa68312e2ea9d50e16af5068410ab56e1a1fd06037b1a35664812c30f8214609101610cf5565b6000610efe611a20565b60cc546040517fff125c8a0000000000000000000000000000000000000000000000000000000081523060048201526001600160a01b038681166024830152604482018590529091169063ff125c8a90606401602060405180830381865afa158015610f6e573d6000803e3d6000fd5b505050506040513d601f19601f82011682018060405250810190610f929190614ae7565b610ff55760405162461bcd60e51b815260206004820152602e60248201527f546f6b656e426173653a205472616e7366657220646973616c6c6f776564206260448201526d3c903934b9b59036b0b730b3b2b960911b6064820152608401610c42565b33611001858285612795565b61100c858585612827565b506001949350505050565b61102233838361255c565b5050565b610d0c3382612a24565b600061103a612be5565b905090565b3360008181526034602090815260408083206001600160a01b0387168452909152812054909190610be29082908690611079908790614a62565b612438565b6000806040518060200160405280611094612215565b905290506110c0816110bb856001600160a01b031660009081526033602052604090205490565b612c60565b9392505050565b60d0546001600160a01b031633146111215760405162461bcd60e51b815260206004820152601660248201527f4e6f7420617574686f72697a656420746f2063616c6c000000000000000000006044820152606401610c42565b60d180546001600160a01b038381166001600160a01b031983168117909355604080519190921680825260208201939093527fca4f2f25d0898edd99413412fb94012f9e54ec8142f9b093e7720646a95b16a99101610cf5565b60d0546001600160a01b031633146111d55760405162461bcd60e51b815260206004820152601660248201527f4e6f7420617574686f72697a656420746f2063616c6c000000000000000000006044820152606401610c42565b60ce80546001600160a01b038381166001600160a01b031983168117909355604080519190921680825260208201939093527fd52b2b9b7e9ee655fcb95d2e5b9e0c9f69e7ef2b8e9d2d0ea78402d576d22e229101610cf5565b600081815260db6020908152604091829020825160808101845281546001600160a01b03908116825260018301541692810192909252600201546001600160801b0380821693830193909352600160801b900490911660608201526112978262015180614a62565b42106112e55760405162461bcd60e51b815260206004820152601c60248201527f546f6b656e426173653a2054696d65206c696d697420706173736564000000006044820152606401610c42565b80604001516001600160801b03166000036113685760405162461bcd60e51b815260206004820152603860248201527f546f6b656e426173653a204c69717569646174696f6e2070726f74656374696f60448201527f6e20636c6f736564202f206e65766572206578697374656400000000000000006064820152608401610c42565b6000606482604001516001600160801b031660786113869190614a91565b6113909190614ab0565b9050803410156113e25760405162461bcd60e51b815260206004820152601f60248201527f546f6b656e426173653a204e6f7420656e6f7567682045544820676976656e006044820152606401610c42565b60006113ee8234614a7a565b60208401516040519192506001600160a01b03169083156108fc029084906000818181858888f1935050505015801561142b573d6000803e3d6000fd5b50801561146157604051339082156108fc029083906000818181858888f1935050505015801561145f573d6000803e3d6000fd5b505b60608301516001600160801b03166114793082612c78565b83516114859082612dc6565b50505060009182525060db6020526040812080546001600160a01b03199081168255600182018054909116905560020155565b600054610100900460ff16158080156114d85750600054600160ff909116105b806114f25750303b1580156114f2575060005460ff166001145b6115645760405162461bcd60e51b815260206004820152602e60248201527f496e697469616c697a61626c653a20636f6e747261637420697320616c72656160448201527f647920696e697469616c697a65640000000000000000000000000000000000006064820152608401610c42565b6000805460ff191660011790558015611587576000805461ff0019166101001790555b611595878787878787612ea5565b60dc80546001600160a01b0319166001600160a01b038a1617905580156115f6576000805461ff0019169055604051600181527f7f26b83ff96e1f2b6a682f133852f6798a09c465da95921460cefb38474024989060200160405180910390a15b5050505050505050565b600081815260db6020908152604091829020825160808101845281546001600160a01b03908116825260018301541692810192909252600201546001600160801b0380821693830193909352600160801b900490911660608201526116688262015180614a62565b42116116b65760405162461bcd60e51b815260206004820181905260248201527f546f6b656e426173653a2054696d65206c696d6974206e6f74207061737365646044820152606401610c42565b80604001516001600160801b03166000036117395760405162461bcd60e51b815260206004820152603860248201527f546f6b656e426173653a204c69717569646174696f6e2070726f74656374696f60448201527f6e20636c6f736564202f206e65766572206578697374656400000000000000006064820152608401610c42565b80602001516001600160a01b0316336001600160a01b0316146117c45760405162461bcd60e51b815260206004820152602d60248201527f546f6b656e426173653a204e6f74206c697175696461746f72206f662074686960448201527f73206c69717569646174696f6e000000000000000000000000000000000000006064820152608401610c42565b60608101516001600160801b0316600080806117df84613140565b9250925092506117ef3085612c78565b6117f93384612dc6565b60d88190558451602080870151604080516001600160a01b039485168152939091169183019190915281018490527feac344312e08a6e34d3cb14733c432e8b20995a316e9abf4bc59640dc90d10ca9060600160405180910390a160408051308152602081018490529081018290527fa91e67c5ea634cd43a12c5a482724b03de01e85ca68702a53d0c2f45cb7c1dc59060600160405180910390a15050506000928352505060db6020526040812080546001600160a01b03199081168255600182018054909116905560020155565b60006118d3611a20565b5060d75490565b6001600160a01b038116600090815260996020526040812054610d22565b610d0c336000836131ab565b606060378054610b5190614a18565b6001600160a01b038116600090815260d96020908152604080832081518083019092528054808352600190910154928201929092529082036119585750600092915050565b602081015160d554825161196c9190614a91565b6110c09190614ab0565b3360008181526034602090815260408083206001600160a01b038716845290915281205490919083811015611a135760405162461bcd60e51b815260206004820152602560248201527f45524332303a2064656372656173656420616c6c6f77616e63652062656c6f7760448201527f207a65726f0000000000000000000000000000000000000000000000000000006064820152608401610c42565b61100c8286868403612438565b60d4544390818103611a30575050565b60d65460d75460d85460d55460cd546040516315f2405360e01b81526004810186905260248101859052604481018490526000916001600160a01b0316906315f2405390606401602060405180830381865afa158015611a94573d6000803e3d6000fd5b505050506040513d601f19601f82011682018060405250810190611ab89190614b02565b905065048c27395000811115611b105760405162461bcd60e51b815260206004820152601c60248201527f626f72726f772072617465206973206162737572646c792068696768000000006044820152606401610c42565b6000611b1c8789614a7a565b90506000611b386040518060200160405280858152508361347a565b90506000611b478286876134ab565b9050600085611b56838a614a91565b611b609190614ab0565b90506000611b6e8983614a7a565b90506000611b8d604051806020016040528060d354815250838b6134ab565b60d48e905560d585905560d784905560d8819055604080518d815260208101859052908101869052606081018590529091507f4dec04e750ca11537cabcd8a9eab06494de08da3735bc8871cd41250e190bc049060800160405180910390a150505050505050505050505050565b6000611c05611a20565b60003360cc546040517fff125c8a0000000000000000000000000000000000000000000000000000000081523060048201526001600160a01b0380841660248301526044820187905292935091169063ff125c8a90606401602060405180830381865afa158015611c7a573d6000803e3d6000fd5b505050506040513d601f19601f82011682018060405250810190611c9e9190614ae7565b611d015760405162461bcd60e51b815260206004820152602e60248201527f546f6b656e426173653a205472616e7366657220646973616c6c6f776564206260448201526d3c903934b9b59036b0b730b3b2b960911b6064820152608401610c42565b610be2818585612827565b60cd5460d65460d75460d85460d354604051635c0b440b60e11b815260048101949094526024840192909252604483015260648201526000916001600160a01b03169063b8168816906084015b602060405180830381865afa158015611d76573d6000803e3d6000fd5b505050506040513d601f19601f8201168201806040525081019061103a9190614b02565b600082815260db6020908152604091829020825160808101845281546001600160a01b03908116825260018301541692810192909252600201546001600160801b0380821693830193909352600160801b90049091166060820152611e028362015180614a62565b4210611e505760405162461bcd60e51b815260206004820152601c60248201527f546f6b656e426173653a2054696d65206c696d697420706173736564000000006044820152606401610c42565b60cc5460405163384cf1d760e01b81526001600160a01b0384811660048301529091169063384cf1d790602401602060405180830381865afa158015611e9a573d6000803e3d6000fd5b505050506040513d601f19601f82011682018060405250810190611ebe9190614ae7565b611f0a5760405162461bcd60e51b815260206004820152601c60248201527f546f6b656e426173653a204d61726b6574206e6f74206c6973746564000000006044820152606401610c42565b80604001516001600160801b0316600003611f8d5760405162461bcd60e51b815260206004820152603860248201527f546f6b656e426173653a204c69717569646174696f6e2070726f74656374696f60448201527f6e20636c6f736564202f206e65766572206578697374656400000000000000006064820152608401610c42565b80516001600160a01b0316331461200c5760405162461bcd60e51b815260206004820152602b60248201527f546f6b656e426173653a204e6f7420626f72726f776572206f6620746869732060448201527f6c69717569646174696f6e0000000000000000000000000000000000000000006064820152608401610c42565b6000606482604001516001600160801b0316607861202a9190614a91565b6120349190614ab0565b90506000836001600160a01b0316639816f4736040518163ffffffff1660e01b8152600401602060405180830381865afa158015612076573d6000803e3d6000fd5b505050506040513d601f19601f8201168201806040525081019061209a9190614b1b565b60ce5460405163fc57d4df60e01b81526001600160a01b0387811660048301529293506000929091169063fc57d4df906024016040805180830381865afa1580156120e9573d6000803e3d6000fd5b505050506040513d601f19601f8201168201806040525081019061210d9190614b38565b509050600061212a846040518060200160405280858152506134d5565b60208601516040516323b872dd60e01b81523360048201526001600160a01b039182166024820152604481018390529192508416906323b872dd906064016020604051808303816000875af1158015612187573d6000803e3d6000fd5b505050506040513d601f19601f820116820180604052508101906121ab9190614ae7565b5060608501516001600160801b03166121c43082612c78565b6121ce3382612dc6565b5050506000948552505060db60205250506040812080546001600160a01b03199081168255600182018054909116905560020155565b612210338484846134f3565b505050565b600061221f611a20565b61103a610d28565b600080600061224b846001600160a01b031660009081526033602052604090205490565b61225485611913565b61225c610d28565b9250925092509193909250565b610d0c338261382a565b834211156122c35760405162461bcd60e51b815260206004820152601d60248201527f45524332305065726d69743a206578706972656420646561646c696e650000006044820152606401610c42565b60007f6e71edae12b1b97f4d1f60370fef10105fa2faae0126114a169c64845d6126c98888886122f28c613a8b565b6040805160208101969096526001600160a01b0394851690860152929091166060840152608083015260a082015260c0810186905260e001604051602081830303815290604052805190602001209050600061234d82613ab3565b9050600061235d82878787613b01565b9050896001600160a01b0316816001600160a01b0316146123c05760405162461bcd60e51b815260206004820152601e60248201527f45524332305065726d69743a20696e76616c6964207369676e617475726500006044820152606401610c42565b6123cb8a8a8a612438565b50505050505050505050565b610d0c338260006131ab565b61221033848484613b29565b60cd5460d65460d75460d8546040516315f2405360e01b81526004810193909352602483019190915260448201526000916001600160a01b0316906315f2405390606401611d59565b6001600160a01b03831661249a5760405162461bcd60e51b8152602060048201526024808201527f45524332303a20617070726f76652066726f6d20746865207a65726f206164646044820152637265737360e01b6064820152608401610c42565b6001600160a01b0382166124fb5760405162461bcd60e51b815260206004820152602260248201527f45524332303a20617070726f766520746f20746865207a65726f206164647265604482015261737360f01b6064820152608401610c42565b6001600160a01b0383811660008181526034602090815260408083209487168084529482529182902085905590518481527f8c5be1e5ebec7d5bd14f71427d1e84f3dd0314c0f7b2291e5b200ac8c7c3b925910160405180910390a3505050565b612564611a20565b60cc54604051621f956f60ea1b81523060048201526001600160a01b0390911690637e55bc00906024016020604051808303816000875af11580156125ad573d6000803e3d6000fd5b505050506040513d601f19601f820116820180604052508101906125d19190614ae7565b6126435760405162461bcd60e51b815260206004820152602b60248201527f546f6b656e426173653a20526570617920646973616c6c6f776564206279207260448201527f69736b206d616e616765720000000000000000000000000000000000000000006064820152608401610c42565b4360d454146126a45760405162461bcd60e51b815260206004820152602760248201527f546f6b656e426173653a204d61726b6574207374617465206e6f7420796574206044820152661d5c19185d195960ca1b6064820152608401610c42565b60006126af83611913565b9050600060001983146126c257826126c4565b815b90506126d08582613fca565b60008282116126e8576126e38284614a7a565b6126eb565b60005b9050600060d754831161270b578260d7546127069190614a7a565b61270e565b60005b6001600160a01b03878116600081815260d9602090815260409182902087815560d55460019091015560d78590558151938c168452830191909152810185905260608101849052608081018290529091507f1a2a22cb034d26d1854bdc6666a5b91fe25efbbb5dcad3b0355478d6f5c362a19060a00160405180910390a150505050505050565b6001600160a01b03838116600090815260346020908152604080832093861683529290522054600019811461282157818110156128145760405162461bcd60e51b815260206004820152601d60248201527f45524332303a20696e73756666696369656e7420616c6c6f77616e63650000006044820152606401610c42565b6128218484848403612438565b50505050565b6001600160a01b0383166128a35760405162461bcd60e51b815260206004820152602560248201527f45524332303a207472616e736665722066726f6d20746865207a65726f20616460448201527f64726573730000000000000000000000000000000000000000000000000000006064820152608401610c42565b6001600160a01b0382166129055760405162461bcd60e51b815260206004820152602360248201527f45524332303a207472616e7366657220746f20746865207a65726f206164647260448201526265737360e81b6064820152608401610c42565b6001600160a01b038316600090815260336020526040902054818110156129945760405162461bcd60e51b815260206004820152602660248201527f45524332303a207472616e7366657220616d6f756e742065786365656473206260448201527f616c616e636500000000000000000000000000000000000000000000000000006064820152608401610c42565b6001600160a01b038085166000908152603360205260408082208585039055918516815290812080548492906129cb908490614a62565b92505081905550826001600160a01b0316846001600160a01b03167fddf252ad1be2c89b69c2b068fc378daa952ba7f163c4a11628f55a4df523b3ef84604051612a1791815260200190565b60405180910390a3612821565b612a2c611a20565b60cc5460405163028f2ead60e31b81523060048201526001600160a01b0390911690631479756890602401602060405180830381865afa158015612a74573d6000803e3d6000fd5b505050506040513d601f19601f82011682018060405250810190612a989190614ae7565b612af95760405162461bcd60e51b815260206004820152602c60248201527f546f6b656e426173653a20537570706c7920646973616c6c6f7765642062792060448201526b3934b9b59036b0b730b3b2b960a11b6064820152608401610c42565b4360d45414612b5a5760405162461bcd60e51b815260206004820152602760248201527f546f6b656e426173653a204d61726b6574207374617465206e6f7420796574206044820152661d5c19185d195960ca1b6064820152608401610c42565b60006040518060200160405280612b6f610d28565b90529050612b7d8383613fca565b6000612b8983836134d5565b9050612b958482612dc6565b604080516001600160a01b0386168152602081018590529081018290527f9d624b01705090e0c402c84f2bdef9c498399a009cee9a4e08ab004bae4471219060600160405180910390a150505050565b600061103a7f8b73c3c69bb8fe3d512ecc4cf759cc79239f7b179b0ffacaa9a75d522b39400f612c1460655490565b6066546040805160208101859052908101839052606081018290524660808201523060a082015260009060c0016040516020818303038152906040528051906020012090509392505050565b600080612c6d848461347a565b9050610d8681614066565b6001600160a01b038216612cd85760405162461bcd60e51b815260206004820152602160248201527f45524332303a206275726e2066726f6d20746865207a65726f206164647265736044820152607360f81b6064820152608401610c42565b6001600160a01b03821660009081526033602052604090205481811015612d4c5760405162461bcd60e51b815260206004820152602260248201527f45524332303a206275726e20616d6f756e7420657863656564732062616c616e604482015261636560f01b6064820152608401610c42565b6001600160a01b0383166000908152603360205260408120838303905560358054849290612d7b908490614a7a565b90915550506040518281526000906001600160a01b038516907fddf252ad1be2c89b69c2b068fc378daa952ba7f163c4a11628f55a4df523b3ef9060200160405180910390a3505050565b6001600160a01b038216612e1c5760405162461bcd60e51b815260206004820152601f60248201527f45524332303a206d696e7420746f20746865207a65726f2061646472657373006044820152606401610c42565b8060356000828254612e2e9190614a62565b90915550506001600160a01b03821660009081526033602052604081208054839290612e5b908490614a62565b90915550506040518181526001600160a01b038316906000907fddf252ad1be2c89b69c2b068fc378daa952ba7f163c4a11628f55a4df523b3ef9060200160405180910390a35050565b600054610100900460ff16612f105760405162461bcd60e51b815260206004820152602b60248201527f496e697469616c697a61626c653a20636f6e7472616374206973206e6f74206960448201526a6e697469616c697a696e6760a81b6064820152608401610c42565b612f198261407e565b612f23828261410c565b856001600160a01b031663a996e7ba6040518163ffffffff1660e01b81526004016020604051808303816000875af1158015612f63573d6000803e3d6000fd5b505050506040513d601f19601f82011682018060405250810190612f879190614ae7565b612fdf5760405162461bcd60e51b8152602060048201526024808201527f546f6b656e426173653a204e6f74207269736b206d616e6167657220636f6e746044820152631c9858dd60e21b6064820152608401610c42565b60cc80546001600160a01b0319166001600160a01b03888116919091179091554360d455670de0b6b3a764000060d555604080516310c8fc9560e11b8152905191871691632191f92a916004808201926020929091908290030181865afa15801561304e573d6000803e3d6000fd5b505050506040513d601f19601f820116820180604052508101906130729190614ae7565b6130e45760405162461bcd60e51b815260206004820152602a60248201527f546f6b656e426173653a204e6f7420696e74657273742072617465206d6f646560448201527f6c20636f6e7472616374000000000000000000000000000000000000000000006064820152608401610c42565b505060cd80546001600160a01b039485166001600160a01b03199182161790915560ce80549385169382169390931790925560cf805491909316908216179091556802b5e3af16b188000060d25560d080549091163317905550565b60008060008061316085604051806020016040528060da54815250614181565b905061316c8186614a7a565b935060006040518060200160405280613183610d28565b905290506131918183612c60565b93508360d8546131a19190614a62565b9496939550505050565b6131b3611a20565b8115806131be575080155b6132305760405162461bcd60e51b815260206004820152603b60248201527f546f6b656e426173653a204f6e65206f662072656465656d546f6b656e73206f60448201527f722072656465656d416d6f756e74206d757374206265207a65726f00000000006064820152608401610c42565b60006040518060200160405280613245610d28565b9052905060008084156132665784915061325f8386612c60565b9050613276565b61327084846134d5565b91508390505b60cc5460405163eabe7d9160e01b81523060048201526001600160a01b038881166024830152604482018590529091169063eabe7d9190606401602060405180830381865afa1580156132cd573d6000803e3d6000fd5b505050506040513d601f19601f820116820180604052508101906132f19190614ae7565b6133525760405162461bcd60e51b815260206004820152602c60248201527f546f6b656e426173653a2052656465656d20646973616c6c6f7765642062792060448201526b3934b9b59036b0b730b3b2b960a11b6064820152608401610c42565b4360d454146133b35760405162461bcd60e51b815260206004820152602760248201527f546f6b656e426173653a204d61726b6574207374617465206e6f7420796574206044820152661d5c19185d195960ca1b6064820152608401610c42565b8060d654116134145760405162461bcd60e51b815260206004820152602760248201527f546f6b656e426173653a204d61726b65742068617320696e73756666696369656044820152660dce840c6c2e6d60cb1b6064820152608401610c42565b61341e8683612c78565b613428868261419a565b604080516001600160a01b0388168152602081018390529081018390527fe5b754fb1abb7f01b499791d0b820ae3b6af3424ac1c59768edb53f4ec31a9299060600160405180910390a1505050505050565b60408051602081019091526000815260405180602001604052806134a2856000015185614226565b90529392505050565b6000806134b8858561347a565b90506134cc6134c682614066565b84614232565b95945050505050565b60006110c06134ec84670de0b6b3a7640000614226565b835161423e565b60cc54604051630779996560e11b81526001600160a01b0384811660048301528681166024830152306044830152606482018490526000928392911690630ef332ca906084016040805180830381865afa158015613555573d6000803e3d6000fd5b505050506040513d601f19601f820116820180604052508101906135799190614b38565b60cc546040516318b91ba160e31b81523060048201526001600160a01b038a81166024830152888116604483015260648201859052939550919350600092839291169063c5c8dd08906084016040805180830381865afa1580156135e1573d6000803e3d6000fd5b505050506040513d601f19601f820116820180604052508101906136059190614b5c565b915091508161367c5760405162461bcd60e51b815260206004820152603360248201527f546f6b656e426173653a20546f6b656e207365697a75726520646973616c6c6f60448201527f776564206279207269736b206d616e61676572000000000000000000000000006064820152608401610c42565b8080156136f0575060cf546040516310d5383b60e21b81523060048201526001600160a01b0390911690634354e0ec90602401602060405180830381865afa1580156136cc573d6000803e3d6000fd5b505050506040513d601f19601f820116820180604052508101906136f09190614ae7565b15613764576136ff8685612c78565b6137093085612dc6565b42600090815260db6020526040902080546001600160a01b038089166001600160a01b0319928316178355600183018054918b16919092161790556001600160801b03858116600160801b02908516176002909101556115f6565b600080600061377287613140565b9250925092506137828988612c78565b61378c8a84612dc6565b60d8819055604080516001600160a01b03808c1682528c1660208201529081018490527feac344312e08a6e34d3cb14733c432e8b20995a316e9abf4bc59640dc90d10ca9060600160405180910390a160408051308152602081018490529081018290527fa91e67c5ea634cd43a12c5a482724b03de01e85ca68702a53d0c2f45cb7c1dc59060600160405180910390a15050505050505050505050565b613832611a20565b60cc5460405163368f515360e21b81523060048201526001600160a01b038481166024830152604482018490529091169063da3d454c906064016020604051808303816000875af115801561388b573d6000803e3d6000fd5b505050506040513d601f19601f820116820180604052508101906138af9190614ae7565b6139105760405162461bcd60e51b815260206004820152602c60248201527f546f6b656e426173653a20426f72726f7720646973616c6c6f7765642062792060448201526b3934b9b59036b0b730b3b2b960a11b6064820152608401610c42565b4360d454146139715760405162461bcd60e51b815260206004820152602760248201527f546f6b656e426173653a204d61726b6574207374617465206e6f7420796574206044820152661d5c19185d195960ca1b6064820152608401610c42565b8060d654116139d25760405162461bcd60e51b815260206004820152602760248201527f546f6b656e426173653a204d61726b65742068617320696e73756666696369656044820152660dce840c6c2e6d60cb1b6064820152608401610c42565b60006139dd83611913565b905060006139eb8383614a62565b905060008360d7546139fd9190614a62565b6001600160a01b038616600090815260d96020526040902083815560d55460019091015560d78190559050613a32858561419a565b604080516001600160a01b038716815260208101869052908101839052606081018290527f13ed6866d4e1ee6da46f845c46d7e54120883d75c5ea9a2dacc1c4ca8984ab80906080015b60405180910390a15050505050565b6001600160a01b03811660009081526099602052604090208054600181018255905b50919050565b6000610d22613ac0612be5565b8360405161190160f01b6020820152602281018390526042810182905260009060620160405160208183030381529060405280519060200120905092915050565b6000806000613b128787878761424a565b91509150613b1f81614337565b5095945050505050565b613b31611a20565b6000819050806001600160a01b031663a6afed956040518163ffffffff1660e01b8152600401600060405180830381600087803b158015613b7157600080fd5b505af1158015613b85573d6000803e3d6000fd5b505060cc54604051636e2cf5af60e01b81523060048201526001600160a01b0386811660248301528881166044830152606482018890529091169250636e2cf5af91506084016020604051808303816000875af1158015613bea573d6000803e3d6000fd5b505050506040513d601f19601f82011682018060405250810190613c0e9190614ae7565b613c805760405162461bcd60e51b815260206004820152603160248201527f546f6b656e426173653a204c69717569646174696f6e20646973616c6c6f776560448201527f64206279207269736b206d616e616765720000000000000000000000000000006064820152608401610c42565b4360d45414613ce15760405162461bcd60e51b815260206004820152602760248201527f546f6b656e426173653a204d61726b6574207374617465206e6f7420796574206044820152661d5c19185d195960ca1b6064820152608401610c42565b43816001600160a01b031663511842d36040518163ffffffff1660e01b8152600401602060405180830381865afa158015613d20573d6000803e3d6000fd5b505050506040513d601f19601f82011682018060405250810190613d449190614b02565b14613db75760405162461bcd60e51b815260206004820152603260248201527f546f6b656e426173653a20436f6c6c61746572616c206d61726b65742073746160448201527f7465206e6f7420796574207570646174656400000000000000000000000000006064820152608401610c42565b846001600160a01b0316846001600160a01b031603613e245760405162461bcd60e51b8152602060048201526024808201527f546f6b656e426173653a2043616e6e6f74206c697175696461746520796f757260448201526339b2b63360e11b6064820152608401610c42565b600083118015613e3657506000198314155b613e825760405162461bcd60e51b815260206004820152601f60248201527f546f6b656e426173653a20496e76616c696420726570617920616d6f756e74006044820152606401610c42565b613e8d85858561255c565b306001600160a01b03831603613eae57613ea9308686866134f3565b613f19565b60405163b2a02ff160e01b81526001600160a01b03868116600483015285811660248301526044820185905282169063b2a02ff190606401600060405180830381600087803b158015613f0057600080fd5b505af1158015613f14573d6000803e3d6000fd5b505050505b60cc5460405163057d5da760e51b81526001600160a01b0386811660048301529091169063afabb4e090602401600060405180830381600087803b158015613f6057600080fd5b505af1158015613f74573d6000803e3d6000fd5b5050604080516001600160a01b03808a168252808916602083015291810187905290851660608201527fb317550be5409ae673b9326d836608f387c2de00a16e325ad58d4394a30d3f1092506080019050613a7c565b60dc546040516323b872dd60e01b81526001600160a01b038481166004830152306024830152604482018490529091169081906323b872dd906064016020604051808303816000875af1158015614025573d6000803e3d6000fd5b505050506040513d601f19601f820116820180604052508101906140499190614ae7565b508160d6600082825461405c9190614a62565b9091555050505050565b8051600090610d2290670de0b6b3a764000090614ab0565b600054610100900460ff166140e95760405162461bcd60e51b815260206004820152602b60248201527f496e697469616c697a61626c653a20636f6e7472616374206973206e6f74206960448201526a6e697469616c697a696e6760a81b6064820152608401610c42565b610d0c81604051806040016040528060018152602001603160f81b8152506144ed565b600054610100900460ff166141775760405162461bcd60e51b815260206004820152602b60248201527f496e697469616c697a61626c653a20636f6e7472616374206973206e6f74206960448201526a6e697469616c697a696e6760a81b6064820152608401610c42565b6110228282614572565b6000670de0b6b3a764000061196c848460000151614226565b60dc5460405163a9059cbb60e01b81526001600160a01b0384811660048301526024820184905290911690819063a9059cbb906044016020604051808303816000875af11580156141ef573d6000803e3d6000fd5b505050506040513d601f19601f820116820180604052508101906142139190614ae7565b508160d6600082825461405c9190614a7a565b60006110c08284614a91565b60006110c08284614a62565b60006110c08284614ab0565b6000807f7fffffffffffffffffffffffffffffff5d576e7357a4501ddfe92f46681b20a0831115614281575060009050600361432e565b8460ff16601b1415801561429957508460ff16601c14155b156142aa575060009050600461432e565b6040805160008082526020820180845289905260ff881692820192909252606081018690526080810185905260019060a0016020604051602081039080840390855afa1580156142fe573d6000803e3d6000fd5b5050604051601f1901519150506001600160a01b0381166143275760006001925092505061432e565b9150600090505b94509492505050565b600081600481111561434b5761434b614b8f565b036143535750565b600181600481111561436757614367614b8f565b036143b45760405162461bcd60e51b815260206004820152601860248201527f45434453413a20696e76616c6964207369676e617475726500000000000000006044820152606401610c42565b60028160048111156143c8576143c8614b8f565b036144155760405162461bcd60e51b815260206004820152601f60248201527f45434453413a20696e76616c6964207369676e6174757265206c656e677468006044820152606401610c42565b600381600481111561442957614429614b8f565b036144815760405162461bcd60e51b815260206004820152602260248201527f45434453413a20696e76616c6964207369676e6174757265202773272076616c604482015261756560f01b6064820152608401610c42565b600481600481111561449557614495614b8f565b03610d0c5760405162461bcd60e51b815260206004820152602260248201527f45434453413a20696e76616c6964207369676e6174757265202776272076616c604482015261756560f01b6064820152608401610c42565b600054610100900460ff166145585760405162461bcd60e51b815260206004820152602b60248201527f496e697469616c697a61626c653a20636f6e7472616374206973206e6f74206960448201526a6e697469616c697a696e6760a81b6064820152608401610c42565b815160209283012081519190920120606591909155606655565b600054610100900460ff166145dd5760405162461bcd60e51b815260206004820152602b60248201527f496e697469616c697a61626c653a20636f6e7472616374206973206e6f74206960448201526a6e697469616c697a696e6760a81b6064820152608401610c42565b81516145f0906036906020850190614600565b5080516122109060379060208401905b82805461460c90614a18565b90600052602060002090601f01602090048101928261462e5760008555614674565b82601f1061464757805160ff1916838001178555614674565b82800160010185558215614674579182015b82811115614674578251825591602001919060010190614659565b50610d8e9291505b80821115610d8e576000815560010161467c565b600060208083528351808285015260005b818110156146bd578581018301518582016040015282016146a1565b818111156146cf576000604083870101525b50601f01601f1916929092016040019392505050565b6001600160a01b0381168114610d0c57600080fd5b6000806040838503121561470d57600080fd5b8235614718816146e5565b946020939093013593505050565b60006020828403121561473857600080fd5b5035919050565b60006020828403121561475157600080fd5b81356110c0816146e5565b60008060006060848603121561477157600080fd5b833561477c816146e5565b9250602084013561478c816146e5565b929592945050506040919091013590565b634e487b7160e01b600052604160045260246000fd5b600082601f8301126147c457600080fd5b813567ffffffffffffffff808211156147df576147df61479d565b604051601f8301601f19908116603f011681019082821181831017156148075761480761479d565b8160405283815286602085880101111561482057600080fd5b836020870160208301376000602085830101528094505050505092915050565b600080600080600080600060e0888a03121561485b57600080fd5b8735614866816146e5565b96506020880135614876816146e5565b95506040880135614886816146e5565b94506060880135614896816146e5565b935060808801356148a6816146e5565b925060a088013567ffffffffffffffff808211156148c357600080fd5b6148cf8b838c016147b3565b935060c08a01359150808211156148e557600080fd5b506148f28a828b016147b3565b91505092959891949750929550565b6000806040838503121561491457600080fd5b823591506020830135614926816146e5565b809150509250929050565b600080600080600080600060e0888a03121561494c57600080fd5b8735614957816146e5565b96506020880135614967816146e5565b95506040880135945060608801359350608088013560ff8116811461498b57600080fd5b9699959850939692959460a0840135945060c09093013592915050565b600080604083850312156149bb57600080fd5b82356149c6816146e5565b91506020830135614926816146e5565b6000806000606084860312156149eb57600080fd5b83356149f6816146e5565b9250602084013591506040840135614a0d816146e5565b809150509250925092565b600181811c90821680614a2c57607f821691505b602082108103613aad57634e487b7160e01b600052602260045260246000fd5b634e487b7160e01b600052601160045260246000fd5b60008219821115614a7557614a75614a4c565b500190565b600082821015614a8c57614a8c614a4c565b500390565b6000816000190483118215151615614aab57614aab614a4c565b500290565b600082614acd57634e487b7160e01b600052601260045260246000fd5b500490565b80518015158114614ae257600080fd5b919050565b600060208284031215614af957600080fd5b6110c082614ad2565b600060208284031215614b1457600080fd5b5051919050565b600060208284031215614b2d57600080fd5b81516110c0816146e5565b60008060408385031215614b4b57600080fd5b505080516020909101519092909150565b60008060408385031215614b6f57600080fd5b614b7883614ad2565b9150614b8660208401614ad2565b90509250929050565b634e487b7160e01b600052602160045260246000fdfea164736f6c634300080d000a",
  "linkReferences": {},
  "deployedLinkReferences": {}
}