{
  "_format": "hh-sol-artifact-1",
  "contractName": "FuCatNFT",
  "sourceName": "contracts/FuCatNFT.sol",
  "abi": [
    {
      "inputs": [
        {
          "internalType": "uint256",
          "name": "_maxSupply",
          "type": "uint256"
        }
      ],
      "stateMutability": "nonpayable",
      "type": "constructor"
    },
    {
      "anonymous": false,
      "inputs": [
        {
          "indexed": true,
          "internalType": "address",
          "name": "owner",
          "type": "address"
        },
        {
          "indexed": true,
          "internalType": "address",
          "name": "approved",
          "type": "address"
        },
        {
          "indexed": true,
          "internalType": "uint256",
          "name": "tokenId",
          "type": "uint256"
        }
      ],
      "name": "Approval",
      "type": "event"
    },
    {
      "anonymous": false,
      "inputs": [
        {
          "indexed": true,
          "internalType": "address",
          "name": "owner",
          "type": "address"
        },
        {
          "indexed": true,
          "internalType": "address",
          "name": "operator",
          "type": "address"
        },
        {
          "indexed": false,
          "internalType": "bool",
          "name": "approved",
          "type": "bool"
        }
      ],
      "name": "ApprovalForAll",
      "type": "event"
    },
    {
      "anonymous": false,
      "inputs": [
        {
          "indexed": false,
          "internalType": "address",
          "name": "previousOperator",
          "type": "address"
        },
        {
          "indexed": false,
          "internalType": "address",
          "name": "newOperator",
          "type": "address"
        }
      ],
      "name": "OperatorTransferred",
      "type": "event"
    },
    {
      "anonymous": false,
      "inputs": [
        {
          "indexed": true,
          "internalType": "address",
          "name": "previousOwner",
          "type": "address"
        },
        {
          "indexed": true,
          "internalType": "address",
          "name": "newOwner",
          "type": "address"
        }
      ],
      "name": "OwnershipTransferred",
      "type": "event"
    },
    {
      "anonymous": false,
      "inputs": [
        {
          "indexed": false,
          "internalType": "address",
          "name": "minter",
          "type": "address"
        },
        {
          "indexed": false,
          "internalType": "uint256",
          "name": "tokenId",
          "type": "uint256"
        },
        {
          "indexed": false,
          "internalType": "uint256",
          "name": "amount",
          "type": "uint256"
        }
      ],
      "name": "ScoreMinted",
      "type": "event"
    },
    {
      "anonymous": false,
      "inputs": [
        {
          "indexed": false,
          "internalType": "string",
          "name": "baseUri",
          "type": "string"
        }
      ],
      "name": "SetBaseURI",
      "type": "event"
    },
    {
      "anonymous": false,
      "inputs": [
        {
          "indexed": false,
          "internalType": "address",
          "name": "minter",
          "type": "address"
        },
        {
          "indexed": false,
          "internalType": "uint256",
          "name": "mintedAmount",
          "type": "uint256"
        }
      ],
      "name": "TokenClaimed",
      "type": "event"
    },
    {
      "anonymous": false,
      "inputs": [
        {
          "indexed": true,
          "internalType": "address",
          "name": "from",
          "type": "address"
        },
        {
          "indexed": true,
          "internalType": "address",
          "name": "to",
          "type": "address"
        },
        {
          "indexed": true,
          "internalType": "uint256",
          "name": "tokenId",
          "type": "uint256"
        }
      ],
      "name": "Transfer",
      "type": "event"
    },
    {
      "inputs": [
        {
          "internalType": "bytes32",
          "name": "_merkleRoot",
          "type": "bytes32"
        }
      ],
      "name": "addTaskerMerkleRoot",
      "outputs": [],
      "stateMutability": "nonpayable",
      "type": "function"
    },
    {
      "inputs": [
        {
          "internalType": "address",
          "name": "to",
          "type": "address"
        },
        {
          "internalType": "uint256",
          "name": "tokenId",
          "type": "uint256"
        }
      ],
      "name": "approve",
      "outputs": [],
      "stateMutability": "nonpayable",
      "type": "function"
    },
    {
      "inputs": [
        {
          "internalType": "address",
          "name": "owner",
          "type": "address"
        }
      ],
      "name": "balanceOf",
      "outputs": [
        {
          "internalType": "uint256",
          "name": "",
          "type": "uint256"
        }
      ],
      "stateMutability": "view",
      "type": "function"
    },
    {
      "inputs": [],
      "name": "baseURI",
      "outputs": [
        {
          "internalType": "string",
          "name": "",
          "type": "string"
        }
      ],
      "stateMutability": "view",
      "type": "function"
    },
    {
      "inputs": [
        {
          "internalType": "uint256",
          "name": "_taskIndex",
          "type": "uint256"
        },
        {
          "internalType": "uint256",
          "name": "_amount",
          "type": "uint256"
        },
        {
          "internalType": "bytes32[]",
          "name": "_proof",
          "type": "bytes32[]"
        },
        {
          "internalType": "uint256",
          "name": "_tokenId",
          "type": "uint256"
        }
      ],
      "name": "claimTaskerScore",
      "outputs": [],
      "stateMutability": "nonpayable",
      "type": "function"
    },
    {
      "inputs": [
        {
          "internalType": "bytes32[]",
          "name": "_proof",
          "type": "bytes32[]"
        }
      ],
      "name": "claimToken",
      "outputs": [],
      "stateMutability": "nonpayable",
      "type": "function"
    },
    {
      "inputs": [
        {
          "internalType": "uint256",
          "name": "tokenId",
          "type": "uint256"
        }
      ],
      "name": "getApproved",
      "outputs": [
        {
          "internalType": "address",
          "name": "",
          "type": "address"
        }
      ],
      "stateMutability": "view",
      "type": "function"
    },
    {
      "inputs": [
        {
          "internalType": "address",
          "name": "_user",
          "type": "address"
        },
        {
          "internalType": "uint256",
          "name": "_index",
          "type": "uint256"
        },
        {
          "internalType": "uint256",
          "name": "_amount",
          "type": "uint256"
        },
        {
          "internalType": "bytes32[]",
          "name": "_proof",
          "type": "bytes32[]"
        }
      ],
      "name": "isAbleMintScore",
      "outputs": [
        {
          "internalType": "bool",
          "name": "",
          "type": "bool"
        }
      ],
      "stateMutability": "view",
      "type": "function"
    },
    {
      "inputs": [
        {
          "internalType": "address",
          "name": "_user",
          "type": "address"
        },
        {
          "internalType": "bytes32[]",
          "name": "_proof",
          "type": "bytes32[]"
        }
      ],
      "name": "isAbleMintToken",
      "outputs": [
        {
          "internalType": "bool",
          "name": "",
          "type": "bool"
        }
      ],
      "stateMutability": "view",
      "type": "function"
    },
    {
      "inputs": [
        {
          "internalType": "address",
          "name": "owner",
          "type": "address"
        },
        {
          "internalType": "address",
          "name": "operator",
          "type": "address"
        }
      ],
      "name": "isApprovedForAll",
      "outputs": [
        {
          "internalType": "bool",
          "name": "",
          "type": "bool"
        }
      ],
      "stateMutability": "view",
      "type": "function"
    },
    {
      "inputs": [],
      "name": "maxSupply",
      "outputs": [
        {
          "internalType": "uint256",
          "name": "",
          "type": "uint256"
        }
      ],
      "stateMutability": "view",
      "type": "function"
    },
    {
      "inputs": [],
      "name": "mintedAmount",
      "outputs": [
        {
          "internalType": "uint256",
          "name": "",
          "type": "uint256"
        }
      ],
      "stateMutability": "view",
      "type": "function"
    },
    {
      "inputs": [
        {
          "internalType": "address",
          "name": "",
          "type": "address"
        }
      ],
      "name": "minterHasClaimed",
      "outputs": [
        {
          "internalType": "bool",
          "name": "",
          "type": "bool"
        }
      ],
      "stateMutability": "view",
      "type": "function"
    },
    {
      "inputs": [],
      "name": "minterMerkleRoot",
      "outputs": [
        {
          "internalType": "bytes32",
          "name": "",
          "type": "bytes32"
        }
      ],
      "stateMutability": "view",
      "type": "function"
    },
    {
      "inputs": [],
      "name": "name",
      "outputs": [
        {
          "internalType": "string",
          "name": "",
          "type": "string"
        }
      ],
      "stateMutability": "view",
      "type": "function"
    },
    {
      "inputs": [],
      "name": "operator",
      "outputs": [
        {
          "internalType": "address",
          "name": "",
          "type": "address"
        }
      ],
      "stateMutability": "view",
      "type": "function"
    },
    {
      "inputs": [],
      "name": "owner",
      "outputs": [
        {
          "internalType": "address",
          "name": "",
          "type": "address"
        }
      ],
      "stateMutability": "view",
      "type": "function"
    },
    {
      "inputs": [
        {
          "internalType": "uint256",
          "name": "tokenId",
          "type": "uint256"
        }
      ],
      "name": "ownerOf",
      "outputs": [
        {
          "internalType": "address",
          "name": "",
          "type": "address"
        }
      ],
      "stateMutability": "view",
      "type": "function"
    },
    {
      "inputs": [],
      "name": "renounceOwnership",
      "outputs": [],
      "stateMutability": "nonpayable",
      "type": "function"
    },
    {
      "inputs": [
        {
          "internalType": "address",
          "name": "from",
          "type": "address"
        },
        {
          "internalType": "address",
          "name": "to",
          "type": "address"
        },
        {
          "internalType": "uint256",
          "name": "tokenId",
          "type": "uint256"
        }
      ],
      "name": "safeTransferFrom",
      "outputs": [],
      "stateMutability": "nonpayable",
      "type": "function"
    },
    {
      "inputs": [
        {
          "internalType": "address",
          "name": "from",
          "type": "address"
        },
        {
          "internalType": "address",
          "name": "to",
          "type": "address"
        },
        {
          "internalType": "uint256",
          "name": "tokenId",
          "type": "uint256"
        },
        {
          "internalType": "bytes",
          "name": "data",
          "type": "bytes"
        }
      ],
      "name": "safeTransferFrom",
      "outputs": [],
      "stateMutability": "nonpayable",
      "type": "function"
    },
    {
      "inputs": [
        {
          "internalType": "address",
          "name": "operator",
          "type": "address"
        },
        {
          "internalType": "bool",
          "name": "approved",
          "type": "bool"
        }
      ],
      "name": "setApprovalForAll",
      "outputs": [],
      "stateMutability": "nonpayable",
      "type": "function"
    },
    {
      "inputs": [
        {
          "internalType": "string",
          "name": "baseURI_",
          "type": "string"
        }
      ],
      "name": "setBaseURI",
      "outputs": [],
      "stateMutability": "nonpayable",
      "type": "function"
    },
    {
      "inputs": [
        {
          "internalType": "bytes32",
          "name": "_merkleRoot",
          "type": "bytes32"
        }
      ],
      "name": "setMinterMerkleRoot",
      "outputs": [],
      "stateMutability": "nonpayable",
      "type": "function"
    },
    {
      "inputs": [
        {
          "internalType": "address",
          "name": "_operator",
          "type": "address"
        }
      ],
      "name": "setOperator",
      "outputs": [],
      "stateMutability": "nonpayable",
      "type": "function"
    },
    {
      "inputs": [
        {
          "internalType": "bool",
          "name": "_startMintToken",
          "type": "bool"
        }
      ],
      "name": "setStartMintToken",
      "outputs": [],
      "stateMutability": "nonpayable",
      "type": "function"
    },
    {
      "inputs": [],
      "name": "startMintToken",
      "outputs": [
        {
          "internalType": "bool",
          "name": "",
          "type": "bool"
        }
      ],
      "stateMutability": "view",
      "type": "function"
    },
    {
      "inputs": [
        {
          "internalType": "bytes4",
          "name": "interfaceId",
          "type": "bytes4"
        }
      ],
      "name": "supportsInterface",
      "outputs": [
        {
          "internalType": "bool",
          "name": "",
          "type": "bool"
        }
      ],
      "stateMutability": "view",
      "type": "function"
    },
    {
      "inputs": [],
      "name": "symbol",
      "outputs": [
        {
          "internalType": "string",
          "name": "",
          "type": "string"
        }
      ],
      "stateMutability": "view",
      "type": "function"
    },
    {
      "inputs": [
        {
          "internalType": "address",
          "name": "",
          "type": "address"
        },
        {
          "internalType": "uint256",
          "name": "",
          "type": "uint256"
        }
      ],
      "name": "taskerHasClaimed",
      "outputs": [
        {
          "internalType": "bool",
          "name": "",
          "type": "bool"
        }
      ],
      "stateMutability": "view",
      "type": "function"
    },
    {
      "inputs": [
        {
          "internalType": "uint256",
          "name": "",
          "type": "uint256"
        }
      ],
      "name": "taskerMerkleRoots",
      "outputs": [
        {
          "internalType": "bytes32",
          "name": "",
          "type": "bytes32"
        }
      ],
      "stateMutability": "view",
      "type": "function"
    },
    {
      "inputs": [
        {
          "internalType": "uint256",
          "name": "",
          "type": "uint256"
        }
      ],
      "name": "tokenScore",
      "outputs": [
        {
          "internalType": "uint256",
          "name": "",
          "type": "uint256"
        }
      ],
      "stateMutability": "view",
      "type": "function"
    },
    {
      "inputs": [
        {
          "internalType": "uint256",
          "name": "tokenId",
          "type": "uint256"
        }
      ],
      "name": "tokenURI",
      "outputs": [
        {
          "internalType": "string",
          "name": "",
          "type": "string"
        }
      ],
      "stateMutability": "view",
      "type": "function"
    },
    {
      "inputs": [
        {
          "internalType": "address",
          "name": "from",
          "type": "address"
        },
        {
          "internalType": "address",
          "name": "to",
          "type": "address"
        },
        {
          "internalType": "uint256",
          "name": "tokenId",
          "type": "uint256"
        }
      ],
      "name": "transferFrom",
      "outputs": [],
      "stateMutability": "nonpayable",
      "type": "function"
    },
    {
      "inputs": [
        {
          "internalType": "address",
          "name": "newOwner",
          "type": "address"
        }
      ],
      "name": "transferOwnership",
      "outputs": [],
      "stateMutability": "nonpayable",
      "type": "function"
    },
    {
      "inputs": [
        {
          "internalType": "bytes32",
          "name": "_merkleRoot",
          "type": "bytes32"
        },
        {
          "internalType": "uint256",
          "name": "_index",
          "type": "uint256"
        }
      ],
      "name": "updateTaskerMerkleRoot",
      "outputs": [],
      "stateMutability": "nonpayable",
      "type": "function"
    }
  ],
  "bytecode": "0x60806040523480156200001157600080fd5b506040516200290c3803806200290c8339810160408190526200003491620001c1565b60405180604001604052806008815260200167119d50d85d13919560c21b81525060405180604001604052806008815260200167119d50d85d13919560c21b815250620000906200008a620000c760201b60201c565b620000cb565b8151620000a59060019060208501906200011b565b508051620000bb9060029060208401906200011b565b50505060075562000217565b3390565b600080546001600160a01b038381166001600160a01b0319831681178455604051919092169283917f8be0079c531659141344cd1fd0a4f28419497f9722a3daafe3b4186f6b6457e09190a35050565b8280546200012990620001db565b90600052602060002090601f0160209004810192826200014d576000855562000198565b82601f106200016857805160ff191683800117855562000198565b8280016001018555821562000198579182015b82811115620001985782518255916020019190600101906200017b565b50620001a6929150620001aa565b5090565b5b80821115620001a65760008155600101620001ab565b600060208284031215620001d457600080fd5b5051919050565b600181811c90821680620001f057607f821691505b6020821081036200021157634e487b7160e01b600052602260045260246000fd5b50919050565b6126e580620002276000396000f3fe608060405234801561001057600080fd5b506004361061025c5760003560e01c806370a0823111610145578063bfaf308b116100bd578063d5abeb011161008c578063e985e9c511610071578063e985e9c514610509578063ef27e5d714610545578063f2fde38b1461055857600080fd5b8063d5abeb01146104ed578063e8b6b5ca146104f657600080fd5b8063bfaf308b14610497578063c45e4e8a146104a4578063c6236569146104b7578063c87b56dd146104da57600080fd5b80638da5cb5b11610114578063a22cb465116100f9578063a22cb4651461045e578063b3ab15fb14610471578063b88d4fde1461048457600080fd5b80638da5cb5b1461044557806395d89b411461045657600080fd5b806370a08231146103f7578063715018a61461040a5780637f9a80b01461041257806389e38ffa1461042557600080fd5b80632d380242116101d8578063570ca735116101a75780636c0360eb1161018c5780636c0360eb146103c95780636cb9c47d146103d15780636d835d82146103e457600080fd5b8063570ca7351461039e5780636352211e146103b657600080fd5b80632d3802421461035c578063321ff76d1461036557806342842e0e1461037857806355f804b31461038b57600080fd5b806310f8d6021161022f5780631990db33116102145780631990db331461030857806323b872dd1461031b5780632537bb271461032e57600080fd5b806310f8d602146102de578063177275c7146102f157600080fd5b806301ffc9a71461026157806306fdde0314610289578063081812fc1461029e578063095ea7b3146102c9575b600080fd5b61027461026f366004612045565b61056b565b60405190151581526020015b60405180910390f35b6102916105bd565b60405161028091906120ba565b6102b16102ac3660046120cd565b61064f565b6040516001600160a01b039091168152602001610280565b6102dc6102d7366004612102565b610676565b005b6102dc6102ec366004612178565b610790565b6102fa600c5481565b604051908152602001610280565b6102746103163660046121ba565b6109bf565b6102dc610329366004612222565b610a6a565b61027461033c366004612102565b600f60209081526000928352604080842090915290825290205460ff1681565b6102fa60085481565b6102dc61037336600461225e565b610ae2565b6102dc610386366004612222565b610be3565b6102dc610399366004612280565b610bfe565b6009546102b19061010090046001600160a01b031681565b6102b16103c43660046120cd565b610cc8565b610291610d2d565b6102fa6103df3660046120cd565b610dbb565b6102dc6103f23660046120cd565b610ddc565b6102fa6104053660046122f2565b610e9d565b6102dc610f37565b61027461042036600461230d565b610f4b565b6102fa6104333660046120cd565b600b6020526000908152604090205481565b6000546001600160a01b03166102b1565b610291611024565b6102dc61046c366004612370565b611033565b6102dc61047f3660046122f2565b611042565b6102dc6104923660046123b9565b61111f565b6009546102749060ff1681565b6102dc6104b2366004612495565b61119e565b6102746104c53660046122f2565b600d6020526000908152604090205460ff1681565b6102916104e83660046120cd565b61123d565b6102fa60075481565b6102dc6105043660046124b0565b6112a4565b61027461051736600461250b565b6001600160a01b03918216600090815260066020908152604080832093909416825291909152205460ff1690565b6102dc6105533660046120cd565b6114e7565b6102dc6105663660046122f2565b611578565b60006001600160e01b031982166380ac58cd60e01b148061059c57506001600160e01b03198216635b5e139f60e01b145b806105b757506301ffc9a760e01b6001600160e01b03198316145b92915050565b6060600180546105cc90612535565b80601f01602080910402602001604051908101604052809291908181526020018280546105f890612535565b80156106455780601f1061061a57610100808354040283529160200191610645565b820191906000526020600020905b81548152906001019060200180831161062857829003601f168201915b5050505050905090565b600061065a82611608565b506000908152600560205260409020546001600160a01b031690565b600061068182610cc8565b9050806001600160a01b0316836001600160a01b0316036106f35760405162461bcd60e51b815260206004820152602160248201527f4552433732313a20617070726f76616c20746f2063757272656e74206f776e656044820152603960f91b60648201526084015b60405180910390fd5b336001600160a01b038216148061070f575061070f8133610517565b6107815760405162461bcd60e51b815260206004820152603e60248201527f4552433732313a20617070726f76652063616c6c6572206973206e6f7420746f60448201527f6b656e206f776e6572206e6f7220617070726f76656420666f7220616c6c000060648201526084016106ea565b61078b838361166c565b505050565b60095460ff166107e25760405162461bcd60e51b815260206004820152601960248201527f4d696e74696e6720686173206e6f7420626567756e207965740000000000000060448201526064016106ea565b600754600854106108355760405162461bcd60e51b815260206004820152601160248201527f457863656564206d617820737570706c7900000000000000000000000000000060448201526064016106ea565b336000908152600d602052604090205460ff16156108955760405162461bcd60e51b815260206004820152600f60248201527f416c726561647920636c61696d6564000000000000000000000000000000000060448201526064016106ea565b61090a82828080602002602001604051908101604052809392919081815260200183836020028082843760009201919091525050600c546040516bffffffffffffffffffffffff193360601b1660208201529092506034019050604051602081830303815290604052805190602001206116da565b6109565760405162461bcd60e51b815260206004820152601460248201527f496e76616c6964206d65726b6c652070726f6f6600000000000000000000000060448201526064016106ea565b336000818152600d60205260409020805460ff1916600190811790915561097d91906116f0565b6008546040805133815260208101929092527fe42df0d9493dfd0d7f69902c895b94c190a53e8c27876a86f45e7c997d9d8f7c91015b60405180910390a15050565b6040516bffffffffffffffffffffffff19606087901b166020820152603481018490526000908190605401604051602081830303815290604052805190602001209050610a5f84848080602002602001604051908101604052809392919081815260200183836020028082843760009201919091525050600e80549092508a91508110610a4e57610a4e61256f565b9060005260206000200154836116da565b979650505050505050565b610a743382611728565b610ad75760405162461bcd60e51b815260206004820152602e60248201527f4552433732313a2063616c6c6572206973206e6f7420746f6b656e206f776e6560448201526d1c881b9bdc88185c1c1c9bdd995960921b60648201526084016106ea565b61078b8383836117a7565b60095461010090046001600160a01b0316336001600160a01b03161480610b1357506000546001600160a01b031633145b610b6e5760405162461bcd60e51b815260206004820152602660248201527f4f706572617461626c653a2063616c6c6572206973206e6f7420746865206f7060448201526532b930ba37b960d11b60648201526084016106ea565b600e548110610bbf5760405162461bcd60e51b815260206004820152600e60248201527f496e646578206f766572666c6f7700000000000000000000000000000000000060448201526064016106ea565b81600e8281548110610bd357610bd361256f565b6000918252602090912001555050565b61078b8383836040518060200160405280600081525061111f565b60095461010090046001600160a01b0316336001600160a01b03161480610c2f57506000546001600160a01b031633145b610c8a5760405162461bcd60e51b815260206004820152602660248201527f4f706572617461626c653a2063616c6c6572206973206e6f7420746865206f7060448201526532b930ba37b960d11b60648201526084016106ea565b610c96600a8383611f96565b507f23c8c9488efebfd474e85a7956de6f39b17c7ab88502d42a623db2d8e382bbaa82826040516109b3929190612585565b6000818152600360205260408120546001600160a01b0316806105b75760405162461bcd60e51b815260206004820152601860248201527f4552433732313a20696e76616c696420746f6b656e204944000000000000000060448201526064016106ea565b600a8054610d3a90612535565b80601f0160208091040260200160405190810160405280929190818152602001828054610d6690612535565b8015610db35780601f10610d8857610100808354040283529160200191610db3565b820191906000526020600020905b815481529060010190602001808311610d9657829003601f168201915b505050505081565b600e8181548110610dcb57600080fd5b600091825260209091200154905081565b60095461010090046001600160a01b0316336001600160a01b03161480610e0d57506000546001600160a01b031633145b610e685760405162461bcd60e51b815260206004820152602660248201527f4f706572617461626c653a2063616c6c6572206973206e6f7420746865206f7060448201526532b930ba37b960d11b60648201526084016106ea565b600e80546001810182556000919091527fbb7b4a454dc3493923482f07822329ed19e8244eff582cc204f8554c3620c3fd0155565b60006001600160a01b038216610f1b5760405162461bcd60e51b815260206004820152602960248201527f4552433732313a2061646472657373207a65726f206973206e6f74206120766160448201527f6c6964206f776e6572000000000000000000000000000000000000000000000060648201526084016106ea565b506001600160a01b031660009081526004602052604090205490565b610f3f61195b565b610f4960006119b5565b565b60095460009060ff16610fa05760405162461bcd60e51b815260206004820152601960248201527f4d696e74696e6720686173206e6f7420626567756e207965740000000000000060448201526064016106ea565b6040516bffffffffffffffffffffffff19606086901b16602082015260009060340160405160208183030381529060405280519060200120905061101b84848080602002602001604051908101604052809392919081815260200183836020028082843760009201919091525050600c5491508490506116da565b95945050505050565b6060600280546105cc90612535565b61103e338383611a05565b5050565b61104a61195b565b6001600160a01b0381166110a05760405162461bcd60e51b815260206004820152601460248201527f4f70657261746f7220616464726573732065727200000000000000000000000060448201526064016106ea565b600980546001600160a01b038381166101009081027fffffffffffffffffffffff0000000000000000000000000000000000000000ff8416179384905560408051938290048316808552919094049091166020830152917f74da04524d50c64947f5dd5381ef1a4dca5cba8ed1d816243f9e48aa0b5617ed91016109b3565b6111293383611728565b61118c5760405162461bcd60e51b815260206004820152602e60248201527f4552433732313a2063616c6c6572206973206e6f7420746f6b656e206f776e6560448201526d1c881b9bdc88185c1c1c9bdd995960921b60648201526084016106ea565b61119884848484611ad3565b50505050565b60095461010090046001600160a01b0316336001600160a01b031614806111cf57506000546001600160a01b031633145b61122a5760405162461bcd60e51b815260206004820152602660248201527f4f706572617461626c653a2063616c6c6572206973206e6f7420746865206f7060448201526532b930ba37b960d11b60648201526084016106ea565b6009805460ff1916911515919091179055565b606061124882611608565b6000611252611b5c565b90506000815111611272576040518060200160405280600081525061129d565b8061127c84611b6b565b60405160200161128d9291906125b4565b6040516020818303038152906040525b9392505050565b336000908152600f6020908152604080832088845290915290205460ff161561131a5760405162461bcd60e51b815260206004820152602260248201527f5468652073636f7265206f66207461736b20686173206265656e20636c61696d604482015261195960f21b60648201526084016106ea565b61132381610cc8565b6001600160a01b0316336001600160a01b0316146113835760405162461bcd60e51b815260206004820152600e60248201527f4e6f7420796f757220746f6b656e00000000000000000000000000000000000060448201526064016106ea565b6040516bffffffffffffffffffffffff193360601b1660208201526034810185905260009060540160405160208183030381529060405280519060200120905061140f84848080602002602001604051908101604052809392919081815260200183836020028082843760009201919091525050600e80549092508a91508110610a4e57610a4e61256f565b61145b5760405162461bcd60e51b815260206004820152601460248201527f496e76616c6964206d65726b6c652070726f6f6600000000000000000000000060448201526064016106ea565b336000908152600f602090815260408083208984528252808320805460ff19166001179055848352600b9091528120805487929061149a9084906125f9565b9091555050604080513381526020810184905280820187905290517fe2c0a8dc276e4a996290b0dd35eb21c029b201fe4cf6e1595878a7c0e57709bb9181900360600190a1505050505050565b60095461010090046001600160a01b0316336001600160a01b0316148061151857506000546001600160a01b031633145b6115735760405162461bcd60e51b815260206004820152602660248201527f4f706572617461626c653a2063616c6c6572206973206e6f7420746865206f7060448201526532b930ba37b960d11b60648201526084016106ea565b600c55565b61158061195b565b6001600160a01b0381166115fc5760405162461bcd60e51b815260206004820152602660248201527f4f776e61626c653a206e6577206f776e657220697320746865207a65726f206160448201527f646472657373000000000000000000000000000000000000000000000000000060648201526084016106ea565b611605816119b5565b50565b6000818152600360205260409020546001600160a01b03166116055760405162461bcd60e51b815260206004820152601860248201527f4552433732313a20696e76616c696420746f6b656e204944000000000000000060448201526064016106ea565b600081815260056020526040902080546001600160a01b0319166001600160a01b03841690811790915581906116a182610cc8565b6001600160a01b03167f8c5be1e5ebec7d5bd14f71427d1e84f3dd0314c0f7b2291e5b200ac8c7c3b92560405160405180910390a45050565b6000826116e78584611c84565b14949350505050565b60085460015b82811161171a576117128461170a84612611565b935083611cd1565b6001016116f6565b505060088054909101905550565b60008061173483610cc8565b9050806001600160a01b0316846001600160a01b0316148061177b57506001600160a01b0380821660009081526006602090815260408083209388168352929052205460ff165b8061179f5750836001600160a01b03166117948461064f565b6001600160a01b0316145b949350505050565b826001600160a01b03166117ba82610cc8565b6001600160a01b0316146118365760405162461bcd60e51b815260206004820152602560248201527f4552433732313a207472616e736665722066726f6d20696e636f72726563742060448201527f6f776e657200000000000000000000000000000000000000000000000000000060648201526084016106ea565b6001600160a01b0382166118985760405162461bcd60e51b8152602060048201526024808201527f4552433732313a207472616e7366657220746f20746865207a65726f206164646044820152637265737360e01b60648201526084016106ea565b6118a360008261166c565b6001600160a01b03831660009081526004602052604081208054600192906118cc90849061262a565b90915550506001600160a01b03821660009081526004602052604081208054600192906118fa9084906125f9565b909155505060008181526003602052604080822080546001600160a01b0319166001600160a01b0386811691821790925591518493918716917fddf252ad1be2c89b69c2b068fc378daa952ba7f163c4a11628f55a4df523b3ef91a4505050565b6000546001600160a01b03163314610f495760405162461bcd60e51b815260206004820181905260248201527f4f776e61626c653a2063616c6c6572206973206e6f7420746865206f776e657260448201526064016106ea565b600080546001600160a01b038381166001600160a01b0319831681178455604051919092169283917f8be0079c531659141344cd1fd0a4f28419497f9722a3daafe3b4186f6b6457e09190a35050565b816001600160a01b0316836001600160a01b031603611a665760405162461bcd60e51b815260206004820152601960248201527f4552433732313a20617070726f766520746f2063616c6c65720000000000000060448201526064016106ea565b6001600160a01b03838116600081815260066020908152604080832094871680845294825291829020805460ff191686151590811790915591519182527f17307eab39ab6107e8899845ad3d59bd9653f200f220920489ca2b5937696c31910160405180910390a3505050565b611ade8484846117a7565b611aea84848484611e13565b6111985760405162461bcd60e51b815260206004820152603260248201527f4552433732313a207472616e7366657220746f206e6f6e20455243373231526560448201527f63656976657220696d706c656d656e746572000000000000000000000000000060648201526084016106ea565b6060600a80546105cc90612535565b606081600003611b925750506040805180820190915260018152600360fc1b602082015290565b8160005b8115611bbc5780611ba681612611565b9150611bb59050600a83612657565b9150611b96565b60008167ffffffffffffffff811115611bd757611bd76123a3565b6040519080825280601f01601f191660200182016040528015611c01576020820181803683370190505b5090505b841561179f57611c1660018361262a565b9150611c23600a8661266b565b611c2e9060306125f9565b60f81b818381518110611c4357611c4361256f565b60200101907effffffffffffffffffffffffffffffffffffffffffffffffffffffffffffff1916908160001a905350611c7d600a86612657565b9450611c05565b600081815b8451811015611cc957611cb582868381518110611ca857611ca861256f565b6020026020010151611f6a565b915080611cc181612611565b915050611c89565b509392505050565b6001600160a01b038216611d275760405162461bcd60e51b815260206004820181905260248201527f4552433732313a206d696e7420746f20746865207a65726f206164647265737360448201526064016106ea565b6000818152600360205260409020546001600160a01b031615611d8c5760405162461bcd60e51b815260206004820152601c60248201527f4552433732313a20746f6b656e20616c7265616479206d696e7465640000000060448201526064016106ea565b6001600160a01b0382166000908152600460205260408120805460019290611db59084906125f9565b909155505060008181526003602052604080822080546001600160a01b0319166001600160a01b03861690811790915590518392907fddf252ad1be2c89b69c2b068fc378daa952ba7f163c4a11628f55a4df523b3ef908290a45050565b60006001600160a01b0384163b15611f5f57604051630a85bd0160e11b81526001600160a01b0385169063150b7a0290611e5790339089908890889060040161267f565b6020604051808303816000875af1925050508015611e92575060408051601f3d908101601f19168201909252611e8f918101906126bb565b60015b611f45573d808015611ec0576040519150601f19603f3d011682016040523d82523d6000602084013e611ec5565b606091505b508051600003611f3d5760405162461bcd60e51b815260206004820152603260248201527f4552433732313a207472616e7366657220746f206e6f6e20455243373231526560448201527f63656976657220696d706c656d656e746572000000000000000000000000000060648201526084016106ea565b805181602001fd5b6001600160e01b031916630a85bd0160e11b14905061179f565b506001949350505050565b6000818310611f8657600082815260208490526040902061129d565b5060009182526020526040902090565b828054611fa290612535565b90600052602060002090601f016020900481019282611fc4576000855561200a565b82601f10611fdd5782800160ff1982351617855561200a565b8280016001018555821561200a579182015b8281111561200a578235825591602001919060010190611fef565b5061201692915061201a565b5090565b5b80821115612016576000815560010161201b565b6001600160e01b03198116811461160557600080fd5b60006020828403121561205757600080fd5b813561129d8161202f565b60005b8381101561207d578181015183820152602001612065565b838111156111985750506000910152565b600081518084526120a6816020860160208601612062565b601f01601f19169290920160200192915050565b60208152600061129d602083018461208e565b6000602082840312156120df57600080fd5b5035919050565b80356001600160a01b03811681146120fd57600080fd5b919050565b6000806040838503121561211557600080fd5b61211e836120e6565b946020939093013593505050565b60008083601f84011261213e57600080fd5b50813567ffffffffffffffff81111561215657600080fd5b6020830191508360208260051b850101111561217157600080fd5b9250929050565b6000806020838503121561218b57600080fd5b823567ffffffffffffffff8111156121a257600080fd5b6121ae8582860161212c565b90969095509350505050565b6000806000806000608086880312156121d257600080fd5b6121db866120e6565b94506020860135935060408601359250606086013567ffffffffffffffff81111561220557600080fd5b6122118882890161212c565b969995985093965092949392505050565b60008060006060848603121561223757600080fd5b612240846120e6565b925061224e602085016120e6565b9150604084013590509250925092565b6000806040838503121561227157600080fd5b50508035926020909101359150565b6000806020838503121561229357600080fd5b823567ffffffffffffffff808211156122ab57600080fd5b818501915085601f8301126122bf57600080fd5b8135818111156122ce57600080fd5b8660208285010111156122e057600080fd5b60209290920196919550909350505050565b60006020828403121561230457600080fd5b61129d826120e6565b60008060006040848603121561232257600080fd5b61232b846120e6565b9250602084013567ffffffffffffffff81111561234757600080fd5b6123538682870161212c565b9497909650939450505050565b803580151581146120fd57600080fd5b6000806040838503121561238357600080fd5b61238c836120e6565b915061239a60208401612360565b90509250929050565b634e487b7160e01b600052604160045260246000fd5b600080600080608085870312156123cf57600080fd5b6123d8856120e6565b93506123e6602086016120e6565b925060408501359150606085013567ffffffffffffffff8082111561240a57600080fd5b818701915087601f83011261241e57600080fd5b813581811115612430576124306123a3565b604051601f8201601f19908116603f01168101908382118183101715612458576124586123a3565b816040528281528a602084870101111561247157600080fd5b82602086016020830137600060208483010152809550505050505092959194509250565b6000602082840312156124a757600080fd5b61129d82612360565b6000806000806000608086880312156124c857600080fd5b8535945060208601359350604086013567ffffffffffffffff8111156124ed57600080fd5b6124f98882890161212c565b96999598509660600135949350505050565b6000806040838503121561251e57600080fd5b612527836120e6565b915061239a602084016120e6565b600181811c9082168061254957607f821691505b60208210810361256957634e487b7160e01b600052602260045260246000fd5b50919050565b634e487b7160e01b600052603260045260246000fd5b60208152816020820152818360408301376000818301604090810191909152601f909201601f19160101919050565b600083516125c6818460208801612062565b8351908301906125da818360208801612062565b01949350505050565b634e487b7160e01b600052601160045260246000fd5b6000821982111561260c5761260c6125e3565b500190565b600060018201612623576126236125e3565b5060010190565b60008282101561263c5761263c6125e3565b500390565b634e487b7160e01b600052601260045260246000fd5b60008261266657612666612641565b500490565b60008261267a5761267a612641565b500690565b60006001600160a01b038087168352808616602084015250836040830152608060608301526126b1608083018461208e565b9695505050505050565b6000602082840312156126cd57600080fd5b815161129d8161202f56fea164736f6c634300080d000a",
  "linkReferences": {},
  "deployedLinkReferences": {}
}